:100000000C949C030C94C4030C94C4030C94C4037C
:100010000C94C4030C94C4030C94C4030C94C40344
:100020000C94C4030C94C4030C94C4030C94C40334
:100030000C94C4030C94C4030C94C4030C94C40324
:100040000C9418140C94C4030C944F0E0C94C40319
:100050000C94C4030C94C4030C94C4030C94C40304
:100060000C9470200C94C4031221C020C020C02026
:10007000C020C020C020C0201C21C020C020C02023
:10008000C020C020C020C0201C21C020C020C02013
:10009000C020C020C020C0202421C020C020C020FB
:1000A000C020C020C020C0203321C020C020C020DC
:1000B000C020C020C020C0202421C020C020C020DB
:1000C000C020C020C020C0205E21C020C020C02091
:1000D000C020C020C020C0206921C020C020C02076
:1000E000C020C020C020C020E620C020C020C020EA
:1000F000C020C020C020C020F920C020C020C020C7
:10010000C020C020C020C020DA20C020C020C020D5
:10011000C020C020C020C020ED20C020C020C020B2
:10012000C020C020C020C0200921C020C020C02085
:10013000C020C020C020C0200921C020C020C02075
:10014000C020C020C020C0200921C020C020C02065
:10015000C020C020C020C0200921C020C020C02055
:10016000C020C020C020C020D120C020C020C0207E
:10017000C020C020C020C020D620C020C020C02069
:10018000C020C020C020C020D120C020C020C0205E
:10019000C020C020C020C020D620C020C020C02049
:1001A000C020C020C020C0203E21C020C020C020D0
:1001B000C020C020C020C0209620C020C020C02069
:1001C000C020C020C020C0209620C020C020C02059
:1001D000C020C020C020C020AB20C020C020C02034
:1001E000C020C020C020C0200321C020C020C020CB
:1001F000C020C020C020C0200321072C7AA5BA6CE3
:10020000C590DA3B9365FC8BBC53F810FD3C5692CD
:10021000834DBD879D3AB63DCBC9BF5BBE73DA0F38
:10022000C93F05A84CCDB2D44EB93836A9020C50FE
:10023000B9918688083CA6AAAA2ABE000000803F81
:100240004B4A4A494948484747464645444444433F
:10025000434242414140403F3F3F3E3E3D3D3D3CA9
:100260003C3B3B3B3A3A3A393939383838373737FB
:10027000363636353535343434343333333232323E
:100280003231313131303030302F2F2F2F2E2E2E72
:100290002E2E2D2D2D2D2C2C2C2C2C2B2B2B2B2B9B
:1002A0002A2A2A2A2A2A29292929292828282828BD
:1002B00028272727272727262626262626262525D8
:1002C00025252525252424242424242423232323ED
:1002D00023232323222222222222222221212121FE
:1002E00021212121212020202020202020201F1F0B
:1002F0001F1F1F1F1F1F1F1F1E1E1E1E1E1E1E1E16
:100300001E1E1D1D1D1D1D1D1D1D1D1D1D1C1C1C1E
:100310001C1C1C1C1C1C1C1C1C1B1B1B1B1B1B1B24
:100320001B1B1B1B1B1B1A1A1A1A1A1A1A1A1A1A27
:100330001A1A1A1A19191919191919191919191929
:10034000191919181818181818181818181818182A
:100350001818181817171717171717171717171729
:100360001717171717161616161616161616161628
:100370001616161616161616161515151515151524
:10038000151515151515151515151515151514141F
:10039000141414141414141414141414141414141D
:1003A0001414141414141313131313131313131317
:1003B000131313131313131313131313131313130D
:1003C000121212121212121212121212121212120D
:1003D0001212121212121212121212121211111100
:1003E00011111111111111111111111111111111FD
:1003F00011111111111111111111111111111010EF
:1004000010101010101010101010101010101010EC
:1004100010101010101010101010101010101010DC
:100420001010100F0F0F0F0F0F0F0F0F0F0F0F0FD9
:100430000F0F0F0F0F0F0F0F0F0F0F0F0F0F0F0FCC
:100440000F0F0F0F0F0F0F0F0F0F0F0F0F0E0E0EBF
:100450000E0E0E0E0E0E0E0E0E0E0E0E0E0E0E0EBC
:100460000E0E0E0E0E0E0E0E0E0E0E0E0E0E0E0EAC
:100470000E0E0E0E0E0E0E0E0E0E0E0E0E0D0D0D9F
:100480000D0D0D0D0D0D0D0D0D0D0D0D0D0D0D0D9C
:100490000D0D0D0D0D0D0D0D0D0D0D0D0D0D0D0D8C
:1004A0000D0D0D0D0D0D0D0D0D0D0D0D0D0D0D0D7C
:1004B0000D0D0D0D0D0C0C0C0C0C0C0C0C0C0C0C77
:1004C0000C0C0C0C0C0C0C0C0C0C0C0C0C0C0C0C6C
:1004D0000C0C0C0C0C0C0C0C0C0C0C0C0C0C0C0C5C
:1004E0000C0C0C0C0C0AFEFDFCFBFAF8F7F6F5F40C
:1004F000F3F2F0EFEEEDECEBEAE9E8E7E6E5E4E352
:10050000E2E1E0DFDEDDDDDCDBDAD9D8D7D6D5D538
:10051000D4D3D2D1D0D0CFCECDCCCCCBCAC9C9C800
:10052000C7C6C6C5C4C3C3C2C1C1C0BFBFBEBDBCB0
:10053000BCBBBBBAB9B9B8B7B7B6B5B5B4B4B3B24A
:10054000B2B1B1B0AFAFAEAEADADACABABAAAAA9D4
:10055000A9A8A8A7A7A6A6A5A5A4A4A3A3A2A2A14B
:10056000A1A0A09F9F9E9E9D9D9C9C9B9B9B9A9AB9
:10057000999998989797979696959594949493931C
:1005800092929291919090908F8F8F8E8E8D8D8D73
:100590008C8C8C8B8B8A8A8A8989898888888787C2
:1005A0008786868685858584848483838382828208
:1005B0008181818080807F7F7F7F7E7E7E7D7D7D4B
:1005C0007C7C7C7C7B7B7B7A7A7A7A797979797886
:1005D00078787777777776767676757575757474BB
:1005E00074747373737372727272717171717070EB
:1005F00070706F6F6F6F6F6E6E6E6E6D6D6D6D6C18
:100600006C6C6C6C6B6B6B6B6B6A6A6A6A69696940
:100610006969686868686867676767676666666665
:100620006665656565656464646464646363636387
:1006300063626262626262616161616160606060A6
:1006400060605F5F5F5F5F5F5E5E5E5E5E5E5D5DC2
:100650005D5D5D5D5C5C5C5C5C5C5C5B5B5B5B5BDB
:100660005B5A5A5A5A5A5A5A5959595959595858F3
:100670005858585858575757575757575656565609
:10068000565656555555555555555554545454541C
:10069000545453535353535353535252525252522E
:1006A000525251515151515151515050505050503E
:1006B00050504F4F4F4F4F4F4F4F4F4E4E4E4E4E4D
:1006C0004E4E4E4E4D4D4D4D4D4D4D4D4D4C4C4C59
:1006D0004C4C4C4C4C4C00000000240027002A00DD
:1006E00000000000250028002B000000000023006F
:1006F0002600290004040404040404040202020283
:1007000002020303030303030102040810204080D4
:100710000102040810200102040810200000000754
:1007200000020100000304060000000000000000B9
:1007300027045309E20F2C0411241FBECFEFD8E089
:10074000DEBFCDBF12E0A0E0B1E0E2E0F3E602C020
:1007500005900D92A43AB107D9F717E0A4EAB2E0E8
:1007600001C01D92A035B107E1F717E0C6E3D7E05D
:1007700004C02297FE010E944829C033D107C9F75F
:100780000E94C6030C9474310C9400000E94CA1499
:1007900089E796E040E051EE60E070E00E94E40EF0
:1007A00080E00E94051584EA92E00E94840489E7B3
:1007B00096E060E071E00E94EF1188EA92E063E069
:1007C0000E9403069093F0058093EF0589E796E079
:1007D0006BE071E00E945B106091EF057091F00595
:1007E00089E796E04AE050E00E94D01164EF71E0A2
:1007F00080E090E00E949514E0CF8130910501F5F2
:1008000084EA92E00E94CE041092A9021092A802FB
:100810008AEA92E063E041E00E944B0D8CEA92E0AC
:1008200064E041E00E944B0D8EEA92E068EC70E0DB
:1008300041E00E94470C8EEE95E00E94500808951A
:10084000009721F48EEE95E00E945208089581E011
:1008500090E00E94FD03089580E090E00E94FD0377
:100860000895FC01828193810895EF92FF920F9386
:100870001F93CF93DF93EC018C01698170E06E7F51
:1008800070707E019F2D0E940913CE0163E470E019
:100890000E949913CE010E94D613EE24FF248DE00E
:1008A00061E00E94F01564EF71E080E090E00E944A
:1008B00095148DE060E00E94F01564EF71E080E037
:1008C00090E00E9495140894E11CF11C24E1E216CA
:1008D000F10429F7698170E06E7F7070C8010E9491
:1008E0000913C80165E470E00E949913C8010E94D1
:1008F000D6138DE060E00E94F015DF91CF911F913B
:100900000F91FF90EF900895EF92FF920F931F9336
:10091000CF93DF93EC018DE061E00E94F0158E0132
:10092000CE0169810E94FF12CE0161E470E00E9455
:100930009913CE010E94D61366E070E080E090E04B
:100940000E9495146981CE0170E042E050E00E945F
:10095000F313C8010E9413138823D9F3C8010E941E
:100960001913F82EC8010E9413138823D9F3C80164
:100970000E9419133F2D20E0082F10E0022B132BAB
:100980001B830A838DE060E00E94F015C801DF91AF
:10099000CF911F910F91FF90EF900895EF92FF92EA
:1009A000CF93DF93EC017E019F2D0E94FE1281E226
:1009B00089838DE061E00E949E158DE061E00E94D8
:1009C000F015CE010E94F6138DE060E00E94F01554
:1009D000DF91CF91FF90EF900895EF92FF92CF9328
:1009E000DF93EC017E019F2D0E94FE1281E289833C
:1009F0008DE061E00E949E158DE061E00E94F0159F
:100A0000CE010E94F6138DE060E00E94F015DF91A8
:100A1000CF91FF90EF9008959F92AF92BF92CF92A7
:100A2000DF92EF92FF920F931F93CF93DF9380E0BB
:100A300090E0F801E80FF91F11821082F901E80F28
:100A4000F91F1182108202968A30910591F7C0E059
:100A5000D0E080E090E0A0E0B0E099247A01E80ED8
:100A6000F91EF701C080D1807B01E80EF91EF70165
:100A7000E080F180EC18FD08F5E6EF16F10410F4C3
:100A8000992435C0E3E0E91588F57D01EE0CFF1CE3
:100A90005901AE0CBF1CF501D182C082E00EF11EDF
:100AA000F701D183C0831196A530B105F9F480E038
:100AB000282F30E0F9013196EE0FFF1FE00FF11FF4
:100AC00040815181F901EE0FFF1FE00FF11F2081DE
:100AD00031812417350710F085E004C0421B530B09
:100AE000518340838F5F853018F308C0939402963A
:100AF0006296F1E080399F0709F0B0CFDF91CF9186
:100B00001F910F91FF90EF90DF90CF90BF90AF902B
:100B10009F9008950F931F93CF93DF93EC01683C50
:100B200018F0413009F447C0442309F444C08881D7
:100B30009981062F10E080179107BCF01CC08EEA47
:100B400092E061E041E00E948909688179816F5FEC
:100B50007F4F798368838EEE95E00E945B086AE0A0
:100B600070E080E090E00E94951488819981801760
:100B7000910729F720C008171907C4F01CC08EEA96
:100B800092E062E041E00E948909888199810197A1
:100B9000998388836AE070E080E090E00E94951479
:100BA000688179818EEE95E00E945B088881998149
:100BB0008017910721F78881DF91CF911F910F91C5
:100BC0000895EF92FF920F931F93CF93DF93F62E2A
:100BD00000E010E0C0E0D0E08F2D0E9408150F5F0C
:100BE0001F4F8C1B9D0BB8010E94DA28C60FD71F20
:100BF0000436110589F7CE01DF91CF911F910F9136
:100C0000FF90EF900895CF92DF92EF92FF920F93B3
:100C10001F93CF93DF938C0163E070E00E94E105A6
:100C2000E82EE7017E01F92EE701C80162E070E0DD
:100C30000E94E1058C0133E08533930718F004E14D
:100C400010E00DC08039910518F406E910E007C0E6
:100C500000551E4FF801049110E0000F111FF2E043
:100C6000CB3DDF0718F0C4E6D0E00EC0CA3ED10588
:100C700018F4CCECD1E008C0C450DC4FFE018491E4
:100C8000C82FD0E0CC0FDD1FC8016AEA70E00E94D7
:100C9000C62880E090E00E94592620E030E048EC31
:100CA00052E40E947323C62ED72EE82EF92E20E0A0
:100CB00030E0A9010E941925181624F0F7FAF094E3
:100CC000F7F8F094C701B60120E030E0A9010E94D6
:100CD0001925181634F40436110539F4C4E6D0E0A9
:100CE00004C00639110509F0E801CE01DF91CF916A
:100CF0001F910F91FF90EF90DF90CF900895AF92EA
:100D0000BF92CF92DF92FF920F931F93CF93DF9307
:100D1000EC018B016A01FF241DC0CE0163E00E943B
:100D20000306F501EE0FFF1FE00FF11F9183808393
:100D3000CE0160E040E00E948A05682F6F5FCE011F
:100D400041E00E948A0564E670E080E090E00E9445
:100D50009514F394AF2CBB24AC14BD04F0F2CE0177
:100D600060E041E00E948A05DF91CF911F910F91D1
:100D7000FF90DF90CF90BF90AF9008958AEA92E005
:100D800064E00E94B60B8CEA92E064E00E94B60B2D
:100D90000895CF93DF93EB018AEA92E06DE70E941A
:100DA0001D098CEA92E06DE70E941D098AEA92E033
:100DB00061E00E94B60B8CEA92E061E00E94B60B03
:100DC000209779F0BE0180E090E00E9495148AEAB5
:100DD00092E064E00E94B60B8CEA92E064E00E942C
:100DE000B60BDF91CF910895CF93DF93EB0102C053
:100DF000C051DE408EE0C031D807D0F78CEA92E0D7
:100E000066E90E941D098AEA92E066E90E941D09CE
:100E10008CEA92E061E00E94B60B8AEA92E062E01E
:100E20000E94B60B84EA92E00E9484049C01C817D9
:100E3000D90731F0CE01821B930B8333910590F7D4
:100E40008AEA92E064E00E94B60B8CEA92E064E0E9
:100E50000E94B60BDF91CF9108952F923F924F924F
:100E60005F926F927F928F929F92AF92BF92CF923A
:100E7000DF92EF92FF920F931F93DF93CF93CDB743
:100E8000DEB72A970FB6F894DEBF0FBECDBF5B0169
:100E90005A8349831E830D83F886EF82223008F43B
:100EA00022E0022F10E0C8010197880F991F9A874E
:100EB0008987FC01EA0DFB1D6081718180E090E073
:100EC0000E9459266B017C01F8013297EE0FFF1F3B
:100ED000EA0DFB1D6081718180E090E00E9459263F
:100EE0008B01B82EA92E6C2D7D2D8E2D9F2D2C2D96
:100EF0003D2D4E2D5F2D0E947323662E972E882E3A
:100F0000792E9501602F712F832F922FF501202FBD
:100F1000312F4F2F5E2F0E947323562E472E382ECF
:100F2000292EA985BA85E981FA81AE0FBF1F6D917F
:100F30007C9180E090E00E9459262BED3FE049E44F
:100F400050E40E94732320E030E044E353E40E9425
:100F50006B240E94BA2969837A838B839C83462DF4
:100F6000592D682D772DCB01BA01D201F1012B2F1C
:100F70003A2F4F2F5E2F0E9446233B014C019501D3
:100F8000602F712F832F922F20E030E040E050EC53
:100F90000E9473232C2D3D2D4E2D5F2D0E94732317
:100FA00029813A814B815C810E9473239B01AC01B2
:100FB000C401B3010E9446230E94EC2A0E94992199
:100FC000ED81FE817183608380E090E00E9459266C
:100FD0003B014C01A40193010E947323562F472F1C
:100FE000382F292FD201F1016B2F7A2F8F2F9E2FAF
:100FF000DA01F9012B2F3A2F4F2F5E2F0E94462343
:101000001B012C016C2D7D2D8E2D9F2DA70196018E
:101010000E9473239B01AC01C201B1010E94152300
:101020006B017C019501602F712F832F922FF501A9
:10103000202F312F4F2F5E2F0E944623A4019301B2
:101040000E9473239B01AC01C701B6010E946B246F
:101050000E944C2920EE3EE245E652E40E947323B2
:101060000E949921EF81F885718360832A960FB6DB
:10107000F894DEBF0FBECDBFCF91DF911F910F91CE
:10108000FF90EF90DF90CF90BF90AF909F908F90A8
:101090007F906F905F904F903F902F9008950895AC
:1010A00008950895089508950895089589E796E0AC
:1010B0000E94EF110895EF92FF920F931F93CF9329
:1010C000DF938B0180E490E061E070E00E94502BA0
:1010D000E82EE7017E01F92EE114F10429F100D098
:1010E00000D000D0EDB7FEB73196ADB7BEB71296BF
:1010F000FC92EE92119785E291E0938382831583AF
:1011000004830E94C52E2DB73EB72A5F3F4F0FB60E
:10111000F8943EBF0FBE2DBF89E796E0B7010E944D
:10112000EF11C7010E94172CDF91CF911F910F91F2
:10113000FF90EF900895EF92FF920F931F93CF933C
:10114000DF938B0180E490E061E070E00E94502B1F
:10115000E82EE7017E01F92EE114F10429F100D017
:1011600000D000D0EDB7FEB73196ADB7BEB712963E
:10117000FC92EE92119786E391E09383828315832C
:1011800004830E94C52E2DB73EB72A5F3F4F0FB68E
:10119000F8943EBF0FBE2DBF89E796E0B7010E94CD
:1011A000EF11C7010E94172CDF91CF911F910F9172
:1011B000FF90EF900895EF92FF920F931F93CF93BC
:1011C000DF938B0180E490E061E070E00E94502B9F
:1011D000E82EE7017E01F92EE114F10429F100D097
:1011E00000D000D0EDB7FEB73196ADB7BEB71296BE
:1011F000FC92EE92119787E491E0938382831583AA
:1012000004830E94C52E2DB73EB72A5F3F4F0FB60D
:10121000F8943EBF0FBE2DBF89E796E0B7010E944C
:10122000EF11C7010E94172CDF91CF911F910F91F1
:10123000FF90EF90089508950895FC018081823019
:1012400071F0833028F0833069F0843031F00895F4
:101250008130E9F76093B300089568BD0895609305
:10126000B400089567BD0895CF93DF93EC018881A2
:101270009981689F9001699F300D789F300D1124EE
:1012800040E050E060E077E883E993E00E94ED28D9
:101290002B833C834D835E831F82188619861A86B2
:1012A000DF91CF9108950895CF93DF938CE060E0B4
:1012B0000E94F01588E060E00E94F015C7E0D0E0E1
:1012C0000DC088E061E00E94F01584E061E00E94BA
:1012D000F01521973FEFCF3FD307A1F084E060E006
:1012E0000E94F0158091F40590E00C2E02C09595B7
:1012F00087950A94E2F780FDE4CF88E060E00E94E1
:10130000F015E3CF8CE061E00E94F015DF91CF9102
:101310000895DF92EF92FF920F931F93CF93DF9385
:10132000EC018A81813009F471C0823049F080E09B
:10133000DF91CF911F910F91FF90EF90DF90089573
:101340002EE191E2D92E30E450E8E1E0F0E24130C4
:1013500001F1423009F495C0433009F4A2C09B85E5
:10136000443021F5613009F4F3C091509B879F739D
:101370009B87903108F099C0092F10E063E671E077
:10138000601B710BDB017C910D5A1E4FD8016C91D3
:101390000FC09B85792F76957695769570FF9BC0CB
:1013A000613009F4DCC098509B879B857FEF6FEF1D
:1013B0009F739B87813009F45FC0823009F46EC04F
:1013C0008091F40582238093F405443091F1969541
:1013D00096959695943009F4AFC09530F8F0963014
:1013E00009F4AEC0963008F087C0352B382B309307
:1013F000F40583EF95E00E9454098B85DF91CF912E
:101400001F910F91FF90EF90DF90089521EE36E04D
:10141000D32E30E158E0E2E0F4E099CF923009F4C5
:1014200093C0933008F462C05E2B582B5093F405A0
:10143000E0CF903118F48D298093F405892F8051E5
:10144000803130F4E52B2091F4052E2B2093F40508
:10145000892F8052803130F4532B2091F405252BB5
:101460002093F4059053903120F63F2B9091F40592
:10147000932B9093F405BDCF7093B3006093B400A9
:101480009FCF9B85792F76957695769570FD29C0AF
:10149000613009F447C098509B8788CF77BD68BDFD
:1014A0008FCF6130F1F19B85F6CF692F60516031AC
:1014B00050F1692F6052603108F055C0092F10E0DB
:1014C00063E871E0601B710BDB017C910D5C1E4FCA
:1014D000D8016C916DCF6130F1F190519B879B8564
:1014E00065CF613011F190519B8760CF913001F150
:1014F0008F2B8093F4057DCF9730D1F73F2B382B7E
:101500003093F40576CFE92EFF24B7016D5B7E4F53
:10151000DB017C9103E711E00E191F09D8016C91E2
:1015200047CF9B85985F9B8741CF905F9B873ECF3E
:101530008D298093F4055DCF852B8093F40559CFD9
:10154000832B8093F40555CF8E2B8093F40551CFD8
:101550009F5F9B870CCF905F9B879B8527CF985F72
:101560009B879B8523CF692F6053603118F070E013
:1015700060E01ECFE92EFF24B7016D5D7E4FDB01D9
:101580007C9103E911E00E191F09D8016C9110CF6D
:101590005F926F927F928F929F92AF92BF92CF9203
:1015A000DF92EF92FF920F931F93CF93DF93EC01A3
:1015B0008B01542EF22E8B809C80AD80BE8023E068
:1015C000F21609F4A5C084E0F81609F4A6C0C50116
:1015D000B40128EE33E040E050E00E94ED28722E86
:1015E000C32ED42EE52EC501B40128EE33E040E031
:1015F00050E00E94ED284B015C01662402C00150BE
:1016000010400115110599F1CE01652D4F2D0E9455
:101610008909682E672D7C2D8D2D9E2D0E94951495
:101620008F819885A985BA85880D991DAA1DBB1D36
:101630008F839887A987BA87883E23E0920720E0A6
:10164000A20720E0B207D8F261E070E080E090E00D
:101650000E9495148F819885A985BA85885E9340EC
:10166000A040B0408F839887A987BA87C8CF84E00D
:10167000F81681F0DF91CF911F910F91FF90EF90BD
:10168000DF90CF90BF90AF909F908F907F906F90A2
:101690005F900895662071F320E1621619F4EACF95
:1016A000003141F3CE01652D44E00E948909082FE5
:1016B000672D7C2D8D2D9E2D0E9495148F819885F0
:1016C000A985BA85880D991DAA1DBB1D8F83988792
:1016D000A987BA87883E23E0920720E0A20720E08E
:1016E000B20790F061E070E080E090E00E94951415
:1016F0008F819885A985BA85885E9340A040B040C7
:101700008F839887A987BA87002309F4B3CFC8CFFE
:10171000B694A794979487945ACF54E0B694A7941C
:10172000979487945A95D1F702951295107F1027B8
:10173000007F10274CCFFC018281813069F082301C
:1017400009F008958091F4058E718093F40583EF7C
:1017500095E00E94540908958091F405817E80935C
:10176000F40583EF95E00E9454090895FC018081FF
:10177000823009F46AC0833030F0833009F462C0EB
:10178000843039F108958130E9F783E092E06230E6
:1017900021F1643009F43BC06130A1F721E030E071
:1017A000A90102C0440F551F8A95E2F7842F809546
:1017B000A90102C0440F551F9A95E2F72091F40544
:1017C000242B82238093F40583EF95E00E94540933
:1017D000089586E090E06230E1F621E030E0A90172
:1017E00002C0440F551F9A95E2F7942F90954091AF
:1017F000F405942302C0220F331F8A95E2F7922B3F
:101800009093F40583EF95E00E945409089521E038
:1018100030E0A90102C0440F551F9A95E2F7B901C3
:1018200002C0660F771F8A95E2F7CB01842B809563
:101830002091F40528232093F40583EF95E00E947E
:101840005409089587E095E0A2CF84E091E09FCF0E
:10185000CF93DF93EC018CE061E00E949E1587E05E
:1018600061E00E949E1588E061E00E949E1584E080
:1018700061E00E949E151092F405CE010E94540969
:1018800087E060E00E94F015DF91CF910895EF921C
:10189000FF921F93CF93DF93EC017B01142F83EF13
:1018A00095E00E94280CF982E8821A831B86113089
:1018B000D1F1123031F0DF91CF911F91FF90EF9075
:1018C00008958091F4058E718093F40583EF95E07F
:1018D0000E94540985E061E00E949E1586E061E067
:1018E0000E949E1585E061E00E94F01586E061E0AF
:1018F0000E94F01584B5836884BD17BC86E061E062
:101900000E949E1584B5836284BD18BC85E061E0A9
:101910000E949E158FEF87BD88BDDF91CF911F91EB
:10192000FF90EF9008958091F405817E8093F405F7
:1019300083EF95E00E9454098BE061E00E949E15C0
:1019400083E061E00E949E158BE061E00E94F0154B
:1019500083E061E00E94F0158091B000836880937D
:10196000B0001093B1001092B3008BE061E00E94D0
:101970009E158091B00083628093B0001093B100F7
:101980001092B40083E061E00E949E158FEF809377
:10199000B3008093B4008FCF1F93DF93CF930F9248
:1019A000CDB7DEB7FC01142F6083418383EF95E050
:1019B00069830E94280C6981623009F450C0633049
:1019C000F0F46130B9F48091F405837F8093F405DD
:1019D00083EF95E00E9454098091B0008368809362
:1019E000B00017701093B1001092B3008BE061E06B
:1019F0000E949E150F90CF91DF911F910895633043
:101A0000C1F06430B9F78091F4058E7B8093F405C2
:101A100083EF95E00E94540984B5836284BD18BCAD
:101A200085E061E00E949E150F90CF91DF911F919C
:101A300008958091F4058F758093F40583EF95E008
:101A40000E94540984B5836884BD17BC86E061E0B8
:101A50000E949E150F90CF91DF911F910895809164
:101A6000F4058D7E8093F40583EF95E00E94540980
:101A70008091B00083628093B00017701093B10022
:101A80001092B40083E061E00E949E150F90CF9108
:101A9000DF911F9108951F93DF93CF930F92CDB7DE
:101AA000DEB7FC01142F6083418383EF95E06983E7
:101AB0000E94280C6981623009F450C06330F0F450
:101AC0006130B9F48091F405837F8093F40583EF4E
:101AD00095E00E9454098091B00083688093B00023
:101AE00017701093B1001092B3008BE061E00E9478
:101AF0009E150F90CF91DF911F9108956330C1F033
:101B00006430B9F78091F4058E7B8093F40583EF00
:101B100095E00E94540984B5836284BD18BC85E0B9
:101B200061E00E949E150F90CF91DF911F91089563
:101B30008091F4058F758093F40583EF95E00E9402
:101B4000540984B5836884BD17BC86E061E00E94B7
:101B50009E150F90CF91DF911F9108958091F4050C
:101B60008D7E8093F40583EF95E00E945409809167
:101B7000B00083628093B00017701093B100109290
:101B8000B40083E061E00E949E150F90CF91DF9139
:101B90001F910895EF92FF921F93CF93DF93EC0173
:101BA0007B01142F83EF95E00E94280CF982E882D4
:101BB0001A831B861130D1F1123031F0DF91CF91B1
:101BC0001F91FF90EF9008958091F4058E7180939E
:101BD000F40583EF95E00E94540985E061E00E94DE
:101BE0009E1586E061E00E949E1585E061E00E94FE
:101BF000F01586E061E00E94F01584B5836884BD2D
:101C000017BC86E061E00E949E1584B5836284BDA6
:101C100018BC85E061E00E949E158FEF87BD88BDEE
:101C2000DF91CF911F91FF90EF9008958091F4057F
:101C3000817E8093F40583EF95E00E9454098BE048
:101C400061E00E949E1583E061E00E949E158BE09A
:101C500061E00E94F01583E061E00E94F015809140
:101C6000B00083688093B0001093B1001092B3006D
:101C70008BE061E00E949E158091B00083628093AA
:101C8000B0001093B1001092B40083E061E00E94B4
:101C90009E158FEF8093B3008093B4008FCF1F9277
:101CA0000F920FB60F9211242F933F934F935F9390
:101CB0006F938F939F93EF93FF936091C600209152
:101CC000750630917606C90101968F779070409124
:101CD0007706509178068417950741F02B503A4FBC
:101CE000F90160839093760680937506FF91EF91DA
:101CF0009F918F916F915F914F913F912F910F9095
:101D00000FBE0F901F9018958F92AF92CF92DF92D7
:101D1000EF92FF920F931F93DF93CF93CDB7DEB770
:101D2000FC0188E691E0918380837383628355830D
:101D300044833783268311870087F386E286D5861E
:101D4000C486A68687868D85808B8E85818B8F85C0
:101D5000828BCF91DF911F910F91FF90EF90DF90D9
:101D6000CF90AF908F9008958F92AF92CF92DF92E5
:101D7000EF92FF920F931F93DF93CF93CDB7DEB710
:101D8000FC0188E691E091838083738362835583AD
:101D900044833783268311870087F386E286D586BE
:101DA000C486A68687868D85808B8E85818B8F8560
:101DB000828BCF91DF911F910F91FF90EF90DF9079
:101DC000CF90AF908F900895CF93DF93EC019A015D
:101DD000AB01203081EE380780E0480780E05807EB
:101DE00009F448C0E885F98581E090E00A8802C0DE
:101DF000880F991F0A94E2F7808360E079E08DE311
:101E000090E00E94ED2821503040404050405695CF
:101E1000479537952795832FEC81FD818083EE814F
:101E2000FF812083EA85FB85808121E030E0A901E4
:101E30000E8402C0440F551F0A94E2F7842B80835E
:101E4000EA85FB858081A9010F8402C0440F551FDC
:101E50000A94E2F7842B8083EA85FB8580810888D9
:101E600002C0220F331F0A94E2F7822B8083DF9196
:101E7000CF910895E885F985108220E180E0CCCFEC
:101E8000FC01A285B3853C9181E090E0AC01068421
:101E900002C0440F551F0A94E2F7242F20952323F4
:101EA0002C93A285B3853C91AC01078402C0440FFA
:101EB000551F0A94E2F7242F209523232C93A28503
:101EC000B3852C91008802C0880F991F0A94E2F70D
:101ED000809582238C930895FC0182819381FC017B
:101EE000E058FF4F208131818E579F4FFC01808148
:101EF0009181281B390B2F773070C9010895FC019F
:101F000082819381FC01EE57FF4F20813181FC01DA
:101F1000E058FF4F408151814217530739F0820F3B
:101F2000931FFC01208130E0C90108952FEF3FEF9E
:101F3000C9010895DC0112968D919C911397FC01C3
:101F4000EE57FF4F40815181DC01A058BF4F2D91CA
:101F50003C9111972417350769F0840F951FDC0118
:101F60002C914F5F5F4F4F7750705183408330E02B
:101F7000C90108952FEF3FEFC9010895DC011296C2
:101F80008D919C911397FC01E058FF4F8E579F4F06
:101F9000DC018D919C911197918380830895FC01C0
:101FA000A085B18521898C9190E0022E02C0959583
:101FB00087950A94E2F780FFF6CF0484F585E02D3B
:101FC0006083089588E691E090937A06809379067D
:101FD00085EF95E090937C0680937B0685EC90E0FE
:101FE00090937E0680937D0684EC90E0909380062B
:101FF00080937F0680EC90E0909382068093810628
:1020000081EC90E0909384068093830686EC90E0C8
:10201000909386068093850684E08093870683E00C
:102020008093880687E08093890685E080938A06FE
:1020300081E080938B0608950F931F93CF93DF93D6
:10204000EC018B01FB016081662369F00F5F1F4F7C
:10205000E881F9810190F081E02DCE010995F80128
:102060006081662399F7DF91CF911F910F910895B9
:10207000EF92FF920F931F93CF93DF93EC018B01AD
:102080007A014115510581F0F80161918F01E881D4
:10209000F9810190F081E02DCE0109950894E108C5
:1020A000F108E114F10481F7DF91CF911F910F91B5
:1020B000FF90EF900895DC01ED91FC910280F38197
:1020C000E02D09950895CF92DF92EF92FF920F9342
:1020D0001F93CF93DF937C018B01DB0114968D91CD
:1020E0009C9115970097C1F060E070E0C0E0D0E0EF
:1020F000D701ED91FC91C080D180C8010E9490165B
:10210000682FC701F60109952196BE01F801848167
:102110009581C817D90760F3DF91CF911F910F9177
:10212000FF90EF90DF90CF9008952F923F924F92C3
:102130005F926F927F928F929F92AF92BF92CF9257
:10214000DF92EF92FF920F931F93DF93CF93CDB760
:10215000DEB7A2970FB6F894DEBF0FBECDBF9AA32D
:1021600089A37A018B01411551056105710509F4B7
:1021700055C0622E772488249924AA24BB246501A3
:102180001E010894211C311C21014A0C5B1CC80152
:10219000B701A40193010E94ED28F2016083089425
:1021A000A11CB11CC11CD11CC801B701A401930121
:1021B0000E94ED28E22EF32E042F152FE114F104D6
:1021C0000105110509F7A114B104C104D10471F18D
:1021D0000894A108B108C108D10818C0405D50E0BA
:1021E00060E070E089A19AA120E030E00E944D11EA
:1021F0000894A108B108C108D108FFEFAF16FFEF9E
:10220000BF06FFEFCF06FFEFDF0681F0F101EA0D19
:10221000FB1D40814A3010F3495CE1CF40E350E0C0
:1022200060E070E020E030E00E944D11A2960FB611
:10223000F894DEBF0FBECDBFCF91DF911F910F91FC
:10224000FF90EF90DF90CF90BF90AF909F908F90D6
:102250007F906F905F904F903F902F900895211541
:10226000310519F00E9495100895DC01ED91FC9163
:102270000190F081E02D642F099508959A01AB013A
:1022800060E070E00E942F1108959A01462F50E0FF
:1022900060E070E00E942F110895EF92FF920F937B
:1022A0001F93CF93DF93EC017A018B012115310548
:1022B000D9F02A30310549F00E949510DF91CF9175
:1022C0001F910F91FF90EF90089577FD1BC0CE01F5
:1022D000B801A7012AE00E949510DF91CF911F91CC
:1022E0000F91FF90EF900895E881F9810190F081BE
:1022F000E02D642F0995DF91CF911F910F91FF90F1
:10230000EF9008954DE250E060E070E020E030E0B2
:102310000E944D1110950095F094E094E11CF11C81
:10232000011D111DD4CFEF92FF920F931F939A01BD
:102330007B010027F7FC0095102FB801A7010E9430
:102340004D111F910F91FF90EF9008959A01462F24
:1023500050E060E070E00E944D110895CF93DF934C
:10236000EC014DE050E060E070E020E030E00E94E1
:102370004D11CE014AE050E060E070E020E030E036
:102380000E944D11DF91CF910895CF93DF93EC011F
:102390000E942F11CE010E94AE11DF91CF910895BE
:1023A000CF93DF93EC019A01AB0160E070E00E94F3
:1023B0002F11CE010E94AE11DF91CF910895CF93DE
:1023C000DF93EC019A01462F50E060E070E00E943C
:1023D0002F11CE010E94AE11DF91CF910895CF93BE
:1023E000DF93EC010E945B10CE010E94AE11DF91E1
:1023F000CF910895CF93DF93EC010E946310CE013B
:102400000E94AE11DF91CF910895CF93DF93EC013D
:102410000E944D11CE010E94AE11DF91CF9108951F
:10242000CF93DF93EC01CB019A01AC01662757FDF6
:102430006095762FCE010E944D11CE010E94AE1103
:10244000DF91CF910895CF93DF93EC019A01462F4E
:1024500050E060E070E00E944D11CE010E94AE118C
:10246000DF91CF9108959F92AF92BF92CF92DF926A
:10247000EF92FF920F931F93CF93DF93EC016A01CA
:102480007B01122FCB01BA0120E030E0A9010E94AC
:10249000792588230CF483C0112309F48EC000E051
:1024A00050E040E030E02FE3DA01F9016B2F742FA8
:1024B0008F2F922F20E030E040E251E40E946B2405
:1024C000562F472F382F292F0F5F011768F3C701A9
:1024D000B601DA01F9012B2F3A2F4F2F5E2F0E9400
:1024E00046235B01C82E092F7B2D0E949921962E31
:1024F000F72EE82ED92E0E9459269B01AC016A2D99
:102500007B2D8C2D902F0E9415235B01C82E092F47
:10251000CE01492D5F2D6E2D7D2D2AE030E00E94E9
:102520002F11CE0168E871E00E945B106A2D7B2DAF
:102530008C2D902F20E030E040E251E40E94732384
:10254000062FB72EA82E992E0E9406266B01EE2488
:10255000D7FCE094FE2CCE01B701A6012AE030E0C2
:102560000E944D11C701B6010E94A9259B01AC0133
:10257000602F7B2D8A2D992D0E9415235B01C82E7B
:10258000092F115099F6DF91CF911F910F91FF9074
:10259000EF90DF90CF90BF90AF909F900895CE01C5
:1025A0004DE250E060E070E020E030E00E944D112C
:1025B000F7FAF094F7F8F0946FCFC701B60120E076
:1025C00030E040E05FE30E9446230E949921AB0186
:1025D000BC01CE012AE030E00E942F11D4CF0E942E
:1025E00033120895CF93DF93EC010E943312CE0192
:1025F0000E94AE11DF91CF9108950895089581E072
:102600008093D1066093AE061092CF061092D0064A
:10261000089581E08093D1066093AE061092CF06B4
:102620001092D00608958091AD069091AC06891B5A
:1026300008959091AC068091AD06981748F4E92F63
:10264000F0E0E457F94F80819F5F9093AC060895C6
:1026500080E00895CF93DF939C01E091D406F09140
:10266000D506309711F19091AC068091AD06981780
:10267000E0F0161617069CF4A0E0B0E090E040E011
:1026800050E0A457B94F420F531FEA0148814C93C1
:102690009F5F492F50E0DA014617570794F31092D5
:1026A000AC066093AD06CB010995DF91CF910895FB
:1026B000E091D206F091D306309729F01092CF0620
:1026C0001092D006099508957093D5066093D406AC
:1026D00008957093D3066093D2060895DF93CF9345
:1026E0000F92CDB7DEB769838091D1068823C1F000
:1026F0008091D006803220F00F90CF91DF91089525
:102700008091CF06E82FF0E0E155F94F60838F5FAD
:102710008093CF068093D0060F90CF91DF910895DC
:10272000CE01019661E00E942E200F90CF91DF91A3
:1027300008950E946E130895EF92FF920F931F93D6
:10274000CF93DF93EC01162F042F8091D1068823BD
:10275000A9F0442361F0E62EF72ECE01F701619136
:102760007F010E946E138E2D811B8017B0F3DF91C5
:10277000CF911F910F91FF90EF900895862F972F83
:10278000642F0E942E20DF91CF911F910F91FF9017
:10279000EF900895DB010D900020E9F7AD01415065
:1027A0005040461B570B0E949C1308958091AE0623
:1027B0006FEA76E04091D00621E00E94DE1F109281
:1027C000CF061092D0061092D1060895862F41327E
:1027D00008F040E26CE876E00E94A51F1092AC067B
:1027E0008093AD0608950E94E61308951092AC06FA
:1027F0001092AD061092CF061092D0060E948E1F46
:102800000895CF93DF93EC01862F0E94A11F88E5E6
:1028100093E10E9451208AE293E10E944C20CE0174
:102820000E94F613DF91CF9108950E94011408953C
:102830001F920F920FB60F9211242F933F938F93F5
:102840009F93AF93BF938091DA069091DB06A0919E
:10285000DC06B091DD063091DE060196A11DB11DAA
:10286000232F2D5F2D3720F02D570196A11DB11D6F
:102870002093DE068093DA069093DB06A093DC06B5
:10288000B093DD068091D6069091D706A091D80628
:10289000B091D9060196A11DB11D8093D6069093E3
:1028A000D706A093D806B093D906BF91AF919F9158
:1028B0008F913F912F910F900FBE0F901F90189501
:1028C0008FB7F8942091DA063091DB064091DC0650
:1028D0005091DD068FBFB901CA0108959FB7F894E2
:1028E0002091D6063091D7064091D8065091D9064E
:1028F00086B5A89B06C08F3F21F02F5F3F4F4F4FFB
:102900005F4F9FBF542F432F322F2227280F311D97
:10291000411D511D220F331F441F551F220F331F0E
:10292000441F551FB901CA010895EF92FF920F93FA
:102930001F93CF93DF937B018C010E946E14EB01F8
:10294000E114F10401051105A1F00E946E146C1B45
:102950007D0B83E0683E7807C0F30894E108F10836
:1029600001091109C851DC4FE114F10401051105F9
:1029700061F7DF91CF911F910F91FF90EF90089534
:10298000019739F0880F991F880F991F02970197B7
:10299000F1F70895789484B5826084BD84B5816030
:1029A00084BD85B5826085BD85B5816085BDEEE657
:1029B000F0E0808181608083E1E8F0E01082808136
:1029C00082608083808181608083E0E8F0E08081A4
:1029D00081608083E1EBF0E0808184608083E0EBC4
:1029E000F0E0808181608083EAE7F0E080818460AC
:1029F0008083808182608083808181608083808108
:102A0000806880831092C100089580939401089596
:102A10008E3008F08E508770909194019295990FA6
:102A2000990F907C982B90937C0080917A00806421
:102A300080937A0080917A0086FDFCCF2091780007
:102A400030917900932F80E030E0282B392BC90199
:102A500008951F93CF93DF93182FEB0161E00E943D
:102A60009E15209759F1CF3FD105A1F0E12FF0E05D
:102A7000E45EF84F84918330E1F1843098F0863041
:102A800069F1873009F44FC0843009F43FC0C03881
:102A9000D105A4F0812F61E00E94F015DF91CF9164
:102AA0001F910895813091F0823089F784B580625A
:102AB00084BDC8BDDF91CF911F910895812F60E043
:102AC0000E94F015DF91CF911F91089584B5806821
:102AD00084BDC7BDDF91CF911F9108958091B00053
:102AE00080688093B000C093B300DF91CF911F91B5
:102AF000089580918000806880938000D093890041
:102B0000C0938800DF91CF911F910895809180003C
:102B1000806280938000D0938B00C0938A00DF9105
:102B2000CF911F9108958091B00080628093B00092
:102B3000C093B400DF91CF911F91089590E0FC0104
:102B4000E85FF84F2491FC01EC50F94FE491EE233B
:102B500079F0F0E0EE0FFF1FEA52F94FA591B49122
:102B6000662339F09FB7F8948C91822B8C939FBF8A
:102B700008959FB7F8948C91209582238C939FBFE2
:102B80000895833039F1843060F08630C9F08730A1
:102B900069F0843051F4809180008F7D80938000B3
:102BA0000895813099F0823039F008958091B00015
:102BB0008F7D8093B000089584B58F7D84BD089586
:102BC0008091B0008F778093B000089584B58F779F
:102BD00084BD0895809180008F7780938000089550
:102BE0000F931F93DF93CF930F92CDB7DEB7282FAC
:102BF00030E0F901E45EF84F8491F901E85FF84FA5
:102C000004912C50394FF9011491112391F088232C
:102C100019F5E12FF0E0EE0FFF1FE052F94FA591FB
:102C2000B491662361F09FB7F8948C91802B8C93BC
:102C30009FBF0F90CF91DF911F910F9108959FB784
:102C4000F8948C91009580238C939FBF0F90CF9127
:102C5000DF911F910F91089569830E94C1156981C9
:102C6000D8CF0F931F93282F30E0F901E45EF84F7F
:102C70008491F901E85FF84F04912C50394FF90124
:102C800014911123C9F08823E9F4E12FF0E0EE0F4D
:102C9000FF1FE651F94FA591B4918C9120E030E0EF
:102CA000802321F4C9011F910F91089521E030E0A4
:102CB000C9011F910F91089520E030E0C9011F91D3
:102CC0000F9108950E94C115E0CFDC01ED91FC91B8
:102CD0001197E60FF71F80810895FC018081918193
:102CE000009749F0248135816217730720F4680F3B
:102CF000791FFB0140830895FC0184819581681749
:102D0000790740F480819181009721F0680F791F45
:102D1000CB0108951092DF066FED76E0CB010895A8
:102D2000DC01ED91FC911197E60FF71F808108956A
:102D3000FC01808191810E947F2D08950F931F9344
:102D4000CF93DF93FC01EB0141155105A1F0611513
:102D5000710589F0848195818A01015010408017A6
:102D6000910770F060817181CE01A8010E94022E4E
:102D7000C00FD11F1882DF91CF911F910F9108953D
:102D80008C01F0CF0F931F93CF93DF93FC01EB01E6
:102D900041155105A1F06115710589F08481958176
:102DA0008A01015010408017910770F06081718195
:102DB000CE01A8010E94022EC00FD11F1882DF9100
:102DC000CF911F910F9108958C01F0CFFC01DB0191
:102DD000CA0114964D915C91159724813581241B6D
:102DE000350B2817390780F0208131816D917C9156
:102DF000820F931F0E94F42D9C0180E02115310564
:102E000009F0089581E0089580E00895FC0144816F
:102E10005581FB01248135814217530710F480E06E
:102E2000089540E050E00E94E6160895DF92EF9288
:102E3000FF920F931F93CF93DF93EC018C819D81C1
:102E40004817590758F02FEF3FEFC901DF91CF9195
:102E50001F910F91FF90EF90DF9008958A010F5F0F
:102E60001F4FE881F981E00FF11FD0801082E880C8
:102E7000F980C70170E00E94112E9C010E0D1F1DEC
:102E8000F801D0820097F9F288819981281B390BCB
:102E9000DCCFFC0144815581415050400E941617FF
:102EA0000895CF93DF93FC018481958148175907DA
:102EB00030F02FEF3FEFC901DF91CF910895C0812E
:102EC000D181FB0160817181CE01840F951F0E9429
:102ED0001C2E9C01009769F32C1B3D0BECCF40E0AE
:102EE00050E00E9451170895CF93DF93FC01848135
:102EF00095814817590730F02FEF3FEFC901DF9157
:102F0000CF910895C081D181CE01840F951F70E0CB
:102F10000E94D92D9C01009779F32C1B3D0BEECF1D
:102F200040E050E00E9474170895FC01DB01248109
:102F3000358114968D919C9115972817390711F0BA
:102F400080E008956D917C91808191810E94E42DB3
:102F50009C0180E02115310509F0089581E0089574
:102F6000FC01DB018481958114962D913C9115978C
:102F70008217930790F0821B930B208131816D9112
:102F80007C91820F931F0E94E42D9C0180E021150B
:102F9000310509F0089581E0089580E00895FB016E
:102FA00060817181FC01808191810E94E42D292F33
:102FB000332727FD3095209530952227330F221F88
:102FC0003327C9010895FB0160817181FC01808173
:102FD00091810E94E42D40E050E01816190614F487
:102FE000CA01089541E050E0CA010895FB016081E3
:102FF0007181FC01808191810E94E42D40E050E0CC
:103000001816190614F441E050E0CA010895FB01B6
:1030100060817181FC01808191810E94E42D292FC2
:10302000332727FD30952227330F221F3327C9016D
:103030000895FC01DB012481358114968D919C91CA
:1030400015972817390721F021E030E0C9010895CC
:103050006D917C91808191810E94E42D9C012115CC
:10306000310591F7C9010895FC01DB012481358107
:1030700014968D919C9115972817390721F020E01F
:1030800030E0C90108956D917C91808191810E9409
:10309000E42D9C0180E090E02115310519F09C01A0
:1030A000C901089581E090E09C01FACFFB016081A5
:1030B0007181FC01808191810E94E42D0895EF923D
:1030C000FF920F931F93CF93DF93EC018B01FB01D2
:1030D000648175818C819D81680F791F7D836C83EC
:1030E0008A819B818617970778F46F5F7F4F88816D
:1030F00099810E94AE2C0097B1F0998388832C812E
:103100003D813B832A8302C088819981F8016081D7
:1031100071810E94CE2DCE01DF91CF911F910F9131
:10312000FF90EF9008958C819D81F8012481358175
:10313000821B930B9D838C83EECF0E945F180895B2
:10314000EF92FF920F931F93CF93DF93EC018B01CC
:103150008617970799F0FB01448155818C819D81E9
:103160008417950798F088819981009739F05D83DD
:103170004C83F801608171810E94ED2DCE01DF91B9
:10318000CF911F910F91FF90EF90089588819981C1
:103190000E94172CF801848195819B838A83019674
:1031A0000E94752B99838883009721F0F801448150
:1031B0005581DDCF1B821A821D821C82DFCF0F93C7
:1031C0001F93DF93CF930F92CDB7DEB78C0181E0D1
:1031D00090E0D80115969C938E93149713969C9328
:1031E0008E93129782E090E069830E94752BFC0118
:1031F000D80111969C938E936981009761F060834A
:10320000D801ED91FC91119711820F90CF91DF9130
:103210001F910F91089513961C921E921297159666
:103220001C921E9214970F90CF91DF911F910F91D6
:1032300008950F931F93DF93CF930F92CDB7DEB70F
:103240008C0181E090E0D80115969C938E931497A1
:1032500013969C938E93129782E090E069830E946C
:10326000752BFC01D80111969C938E936981009770
:1032700061F06083D801ED91FC91119711820F905C
:10328000CF91DF911F910F91089513961C921E927A
:10329000129715961C921E9214970F90CF91DF9162
:1032A0001F910F9108950F931F93DF93CF930F9268
:1032B000CDB7DEB78C0181E090E0D80115969C93E4
:1032C0008E93149713969C938E93129782E090E0BE
:1032D00069830E94752BFC01D80111969C938E93F3
:1032E0006981009761F06083D801ED91FC9111979D
:1032F00011820F90CF91DF911F910F910895139636
:103300001C921E92129715961C921E9214970F9063
:10331000CF91DF911F910F9108950F931F93DF932A
:10332000CF930F92CDB7DEB78C0181E090E0D8014A
:1033300015969C938E93149713969C938E93129745
:1033400082E090E069830E94752BFC01D801119600
:103350009C938E936981009761F06083D801ED9111
:10336000FC91119711820F90CF91DF911F910F91D6
:10337000089513961C921E92129715961C921E92F7
:1033800014970F90CF91DF911F910F9108950F9394
:103390001F93CF93DF93EC018B01FB018481958117
:1033A0009D838C839B838A8301960E94752B9983CE
:1033B0008883009751F0F801608171810E94ED2DA2
:1033C000DF91CF911F910F9108951B821A821D8268
:1033D0001C82DF91CF911F910F9108950F931F933E
:1033E000CF93DF93EC018B01FB01848195819D8359
:1033F0008C839B838A8301960E94752B9983888393
:10340000009751F0F801608171810E94ED2DDF91EC
:10341000CF911F910F9108951B821A821D821C82E9
:10342000DF91CF911F910F910895EF92FF920F932B
:103430001F93DF93CF93CDB7DEB7A1970FB6F89464
:10344000DEBF0FBECDBF7C01CB01BA018E010F5F85
:103450001F4FA8012AE030E00E94A02EF801019041
:103460000020E9F7CF010197801B910BF7019583AD
:1034700084839383828301960E94752BF701918345
:103480008083009781F0B8010E94ED2DA1960FB6C0
:10349000F894DEBF0FBECDBFCF91DF911F910F918A
:1034A000FF90EF9008951382128215821482EECF5E
:1034B000EF92FF920F931F93DF93CF93CDB7DEB7B9
:1034C000A1970FB6F894DEBF0FBECDBF7C01CB0134
:1034D000BA018E010F5F1F4FA8012AE030E00E9461
:1034E000A02EF80101900020E9F7CF010197801B81
:1034F000910BF701958384839383828301960E94C5
:10350000752BF70191838083009781F0B8010E94A9
:10351000ED2DA1960FB6F894DEBF0FBECDBFCF91B3
:10352000DF911F910F91FF90EF9008951382128207
:1035300015821482EECFEF92FF920F931F93DF93C9
:10354000CF93CDB7DEB7A1970FB6F894DEBF0FBE0D
:10355000CDBF7C019A0180E090E08E010F5F1F4F8C
:10356000A8010E94A02EF80101900020E9F7CF01E8
:103570000197801B910BF70195838483938382834A
:1035800001960E94752BF70191838083009781F04B
:10359000B8010E94ED2DA1960FB6F894DEBF0FBEC4
:1035A000CDBFCF91DF911F910F91FF90EF900895C4
:1035B0001382128215821482EECFEF92FF920F9344
:1035C0001F93DF93CF93CDB7DEB7A1970FB6F894D3
:1035D000DEBF0FBECDBF7C019A0180E090E08E017E
:1035E0000F5F1F4FA8010E94A02EF801019000203C
:1035F000E9F7CF010197801B910BF7019583848335
:103600009383828301960E94752BF70191838083B7
:10361000009781F0B8010E94ED2DA1960FB6F894A5
:10362000DEBF0FBECDBFCF91DF911F910F91FF90F5
:10363000EF9008951382128215821482EECF0F93B9
:103640001F93CF93DF93EC018B016115710521F17D
:10365000FB0101900020E9F73197E61BF70BCF0142
:103660000196FD83EC83FB83EA830E94752B99838B
:103670008883009741F0B8010E94ED2DDF91CF9132
:103680001F910F9108951B821A821D821C82DF9167
:10369000CF911F910F91089581E090E0E0E0F0E07C
:1036A00005E911E0DECFAF92BF92CF92DF92EF92A9
:1036B000FF920F931F93CF93DF937C018B01C82E52
:1036C000E6016E01DF2CE601FB0160817181C6011C
:1036D0000E941F1BF801848195810097B1F0AA24F4
:1036E000BB24C880D980CA0CDB1CF601808190E025
:1036F0000E94B62DF60180830894A11CB11CF8012C
:1037000084819581A816B90660F3C701DF91CF9136
:103710001F910F91FF90EF90DF90CF90BF90AF90EF
:103720000895AF92BF92CF92DF92EF92FF920F93E4
:103730001F93CF93DF937C018B01C82EE6016E01AE
:10374000DF2CE601FB0160817181C6010E941F1B15
:10375000F801848195810097B1F0AA24BB24C88028
:10376000D980CA0CDB1CF601808190E00E94AE2D4E
:10377000F60180830894A11CB11CF8018481958115
:10378000A816B90660F3C701DF91CF911F910F9181
:10379000FF90EF90DF90CF90BF90AF900895EF92A1
:1037A000FF920F931F93DF93CF93CDB7DEB72D9783
:1037B0000FB6F894DEBF0FBECDBFFC018B0186179C
:1037C0009707E9F124813581DB0114968D919C9155
:1037D00015972817390779F020E0822F2D960FB61C
:1037E000F894DEBF0FBECDBFCF91DF911F910F9137
:1037F000FF90EF900895CE010196BF010E94911BAA
:10380000E980FA80CE010796B8010E94911B0F81D2
:103810001885C701B8010E94E42D20E0009709F443
:1038200021E0C8012D870E94172C1A8619861C8654
:103830001B8689819A810E94172C2D85CECF21E08D
:10384000CCCFDF92EF92FF920F931F93CF93DF9332
:103850008C01EB0179012417350730F4342F252F23
:10386000A701C901E92EF82E8C819D818E159F0537
:1038700008F47C01E881F981EE0DFF1DD0801082F3
:1038800068817981640F751FC8010E941F1BE88140
:10389000F981EE0DFF1DD082C801DF91CF911F91FC
:1038A0000F91FF90EF90DF900895CF93DF93EC019D
:1038B000FB01248135810E94211CCE01DF91CF9133
:1038C00008958F929F92AF92BF92CF92DF92EF9224
:1038D000FF920F931F93DF93CF9300D000D000D0BF
:1038E000CDB7DEB76C017B01DB0114968D919C9105
:1038F00015970097B1F40FEF1FEFC80126960FB68A
:10390000F894DEBF0FBECDBFCF91DF911F910F9115
:10391000FF90EF90DF90CF90BF90AF909F908F90EF
:10392000089501974817590730F3F601848195816E
:103930004817590700F7ED91FC91119790808A0183
:103940005E010894A11CB11C02C00150104017FD7B
:10395000D2CFD601ED91FC911197E00FF11F80813C
:10396000891599F7F70124813581200F311FC50191
:10397000B601A8010E94211CC501B7010E9495173C
:10398000882E89819A810E94172C882009F0B5CF52
:103990001C821B821E821D82D8CFFC01448155816E
:1039A000FB0124813581421B530B0E94611C089549
:1039B0006F927F928F929F92AF92BF92CF92DF923F
:1039C000EF92FF920F931F93DF93CF9300D000D01D
:1039D00000D0CDB7DEB78C016B01FB016081718136
:1039E0006115710509F463C05E010894A11CB11C46
:1039F000C5010E941F1BF6018480958081149104EB
:103A000009F459C0F60160807180EE24FF2406C0DD
:103A10000894E11CF11CE814F90448F4F301EE0DDC
:103A2000FF1D808190E00E94A62D009789F78D8070
:103A30009E80089481089108E814F904B0F4F60116
:103A4000C080D180C80CD91C09C008948108910895
:103A50000894C108D108E814F90438F4F60180810B
:103A600090E00E94A62D009781F794012F5F3F4FB1
:103A7000C801B501A7010E94211C89819A810E9479
:103A8000172CC80126960FB6F894DEBF0FBECDBF27
:103A9000CF91DF911F910F91FF90EF90DF90CF902A
:103AA000BF90AF909F908F907F906F900895B601D8
:103AB0000E94C719E6CFEE24FF24B9CF2F923F9280
:103AC0004F925F926F927F928F929F92AF92BF922E
:103AD000CF92DF92EF92FF920F931F93DF93CF93DA
:103AE000CDB7DEB768970FB6F894DEBF0FBECDBF77
:103AF0001C01FB015A012901608171816115710569
:103B000009F47EC08E010F5F1F4FC8010E941F1B6A
:103B100047E0C42ED12CCC0EDD1EC60165E971E054
:103B20000E941F1B3DE0832E912C8C0E9D1E23E1D5
:103B3000622E712C6C0E7D1E2CC0C401B80140E0B9
:103B400050E097010E94211CC601B4010E945F1839
:103B50008D859E850E94172C188A1F861A8A198ABD
:103B6000C601B2010E945F18F501448155814E0DD6
:103B70005F1DC301B8010E94551CC801B3010E941A
:103B8000A0188B899C890E94172C1E8A1D8A188E6A
:103B90001F8AC801B5010E946F177C01FFEF8F3F9C
:103BA0009F0759F6C601B8010E945F18C101B6010E
:103BB0000E94C7198F8198850E94172C1A86198632
:103BC0001C861B8689819A810E94172CC1016896E8
:103BD0000FB6F894DEBF0FBECDBFCF91DF911F911E
:103BE0000F91FF90EF90DF90CF90BF90AF909F909C
:103BF0008F907F906F905F904F903F902F9008959F
:103C0000BF010E94C719E2CFCF92DF92EF92FF92DD
:103C10000F931F93DF93CF9300D000D000D0CDB788
:103C2000DEB78C01FB01F42EE22E608171816115FB
:103C3000710551F16E010894C11CD11CC6010E948E
:103C40001F1B89819A8101C0E0826F2D70E00E9464
:103C5000D92DFC010097C1F7C801B6010E94C71910
:103C600089819A810E94172CC80126960FB6F89474
:103C7000DEBF0FBECDBFCF91DF911F910F91FF909F
:103C8000EF90DF90CF900895BF010E94C719ECCF4D
:103C90000F931F93CF93DF93EC018B016115710597
:103CA00021F1FB0101900020E9F73197E61BF70BAA
:103CB000CF010196FD83EC83FB83EA830E94752B81
:103CC00099838883009741F0B8010E94ED2DDF9120
:103CD000CF911F910F9108951B821A821D821C8221
:103CE000DF91CF911F910F91089581E090E0E0E086
:103CF000F0E005E911E0DECFEF92FF920F931F9302
:103D0000DF93CF93CDB7DEB7A1970FB6F894DEBFA0
:103D10000FBECDBF7C01CB01BA018E010F5F1F4FDB
:103D2000A8010E94572EF80101900020E9F7CF0169
:103D30000197801B910BF701958384839383828382
:103D400001960E94752BF70191838083009781F083
:103D5000B8010E94ED2DA1960FB6F894DEBF0FBEFC
:103D6000CDBFCF91DF911F910F91FF90EF900895FC
:103D70001382128215821482EECFEF92FF920F937C
:103D80001F93DF93CF93CDB7DEB7A1970FB6F8940B
:103D9000DEBF0FBECDBF7C01CB01BA018E010F5F2C
:103DA0001F4FA8010E94572EF80101900020E9F74B
:103DB000CF010197801B910BF70195838483938337
:103DC000828301960E94752BF7019183808300976F
:103DD00081F0B8010E94ED2DA1960FB6F894DEBFD8
:103DE0000FBECDBFCF91DF911F910F91FF90EF904C
:103DF00008951382128215821482EECFEF92FF9201
:103E00000F931F93DF93CF93CDB7DEB7A1970FB674
:103E1000F894DEBF0FBECDBF7C01CB018E010F5FDA
:103E20001F4FB8010E94362EF80101900020E9F7DB
:103E3000CF010197801B910BF701958384839383B6
:103E4000828301960E94752BF701918380830097EE
:103E500081F0B8010E94ED2DA1960FB6F894DEBF57
:103E60000FBECDBFCF91DF911F910F91FF90EF90CB
:103E700008951382128215821482EECFEF92FF9280
:103E80000F931F93DF93CF93CDB7DEB7A1970FB6F4
:103E9000F894DEBF0FBECDBF7C01CB018E010F5F5A
:103EA0001F4FB8010E94362EF80101900020E9F75B
:103EB000CF010197801B910BF70195838483938336
:103EC000828301960E94752BF7019183808300976E
:103ED00081F0B8010E94ED2DA1960FB6F894DEBFD7
:103EE0000FBECDBFCF91DF911F910F91FF90EF904B
:103EF00008951382128215821482EECF089520E075
:103F000030E0FC018081882311F421E030E0C90118
:103F1000089521E0FC01208308950895109204077C
:103F2000449A459AE9EBF0E080818E7F808380811E
:103F30008D7F808388E48093B80085E48093BC0003
:103F40000895880F8093BA0008954132A0F59091AA
:103F500004079923E1F791E0909304079FEF909372
:103F600003071092E106942F91509093E206880F78
:103F700081608093E00685EE8093BC008091040709
:103F80008130E1F38091E106841790F0442371F0D1
:103F900020E030E0FB01E20FF31FD901AD51B94F32
:103FA0009C9190832F5F3F4F2417A0F3842F089597
:103FB0004091E106EBCF40E0842F0895CF93DF934B
:103FC000413208F043C0909104079923E1F792E051
:103FD000909304079FEF909303071092E10640939C
:103FE000E206442369F0E0E0F0E0DF01AD51B94FB3
:103FF000EB01CE0FDF1F98819C933196E417A8F355
:1040000090E0880F991F8093E00685EE8093BC00B6
:10401000222381F4809103078F3FA1F08091030751
:104020008032C1F0809103078033B1F084E0DF91EA
:10403000CF910895809104078230E1F380910307C6
:104040008F3F61F780E0DF91CF91089581E0DF91AC
:10405000CF91089582E0EBCF83E0E9CF6132D0F4D5
:1040600020910407243011F082E00895609329071D
:10407000662371F020E030E0F901E45DF84FDC01E7
:10408000A20FB31F4C9140832F5F3F4F2617A0F321
:1040900080E0089581E00895909327078093260794
:1040A000089590932B0780932A070895882321F47D
:1040B00085E88093BC00089585EC8093BC0008954A
:1040C00085ED8093BC008091BC0084FDFCCF1092F4
:1040D0000407089585EC8093BC00109204070895AE
:1040E0001F920F920FB60F9211242F933F934F936D
:1040F0005F936F937F938F939F93AF93BF93EF9350
:10410000FF938091B90090E0A0E0B0E0887F9070CC
:10411000A070B070893C910598F58C5C9F4FFC01B4
:10412000EE0FFF1F0590F491E02D099484E0809339
:1041300004071092280710922907E0912A07F091AE
:104140002B07099580912907882329F481E0809322
:10415000290710922C0780912807E82FF0E0E45DF2
:10416000F84F90819093BB008F5F809328079091C8
:104170002807809129079817C8F485EC8093BC0024
:10418000FF91EF91BF91AF919F918F917F916F912F
:104190005F914F913F912F910F900FBE0F901F9005
:1041A000189580910507803208F49CC085E88093BB
:1041B000BC00E6CF8091E1069091BB00E82FF0E0D3
:1041C000ED51F94F90838F5F8093E1069091E10666
:1041D0008091E206981750F7D0CF8091E106909138
:1041E000BB00E82FF0E0ED51F94F90838F5F809393
:1041F000E10685ED8093BC008091BC0084FDFCCF7E
:1042000010920407BDCF85EC8093BC001092040788
:10421000B7CF83E0809304071092050785EC809365
:10422000BC00AECF1092030785ED8093BC00809157
:10423000BC0084FDFCCFE4CF8091E0068093BB00FE
:1042400085EC8093BC009CCF9091E1068091E206C2
:10425000981708F45EC085ED8093BC008091BC0087
:1042600084FDFCCFCDCF80E28093030785ED809362
:10427000BC008091BC0084FDFCCFC2CF80910507BB
:10428000803208F43FC085ED8093BC008091BC0073
:1042900084FDFCCF1092040760910507E09126078A
:1042A000F091270786E097E070E0099510920507E6
:1042B00085EC8093BC001092040762CF80E380936A
:1042C000030785ED8093BC008091BC0084FDFCCF8A
:1042D00097CF88E38093030785EC8093BC0010920E
:1042E00004074ECF809105079091BB00E82FF0E0C6
:1042F000EA5FF84F90838F5F8093050785EC80938A
:10430000BC003ECFE0910507F0E0EA5FF84F108275
:10431000BACF8091E106E82FF0E0ED51F94F90819E
:104320009093BB008F5F8093E10685EC8093BC0087
:1043300027CFEF92FF920F931F937B018C0120E018
:1043400030E040E05FE40E94492588238CF0C801FA
:10435000B70120E030E040E05FE40E9415230E94B6
:1043600006269B01AC01205030404040504806C01A
:10437000C801B7010E9406269B01AC01B901CA0120
:104380001F910F91FF90EF900895A0E0B0E0EBEC4B
:10439000F1E20C941129FC012B01EA0180818230A9
:1043A00008F43DC1DB019C91923008F437C18430A0
:1043B00069F4943009F033C1918111968C91119771
:1043C000981709F42CC1E6E9F1E029C1943009F409
:1043D00025C19230A9F4823009F021C19F0188E003
:1043E000D9010D909D01DA010D92AD018150C1F707
:1043F000D20111968C9111979181892389830CC1E7
:10440000823009F40BC182819381DB0112964D91B8
:104410005C911397E480F580068117811496AD9026
:10442000BD90CD90DC9017979C01241B350BB901F2
:1044300037FF04C066277727621B730B6032710554
:104440000CF062C0121613066CF535014601062EFB
:1044500004C096948794779467940A94D2F721E0E5
:1044600030E040E050E004C0220F331F441F551FCE
:104470006A95D2F721503040404050402A213B21DC
:104480004C215D21211531054105510521F021E027
:1044900030E040E050E059016A01A628B728C8285A
:1044A000D9283DC021153105D1F1860F971F37015D
:1044B0004801062E04C096948794779467940A94D2
:1044C000D2F721E030E040E050E004C0220F331F7B
:1044D000441F551F6A95D2F721503040404050404C
:1044E0002E213F214023512321153105410551053E
:1044F00021F021E030E040E050E079018A01E62837
:10450000F728082919290BC0481759072CF0CA01A8
:10451000EE24FF24870103C0AA24BB246501218166
:10452000F2013181231709F44AC0222349F0A60180
:1045300095012E193F09400B510B79018A0104C0E6
:10454000EA18FB080C091D0917FD0CC019829B8392
:104550008A83EC82FD820E831F838C819D81AE81D4
:10456000BF811AC021E029839B838A8388279927EA
:10457000DC018E199F09A00BB10B8C839D83AE8348
:10458000BF83EBCF880F991FAA1FBB1F2A813B81D6
:10459000215030403B832A839C01AD0121503040A3
:1045A000404050402F3F6FEF36076FEF46076FE3F5
:1045B000560740F38C839D83AE83BF830BC0298352
:1045C0009B838A83EA0CFB1C0C1D1D1DEC82FD8263
:1045D0000E831F8383E088832C813D814E815F8120
:1045E00057FF1AC0C901AA2797FDA095BA2F81705D
:1045F0009070A070B0705695479537952795822B8F
:10460000932BA42BB52B8C839D83AE83BF838A8190
:104610009B8101969B838A83FE0101C0F201CF0139
:10462000CDB7DEB7E0E10C942D29A0E2B0E0EBE1DC
:10463000F3E20C941B2969837A838B839C832D83FB
:104640003E834F835887E9E0EE2EF12CEC0EFD1EE1
:10465000CE010196B7010E94F8278E010F5E1F4F11
:10466000CE010596B8010E94F8278A8991E0892732
:104670008A8BC701B801AE01475E5F4F0E94C5211A
:104680000E942927A096E6E00C943729A0E2B0E02A
:10469000ECE4F3E20C941B2969837A838B839C837B
:1046A0002D833E834F835887F9E0EF2EF12CEC0EDB
:1046B000FD1ECE010196B7010E94F8278E010F5E04
:1046C0001F4FCE010596B8010E94F827C701B80117
:1046D000AE01475E5F4F0E94C5210E942927A09628
:1046E000E6E00C943729A0E2B0E0E9E7F3E20C94AD
:1046F0000F2969837A838B839C832D833E834F8329
:104700005887CE010196BE01675F7F4F0E94F82750
:10471000CE010596BE016F5E7F4F0E94F8279985F6
:10472000923088F089898230C8F0943019F4823050
:1047300051F404C0843029F4923081F486E991E088
:10474000C4C0923049F480E02A859A89291381E017
:104750008A87CE010996B9C0823049F480E02A8563
:104760009A89291381E08A8BCE014196AEC06D846F
:104770007E848F849888AD88BE88CF88D88C60E08E
:1047800070E080E090E0DC01EE24FF24870120E06F
:1047900030E0A901F301E170F0703097C9F02A0D03
:1047A0003B1D4C1D5D1D8E0D9F1DA01FB11F2224A2
:1047B000332421012A153B054C055D0528F4E1E071
:1047C0002E2E312C412C512C820D931DA41DB51D74
:1047D000EE0CFF1C001F111FD7FE09C0E1E02E2EBA
:1047E000312C412C512CE228F328042915296F5F24
:1047F0007F4F6032710549F0AA0CBB1CCC1CDD1C3C
:104800009694879477946794C5CF6B897C89EB8560
:10481000FC856E0F7F1F6E5F7F4F7C8F6B8F1A8EB4
:104820007A856A89761711F061E06A8F6B8D7C8DCD
:1048300010C0FC01E170F070309729F05695479553
:10484000379527955068B695A795979587956F5F8B
:104850007F4FB7FDEECF0CC0880F991FAA1FBB1F5B
:1048600057FD8160220F331F441F551F6150704058
:104870008030E0E09E07E0E0AE07E0E4BE0760F3D2
:104880006B8F7C8F6FE7E62EF12C012D112DE82226
:10489000F9220A231B2360E4E616F1040105110541
:1048A00061F487FD0AC0211531054105510529F044
:1048B000805C9F4FAF4FBF4F80788D8F9E8FAF8FA3
:1048C000B8A383E0898FCE0149960E942927A0963C
:1048D000E2E10C942B29A8E1B0E0E1E7F4E20C94CA
:1048E000172969837A838B839C832D833E834F832F
:1048F00058878E01075F1F4FCE010196B8010E94B5
:10490000F82781E1E82EF12CEC0EFD1ECE01059674
:10491000B7010E94F8279985923008F483C08989ED
:10492000823010F487017EC02A853A8923272A879E
:10493000943011F0923031F4981709F070C006E904
:1049400011E070C0843039F41D861E861F86188AD7
:104950001C861B8667C0823019F484E0898762C098
:104960008B859C852B893C89821B930B9C878B872D
:104970002D853E854F855889AD88BE88CF88D88CD7
:104980002A153B054C055D0538F4220F331F441FE3
:10499000551F01979C878B8760E070E0E12CF12C1C
:1049A000012DA0E41A2F80E090E0DC012A153B05E0
:1049B0004C055D0540F08E299F29A02BB12B2A19AB
:1049C0003B094C095D0916950795F794E794220F6A
:1049D000331F441F551F6F5F7F4F6F31710531F7D4
:1049E0006FE7E62EF12C012D112DE822F9220A2382
:1049F0001B2360E4E616F1040105110561F487FD4F
:104A00000AC0211531054105510529F0805C9F4FF1
:104A1000AF4FBF4F80788D879E87AF87B88B8E0151
:104A2000075F1F4FC8010E9429276896EAE00C948F
:104A30003329A8E1B0E0EFE1F5E20C941B2969838A
:104A40007A838B839C832D833E834F83588789E0B1
:104A5000E82EF12CEC0EFD1ECE010196B7010E944E
:104A6000F8278E010F5E1F4FCE010596B8010E94F8
:104A7000F8278985823040F08989823028F0C70183
:104A8000B8010E94672801C08FEF6896E6E00C9499
:104A90003729A8E1B0E0EFE4F5E20C941B29698323
:104AA0007A838B839C832D833E834F83588789E051
:104AB000E82EF12CEC0EFD1ECE010196B7010E94EE
:104AC000F8278E010F5E1F4FCE010596B8010E9498
:104AD000F8278985823040F08989823028F0C70123
:104AE000B8010E94672801C08FEF6896E6E00C9439
:104AF0003729A8E1B0E0EFE7F5E20C941B296983C0
:104B00007A838B839C832D833E834F83588789E0F0
:104B1000E82EF12CEC0EFD1ECE010196B7010E948D
:104B2000F8278E010F5E1F4FCE010596B8010E9437
:104B3000F8278985823040F08989823028F0C701C2
:104B4000B8010E94672801C081E06896E6E00C94F5
:104B50003729A8E0B0E0EFEAF5E20C94192923E048
:104B600029839B01AC01222757FD23953327442736
:104B700055272A83611571058105910519F482E095
:104B800089833CC02223A9F0603020E0720720E036
:104B9000820720E8920729F460E070E080E09FEC53
:104BA00031C0EE24FF248701E61AF70A080B190B1F
:104BB00002C07B018C018EE1C82ED12CDC82CB821D
:104BC000ED82FE820F831887C801B7010E94D126AB
:104BD0009C01215030401216130684F4022E04C0AA
:104BE000EE0CFF1C001F111F0A94D2F7ED82FE820B
:104BF0000F831887C21AD30ADC82CB82CE010196BA
:104C00000E9429272896E8E00C943529ACE0B0E012
:104C1000ECE0F6E20C941F2969837A838B839C83F2
:104C2000CE010196BE016B5F7F4F0E94F8278D81F8
:104C3000823061F1823050F1843021F48E818823FA
:104C400049F12DC02F81388537FD20C06E812F316D
:104C500031051CF06623F1F022C08EE190E0821B4A
:104C6000930B29853A854B855C8504C056954795FD
:104C7000379527958A95D2F76623A9F050954095E8
:104C8000309521953F4F4F4F5F4F0DC020E030E0F2
:104C9000A90109C02FEF3FEF4FEF5FE704C020E00D
:104CA00030E040E050E8B901CA012C96E2E00C94F3
:104CB0003B29A8E0B0E0EFE5F6E20C9419297B016E
:104CC0008C011A82611571058105910519F482E044
:104CD00089835FC083E089838EE1C82ED12CDC827A
:104CE000CB82ED82FE820F831887C801B7010E9434
:104CF000D1269C012150304037FF38C0EE27FF27D6
:104D0000E21BF30B40E050E0BA0181E090E0A0E04C
:104D1000B0E00E2E04C0880F991FAA1FBB1F0A9473
:104D2000D2F70197A109B1098E219F21A023B123B8
:104D30000097A105B10521F041E050E060E070E08E
:104D400004C016950795F794E794EA95D2F7E42AFC
:104D5000F52A062B172BED82FE820F8318878EE132
:104D600090E0821B930B9C838B8313C0211531052C
:104D700081F0022E04C0EE0CFF1C001F111F0A94CC
:104D8000D2F7ED82FE820F831887C21AD30ADC8223
:104D9000CB82CE0101960E9429272896E8E00C9448
:104DA0003529AF92BF92CF92DF92EF92FF920F938D
:104DB0001F937B018C0180E0E81680E0F80681E01B
:104DC000080780E0180780F48FEFE816F10401056A
:104DD000110531F028F088E090E0A0E0B0E016C0C6
:104DE00080E090E0DC0112C080E0E81680E0F80688
:104DF00080E0080781E0180728F088E190E0A0E053
:104E0000B0E004C080E190E0A0E0B0E020E230E05B
:104E100040E050E0281B390B4A0B5B0B570168013F
:104E200004C0D694C794B794A7948A95D2F7F50195
:104E3000E256FE4F8081281B310941095109C90101
:104E40001F910F91FF90EF90DF90CF90BF90AF90A8
:104E50000895CF92DF92EF92FF920F931F93FC0180
:104E6000248135814681578101818081823020F4FF
:104E700040618FEF90E0A2C0843009F49AC0823084
:104E800019F480E090E097C02115310541055105E6
:104E900019F480E090E092C0828193816FEF8238B4
:104EA00096070CF058C062E87FEF681B790B6A31F7
:104EB000710524F020E030E0A9012AC069017A01DF
:104EC000062E04C0F694E794D794C7940A94D2F7B8
:104ED00081E090E0A0E0B0E004C0880F991FAA1F15
:104EE000BB1F6A95D2F70197A109B10982239323C9
:104EF000A423B5230097A105B10521F081E090E03E
:104F0000A0E0B0E09C01AD012C293D294E295F298C
:104F1000DA01C9018F779070A070B070803491056C
:104F2000A105B10539F427FF09C0205C3F4F4F4F61
:104F30005F4F04C0215C3F4F4F4F5F4F80E090E0D8
:104F4000203060E0360760E0460760E4560748F12D
:104F500081E090E026C0803891055CF581589F4F34
:104F60007FE7C72ED12CE12CF12CC222D322E422E0
:104F7000F52260E4C616D104E104F10439F427FFF8
:104F800009C0205C3F4F4F4F5F4F04C0215C3F4F33
:104F90004F4F5F4F57FF05C056954795379527955B
:104FA000019697E056954795379527959A95D1F7AD
:104FB00005C08FEF90E020E030E0A901782F7795D1
:104FC00077277795142F1F77602F6795662767954A
:104FD0008695F12FF72BE82FE62B622F732F8F2F5B
:104FE0009E2F1F910F91FF90EF90DF90CF9008952B
:104FF000FC01DB01208131818281482F4F7750E015
:10500000982F991F9927991F6381862F880F892BC5
:1050100090E0661F6627661F11966C9311970097A4
:1050200069F5211531054105510511F482E02FC0C4
:1050300082E89FEF13969C938E93129767E0220F5E
:10504000331F441F551F6A95D1F783E08C930DC021
:10505000220F331F441F551F12968D919C91139759
:10506000019713969C938E931297203080E0380717
:1050700080E0480780E4580758F322C08F3F91052D
:1050800079F4211531054105510519F484E08C931B
:10509000089544FF03C081E08C9312C01C9210C09D
:1050A0008F57904013969C938E93129783E08C9326
:1050B00087E0220F331F441F551F8A95D1F7506494
:1050C00014962D933D934D935C9317970895EF920B
:1050D000FF920F931F93FC01DB018081823008F463
:1050E00047C09C91923008F443C0843051F48181D0
:1050F0009430A1F511962C91119730E0281B3109BD
:105100003FC0943021F0823031F49230B9F11196E1
:105110008C9111972BC08181923001F111969C9155
:1051200011978917D9F44281538112962D913C91A0
:1051300013972417350794F042175307BCF0E48007
:10514000F5800681178114962D913D914D915C91CA
:1051500017972E153F054007510718F4882341F093
:105160000AC0E216F3060407150740F4882319F075
:1051700021E030E005C02FEF3FEF02C020E030E03B
:10518000C9011F910F91FF90EF900895AA1BBB1BBF
:1051900051E107C0AA1FBB1FA617B70710F0A61B37
:1051A000B70B881F991F5A95A9F780959095BC0158
:1051B000CD01089597FB092E07260AD077FD04D06C
:1051C000E5DF06D000201AF4709561957F4F0895B1
:1051D000F6F7909581959F4F0895A1E21A2EAA1B8C
:1051E000BB1BFD010DC0AA1FBB1FEE1FFF1FA21797
:1051F000B307E407F50720F0A21BB30BE40BF50B94
:10520000661F771F881F991F1A9469F7609570951C
:10521000809590959B01AC01BD01CF0108952F921F
:105220003F924F925F926F927F928F929F92AF9236
:10523000BF92CF92DF92EF92FF920F931F93CF9383
:10524000DF93CDB7DEB7CA1BDB0B0FB6F894DEBF1A
:105250000FBECDBF09942A88398848885F846E8440
:105260007D848C849B84AA84B984C884DF80EE808A
:10527000FD800C811B81AA81B981CE0FD11D0FB693
:10528000F894DEBF0FBECDBFED010895EE0FFF1FF6
:105290000590F491E02D09949F939F776ED00F9025
:1052A00000203AF49058A2EA2AED3FE049E450E4A5
:1052B0000ED0E2C0ABD030F0B0D020F031F49F3F40
:1052C00011F41EF47BC00EF4E095E7FB71C0E92FEA
:1052D000F5D080F3BA17620773078407950718F0B3
:1052E00071F49EF50DC10EF4E0950B2EBA2FA02D92
:1052F0000B01B90190010C01CA01A0011124FF2783
:10530000591B99F0593F50F4503E68F11A16F0407D
:10531000A22F232F342F4427585FF3CF469537957C
:105320002795A795F0405395C9F77EF41F16BA0B41
:10533000620B730B840BBAF09150A1F0FF0FBB1FEF
:10534000661F771F881FC2F70EC0BA0F621F731F38
:10535000841F48F4879577956795B795F7959E3F95
:1053600008F0B3CF9395880F08F09927EE0F979523
:10537000879508955AD0E39590C0DF93CF931F93FC
:105380000F938B01EC01EAEFF1E01BD075D098018F
:10539000AE018B01EC0160E070E080E89FE345D94D
:1053A0001BD19801AE010F911F91CF91DF91B9C030
:1053B00097F99F6780E870E060E008959FEF80ECC8
:1053C0000895DF93CF931F930F93FF92EF92DF9295
:1053D0007B018C01689405C0DA2EEF01A2D0FE019A
:1053E000E894A5912591359145915591AEF3EF0142
:1053F0006EDFFE019701A801DA9479F7DF90EF9054
:10540000FF900F911F91CF91DF91089500240A948E
:105410001616170618060906089500240A9412168F
:105420001306140605060895C9CF50D0E8F3E89492
:10543000E0E0BB279F57F0F02AED3FE049EC06C0C3
:10544000EE0FBB0F661F771F881F28F0B23A620766
:105450007307840728F0B25A620B730B840BE39531
:105460009A9572F7803830F49A95BB0F661F771FB4
:10547000881FD2F79048F0C0092E0394000C11F455
:10548000882352F0BB0F40F4BF2B11F460FF04C01F
:105490006F5F7F4F8F4F9F4F0895EF93E0FF06C0E0
:1054A000A2EA2AED3FE049EC5FEB11DFE5DF0F9068
:1054B000039401FC9058E2E2F2E0E1C057FD9058FD
:1054C000440F551F59F05F3F71F04795880F97FBC8
:1054D000991F61F09F3F79F0879508951216130682
:1054E0001406551FF2CF4695F1DF08C016161706B1
:1054F0001806991FF1CF86957105610508940895E6
:10550000E894BB2766277727CB0197F908957EDFBC
:1055100028F083DF18F0952309F04ACF4FCF1124EC
:10552000F0CFCCDFA0F3959FD1F3950F50E0551F3E
:10553000629FF001729FBB27F00DB11D639FAA27E8
:10554000F00DB11DAA1F649F6627B00DA11D661F37
:10555000829F2227B00DA11D621F739FB00DA11D58
:10556000621F839FA00D611D221F749F3327A00D12
:10557000611D231F849F600D211D822F762F6A2FAE
:1055800011249F5750408AF0E1F088234AF0EE0F33
:10559000FF1FBB1F661F771F881F91505040A9F740
:1055A0009E3F510570F004CFACCF5F3FECF3983EC7
:1055B000DCF3869577956795B795F795E7959F5FA7
:1055C000C1F7FE2B880F911D9695879597F9089541
:1055D00011F40EF4F3CE3EC079DFD0F39923D9F362
:1055E000CEF39F57550B87FF43D00024A0E640EA37
:1055F000900180585695979528F4805C660F771F28
:10560000881F20F026173707480730F4621B730BFA
:10561000840B202931294A2BA6951794079420251D
:1056200031254A2758F7660F771F881F20F0261765
:105630003707480730F4620B730B840B200D311DC4
:10564000411DA09581F7B901842F9158880F969537
:10565000879508959F3F31F0915020F48795779575
:105660006795B795880F911D9695879597F9089539
:1056700091505040660F771F881FD2F708959F936F
:105680008F937F936F93FF93EF939B01AC012BD884
:10569000EF91FF9196DE2F913F914F915F9123C83B
:1056A000EF92FF920F931F93CF93DF93689F800138
:1056B000699F100D789F100D1124C8010E94752B51
:1056C000E82EE7017E01F92EE701E114F10431F043
:1056D0008E2D60E070E0A8010E94C72D7E01CE01F2
:1056E000CDB7DEB7E6E00C943729EF92FF920F9327
:1056F0001F93CF93DF938230910510F482E090E006
:10570000C0914E07D0914F0720E030E040E050E0DC
:1057100029C06881798168177907D8F068177907F7
:1057200079F48A819B812115310521F0F901938358
:10573000828304C090934F0780934E07DE012AC0F6
:105740004115510519F06417750718F4FE01AB01F6
:10575000D9019E017A816B81E72EE7017E01062F38
:10576000F62EE7012097A9F641155105F9F0481BDF
:10577000590B4430510580F482819381109729F0B0
:1057800013969C938E93129704C090934F07809327
:105790004E07DF01129645C0DF01A40FB51F8D93A0
:1057A0009D9342505040518340833BC020914C0711
:1057B00030914D072115310541F42091A00230911F
:1057C000A10230934D0720934C072091A202309103
:1057D000A3022115310541F42DB73EB740919E0239
:1057E00050919F02241B350BA0914C07B0914D079F
:1057F000A217B307A0F42A1B3B0B2817390778F030
:10580000AC014E5F5F4F2417350748F04A0F5B1F0E
:1058100050934D0740934C078D939D9302C0A0E099
:10582000B0E0CD01CDB7DEB7E6E00C943729CF93D9
:10583000DF93009709F48FC0FC0132971382128224
:1058400060914E0770914F076115710581F42081B9
:105850003181280F391F80914C0790914D07821795
:10586000930761F5F0934D07E0934C0774C0EB018B
:1058700080E090E0CE17DF0740F42A813B81CE0123
:105880002115310501F1E901F5CFD383C283DF0191
:105890004D915D919D01240F351FC217D30761F40F
:1058A00028813981240F351F2E5F3F4F318320839C
:1058B0002A813B8133832283009729F4F0934F0799
:1058C000E0934E0748C0DC011396FC93EE931297C9
:1058D000EC0149915991C40FD51FEC17FD0779F4DC
:1058E00020813181240F351F2E5F3F4F11963C934D
:1058F0002E932281338113963C932E931297E0E0EE
:10590000F0E0DB0112968D919C911397009721F0A6
:10591000E62FF72FBC01F5CF9B012E5F3F4FDB0138
:105920008D919C911197820F931F40914C0750913C
:105930004D074817590779F4309729F410924F070B
:1059400010924E0702C013821282225030403093D0
:105950004D0720934C07DF91CF910895A0E0B0E070
:10596000E4EBFCE20C941329EC01CB01209741F409
:105970000E94752BE82EE7017E01F92EE701B9C0E0
:10598000BEEFEB2EBFEFFB2EEC0EFD1EAE01460F61
:10599000571F4E155F0508F4AAC0D7012D913C9101
:1059A000119726173707C0F02530310508F4A1C03C
:1059B000B901645070406817790708F49AC0225002
:1059C0003040281B390BFA01219331938D939C931E
:1059D000CF010E94172C8DC06B01C21AD30A5E0141
:1059E000A20EB31EE0914E07F0914F076624772474
:1059F00000E010E045C0EA15FB05B9F56081718152
:105A0000A2E08A2E912C860E971E8C149D0468F1BC
:105A10008B010C191D090E5F1F4FB280A38005304A
:105A2000110560F0FA01B282A3826C197D097183BD
:105A30006083D70111969C938E9309C02E5F3F4FD0
:105A4000260F371FF70131832083EB2DFA2D6114C8
:105A5000710431F0D3011396FC93EE93129749C071
:105A6000F0934F07E0934E0744C0608171810617A1
:105A7000170708F48B013F0172816381E72FF62F2E
:105A8000309709F0B8CF20914C0730914D072A1577
:105A90003B05E9F408171907D0F42091A2023091D0
:105AA000A3022115310541F42DB73EB760919E0246
:105AB00070919F02261B370B42175307C0F4509377
:105AC0004D0740934C07F7019183808312C00E94D9
:105AD000752B8C01009759F0D7014D915C91BE0157
