:100000000C942F050C9457050C9457050C94570528
:100010000C9457050C9457050C9457050C945705F0
:100020000C9457050C9457050C9457050C945705E0
:100030000C9457050C9457050C9457050C945705D0
:100040000C9456100C9457050C948D0A0C9457057B
:100050000C9457050C9457050C9457050C945705B0
:100060000C94AE1C0C945705501DFE1CFE1CFE1C6F
:10007000FE1CFE1CFE1CFE1C5A1DFE1CFE1CFE1C53
:10008000FE1CFE1CFE1CFE1C5A1DFE1CFE1CFE1C43
:10009000FE1CFE1CFE1CFE1C621DFE1CFE1CFE1C2B
:1000A000FE1CFE1CFE1CFE1C711DFE1CFE1CFE1C0C
:1000B000FE1CFE1CFE1CFE1C621DFE1CFE1CFE1C0B
:1000C000FE1CFE1CFE1CFE1C9C1DFE1CFE1CFE1CC1
:1000D000FE1CFE1CFE1CFE1CA71DFE1CFE1CFE1CA6
:1000E000FE1CFE1CFE1CFE1C241DFE1CFE1CFE1C19
:1000F000FE1CFE1CFE1CFE1C371DFE1CFE1CFE1CF6
:10010000FE1CFE1CFE1CFE1C181DFE1CFE1CFE1C04
:10011000FE1CFE1CFE1CFE1C2B1DFE1CFE1CFE1CE1
:10012000FE1CFE1CFE1CFE1C471DFE1CFE1CFE1CB5
:10013000FE1CFE1CFE1CFE1C471DFE1CFE1CFE1CA5
:10014000FE1CFE1CFE1CFE1C471DFE1CFE1CFE1C95
:10015000FE1CFE1CFE1CFE1C471DFE1CFE1CFE1C85
:10016000FE1CFE1CFE1CFE1C0F1DFE1CFE1CFE1CAD
:10017000FE1CFE1CFE1CFE1C141DFE1CFE1CFE1C98
:10018000FE1CFE1CFE1CFE1C0F1DFE1CFE1CFE1C8D
:10019000FE1CFE1CFE1CFE1C141DFE1CFE1CFE1C78
:1001A000FE1CFE1CFE1CFE1C7C1DFE1CFE1CFE1C00
:1001B000FE1CFE1CFE1CFE1CD41CFE1CFE1CFE1C99
:1001C000FE1CFE1CFE1CFE1CD41CFE1CFE1CFE1C89
:1001D000FE1CFE1CFE1CFE1CE91CFE1CFE1CFE1C64
:1001E000FE1CFE1CFE1CFE1C411DFE1CFE1CFE1CFB
:1001F000FE1CFE1CFE1CFE1C411D260226022602C1
:1002000026022602260226022602260226022602AE
:10021000260226022602260226022602260226029E
:10022000260226022602260226022602260226028E
:10023000260226022602260226022602260226027E
:100560002602260226021D02180214020F020A02A7
:1005700006020202FD01F901F501F101EC01E801B9
:10058000E401E101DD01D901D501D201CE01CA01A9
:10059000C701C301C001BD01B901B601B301B0017A
:1005A000AD01AA01A701A401A1019E019B0198012F
:1005B0009501920190018D018A01880185018301D5
:1005C00080017D017B0179017601740171016F0168
:1005D0006D016B01680166016401620160015E01E9
:1005E0005B01590157015501530151014F014D0163
:1005F0004C014A01480146014401420141013F01C9
:100600003D013B013A01380136013401330131012A
:1006100030012E012C012B01290128012601250181
:100620002301220120011F011D011C011B011901D1
:1006300018011601150114011201110110010E011A
:100640000D010C010B01090108010701060104015C
:100650000301020101010001FF00FD00FC00FB009D
:10066000FA00F900F800F700F600F500F300F200D8
:10067000F100F000EF00EE00ED00EC00EB00EA000E
:10068000E900E800E700E600E500E400E300E3003D
:10069000E200E100E000DF00DE00DD00DC00DB0066
:1006A000DA00DA00D900D800D700D600D500D5008E
:1006B000D400D300D200D100D000D000CF00CE00B3
:1006C000CD00CD00CC00CB00CA00CA00C900C800D4
:1006D000C700C700C600C500C400C400C300C200F4
:1006E000C200C100C000BF00BF00BE00BD00BD0011
:1006F000BC00BB00BB00BA00BA00B900B800B8002B
:10070000B700B600B600B500B500B400B300B30042
:10071000B200B100B100B000B000AF00AF00AE0059
:10072000AD00AD00AC00AC00AB00AB00AA00AA006D
:10073000A900A800A800A700A700A600A600A50081
:10074000A500A400A400A300A300A200A200A10091
:10075000A100A000A0009F009F009E009E009D00A1
:100760009D009C009C009B009B009A009A009A00B0
:1007700099009900980098009700970096009600BD
:1007800095009500950094009400930093009200CA
:1007900092009200910091009000900090008F00D4
:1007A0008F008E008E008E008D008D008C008C00DE
:1007B0008C008B008B008A008A008A0089008900E7
:1007C00089008800880088008700870086008600EE
:1007D00086008500850085008400840084008300F5
:1007E00083008300820082008200810081008100FA
:1007F0008000800080007F007F007F007E007E0000
:100800007E007D007D007D007C007C007C007B0004
:100810007B007B007A007A007A007A007900790008
:10082000790078007800780077007700770077000B
:10083000760076007600750075007500750074000E
:100840007400740073007300730073007200720010
:100850007200720071007100710070007000700011
:1008600070006F006F006F006F006E006E006E0012
:100870006E006D006D006D006D006C006C006C0012
:100880006C006B006B006B006B006A006A006A0012
:100890006A00690069006900690069006800680011
:1008A0006800680067006700670067006600660010
:1008B000660066006600650065006500650064000E
:1008C0006400640064006400640064006400640008
:1008D00064006400640064006400640064006400F8
:1008E00064006400640064006400640064006400E8
:1008F00064006400640064006400640064006400D8
:1009000064006400640064006400640064006400C7
:1009100064006400640064006400640064006400B7
:1009200064006400640064006400640064006400A7
:100930006400640064006400640064006400640097
:100940006400640064006400640064006400640087
:100950006400640064006400640064006400640077
:100960006400640064006400640064006400640067
:100970006400640064006400640064006400640057
:100980006400640064006400640064006400640047
:100990006400640064006400640064006400640037
:1009A0006400640064006400640064006400640027
:1009B0006400640064006400640064006400640017
:1009C0006400640064006400640064006400640007
:1009D00064006400640064006400640064006400F7
:1009E00064006400640064006400640064006400E7
:1009F00064006400640064006400000000002400DF
:100A000027002A0000000000250028002B0000001D
:100A10000000230026002900040404040404040444
:100A20000202020202020303030303030102040899
:100A30001020408001020408102001020408102048
:100A4000000000070002010000030406000000008F
:100A500000000000D42421289105200C2628112410
:100A60001FBECFEFD8E0DEBFCDBF12E0A0E0B1E007
:100A7000E4E9FFE502C005900D92A239B107D9F76C
:100A800015E0A2E9B2E001C01D92AD3AB107E1F76D
:100A90001AE0CCE5DAE004C02297FE010E94952915
:100AA000C435D107C9F70E9402250C94BD2F0C94C0
:100AB000000008950895FC018081823071F0833038
:100AC00028F0833069F0843031F008958130E9F7FF
:100AD0006093B300089568BD08956093B4000895CD
:100AE00067BD0895CF93DF93EC0188819981689F5A
:100AF0009001699F300D789F300D112440E050E047
:100B000060E077E883E993E00E943A292B833C83F5
:100B10004D835E831F82188619861A86DF91CF91D6
:100B200008950895CF93DF938CE060E00E942E1229
:100B300088E060E00E942E12C7E0D0E00DC088E09F
:100B400061E00E942E1284E061E00E942E12219743
:100B50003FEFCF3FD307A1F084E060E00E942E1268
:100B60008091510490E00C2E02C0959587950A94CF
:100B7000E2F780FDE4CF88E060E00E942E12E3CF30
:100B80008CE061E00E942E12DF91CF910895DF92F8
:100B9000EF92FF920F931F93CF93DF93EC018A8123
:100BA000813009F471C0823049F080E0DF91CF914B
:100BB0001F910F91FF90EF90DF9008952EE191E249
:100BC000D92E30E450E8E1E0F0E2413001F142306A
:100BD00009F495C0433009F4A2C09B85443021F547
:100BE000613009F4F3C091509B879F739B879031CC
:100BF00008F099C0092F10E061E571E0601B710BEE
:100C0000DB017C910F5B1E4FD8016C910FC09B855F
:100C1000792F76957695769570FF9BC0613009F4B3
:100C2000DCC098509B879B857FEF6FEF9F739B87FE
:100C3000813009F45FC0823009F46EC080915104A4
:100C4000822380935104443091F196959695969520
:100C5000943009F4AFC09530F8F0963009F4AEC086
:100C6000963008F087C0352B382B3093510480E53F
:100C700094E00E9492058B85DF91CF911F910F9197
:100C8000FF90EF90DF90089521EE36E0D32E30E113
:100C900058E0E2E0F4E099CF923009F493C0933049
:100CA00008F462C05E2B582B50935104E0CF903172
:100CB00018F48D2980935104892F8051803130F4AC
:100CC000E52B209151042E2B20935104892F805223
:100CD000803130F4532B20915104252B2093510463
:100CE0009053903120F63F2B90915104932B909389
:100CF0005104BDCF7093B3006093B4009FCF9B8528
:100D0000792F76957695769570FD29C0613009F436
:100D100047C098509B8788CF77BD68BD8FCF613023
:100D2000F1F19B85F6CF692F6051603150F1692F49
:100D30006052603108F055C0092F10E061E771E0A2
:100D4000601B710BDB017C910F5D1E4FD8016C9114
:100D50006DCF6130F1F190519B879B8565CF6130FC
:100D600011F190519B8760CF913001F18F2B8093CF
:100D700051047DCF9730D1F73F2B382B309351045E
:100D800076CFE92EFF24B7016F5C7E4FDB017C91AB
:100D900001E611E00E191F09D8016C9147CF9B8520
:100DA000985F9B8741CF905F9B873ECF8D29809333
:100DB00051045DCF852B8093510459CF832B8093B1
:100DC000510455CF8E2B8093510451CF9F5F9B8749
:100DD0000CCF905F9B879B8527CF985F9B879B85D8
:100DE00023CF692F6053603118F070E060E01ECFB0
:100DF000E92EFF24B7016F5E7E4FDB017C9101E895
:100E000011E00E191F09D8016C9110CF5F926F92FB
:100E10007F928F929F92AF92BF92CF92DF92EF928A
:100E2000FF920F931F93CF93DF93EC018B01542E0E
:100E3000F22E8B809C80AD80BE8023E0F21609F4F8
:100E4000A5C084E0F81609F4A6C0C501B40128EED7
:100E500033E040E050E00E943A29722EC32ED42E97
:100E6000E52EC501B40128EE33E040E050E00E94D9
:100E70003A294B015C01662402C001501040011563
:100E8000110599F1CE01652D4F2D0E94C705682EE1
:100E9000672D7C2D8D2D9E2D0E94D3108F819885DE
:100EA000A985BA85880D991DAA1DBB1D8F839887BA
:100EB000A987BA87883E23E0920720E0A20720E0B6
:100EC000B207D8F261E070E080E090E00E94D310B9
:100ED0008F819885A985BA85885E9340A040B040EF
:100EE0008F839887A987BA87C8CF84E0F81681F0E6
:100EF000DF91CF911F910F91FF90EF90DF90CF90F6
:100F0000BF90AF909F908F907F906F905F9008956B
:100F1000662071F320E1621619F4EACF003141F343
:100F2000CE01652D44E00E94C705082F672D7C2D5A
:100F30008D2D9E2D0E94D3108F819885A985BA850D
:100F4000880D991DAA1DBB1D8F839887A987BA8715
:100F5000883E23E0920720E0A20720E0B20790F04D
:100F600061E070E080E090E00E94D3108F8198856E
:100F7000A985BA85885E9340A040B0408F8398874A
:100F8000A987BA87002309F4B3CFC8CFB694A79432
:100F9000979487945ACF54E0B694A79497948794E3
:100FA0005A95D1F702951295107F1027007F1027D0
:100FB0004CCFFC018281813069F0823009F00895C4
:100FC000809151048E718093510480E594E00E94D9
:100FD0009205089580915104817E8093510480E5AB
:100FE00094E00E9492050895FC018081823009F40A
:100FF0006AC0833030F0833009F462C0843039F144
:1010000008958130E9F783E092E0623021F16430A5
:1010100009F43BC06130A1F721E030E0A90102C032
:10102000440F551F8A95E2F7842F8095A90102C0CD
:10103000440F551F9A95E2F720915104242B8223E7
:101040008093510480E594E00E949205089586E023
:1010500090E06230E1F621E030E0A90102C0440FE7
:10106000551F9A95E2F7942F90954091510494233F
:1010700002C0220F331F8A95E2F7922B90935104FE
:1010800080E594E00E949205089521E030E0A901F6
:1010900002C0440F551F9A95E2F7B90102C0660FCE
:1010A000771F8A95E2F7CB01842B8095209151041C
:1010B00028232093510480E594E00E94920508952E
:1010C00087E095E0A2CF84E091E09FCFCF93DF93BC
:1010D000EC018CE061E00E94DC1187E061E00E949D
:1010E000DC1188E061E00E94DC1184E061E00E9494
:1010F000DC1110925104CE010E94920587E060E05D
:101100000E942E12DF91CF910895EF92FF921F93CC
:10111000CF93DF93EC017B01142F80E594E00E94D4
:101120006608F982E8821A831B861130D1F11230E9
:1011300031F0DF91CF911F91FF90EF900895809152
:1011400051048E718093510480E594E00E949205D1
:1011500085E061E00E94DC1186E061E00E94DC1124
:1011600085E061E00E942E1286E061E00E942E126E
:1011700084B5836884BD17BC86E061E00E94DC1101
:1011800084B5836284BD18BC85E061E00E94DC11F7
:101190008FEF87BD88BDDF91CF911F91FF90EF90BA
:1011A000089580915104817E8093510480E594E0FC
:1011B0000E9492058BE061E00E94DC1183E061E017
:1011C0000E94DC118BE061E00E942E1283E061E05E
:1011D0000E942E128091B00083688093B00010931B
:1011E000B1001092B3008BE061E00E94DC118091AD
:1011F000B00083628093B0001093B1001092B400ED
:1012000083E061E00E94DC118FEF8093B300809354
:10121000B4008FCF1F93DF93CF930F92CDB7DEB77C
:10122000FC01142F6083418380E594E069830E9470
:1012300066086981623009F450C06330F0F46130AF
:10124000B9F480915104837F8093510480E594E048
:101250000E9492058091B00083688093B00017705F
:101260001093B1001092B3008BE061E00E94DC119A
:101270000F90CF91DF911F9108956330C1F06430DA
:10128000B9F7809151048E7B8093510480E594E0FE
:101290000E94920584B5836284BD18BC85E061E03C
:1012A0000E94DC110F90CF91DF911F9108958091E2
:1012B00051048F758093510480E594E00E9492055B
:1012C00084B5836884BD17BC86E061E00E94DC11B0
:1012D0000F90CF91DF911F910895809151048D7EE1
:1012E0008093510480E594E00E9492058091B000C3
:1012F00083628093B00017701093B1001092B40015
:1013000083E061E00E94DC110F90CF91DF911F918B
:1013100008951F93DF93CF930F92CDB7DEB7FC01F3
:10132000142F6083418380E594E069830E946608FE
:101330006981623009F450C06330F0F46130B9F46F
:1013400080915104837F8093510480E594E00E9452
:1013500092058091B00083688093B000177010935D
:10136000B1001092B3008BE061E00E94DC110F909D
:10137000CF91DF911F9108956330C1F06430B9F7C8
:10138000809151048E7B8093510480E594E00E940B
:10139000920584B5836284BD18BC85E061E00E943B
:1013A000DC110F90CF91DF911F910895809151042E
:1013B0008F758093510480E594E00E94920584B576
:1013C000836884BD17BC86E061E00E94DC110F9049
:1013D000CF91DF911F910895809151048D7E80936C
:1013E000510480E594E00E9492058091B0008362F0
:1013F0008093B00017701093B1001092B40083E096
:1014000061E00E94DC110F90CF91DF911F91089550
:10141000EF92FF921F93CF93DF93EC017B01142F88
:1014200080E594E00E946608F982E8821A831B86B0
:101430001130D1F1123031F0DF91CF911F91FF9037
:10144000EF900895809151048E718093510480E54E
:1014500094E00E94920585E061E00E94DC1186E044
:1014600061E00E94DC1185E061E00E942E1286E0BE
:1014700061E00E942E1284B5836884BD17BC86E0AB
:1014800061E00E94DC1184B5836284BD18BC85E0F4
:1014900061E00E94DC118FEF87BD88BDDF91CF91A5
:1014A0001F91FF90EF90089580915104817E809369
:1014B000510480E594E00E9492058BE061E00E9477
:1014C000DC1183E061E00E94DC118BE061E00E94AE
:1014D0002E1283E061E00E942E128091B00083689A
:1014E0008093B0001093B1001092B3008BE061E0E4
:1014F0000E94DC118091B00083628093B000109351
:10150000B1001092B40083E061E00E94DC118FEF23
:101510008093B3008093B4008FCF1F920F920FB6C9
:101520000F9211242F933F934F935F936F938F9359
:101530009F93EF93FF936091C6002091D204309166
:10154000D304C90101968F7790704091D4045091D3
:10155000D5048417950741F02E5A3B4FF90160835B
:101560009093D3048093D204FF91EF919F918F9138
:101570006F915F914F913F912F910F900FBE0F9000
:101580001F9018958F92AF92CF92DF92EF92FF92B9
:101590000F931F93DF93CF93CDB7DEB7FC0186E5A2
:1015A00091E091838083738362835583448337837F
:1015B000268311870087F386E286D586C486A686B1
:1015C00087868D85808B8E85818B8F85828BCF9151
:1015D000DF911F910F91FF90EF90DF90CF90AF9030
:1015E0008F9008958F92AF92CF92DF92EF92FF92F9
:1015F0000F931F93DF93CF93CDB7DEB7FC0186E542
:1016000091E091838083738362835583448337831E
:10161000268311870087F386E286D586C486A68650
:1016200087868D85808B8E85818B8F85828BCF91F0
:10163000DF911F910F91FF90EF90DF90CF90AF90CF
:101640008F900895CF93DF93EC019A01AB01203086
:1016500081EE380780E0480780E0580709F448C069
:10166000E885F98581E090E00A8802C0880F991F1B
:101670000A94E2F7808360E079E08DE390E00E94D5
:101680003A29215030404040504056954795379573
:101690002795832FEC81FD818083EE81FF8120835C
:1016A000EA85FB85808121E030E0A9010E8402C03B
:1016B000440F551F0A94E2F7842B8083EA85FB854B
:1016C0008081A9010F8402C0440F551F0A94E2F7DC
:1016D000842B8083EA85FB858081088802C0220FE5
:1016E000331F0A94E2F7822B8083DF91CF91089514
:1016F000E885F985108220E180E0CCCFFC01A2854D
:10170000B3853C9181E090E0AC01068402C0440FB7
:10171000551F0A94E2F7242F209523232C93A285AA
:10172000B3853C91AC01078402C0440F551F0A9455
:10173000E2F7242F209523232C93A285B3852C91A7
:10174000008802C0880F991F0A94E2F780958223CF
:101750008C930895FC0182819381FC01E058FF4F36
:10176000208131818E579F4FFC0180819181281B00
:10177000390B2F773070C9010895FC018281938164
:10178000FC01EE57FF4F20813181FC01E058FF4FF3
:10179000408151814217530739F0820F931FFC019A
:1017A000208130E0C90108952FEF3FEFC90108956E
:1017B000DC0112968D919C911397FC01EE57FF4F1F
:1017C00040815181DC01A058BF4F2D913C91119770
:1017D0002417350769F0840F951FDC012C914F5FAA
:1017E0005F4F4F7750705183408330E0C9010895B7
:1017F0002FEF3FEFC9010895DC0112968D919C9166
:101800001397FC01E058FF4F8E579F4FDC018D91DD
:101810009C911197918380830895FC01A085B185E7
:1018200021898C9190E0022E02C0959587950A94AB
:10183000E2F780FFF6CF0484F585E02D60830895FC
:1018400086E591E09093D7048093D60482E594E0F6
:101850009093D9048093D80485EC90E09093DB04B6
:101860008093DA0484EC90E09093DD048093DC04B0
:1018700080EC90E09093DF048093DE0481EC90E0B4
:101880009093E1048093E00486EC90E09093E3046D
:101890008093E20484E08093E40483E08093E50491
:1018A00087E08093E60485E08093E70481E08093FD
:1018B000E80408950F931F93CF93DF93EC018B01FE
:1018C000FB016081662369F00F5F1F4FE881F9819A
:1018D0000190F081E02DCE010995F8016081662329
:1018E00099F7DF91CF911F910F910895EF92FF9299
:1018F0000F931F93CF93DF93EC018B017A01411576
:10190000510581F0F80161918F01E881F981019021
:10191000F081E02DCE0109950894E108F108E11469
:10192000F10481F7DF91CF911F910F91FF90EF901C
:101930000895DC01ED91FC910280F381E02D099581
:101940000895CF92DF92EF92FF920F931F93CF9360
:10195000DF937C018B01DB0114968D919C9115978F
:101960000097C1F060E070E0C0E0D0E0D701ED91F9
:10197000FC91C080D180C8010E94CE12682FC7019F
:10198000F60109952196BE01F80184819581C81759
:10199000D90760F3DF91CF911F910F91FF90EF90E6
:1019A000DF90CF9008952F923F924F925F926F9267
:1019B0007F928F929F92AF92BF92CF92DF92EF92DF
:1019C000FF920F931F93DF93CF93CDB7DEB7A2970C
:1019D0000FB6F894DEBF0FBECDBF9AA389A37A01DC
:1019E0008B01411551056105710509F455C0622E41
:1019F000772488249924AA24BB2465011E01089415
:101A0000211C311C21014A0C5B1CC801B701A40137
:101A100093010E943A29F20160830894A11CB11C31
:101A2000C11CD11CC801B701A40193010E943A292D
:101A3000E22EF32E042F152FE114F10401051105F8
:101A400009F7A114B104C104D10471F10894A108EB
:101A5000B108C108D10818C0405D50E060E070E0F6
:101A600089A19AA120E030E00E948B0D0894A10882
:101A7000B108C108D108FFEFAF16FFEFBF06FFEFB7
:101A8000CF06FFEFDF0681F0F101EA0DFB1D40817B
:101A90004A3010F3495CE1CF40E350E060E070E091
:101AA00020E030E00E948B0DA2960FB6F894DEBFC6
:101AB0000FBECDBFCF91DF911F910F91FF90EF909F
:101AC000DF90CF90BF90AF909F908F907F906F905E
:101AD0005F904F903F902F9008952115310519F098
:101AE0000E94D30C0895DC01ED91FC910190F081EE
:101AF000E02D642F099508959A01AB0160E070E034
:101B00000E946D0D08959A01462F50E060E070E04C
:101B10000E946D0D0895EF92FF920F931F93CF9344
:101B2000DF93EC017A018B0121153105D9F02A30C0
:101B3000310549F00E94D30CDF91CF911F910F9195
:101B4000FF90EF90089577FD1BC0CE01B801A7016B
:101B50002AE00E94D30CDF91CF911F910F91FF904B
:101B6000EF900895E881F9810190F081E02D642FD4
:101B70000995DF91CF911F910F91FF90EF900895FC
:101B80004DE250E060E070E020E030E00E948B0D1C
:101B900010950095F094E094E11CF11C011D111DBD
:101BA000D4CFEF92FF920F931F939A017B010027EE
:101BB000F7FC0095102FB801A7010E948B0D1F9113
:101BC0000F91FF90EF9008959A01462F50E060E04A
:101BD00070E00E948B0D0895CF93DF93EC014DE0F0
:101BE00050E060E070E020E030E00E948B0DCE011C
:101BF0004AE050E060E070E020E030E00E948B0DB1
:101C0000DF91CF910895CF93DF93EC010E946D0D8A
:101C1000CE010E94EC0DDF91CF910895CF93DF9319
:101C2000EC019A01AB0160E070E00E946D0DCE0105
:101C30000E94EC0DDF91CF910895CF93DF93EC01DB
:101C40009A01462F50E060E070E00E946D0DCE01D9
:101C50000E94EC0DDF91CF910895CF93DF93EC01BB
:101C60000E94990CCE010E94EC0DDF91CF91089556
:101C7000CF93DF93EC010E94A10CCE010E94EC0DEA
:101C8000DF91CF910895CF93DF93EC010E948B0DEC
:101C9000CE010E94EC0DDF91CF910895CF93DF9399
:101CA000EC01CB019A01AC01662757FD6095762FB8
:101CB000CE010E948B0DCE010E94EC0DDF91CF91E1
:101CC0000895CF93DF93EC019A01462F50E060E036
:101CD00070E00E948B0DCE010E94EC0DDF91CF9140
:101CE00008959F92AF92BF92CF92DF92EF92FF92B0
:101CF0000F931F93CF93DF93EC016A017B01122FA7
:101D0000CB01BA0120E030E0A9010E94872188239D
:101D10000CF483C0112309F48EC000E050E040E0D1
:101D200030E02FE3DA01F9016B2F742F8F2F922F00
:101D300020E030E040E251E40E94A920562F472FD6
:101D4000382F292F0F5F011768F3C701B601DA0199
:101D5000F9012B2F3A2F4F2F5E2F0E94841F5B011A
:101D6000C82E092F7B2D0E94D71D962EF72EE82E08
:101D7000D92E0E9467229B01AC016A2D7B2D8C2DF0
:101D8000902F0E94531F5B01C82E092FCE01492DB1
:101D90005F2D6E2D7D2D2AE030E00E946D0DCE016D
:101DA00066E771E00E94990C6A2D7B2D8C2D902F97
:101DB00020E030E040E251E40E94B11F062FB72E30
:101DC000A82E992E0E9414226B01EE24D7FCE094D9
:101DD000FE2CCE01B701A6012AE030E00E948B0D57
:101DE000C701B6010E94B7219B01AC01602F7B2D7A
:101DF0008A2D992D0E94531F5B01C82E092F115067
:101E000099F6DF91CF911F910F91FF90EF90DF90A6
:101E1000CF90BF90AF909F900895CE014DE250E0DB
:101E200060E070E020E030E00E948B0DF7FAF09463
:101E3000F7F8F0946FCFC701B60120E030E040E042
:101E40005FE30E94841F0E94D71DAB01BC01CE013D
:101E50002AE030E00E946D0DD4CF0E94710E0895EB
:101E6000CF93DF93EC010E94710ECE010E94EC0D26
:101E7000DF91CF9108950895089581E080932E0514
:101E800060930B0510922C0510922D05089581E0AA
:101E900080932E0560930B0510922C0510922D0552
:101EA000089580910A0590910905891B08959091E4
:101EB000090580910A05981748F4E92FF0E0E751E9
:101EC000FB4F80819F5F90930905089580E00895FE
:101ED000CF93DF939C01E0913105F091320530976B
:101EE00011F19091090580910A059817E0F01616F6
:101EF00017069CF4A0E0B0E090E040E050E0A7516D
:101F0000BB4F420F531FEA0148814C939F5F492FFB
:101F100050E0DA014617570794F3109209056093D1
:101F20000A05CB010995DF91CF910895E0912F0526
:101F3000F0913005309729F010922C0510922D0564
:101F40000995089570933205609331050895709353
:101F5000300560932F050895DF93CF930F92CDB78F
:101F6000DEB7698380912E058823C1F080912D050D
:101F7000803220F00F90CF91DF91089580912C0551
:101F8000E82FF0E0E45FFA4F60838F5F80932C05C9
:101F900080932D050F90CF91DF910895CE0101968A
:101FA00061E00E946C1C0F90CF91DF9108950E9418
:101FB000AC0F0895EF92FF920F931F93CF93DF938F
:101FC000EC01162F042F80912E058823A9F04423BD
:101FD00061F0E62EF72ECE01F70161917F010E949C
:101FE000AC0F8E2D811B8017B0F3DF91CF911F9125
:101FF0000F91FF90EF900895862F972F642F0E94E6
:102000006C1CDF91CF911F910F91FF90EF9008957D
:10201000DB010D900020E9F7AD0141505040461B17
:10202000570B0E94DA0F089580910B056CE075E064
:1020300040912D0521E00E941C1C10922C0510924D
:102040002D0510922E050895862F413208F040E2AA
:1020500069EE74E00E94E31B1092090580930A0563
:1020600008950E94241008951092090510920A05FF
:1020700010922C0510922D050E94CC1B0895CF9331
:10208000DF93EC01862F0E94DF1B86E99FE00E9410
:102090008F1C88E69FE00E948A1CCE010E943410AB
:1020A000DF91CF9108950E943F1008951F920F92E3
:1020B0000FB60F9211242F933F938F939F93AF935B
:1020C000BF938091370590913805A0913905B09163
:1020D0003A0530913B050196A11DB11D232F2D5FBF
:1020E0002D3720F02D570196A11DB11D20933B05E2
:1020F0008093370590933805A0933905B0933A053E
:102100008091330590913405A0913505B091360545
:102110000196A11DB11D8093330590933405A093C2
:102120003505B0933605BF91AF919F918F913F9147
:102130002F910F900FBE0F901F9018958FB7F894A6
:1021400020913705309138054091390550913A0575
:102150008FBFB901CA0108959FB7F8942091330544
:1021600030913405409135055091360586B5A89BD0
:1021700006C08F3F21F02F5F3F4F4F4F5F4F9FBFF4
:10218000542F432F322F2227280F311D411D511D5F
:10219000220F331F441F551F220F331F441F551F8B
:1021A000B901CA010895EF92FF920F931F93CF9345
:1021B000DF937B018C010E94AC10EB01E114F10470
:1021C00001051105A1F00E94AC106C1B7D0B83E092
:1021D000683E7807C0F30894E108F1080109110985
:1021E000C851DC4FE114F1040105110561F7DF91DD
:1021F000CF911F910F91FF90EF900895019739F0C3
:10220000880F991F880F991F02970197F1F708957A
:10221000789484B5826084BD84B5816084BD85B5C1
:10222000826085BD85B5816085BDEEE6F0E0808188
:1022300081608083E1E8F0E01082808182608083A9
:10224000808181608083E0E8F0E08081816080832C
:10225000E1EBF0E0808184608083E0EBF0E080815E
:1022600081608083EAE7F0E0808184608083808100
:1022700082608083808181608083808180688083A8
:102280001092C10008958093820108958E3008F065
:102290008E508770909182019295990F990F907C42
:1022A000982B90937C0080917A00806480937A00D0
:1022B00080917A0086FDFCCF2091780030917900E2
:1022C000932F80E030E0282B392BC90108951F930C
:1022D000CF93DF93182FEB0161E00E94DC11209770
:1022E00059F1CF3FD105A1F0E12FF0E0E05CF54FCF
:1022F00084918330E1F1843098F0863069F1873041
:1023000009F44FC0843009F43FC0C038D105A4F0AF
:10231000812F61E00E942E12DF91CF911F910895CD
:10232000813091F0823089F784B5806284BDC8BD68
:10233000DF91CF911F910895812F60E00E942E12AE
:10234000DF91CF911F91089584B5806884BDC7BD8A
:10235000DF91CF911F9108958091B00080688093A4
:10236000B000C093B300DF91CF911F910895809189
:102370008000806880938000D0938900C09388009B
:10238000DF91CF911F9108958091800080628093AA
:102390008000D0938B00C0938A00DF91CF911F9172
:1023A00008958091B00080628093B000C093B40023
:1023B000DF91CF911F91089590E0FC01E45DF54F0E
:1023C0002491FC01E85EF54FE491EE2379F0F0E012
:1023D000EE0FFF1FE650F64FA591B491662339F03A
:1023E0009FB7F8948C91822B8C939FBF08959FB7D1
:1023F000F8948C91209582238C939FBF089583300D
:1024000039F1843060F08630C9F0873069F084306B
:1024100051F4809180008F7D8093800008958130F9
:1024200099F0823039F008958091B0008F7D8093CB
:10243000B000089584B58F7D84BD08958091B0006B
:102440008F778093B000089584B58F7784BD089509
:10245000809180008F778093800008950F931F9361
:10246000DF93CF930F92CDB7DEB7282F30E0F9017D
:10247000E05CF54F8491F901E45DF54F0491285E2D
:10248000354FF9011491112391F0882319F5E12FAB
:10249000F0E0EE0FFF1FEC5FF54FA591B4916623BE
:1024A00061F09FB7F8948C91802B8C939FBF0F9015
:1024B000CF91DF911F910F9108959FB7F8948C9160
:1024C000009580238C939FBF0F90CF91DF911F9138
:1024D0000F91089569830E94FF116981D8CF0F93EE
:1024E0001F93282F30E0F901E05CF54F8491F9014A
:1024F000E45DF54F0491285E354FF90114911123E5
:10250000C9F08823E9F4E12FF0E0EE0FFF1FE25F4E
:10251000F54FA591B4918C9120E030E0802321F417
:10252000C9011F910F91089521E030E0C9011F9169
:102530000F91089520E030E0C9011F910F91089597
:102540000E94FF11E0CFDC01ED91FC911197E60FA5
:10255000F71F80810895FC0180819181009749F0E7
:10256000248135816217730720F4680F791FFB01FE
:1025700040830895FC01848195816817790740F4B0
:1025800080819181009721F0680F791FCB01089518
:1025900010923C056CE375E0CB010895DC01ED91F0
:1025A000FC911197E60FF71F80810895FC0180814F
:1025B00091810E94C82B08950F931F93CF93DF93AF
:1025C000FC01EB0141155105A1F06115710589F080
:1025D000848195818A01015010408017910770F025
:1025E00060817181CE01A8010E944B2CC00FD11FC8
:1025F0001882DF91CF911F910F9108958C01F0CF38
:102600000F931F93CF93DF93FC01EB01411551050D
:10261000A1F06115710589F0848195818A010150CD
:1026200010408017910770F060817181CE01A80180
:102630000E944B2CC00FD11F1882DF91CF911F91A8
:102640000F9108958C01F0CFFC01DB01CA011496B3
:102650004D915C91159724813581241B350B2817EA
:10266000390780F0208131816D917C91820F931F19
:102670000E943D2C9C0180E02115310509F0089550
:1026800081E0089580E00895FC0144815581FB01BB
:10269000248135814217530710F480E0089540E00B
:1026A00050E00E9424130895DF92EF92FF920F935F
:1026B0001F93CF93DF93EC018C819D8148175907BD
:1026C00058F02FEF3FEFC901DF91CF911F910F918C
:1026D000FF90EF90DF9008958A010F5F1F4FE88110
:1026E000F981E00FF11FD0801082E880F980C701E6
:1026F00070E00E945A2C9C010E0D1F1DF801D08223
:102700000097F9F288819981281B390BDCCFFC01F5
:1027100044815581415050400E9454130895CF93F5
:10272000DF93FC01848195814817590730F02FEF22
:102730003FEFC901DF91CF910895C081D181FB01A5
:1027400060817181CE01840F951F0E94652C9C01D0
:10275000009769F32C1B3D0BECCF40E050E00E944A
:102760008F130895CF93DF93FC01848195814817DF
:10277000590730F02FEF3FEFC901DF91CF91089556
:10278000C081D181CE01840F951F70E00E94222C60
:102790009C01009779F32C1B3D0BEECF40E050E0FD
:1027A0000E94B2130895FC01DB0124813581149647
:1027B0008D919C9115972817390711F080E00895A5
:1027C0006D917C91808191810E942D2C9C0180E0F3
:1027D0002115310509F0089581E00895FC01DB0120
:1027E0008481958114962D913C91159782179307BA
:1027F00090F0821B930B208131816D917C91820F2F
:10280000931F0E942D2C9C0180E02115310509F0B9
:10281000089581E0089580E00895FB016081718151
:10282000FC01808191810E942D2C292F332727FDC7
:102830003095209530952227330F221F3327C90169
:102840000895FB0160817181FC01808191810E946A
:102850002D2C40E050E01816190614F4CA01089512
:1028600041E050E0CA010895FB0160817181FC01E3
:10287000808191810E942D2C40E050E018161906AD
:1028800014F441E050E0CA010895FB0160817181B8
:10289000FC01808191810E942D2C292F332727FD57
:1028A00030952227330F221F3327C9010895FC01D9
:1028B000DB012481358114968D919C911597281701
:1028C000390721F021E030E0C90108956D917C9134
:1028D000808191810E942D2C9C012115310591F759
:1028E000C9010895FC01DB012481358114968D9185
:1028F0009C9115972817390721F020E030E0C90195
:1029000008956D917C91808191810E942D2C9C0174
:1029100080E090E02115310519F09C01C90108956E
:1029200081E090E09C01FACFFB0160817181FC01A4
:10293000808191810E942D2C0895EF92FF920F9338
:102940001F93CF93DF93EC018B01FB0164817581B1
:102950008C819D81680F791F7D836C838A819B8127
:102960008617970778F46F5F7F4F888199810E945F
:10297000F72A0097B1F0998388832C813D813B83AE
:102980002A8302C088819981F801608171810E9447
:10299000172CCE01DF91CF911F910F91FF90EF90F7
:1029A00008958C819D81F80124813581821B930BD0
:1029B0009D838C83EECF0E949D140895EF92FF9229
:1029C0000F931F93CF93DF93EC018B01861797072B
:1029D00099F0FB01448155818C819D818417950775
:1029E00098F088819981009739F05D834C83F801D4
:1029F000608171810E94362CCE01DF91CF911F91B1
:102A00000F91FF90EF900895888199810E94602A2C
:102A1000F801848195819B838A8301960E94BE2957
:102A200099838883009721F0F80144815581DDCF97
:102A30001B821A821D821C82DFCF0F931F93DF93AC
:102A4000CF930F92CDB7DEB78C0181E090E0D80133
:102A500015969C938E93149713969C938E9312972E
:102A600082E090E069830E94BE29FC01D8011196A2
:102A70009C938E936981009761F06083D801ED91FA
:102A8000FC91119711820F90CF91DF911F910F91BF
:102A9000089513961C921E92129715961C921E92E0
:102AA00014970F90CF91DF911F910F9108950F937D
:102AB0001F93DF93CF930F92CDB7DEB78C0181E0E8
:102AC00090E0D80115969C938E93149713969C933F
:102AD0008E93129782E090E069830E94BE29FC01E8
:102AE000D80111969C938E936981009761F0608361
:102AF000D801ED91FC91119711820F90CF91DF9148
:102B00001F910F91089513961C921E92129715967D
:102B10001C921E9214970F90CF91DF911F910F91ED
:102B200008950F931F93DF93CF930F92CDB7DEB726
:102B30008C0181E090E0D80115969C938E931497B8
:102B400013969C938E93129782E090E069830E9483
:102B5000BE29FC01D80111969C938E936981009740
:102B600061F06083D801ED91FC91119711820F9073
:102B7000CF91DF911F910F91089513961C921E9291
:102B8000129715961C921E9214970F90CF91DF9179
:102B90001F910F9108950F931F93DF93CF930F927F
:102BA000CDB7DEB78C0181E090E0D80115969C93FB
:102BB0008E93149713969C938E93129782E090E0D5
:102BC00069830E94BE29FC01D80111969C938E93C3
:102BD0006981009761F06083D801ED91FC911197B4
:102BE00011820F90CF91DF911F910F91089513964D
:102BF0001C921E92129715961C921E9214970F907B
:102C0000CF91DF911F910F9108950F931F93CF9351
:102C1000DF93EC018B01FB01848195819D838C8383
:102C20009B838A8301960E94BE299983888300979B
:102C300051F0F801608171810E94362CDF91CF91B3
:102C40001F910F9108951B821A821D821C82DF91B1
:102C5000CF911F910F9108950F931F93CF93DF93FF
:102C6000EC018B01FB01848195819D838C839B8387
:102C70008A8301960E94BE2999838883009751F028
:102C8000F801608171810E94362CDF91CF911F91F4
:102C90000F9108951B821A821D821C82DF91CF91B1
:102CA0001F910F910895EF92FF920F931F93DF935F
:102CB000CF93CDB7DEB7A1970FB6F894DEBF0FBEA6
:102CC000CDBF7C01CB01BA018E010F5F1F4FA80160
:102CD0002AE030E00E94E92CF80101900020E9F799
:102CE000CF010197801B910BF70195838483938318
:102CF000828301960E94BE29F70191838083009709
:102D000081F0B8010E94362CA1960FB6F894DEBF70
:102D10000FBECDBFCF91DF911F910F91FF90EF902C
:102D200008951382128215821482EECFEF92FF92E1
:102D30000F931F93DF93CF93CDB7DEB7A1970FB655
:102D4000F894DEBF0FBECDBF7C01CB01BA018E016E
:102D50000F5F1F4FA8012AE030E00E94E92CF80124
:102D600001900020E9F7CF010197801B910BF7013B
:102D7000958384839383828301960E94BE29F70101
:102D800091838083009781F0B8010E94362CA19630
:102D90000FB6F894DEBF0FBECDBFCF91DF911F916C
:102DA0000F91FF90EF900895138212821582148282
:102DB000EECFEF92FF920F931F93DF93CF93CDB798
:102DC000DEB7A1970FB6F894DEBF0FBECDBF7C0172
:102DD0009A0180E090E08E010F5F1F4FA8010E94D2
:102DE000E92CF80101900020E9F7CF010197801B41
:102DF000910BF701958384839383828301960E94CC
:102E0000BE29F70191838083009781F0B8010E9469
:102E1000362CA1960FB6F894DEBF0FBECDBFCF9172
:102E2000DF911F910F91FF90EF900895138212820E
:102E300015821482EECFEF92FF920F931F93DF93D0
:102E4000CF93CDB7DEB7A1970FB6F894DEBF0FBE14
:102E5000CDBF7C019A0180E090E08E010F5F1F4F93
:102E6000A8010E94E92CF80101900020E9F7CF01A8
:102E70000197801B910BF701958384839383828351
:102E800001960E94BE29F70191838083009781F00B
:102E9000B8010E94362CA1960FB6F894DEBF0FBE83
:102EA000CDBFCF91DF911F910F91FF90EF900895CB
:102EB0001382128215821482EECF0F931F93CF9349
:102EC000DF93EC018B016115710521F1FB0101908C
:102ED0000020E9F73197E61BF70BCF010196FD8340
:102EE000EC83FB83EA830E94BE2999838883009741
:102EF00041F0B8010E94362CDF91CF911F910F91C4
:102F000008951B821A821D821C82DF91CF911F912E
:102F10000F91089581E090E0E0E0F0E003E811E037
:102F2000DECFAF92BF92CF92DF92EF92FF920F93DC
:102F30001F93CF93DF937C018B01C82EE6016E01B6
:102F4000DF2CE601FB0160817181C6010E945D17E3
:102F5000F801848195810097B1F0AA24BB24C88030
:102F6000D980CA0CDB1CF601808190E00E94FF2B07
:102F7000F60180830894A11CB11CF801848195811D
:102F8000A816B90660F3C701DF91CF911F910F9189
:102F9000FF90EF90DF90CF90BF90AF900895AF92E9
:102FA000BF92CF92DF92EF92FF920F931F93CF9336
:102FB000DF937C018B01C82EE6016E01DF2CE60158
:102FC000FB0160817181C6010E945D17F801848157
:102FD00095810097B1F0AA24BB24C880D980CA0C7F
:102FE000DB1CF601808190E00E94F72BF6018083C4
:102FF0000894A11CB11CF80184819581A816B9061A
:1030000060F3C701DF91CF911F910F91FF90EF9077
:10301000DF90CF90BF90AF900895EF92FF920F9303
:103020001F93DF93CF93CDB7DEB72D970FB6F894EC
:10303000DEBF0FBECDBFFC018B0186179707E9F1FC
:1030400024813581DB0114968D919C911597281769
:10305000390779F020E0822F2D960FB6F894DEBF65
:103060000FBECDBFCF91DF911F910F91FF90EF90D9
:103070000895CE010196BF010E94CF17E980FA8022
:10308000CE010796B8010E94CF170F811885C7019E
:10309000B8010E942D2C20E0009709F421E0C8011E
:1030A0002D870E94602A1A8619861C861B868981B4
:1030B0009A810E94602A2D85CECF21E0CCCFDF926D
:1030C000EF92FF920F931F93CF93DF938C01EB014D
:1030D00079012417350730F4342F252FA701C901B2
:1030E000E92EF82E8C819D818E159F0508F47C01B8
:1030F000E881F981EE0DFF1DD08010826881798111
:10310000640F751FC8010E945D17E881F981EE0DFB
:10311000FF1DD082C801DF91CF911F910F91FF90C9
:10312000EF90DF900895CF93DF93EC01FB012481B2
:1031300035810E945F18CE01DF91CF9108958F9263
:103140009F92AF92BF92CF92DF92EF92FF920F9336
:103150001F93DF93CF9300D000D000D0CDB7DEB760
:103160006C017B01DB0114968D919C911597009762
:10317000B1F40FEF1FEFC80126960FB6F894DEBF2B
:103180000FBECDBFCF91DF911F910F91FF90EF90B8
:10319000DF90CF90BF90AF909F908F900895019750
:1031A0004817590730F3F60184819581481759076C
:1031B00000F7ED91FC91119790808A015E010894CF
:1031C000A11CB11C02C00150104017FDD2CFD60186
:1031D000ED91FC911197E00FF11F8081891599F70E
:1031E000F70124813581200F311FC501B601A801E7
:1031F0000E945F18C501B7010E94D313882E8981F0
:103200009A810E94602A882009F0B5CF1C821B8217
:103210001E821D82D8CFFC0144815581FB0124818F
:103220003581421B530B0E949F1808956F927F9225
:103230008F929F92AF92BF92CF92DF92EF92FF92C6
:103240000F931F93DF93CF9300D000D000D0CDB762
:10325000DEB78C016B01FB01608171816115710525
:1032600009F463C05E010894A11CB11CC5010E9451
:103270005D17F601848095808114910409F459C08A
:10328000F60160807180EE24FF2406C00894E11CE2
:10329000F11CE814F90448F4F301EE0DFF1D8081E0
:1032A00090E00E94EF2B009789F78D809E80089414
:1032B00081089108E814F904B0F4F601C080D180C7
:1032C000C80CD91C09C00894810891080894C10849
:1032D000D108E814F90438F4F601808190E00E94E6
:1032E000EF2B009781F794012F5F3F4FC801B50185
:1032F000A7010E945F1889819A810E94602AC801F3
:1033000026960FB6F894DEBF0FBECDBFCF91DF91EA
:103310001F910F91FF90EF90DF90CF90BF90AF90F3
:103320009F908F907F906F900895B6010E94051630
:10333000E6CFEE24FF24B9CF2F923F924F925F92B7
:103340006F927F928F929F92AF92BF92CF92DF92B5
:10335000EF92FF920F931F93DF93CF93CDB7DEB71A
:1033600068970FB6F894DEBF0FBECDBF1C01FB01FE
:103370005A012901608171816115710509F47EC0CE
:103380008E010F5F1F4FC8010E945D1747E0C42EDA
:10339000D12CCC0EDD1EC60163E871E00E945D17E2
:1033A0003DE0832E912C8C0E9D1E23E1622E712C0C
:1033B0006C0E7D1E2CC0C401B80140E050E09701A6
:1033C0000E945F18C601B4010E949D148D859E85E0
:1033D0000E94602A188A1F861A8A198AC601B201B9
:1033E0000E949D14F501448155814E0D5F1DC3015E
:1033F000B8010E949318C801B3010E94DE148B89A2
:103400009C890E94602A1E8A1D8A188E1F8AC80104
:10341000B5010E94AD137C01FFEF8F3F9F0759F666
:10342000C601B8010E949D14C101B6010E94051693
:103430008F8198850E94602A1A8619861C861B86B1
:1034400089819A810E94602AC10168960FB6F8941A
:10345000DEBF0FBECDBFCF91DF911F910F91FF90C7
:10346000EF90DF90CF90BF90AF909F908F907F9024
:103470006F905F904F903F902F900895BF010E94F2
:103480000516E2CFCF92DF92EF92FF920F931F9338
:10349000DF93CF9300D000D000D0CDB7DEB78C0142
:1034A000FB01F42EE22E608171816115710551F1ED
:1034B0006E010894C11CD11CC6010E945D17898150
:1034C0009A8101C0E0826F2D70E00E94222CFC01E5
:1034D0000097C1F7C801B6010E94051689819A813B
:1034E0000E94602AC80126960FB6F894DEBF0FBE70
:1034F000CDBFCF91DF911F910F91FF90EF90DF90A3
:10350000CF900895BF010E940516ECCF0F931F9333
:10351000CF93DF93EC018B016115710521F1FB0164
:1035200001900020E9F73197E61BF70BCF010196D8
:10353000FD83EC83FB83EA830E94BE299983888301
:10354000009741F0B8010E94362CDF91CF911F9176
:103550000F9108951B821A821D821C82DF91CF91E8
:103560001F910F91089581E090E0E0E0F0E003E822
:1035700011E0DECFEF92FF920F931F93DF93CF9373
:10358000CDB7DEB7A1970FB6F894DEBF0FBECDBFA3
:103590007C01CB01BA018E010F5F1F4FA8010E9471
:1035A000A02CF80101900020E9F7CF010197801BC2
:1035B000910BF701958384839383828301960E9404
:1035C000BE29F70191838083009781F0B8010E94A2
:1035D000362CA1960FB6F894DEBF0FBECDBFCF91AB
:1035E000DF911F910F91FF90EF9008951382128247
:1035F00015821482EECFEF92FF920F931F93DF9309
:10360000CF93CDB7DEB7A1970FB6F894DEBF0FBE4C
:10361000CDBF7C01CB01BA018E010F5F1F4FA80106
:103620000E94A02CF80101900020E9F7CF0101973A
:10363000801B910BF701958384839383828301968A
:103640000E94BE29F70191838083009781F0B80121
:103650000E94362CA1960FB6F894DEBF0FBECDBFE8
:10366000CF91DF911F910F91FF90EF9008951382FA
:10367000128215821482EECFEF92FF920F931F9366
:10368000DF93CF93CDB7DEB7A1970FB6F894DEBF27
:103690000FBECDBF7C01CB018E010F5F1F4FB80164
:1036A0000E947F2CF80101900020E9F7CF010197DB
:1036B000801B910BF701958384839383828301960A
:1036C0000E94BE29F70191838083009781F0B801A1
:1036D0000E94362CA1960FB6F894DEBF0FBECDBF68
:1036E000CF91DF911F910F91FF90EF90089513827A
:1036F000128215821482EECFEF92FF920F931F93E6
:10370000DF93CF93CDB7DEB7A1970FB6F894DEBFA6
:103710000FBECDBF7C01CB018E010F5F1F4FB801E3
:103720000E947F2CF80101900020E9F7CF0101975A
:10373000801B910BF7019583848393838283019689
:103740000E94BE29F70191838083009781F0B80120
:103750000E94362CA1960FB6F894DEBF0FBECDBFE7
:10376000CF91DF911F910F91FF90EF9008951382F9
:10377000128215821482EECF089520E030E0FC0121
:103780008081882311F421E030E0C901089521E00F
:10379000FC0120830895089510926105449A459A8A
:1037A000E9EBF0E080818E7F808380818D7F808354
:1037B00088E48093B80085E48093BC000895880F66
:1037C0008093BA0008954132A0F590916105992344
:1037D000E1F791E0909361059FEF9093600510925F
:1037E0003E05942F915090933F05880F8160809300
:1037F0003D0585EE8093BC00809161058130E1F349
:1038000080913E05841790F0442371F020E030E071
:10381000FB01E20FF31FD901A05CBA4F9C9190838A
:103820002F5F3F4F2417A0F3842F089540913E054A
:10383000EBCF40E0842F0895CF93DF93413208F01F
:1038400043C0909161059923E1F792E0909361055F
:103850009FEF9093600510923E0540933F054423EF
:1038600069F0E0E0F0E0DF01A05CBA4FEB01CE0FC1
:10387000DF1F98819C933196E417A8F390E0880F9E
:10388000991F80933D0585EE8093BC00222381F42F
:10389000809160058F3FA1F0809160058032C1F07A
:1038A000809160058033B1F084E0DF91CF9108957D
:1038B000809161058230E1F3809160058F3F61F76F
:1038C00080E0DF91CF91089581E0DF91CF9108955D
:1038D00082E0EBCF83E0E9CF6132D0F42091610543
:1038E000243011F082E0089560938605662371F01C
:1038F00020E030E0F901E757FA4FDC01A20FB31FD7
:103900004C9140832F5F3F4F2617A0F380E008952E
:1039100081E00895909384058093830508959093A2
:103920008805809387050895882321F485E880938E
:10393000BC00089585EC8093BC00089585ED8093CC
:10394000BC008091BC0084FDFCCF109261050895FD
:1039500085EC8093BC001092610508951F920F9230
:103960000FB60F9211242F933F934F935F936F9352
:103970007F938F939F93AF93BF93EF93FF93809128
:10398000B90090E0A0E0B0E0887F9070A070B070C7
:10399000893C910598F58C5C9F4FFC01EE0FFF1F51
:1039A0000590F491E02D099484E0809361051092D4
:1039B000850510928605E0918705F09188050995A7
:1039C00080918605882329F481E0809386051092F2
:1039D000890580918505E82FF0E0E757FA4F90813F
:1039E0009093BB008F5F80938505909185058091B2
:1039F00086059817C8F485EC8093BC00FF91EF9181
:103A0000BF91AF919F918F917F916F915F914F91F6
:103A10003F912F910F900FBE0F901F90189580919E
:103A20006205803208F49CC085E88093BC00E6CF34
:103A300080913E059091BB00E82FF0E0E05CFA4FEA
:103A400090838F5F80933E0590913E0580913F0566
:103A5000981750F7D0CF80913E059091BB00E82F8A
:103A6000F0E0E05CFA4F90838F5F80933E0585ED38
:103A70008093BC008091BC0084FDFCCF1092610556
:103A8000BDCF85EC8093BC0010926105B7CF83E079
:103A9000809361051092620585EC8093BC00AECFE7
:103AA0001092600585ED8093BC008091BC0084FD80
:103AB000FCCFE4CF80913D058093BB0085EC8093E3
:103AC000BC009CCF90913E0580913F05981708F46B
:103AD0005EC085ED8093BC008091BC0084FDFCCF6E
:103AE000CDCF80E28093600585ED8093BC0080910E
:103AF000BC0084FDFCCFC2CF80916205803208F407
:103B00003FC085ED8093BC008091BC0084FDFCCF5C
:103B10001092610560916205E0918305F091840542
:103B200083E695E070E009951092620585EC80933C
:103B3000BC001092610562CF80E38093600585ED43
:103B40008093BC008091BC0084FDFCCF97CF88E3BC
:103B50008093600585EC8093BC00109261054ECF88
:103B6000809162059091BB00E82FF0E0ED59FA4F8B
:103B700090838F5F8093620585EC8093BC003ECF7D
:103B8000E0916205F0E0ED59FA4F1082BACF8091D2
:103B90003E05E82FF0E0E05CFA4F90819093BB0087
:103BA0008F5F80933E0585EC8093BC0027CFEF921A
:103BB000FF920F931F937B018C0120E030E040E0E7
:103BC0005FE40E94572188238CF0C801B70120E0F0
:103BD00030E040E05FE40E94531F0E9414229B01EA
:103BE000AC01205030404040504806C0C801B701E9
:103BF0000E9414229B01AC01B901CA011F910F91CF
:103C0000FF90EF900895A0E0B0E0E9E0FEE10C94B1
:103C10005E29FC012B01EA018081823008F43DC15C
:103C2000DB019C91923008F437C1843069F4943000
:103C300009F033C1918111968C911197981709F46D
:103C40002CC1E4E8F1E029C1943009F425C1923097
:103C5000A9F4823009F021C19F0188E0D9010D90BB
:103C60009D01DA010D92AD018150C1F7D20111968B
:103C70008C9111979181892389830CC1823009F439
:103C80000BC182819381DB0112964D915C91139758
:103C9000E480F580068117811496AD90BD90CD909B
:103CA000DC9017979C01241B350BB90137FF04C02A
:103CB00066277727621B730B603271050CF062C0B8
:103CC000121613066CF535014601062E04C09694B3
:103CD0008794779467940A94D2F721E030E040E02B
:103CE00050E004C0220F331F441F551F6A95D2F7BE
:103CF00021503040404050402A213B214C215D2141
:103D0000211531054105510521F021E030E040E069
:103D100050E059016A01A628B728C828D9283DC013
:103D200021153105D1F1860F971F37014801062E65
:103D300004C096948794779467940A94D2F721E00C
:103D400030E040E050E004C0220F331F441F551FF5
:103D50006A95D2F721503040404050402E213F21FB
:103D600040235123211531054105510521F021E062
:103D700030E040E050E079018A01E628F728082980
:103D800019290BC0481759072CF0CA01EE24FF244B
:103D9000870103C0AA24BB2465012181F20131817E
:103DA000231709F44AC0222349F0A60195012E19D0
:103DB0003F09400B510B79018A0104C0EA18FB0846
:103DC0000C091D0917FD0CC019829B838A83EC82A4
:103DD000FD820E831F838C819D81AE81BF811AC0BD
:103DE00021E029839B838A8388279927DC018E1908
:103DF0009F09A00BB10B8C839D83AE83BF83EBCF58
:103E0000880F991FAA1FBB1F2A813B812150304078
:103E10003B832A839C01AD012150304040405040FB
:103E20002F3F6FEF36076FEF46076FE3560740F3FC
:103E30008C839D83AE83BF830BC029839B838A833E
:103E4000EA0CFB1C0C1D1D1DEC82FD820E831F83E2
:103E500083E088832C813D814E815F8157FF1AC0AA
:103E6000C901AA2797FDA095BA2F81709070A07004
:103E7000B0705695479537952795822B932BA42B99
:103E8000B52B8C839D83AE83BF838A819B810196F2
:103E90009B838A83FE0101C0F201CF01CDB7DEB75B
:103EA000E0E10C947A29A0E2B0E0E9E5FFE10C94AE
:103EB000682969837A838B839C832D833E834F8318
:103EC0005887E9E0EE2EF12CEC0EFD1ECE01019696
:103ED000B7010E9406248E010F5E1F4FCE0105968A
:103EE000B8010E9406248A8991E089278A8BC7013C
:103EF000B801AE01475E5F4F0E94031E0E94372348
:103F0000A096E6E00C948429A0E2B0E0EAE8FFE1A4
:103F10000C94682969837A838B839C832D833E83E9
:103F20004F835887F9E0EF2EF12CEC0EFD1ECE01E9
:103F30000196B7010E9406248E010F5E1F4FCE012D
:103F40000596B8010E940624C701B801AE01475E7C
:103F50005F4F0E94031E0E943723A096E6E00C9458
:103F60008429A0E2B0E0E7EBFFE10C945C296983CF
:103F70007A838B839C832D833E834F835887CE0126
:103F80000196BE01675F7F4F0E940624CE01059611
:103F9000BE016F5E7F4F0E9406249985923088F0A3
:103FA00089898230C8F0943019F4823051F404C009
:103FB000843029F4923081F484E891E0C4C09230D6
:103FC00049F480E02A859A89291381E08A87CE0105
:103FD0000996B9C0823049F480E02A859A8929136C
:103FE00081E08A8BCE014196AEC06D847E848F8441
:103FF0009888AD88BE88CF88D88C60E070E080E07B
:1040000090E0DC01EE24FF24870120E030E0A901EC
:10401000F301E170F0703097C9F02A0D3B1D4C1D83
:104020005D1D8E0D9F1DA01FB11F22243324210171
:104030002A153B054C055D0528F4E1E02E2E312CB8
:10404000412C512C820D931DA41DB51DEE0CFF1C9F
:10405000001F111FD7FE09C0E1E02E2E312C412C8C
:10406000512CE228F328042915296F5F7F4F603215
:10407000710549F0AA0CBB1CCC1CDD1C96948794DE
:1040800077946794C5CF6B897C89EB85FC856E0F2F
:104090007F1F6E5F7F4F7C8F6B8F1A8E7A856A8948
:1040A000761711F061E06A8F6B8D7C8D10C0FC017A
:1040B000E170F070309729F0569547953795279520
:1040C0005068B695A795979587956F5F7F4FB7FD19
:1040D000EECF0CC0880F991FAA1FBB1F57FD816030
:1040E000220F331F441F551F615070408030E0E0A5
:1040F0009E07E0E0AE07E0E4BE0760F36B8F7C8FC5
:104100006FE7E62EF12C012D112DE822F9220A236A
:104110001B2360E4E616F1040105110561F487FD37
:104120000AC0211531054105510529F0805C9F4FDA
:10413000AF4FBF4F80788D8F9E8FAF8FB8A383E036
:10414000898FCE0149960E943723A096E2E10C9414
:104150007829A8E1B0E0EFEAF0E20C9464296983E1
:104160007A838B839C832D833E834F8358878E0174
:10417000075F1F4FCE010196B8010E94062481E11E
:10418000E82EF12CEC0EFD1ECE010596B7010E9423
:1041900006249985923008F483C08989823010F40E
:1041A00087017EC02A853A8923272A87943011F017
:1041B000923031F4981709F070C004E811E070C033
:1041C000843039F41D861E861F86188A1C861B863D
:1041D00067C0823019F484E0898762C08B859C8532
:1041E0002B893C89821B930B9C878B872D853E8571
:1041F0004F855889AD88BE88CF88D88C2A153B0555
:104200004C055D0538F4220F331F441F551F0197DD
:104210009C878B8760E070E0E12CF12C012DA0E4FD
:104220001A2F80E090E0DC012A153B054C055D0566
:1042300040F08E299F29A02BB12B2A193B094C094C
:104240005D0916950795F794E794220F331F441FD5
:10425000551F6F5F7F4F6F31710531F76FE7E62EA6
:10426000F12C012D112DE822F9220A231B2360E4F1
:10427000E616F1040105110561F487FD0AC0211558
:1042800031054105510529F0805C9F4FAF4FBF4F6D
:1042900080788D879E87AF87B88B8E01075F1F4F11
:1042A000C8010E9437236896EAE00C948029A8E1AF
:1042B000B0E0EDE5F1E20C94682969837A838B83A1
:1042C0009C832D833E834F83588789E0E82EF12C11
:1042D000EC0EFD1ECE010196B7010E9406248E0150
:1042E0000F5E1F4FCE010596B8010E9406248985F6
:1042F000823040F08989823028F0C701B8010E94DD
:10430000752401C08FEF6896E6E00C948429A8E13B
:10431000B0E0EDE8F1E20C94682969837A838B833D
:104320009C832D833E834F83588789E0E82EF12CB0
:10433000EC0EFD1ECE010196B7010E9406248E01EF
:104340000F5E1F4FCE010596B8010E940624898595
:10435000823040F08989823028F0C701B8010E947C
:10436000752401C081E06896E6E00C948429A8E0F9
:10437000B0E0EDEBF1E20C94662923E029839B0188
:10438000AC01222757FD23953327442755272A833D
:10439000611571058105910519F482E089833CC09E
:1043A0002223A9F0603020E0720720E0820720E895
:1043B000920729F460E070E080E09FEC31C0EE24C9
:1043C000FF248701E61AF70A080B190B02C07B01CC
:1043D0008C018EE1C82ED12CDC82CB82ED82FE8254
:1043E0000F831887C801B7010E94DF229C0121506A
:1043F00030401216130684F4022E04C0EE0CFF1C8B
:10440000001F111F0A94D2F7ED82FE820F831887D6
:10441000C21AD30ADC82CB82CE0101960E943723D6
:104420002896E8E00C948229ACE0B0E0EAE1F2E200
:104430000C946C2969837A838B839C83CE010196CB
:10444000BE016B5F7F4F0E9406248D81823061F137
:10445000823050F1843021F48E81882349F12DC0BF
:104460002F81388537FD20C06E812F3131051CF03A
:104470006623F1F022C08EE190E0821B930B298528
:104480003A854B855C8504C05695479537952795A9
:104490008A95D2F76623A9F05095409530952195DD
:1044A0003F4F4F4F5F4F0DC020E030E0A90109C0E2
:1044B0002FEF3FEF4FEF5FE704C020E030E040E038
:1044C00050E8B901CA012C96E2E00C948829A8E0D2
:1044D000B0E0EDE6F2E20C9466297B018C011A82D1
:1044E000611571058105910519F482E089835FC02A
:1044F00083E089838EE1C82ED12CDC82CB82ED82D1
:10450000FE820F831887C801B7010E94DF229C0139
:104510002150304037FF38C0EE27FF27E21BF30B56
:1045200040E050E0BA0181E090E0A0E0B0E00E2E63
:1045300004C0880F991FAA1FBB1F0A94D2F70197C6
:10454000A109B1098E219F21A023B1230097A105C4
:10455000B10521F041E050E060E070E004C0169544
:104560000795F794E794EA95D2F7E42AF52A062B03
:10457000172BED82FE820F8318878EE190E0821B5D
:10458000930B9C838B8313C02115310581F0022E80
:1045900004C0EE0CFF1C001F111F0A94D2F7ED821D
:1045A000FE820F831887C21AD30ADC82CB82CE0127
:1045B00001960E9437232896E8E00C948229AF9256
:1045C000BF92CF92DF92EF92FF920F931F937B01E6
:1045D0008C0180E0E81680E0F80681E0080780E0C2
:1045E000180780F48FEFE816F1040105110531F08A
:1045F00028F088E090E0A0E0B0E016C080E090E015
:10460000DC0112C080E0E81680E0F80680E00807D0
:1046100081E0180728F088E190E0A0E0B0E004C055
:1046200080E190E0A0E0B0E020E230E040E050E047
:10463000281B390B4A0B5B0B5701680104C0D69449
:10464000C794B794A7948A95D2F7F501E457FE4F23
:104650008081281B310941095109C9011F910F911E
:10466000FF90EF90DF90CF90BF90AF900895CF92E2
:10467000DF92EF92FF920F931F93FC01248135810B
:104680004681578101818081823020F440618FEF23
:1046900090E0A2C0843009F49AC0823019F480E01E
:1046A00090E097C0211531054105510519F480E0CE
:1046B00090E092C0828193816FEF823896070CF070
:1046C00058C062E87FEF681B790B6A31710524F0EE
:1046D00020E030E0A9012AC069017A01062E04C059
:1046E000F694E794D794C7940A94D2F781E090E0C7
:1046F000A0E0B0E004C0880F991FAA1FBB1F6A95F5
:10470000D2F70197A109B10982239323A423B523EA
:104710000097A105B10521F081E090E0A0E0B0E0B4
:104720009C01AD012C293D294E295F29DA01C901DF
:104730008F779070A070B07080349105A105B1059D
:1047400039F427FF09C0205C3F4F4F4F5F4F04C033
:10475000215C3F4F4F4F5F4F80E090E0203060E0A2
:10476000360760E0460760E4560748F181E090E0D4
:1047700026C0803891055CF581589F4F7FE7C72E92
:10478000D12CE12CF12CC222D322E422F52260E4C8
:10479000C616D104E104F10439F427FF09C0205CF6
:1047A0003F4F4F4F5F4F04C0215C3F4F4F4F5F4F14
:1047B00057FF05C05695479537952795019697E081
:1047C00056954795379527959A95D1F705C08FEF60
:1047D00090E020E030E0A901782F77957727779552
:1047E000142F1F77602F6795662767958695F12FA1
:1047F000F72BE82FE62B622F732F8F2F9E2F1F9101
:104800000F91FF90EF90DF90CF900895FC01DB01B6
:10481000208131818281482F4F7750E0982F991F56
:104820009927991F6381862F880F892B90E0661F37
:104830006627661F11966C931197009769F52115ED
:1048400031054105510511F482E02FC082E89FEF48
:1048500013969C938E93129767E0220F331F441F89
:10486000551F6A95D1F783E08C930DC0220F331F3B
:10487000441F551F12968D919C9113970197139683
:104880009C938E931297203080E0380780E0480791
:1048900080E4580758F322C08F3F910579F4211521
:1048A00031054105510519F484E08C93089544FFC6
:1048B00003C081E08C9312C01C9210C08F579040AF
:1048C00013969C938E93129783E08C9387E0220F2C
:1048D000331F441F551F8A95D1F7506414962D93AA
:1048E0003D934D935C9317970895EF92FF920F932A
:1048F0001F93FC01DB018081823008F447C09C914A
:10490000923008F443C0843051F481819430A1F591
:1049100011962C91119730E0281B31093FC094303B
:1049200021F0823031F49230B9F111968C911197C7
:104930002BC08181923001F111969C9111978917BA
:10494000D9F44281538112962D913C9113972417EB
:10495000350794F042175307BCF0E480F5800681D8
:10496000178114962D913D914D915C9117972E15BD
:104970003F054007510718F4882341F00AC0E216AA
:10498000F3060407150740F4882319F021E030E00E
:1049900005C02FEF3FEF02C020E030E0C9011F91BA
:1049A0000F91FF90EF90089582E992E00E94C42554
:1049B0001092970210929602109299021092980209
:1049C00081E090E09093A9028093A8029093AB02BB
:1049D0008093AA029093AD028093AC028FEA92E09A
:1049E00063E041E00E94890981EB92E064E041E0EC
:1049F0000E94890983EB92E068EC70E041E00E943C
:104A0000850808950E9408118FEB92E00E942726E6
:104A10008DE061E00E94DC118DE061E00E942E12C9
:104A200068EE73E080E090E00E94D3108DE060E0DB
:104A30000E942E1268EE73E080E090E00E94D31096
:104A400086ED94E060E071E00E942D0EE5CFFC0160
:104A5000828193810895EF92FF920F931F93CF93DA
:104A6000DF93EC018C01698170E06E7F70707E01D4
:104A70009F2D0E94470FCE0163E470E00E94D70F84
:104A8000CE010E941410EE24FF248DE061E00E940C
:104A90002E1264EF71E080E090E00E94D3108DE070
:104AA00060E00E942E1264EF71E080E090E00E94CE
:104AB000D3100894E11CF11C24E1E216F10429F75B
:104AC000698170E06E7F7070C8010E94470FC80155
:104AD00065E470E00E94D70FC8010E9414108DE0B9
:104AE00060E00E942E12DF91CF911F910F91FF90F5
:104AF000EF900895EF92FF920F931F93CF93DF9360
:104B0000EC018DE061E00E942E128E01CE016981E0
:104B10000E943D0FCE0161E470E00E94D70FCE01EC
:104B20000E94141066E070E080E090E00E94D310D4
:104B30006981CE0170E042E050E00E943110C8016E
:104B40000E94510F8823D9F3C8010E94570FF82EF5
:104B5000C8010E94510F8823D9F3C8010E94570F42
:104B60003F2D20E0082F10E0022B132B1B830A831C
:104B70008DE060E00E942E12C801DF91CF911F915D
:104B80000F91FF90EF900895EF92FF92CF93DF93F4
:104B9000EC017E019F2D0E943C0F81E289838DE014
:104BA00061E00E94DC118DE061E00E942E12CE01D6
:104BB0000E9434108DE060E00E942E12DF91CF91B0
:104BC000FF90EF900895EF92FF92CF93DF93EC0167
:104BD0007E019F2D0E943C0F81E289838DE061E080
:104BE0000E94DC118DE061E00E942E12CE010E9435
:104BF00034108DE060E00E942E12DF91CF91FF9083
:104C0000EF9008958FEF9FEF0895EF92FF920F932B
:104C10001F93CF93DF93F82E00E010E0C0E0D0E0C8
:104C20008F2D0E9446110F5F1F4F8C1B9D0BB801EB
:104C30000E942729C60FD71F0436110589F7CE0118
:104C4000DF91CF911F910F91FF90EF900895EF9218
:104C5000FF920F931F93CF93DF93F82E092F80E0DD
:104C60000E9443118FE494E00E94412811E083EBFD
:104C700092E061E041E00E94C7056AE070E080E0F8
:104C800090E00E94D3101F5F1F3189F7EF2CE701DE
:104C90007E01F02EE70111E083E090E00E940526FE
:104CA000FC01EE0FFF1FE650FE4F65917491798372
:104CB00068838FE494E00E94D528699179918FE40C
:104CC00094E00E94972883EB92E062E041E00E942A
:104CD000C70564E670E080E090E00E94D3101F5F9B
:104CE0001D33D1F611E083EB92E061E041E00E94D8
:104CF000C7056AE070E080E090E00E94D3101F5F7B
:104D00001F3189F7DF91CF911F910F91FF90EF90A5
:104D100008952F923F924F925F926F927F928F925F
:104D20009F92AF92BF92CF92DF92EF92FF920F933A
:104D30001F93DF93CF9300D000D0CDB7DEB77C01B7
:104D40007A8369830E949E107C836B8382E992E060
:104D50000E947A2590939702809396028FEA92E0C0
:104D60006DE70E945B0581EB92E06DE70E945B05B9
:104D70008FEA92E061E00E94F40781EB92E061E04B
:104D80000E94F40700E010E05DE7252E312CFCC006
:104D90000E949E106A157B058C059D0510F41C82EF
:104DA0001B820E949E102B813C815901CC24DD2462
:104DB0006A197B098C099D096B3071058105910584
:104DC00038F30E949E106A197B098C099D096B308B
:104DD00071058105910508F4D4C082E992E00E9432
:104DE0007A252091960230919702281B390B47E0D3
:104DF0002930340728F040EFA42E41EFB42E04C030
:104E000090E1A92E9EE0B92EA20EB31E8091A802B9
:104E10009091A902A89EB001A99E700DB89E700D38
:104E2000112480E090E00E94672260939C027093BE
:104E30009D0280939E0290939F0220919A0230914E
:104E40009B022A0D3B1D30939B0220939A02609196
:104E5000AA027091AB0284E690E00E9413296217C7
:104E6000730728F470939B0260939A020BC0442747
:104E70005527461B570B2417350720F450939B02E8
:104E800040939A022091AA023091AB0280919A023B
:104E900090919B02289FB001299F700D389F700D43
:104EA000112480E090E00E9467225B016C01609316
:104EB000A0027093A1028093A2029093A30280901B
:104EC0009602909097022091980230919902C40125
:104ED000821B930B9C018091AC029091AD02289FA4
:104EE000B001299F700D389F700D112480E090E073
:104EF0000E9467222B013C016093A4027093A502DB
:104F00008093A6029093A7029092990280929802B1
:104F1000C601B50120919C0230919D0240919E02F4
:104F200050919F020E94841FA30192010E94531F6F
:104F30000E94D71D5B0163587F4F6233710510F4E7
:104F400062E305C0693C710510F068EC70E081EB2C
:104F500092E00E945B05B1016A197B096233710519
:104F600010F462E305C0693C710510F068EC70E074
:104F7000EB81FC813A96FC83EB838FEA92E00E94FE
:104F80005B050894E108F108E114F10409F009CF88
:104F90002091960230919702C90188509740FEE017
:104FA00080319F0724F0C9018851954105C097FFC2
:104FB00003C0C901895F984F90939702809396022E
:104FC0000F5F1F4F29813A812017310708F78FEAB9
:104FD00092E064E00E94F40781EB92E064E00E94BA
:104FE000F4078FEA92E06DE70E945B0581EB92E0A7
:104FF0006DE70E945B050F900F900F900F90CF917F
:10500000DF911F910F91FF90EF90DF90CF90BF90B5
:10501000AF909F908F907F906F905F904F903F9058
:105020002F9008958130910529F48FE494E00E9437
:1050300035280895009721F48FE494E00E944028D9
:10504000089581E090E00E941228089580E090E0A9
:105050000E941228089580E190E09093C50080930B
:10506000C40086E08093C200089580E190E09093B0
:10507000C5008093C40086E08093C200089508951F
:105080000895E1ECF0E080818861808308951092BA
:10509000C1000895089508C09091C00095FFFCCF0D
:1050A0008093C6006F5F7F4FFB0180818823A1F74B
:1050B00008950F931F93CF93DF93EB0180E490E06B
:1050C00061E070E00E9499298C01009759F100D0AD
:1050D00000D000D0EDB7FEB73196ADB7BEB712968F
:1050E0009C938E93119783E191E093838283D58380
:1050F000C4830E940E2DF8018DB79EB706960FB699
:10510000F8949EBF0FBE8DBF07C09091C00095FF61
:10511000FCCF8093C600319680818823B1F7C80107
:105120000E94602ADF91CF911F910F9108950F93F4
:105130001F93CF93DF93EB0180E490E061E070E098
:105140000E9499298C01009759F100D000D000D01D
:10515000EDB7FEB73196ADB7BEB712969C938E935E
:10516000119784E291E093838283D583C4830E9464
:105170000E2DF8018DB79EB706960FB6F8949EBF18
:105180000FBE8DBF07C09091C00095FFFCCF8093EC
:10519000C600319680818823B1F7C8010E94602A39
:1051A000DF91CF911F910F9108950F931F93CF938C
:1051B000DF93EB0180E490E061E070E00E949929C8
:1051C0008C01009759F100D000D000D0EDB7FEB7A8
:1051D0003196ADB7BEB712969C938E93119785E327
:1051E00091E093838283D583C4830E940E2DF801BE
:1051F0008DB79EB706960FB6F8949EBF0FBE8DBFB3
:1052000007C09091C00095FFFCCF8093C6003196F7
:1052100080818823B1F7C8010E94602ADF91CF9175
:105220001F910F910895AA1BBB1B51E107C0AA1F34
:10523000BB1FA617B70710F0A61BB70B881F991F37
:105240005A95A9F780959095BC01CD01089597FBDB
:10525000092E07260AD077FD04D0E5DF06D000200E
:105260001AF4709561957F4F0895F6F790958195A2
:105270009F4F0895A1E21A2EAA1BBB1BFD010DC072
:10528000AA1FBB1FEE1FFF1FA217B307E407F507F6
:1052900020F0A21BB30BE40BF50B661F771F881FD2
:1052A000991F1A9469F760957095809590959B0168
:1052B000AC01BD01CF0108952F923F924F925F92B2
:1052C0006F927F928F929F92AF92BF92CF92DF9216
:1052D000EF92FF920F931F93CF93DF93CDB7DEB77B
:1052E000CA1BDB0B0FB6F894DEBF0FBECDBF09940F
:1052F0002A88398848885F846E847D848C849B8466
:10530000AA84B984C884DF80EE80FD800C811B8173
:10531000AA81B981CE0FD11D0FB6F894DEBF0FBEA2
:10532000CDBFED010895EE0FFF1F0590F491E02D24
:105330000994EF92FF920F931F93CF93DF93689F8F
:105340008001699F100D789F100D1124C8010E94E3
:10535000BE29E82EE7017E01F92EE701E114F104F0
:1053600031F08E2D60E070E0A8010E94102C7E01CB
:10537000CE01CDB7DEB7E6E00C948429EF92FF9220
:105380000F931F93CF93DF938230910510F482E047
:1053900090E0C091AB05D091AC0520E030E040E05A
:1053A00050E029C06881798168177907D8F06817BB
:1053B000790779F48A819B812115310521F0F90162
:1053C0009383828304C09093AC058093AB05DE0188
:1053D0002AC04115510519F06417750718F4FE012C
:1053E000AB01D9019E017A816B81E72EE7017E0135
:1053F000062FF62EE7012097A9F641155105F9F081
:10540000481B590B4430510580F4828193811097D9
:1054100029F013969C938E93129704C09093AC0539
:105420008093AB05DF01129645C0DF01A40FB51FC5
:105430008D939D9342505040518340833BC02091B7
:10544000A9053091AA052115310541F420918E025C
:1054500030918F023093AA052093A90520919002E4
:10546000309191022115310541F42DB73EB740919D
:105470008C0250918D02241B350BA091A905B0918F
:10548000AA05A217B307A0F42A1B3B0B281739075C
:1054900078F0AC014E5F5F4F2417350748F04A0F94
:1054A0005B1F5093AA054093A9058D939D9302C05D
:1054B000A0E0B0E0CD01CDB7DEB7E6E00C948429E2
:1054C000CF93DF93009709F48FC0FC0132971382CA
:1054D00012826091AB057091AC056115710581F484
:1054E00020813181280F391F8091A9059091AA054B
:1054F0008217930761F5F093AA05E093A90574C09C
:10550000EB0180E090E0CE17DF0740F42A813B8179
:10551000CE012115310501F1E901F5CFD383C28315
:10552000DF014D915D919D01240F351FC217D307F7
:1055300061F428813981240F351F2E5F3F4F31835D
:1055400020832A813B8133832283009729F4F093BF
:10555000AC05E093AB0548C0DC011396FC93EE93D9
:105560001297EC0149915991C40FD51FEC17FD0713
:1055700079F420813181240F351F2E5F3F4F119622
:105580003C932E932281338113963C932E93129752
:10559000E0E0F0E0DB0112968D919C91139700976B
:1055A00021F0E62FF72FBC01F5CF9B012E5F3F4F77
:1055B000DB018D919C911197820F931F4091A9055A
:1055C0005091AA054817590779F4309729F4109299
:1055D000AC051092AB0502C01382128222503040FB
:1055E0003093AA052093A905DF91CF910895A0E0FB
:1055F000B0E0EDEFFAE20C946029EC01CB012097CA
:1056000041F40E94BE29E82EE7017E01F92EE70150
:10561000B9C0BEEFEB2EBFEFFB2EEC0EFD1EAE01B0
:10562000460F571F4E155F0508F4AAC0D7012D91EC
:105630003C91119726173707C0F02530310508F443
:10564000A1C0B901645070406817790708F49AC086
:1056500022503040281B390BFA01219331938D934E
:105660009C93CF010E94602A8DC06B01C21AD30A9D
:105670005E01A20EB31EE091AB05F091AC0566246D
:10568000772400E010E045C0EA15FB05B9F560811C
:105690007181A2E08A2E912C860E971E8C149D0497
:1056A00068F18B010C191D090E5F1F4FB280A3809A
:1056B0000530110560F0FA01B282A3826C197D09F0
:1056C00071836083D70111969C938E9309C02E5FDE
:1056D0003F4F260F371FF70131832083EB2DFA2D23
:1056E0006114710431F0D3011396FC93EE93129779
:1056F00049C0F093AC05E093AB0544C06081718173
:105700000617170708F48B013F0172816381E72FA9
:10571000F62F309709F0B8CF2091A9053091AA054E
:105720002A153B05E9F408171907D0F420919002D7
:10573000309191022115310541F42DB73EB76091AA
:105740008C0270918D02261B370B42175307C0F451
:105750005093AA054093A905F7019183808312C055
:105760000E94BE298C01009759F0D7014D915C91A0
:10577000BE010E94072CCE010E94602AE80102C0EF
:10578000C0E0D0E0CE01CDB7DEB7EEE00C947C29CE
:105790001F93FC0199278827BC01E89411911032CE
:1057A000E9F3193010F01E30C8F31B3251F01D32EE
:1057B00049F4689406C00E94D42C610F711D811DAC
:1057C000911D119110531A30B0F33EF490958095CD
:1057D000709561957F4F8F4F9F4F1F910895911145
:1057E00019C3803219F089508550D0F7089591116E
:1057F000089581548A5108F4805E855A0895911164
:10580000089581568A5108F4805285580895FB0105
:10581000DC0102C001900D9241505040D8F708952C
:10582000DC0101C06D9341505040E0F70895FB0149
:10583000DC010D900020E9F7119701900D920020F6
:10584000E1F70895FC018191861721F08823D9F7AB
:10585000992708953197CF010895FB01DC018D91BF
:10586000019080190110D9F3990B0895FB01DC0117
:1058700001900D920020E1F70895FB01DC014150F9
:10588000504030F08D910190801919F40020B9F743
:10589000881B990B0895FB01DC014150504048F0F2
:1058A00001900D920020C9F701C01D924150504057
:1058B000E0F70895FC0181E090E00190061609F4FC
:1058C000CF010020D1F701970895FB015191552395
:1058D000A9F0BF01DC014D9145174111E1F759F4E1
:1058E000CD010190002049F04D9140154111C9F3BF
:1058F000FB014111EFCF81E090E001970895FB019A
:105900009F01E8944230C4F04532B4F44A3029F49F
:1059100097FB1EF4909581959F4F642F77270E94E7
:105920001329805D8A330CF0895D8193CB01009748
:10593000A1F716F45DE251931082C9010C94232F54
:10594000FA01CF93FF93EF93223044F1253234F5DF
:10595000C22FE894CA3049F497FB3EF490958095A5
:10596000709561957F4F8F4F9F4F2C2F3327442782
:105970005527FF93EF930E943A29EF91FF91605DC5
:105980006A330CF0695D6193B901CA0160507040DF
:105990008040904051F716F4CDE2C19310828F9170
:1059A0009F91CF910C94232F592F482F372F262FBB
:1059B000660F771F881F991F660F771F881F991F13
:1059C000620F731F841F951F660F771F881F991F13
:1059D0000895FA01CF93FF93EF932230CCF0253254
:1059E000BCF4C22F2C2F332744275527FF93EF9366
:1059F0000E943A29EF91FF91605D6A330CF0695D76
:105A00006193B901CA01605070408040904051F7E5
:105A100010828F919F91CF910C94232FAEE0B0E034
:105A2000E4E1FDE20C946A290D891E8986E08C83ED
:105A30001A8309838FEF9FE79E838D839E01275EE4
:105A40003F4FCE0101966F89788DA9010E94312DBB
:105A5000EF81F885E00FF11F10822E96E4E00C94A0
:105A60008629ACE0B0E0E7E3FDE20C945D296C012F
:105A70002B018A01FC0117821682838181FD03C0FC
:105A80002FEF3FEFC2C14E010894811C911C6FE3C0
:105A9000362EF6019381F20193FD859193FF81915A
:105AA0002F01882309F4AEC1853239F493FD859125
:105AB00093FF81912F01853229F490E0B6010E9475
:105AC000332FE7CFEE24FF2420E02032B0F48B32D6
:105AD00069F08C3228F4803251F0833271F40BC0BB
:105AE0008D3239F0803349F421602CC0226024606B
:105AF00029C0286027C0206125C027FD2CC0382F71
:105B000030533A3098F426FF08C08E2D880FE82EC7
:105B1000EE0CEE0CE80EE30E15C08F2D880FF82E5C
:105B2000FF0CFF0CF80EF30E20620CC08E3221F435
:105B300026FD68C1206406C08C3611F4206802C0BE
:105B4000883649F4F20193FD859193FF81912F01ED
:105B5000882309F0BACF982F9554933018F09052BB
:105B6000933020F40C5F1F4F39820DC0833631F023
:105B7000833771F0833509F058C01EC0F801808169
:105B800089830E5F1F4F540151E0652E712C12C0A6
:105B9000F801A080B18026FD03C06FEF7FEF02C047
:105BA0006E2D70E00E5F1F4FC5012C870E94182FCD
:105BB0003C012C852F7713C0F801A080B18026FD11
:105BC00003C06FEF7FEF02C06E2D70E00E5F1F4FBE
:105BD000C5012C870E940D2F3C012C85206823FFD6
:105BE00009C01FC080E290E0B6012C870E94332FCD
:105BF000FA942C858F2D90E06816790698F311C0E1
:105C0000F50127FD859127FF81915F0190E0B601A5
:105C10002C870E94332F2C85F110FA940894610888
:105C200071086114710461F7EAC0843611F0893695
:105C300051F527FF08C0F80160817181828193814D
:105C40000C5F1F4F0AC0F80140815181BA018827BB
:105C500077FD8095982F0E5F1F4F4FE6B42EB2222E
:105C600097FF09C090958095709561957F4F8F4FF4
:105C70009F4FF0E8BF2AA4012AE030E00E945F2F86
:105C8000782E781843C0853731F43FEEB32EB22218
:105C90002AE030E023C099EFB92EB2228F3661F0AE
:105CA000803720F4883509F0ADC012C0803739F054
:105CB000883709F0A7C005C028E030E00FC020E118
:105CC000B22AB4FE02C084E0B82A20E130E006C067
:105CD000B4FE02C0E6E0BE2A20E132E0B7FE08C012
:105CE000F80160817181828193810C5F1F4F07C031
:105CF000F8016081718180E090E00E5F1F4FA40188
:105D00000E945F2F782E7818FFE7BF22B6FE0BC0E7
:105D10002EEFB2227E1438F4B4FE07C0B2FC05C0E8
:105D20008FEEB82202C0A72C01C0AE2C8B2DB4FE82
:105D30000DC0FE01E70DF11D9081903319F4E9EEDD
:105D4000BE2207C0A394B2FE04C002C0867809F048
:105D5000A3946B2CB3FC14C0B0FE0FC0AF1410F0B2
:105D6000E72C0BC0E72CEF0CEA18AF2C06C080E242
:105D700090E0B6010E94332FA394AF14C0F304C087
:105D8000AF1410F4FA1801C0FF2464FE0FC080E3C2
:105D900090E0B6010E94332F62FE1DC061FC03C07B
:105DA00088E790E00EC088E590E00BC0862D8678ED
:105DB00091F061FE02C08BE201C080E2B7FC8DE28F
:105DC00090E0B6010E94332F06C080E390E0B60158
:105DD0000E94332FEA947E14C0F37A94F401E70D05
:105DE000F11D808190E0B6010E94332F7720A9F742
:105DF00006C080E290E0B6010E94332FFA94FF20A3
