:100000000C9469030C9491030C9491030C94910348
:100010000C9491030C9491030C9491030C94910310
:100020000C9491030C9491030C9491030C94910300
:100030000C9491030C9491030C9491030C949103F0
:100040000C94BC140C9491030C94F30E0C94910337
:100050000C9491030C9491030C9491030C949103D0
:100060000C9414210C949103B62164216421642121
:100070006421642164216421C021642164216421FC
:100080006421642164216421C021642164216421EC
:100090006421642164216421C821642164216421D4
:1000A0006421642164216421D721642164216421B5
:1000B0006421642164216421C821642164216421B4
:1000C0006421642164216421022264216421642169
:1000D00064216421642164210D226421642164214E
:1000E00064216421642164218A21642164216421C2
:1000F00064216421642164219D216421642164219F
:1001000064216421642164217E21642164216421AD
:10011000642164216421642191216421642164218A
:100120006421642164216421AD216421642164215E
:100130006421642164216421AD216421642164214E
:100140006421642164216421AD216421642164213E
:100150006421642164216421AD216421642164212E
:100160006421642164216421752164216421642156
:1001700064216421642164217A2164216421642141
:100180006421642164216421752164216421642136
:1001900064216421642164217A2164216421642121
:1001A0006421642164216421E221642164216421A9
:1001B00064216421642164213A2164216421642141
:1001C00064216421642164213A2164216421642131
:1001D00064216421642164214F216421642164210C
:1001E0006421642164216421A721642164216421A4
:1001F0006421642164216421A721072C7AA5BA6CAB
:10020000C590DA3B9365FC8BBC53F810FD3C5692CD
:10021000834DBD879D3AB63DCBC9BF5BBE73DA0F38
:10022000C93F05A84CCDB2D44EB93836A9020C50FE
:10023000B9918688083CA6AAAA2ABE000000803F81
:100240004B4A4A494948484747464645444444433F
:10025000434242414140403F3F3F3E3E3D3D3D3CA9
:100260003C3B3B3B3A3A3A393939383838373737FB
:10027000363636353535343434343333333232323E
:100280003231313131303030302F2F2F2F2E2E2E72
:100290002E2E2D2D2D2D2C2C2C2C2C2B2B2B2B2B9B
:1002A0002A2A2A2A2A2A29292929292828282828BD
:1002B00028272727272727262626262626262525D8
:1002C00025252525252424242424242423232323ED
:1002D00023232323222222222222222221212121FE
:1002E00021212121212020202020202020201F1F0B
:1002F0001F1F1F1F1F1F1F1F1E1E1E1E1E1E1E1E16
:100300001E1E1D1D1D1D1D1D1D1D1D1D1D1C1C1C1E
:100310001C1C1C1C1C1C1C1C1C1B1B1B1B1B1B1B24
:100320001B1B1B1B1B1B1A1A1A1A1A1A1A1A1A1A27
:100330001A1A1A1A19191919191919191919191929
:10034000191919181818181818181818181818182A
:100350001818181817171717171717171717171729
:100360001717171717161616161616161616161628
:100370001616161616161616161515151515151524
:10038000151515151515151515151515151514141F
:10039000141414141414141414141414141414141D
:1003A0001414141414141313131313131313131317
:1003B000131313131313131313131313131313130D
:1003C000121212121212121212121212121212120D
:1003D0001212121212121212121212121211111100
:1003E00011111111111111111111111111111111FD
:1003F00011111111111111111111111111111010EF
:1004000010101010101010101010101010101010EC
:1004100010101010101010101010101010101010DC
:100420001010100F0F0F0F0F0F0F0F0F0F0F0F0FD9
:100430000F0F0F0F0F0F0F0F0F0F0F0F0F0F0F0FCC
:100440000F0F0F0F0F0F0F0F0F0F0F0F0F0E0E0EBF
:100450000E0E0E0E0E0E0E0E0E0E0E0E0E0E0E0EBC
:100460000E0E0E0E0E0E0E0E0E0E0E0E0E0E0E0EAC
:100470000E0E0E0E0E0E0E0E0E0E0E0E0E0D0D0D9F
:100480000D0D0D0D0D0D0D0D0D0D0D0D0D0D0D0D9C
:100490000D0D0D0D0D0D0D0D0D0D0D0D0D0D0D0D8C
:1004A0000D0D0D0D0D0D0D0D0D0D0D0D0D0D0D0D7C
:1004B0000D0D0D0D0D0C0C0C0C0C0C0C0C0C0C0C77
:1004C0000C0C0C0C0C0C0C0C0C0C0C0C0C0C0C0C6C
:1004D0000C0C0C0C0C0C0C0C0C0C0C0C0C0C0C0C5C
:1004E0000C0C0C0C0C0AE6DBD9D7D5D3D2D0CECD70
:1004F000CBC9C8C6C5C3C2C0BFBEBCBBB9B8B7B6FE
:10050000B4B3B2B1AFAEADACABAAA8A7A6A5A4A335
:10051000A2A1A09F9E9D9C9B9A999898979695942E
:1005200093929291908F8E8D8D8C8B8A8A898888F8
:1005300087868585848383828181807F7F7E7E7D9F
:100540007C7C7B7B7A79797878777776767574742A
:1005500073737272717170706F6F6E6E6D6D6D6CA2
:100560006C6B6B6A6A696969686867676666666505
:100570006564646463636362626161616060605F5B
:100580005F5F5E5E5D5D5D5C5C5C5B5B5B5B5A5AA6
:100590005A595959585858575757575656565555E6
:1005A000555554545453535353525252525151511E
:1005B00051505050504F4F4F4F4E4E4E4E4D4D4D4F
:1005C0004D4C4C4C4C4C4B4B4B4B4A4A4A4A4A497B
:1005D00049494949484848484847474747474646A0
:1005E00046464645454545454444444444444343C2
:1005F00043434343424242424241414141414141DE
:100600004040404040403F3F3F3F3F3F3E3E3E3EF8
:100610003E3E3E3D3D3D3D3D3D3D3C3C3C3C3C3C0D
:100620003C3B3B3B3B3B3B3B3A3A3A3A3A3A3A3A21
:100630003939393939393939383838383838383832
:100640003737373737373737363636363636363642
:10065000363535353535353535353434343434344F
:10066000343434343333333333333333333232008B
:10067000000000240027002A0000000000250028B8
:10068000002B0000000000230026002900040404C1
:10069000040404040402020202020203030303032B
:1006A0000301020408102040800102040810200108
:1006B00002040810200000000700020100000304EB
:1006C000060000000000000000003C05F70986104D
:1006D000410511241FBECFEFD8E0DEBFCDBF13E030
:1006E000A0E0B1E0EAEEF3E602C005900D92AA3078
:1006F000B107D9F714E0AAE0B3E001C01D92A33A14
:10070000B107E1F716E0C0EDD6E004C02297FE0184
:100710000E94BC29CA3CD107C9F70E9493030C94DC
:10072000E8310C9400006F927F928F929F92AF926B
:10073000BF92CF92DF92EF92FF920F931F93DF93BE
:10074000CF9300D000D0CDB7DEB70E946E158CECF1
:1007500093E040E051EE60E070E00E94880F80E09E
:100760000E94A9158AE093E00E9499058C018CEC07
:1007700093E060E071E00E94931220918501309136
:100780008601C901880F991F43E0220F331F4A9544
:10079000E1F7820F931F800F911F60E00E9498077E
:1007A00080917F019091800163E570E00E943A2979
:1007B00080E1C82E87E2D82E6C9DC0016D9D900D02
:1007C0007C9D900D11240E946D0703E0E02EF12C1A
:1007D000EC0EFD1E8FE791E065E871E042E05E01FE
:1007E0000894A11CB11C950187010E94D1078CECD3
:1007F00093E06BE071E00E94FF106B817C818CECD8
:1008000093E04AE050E00E9474128CEC93E068E1BF
:1008100071E00E94FF1069817A818CEC93E04AE0DC
:1008200050E00E9474122B813C81C901880F991FEE
:10083000B3E0220F331FBA95E1F7820F931FA8E0B0
:100840008A2EA7E09A2E9401281B390BC90160E07B
:100850000E9498078CEC93E068E271E00E94FF1020
:1008600089819A8163E570E00E943A296C9D80013C
:100870006D9D100D7C9D100D11248CEC93E0B80142
:100880004AE050E00E947412C8010E946D078091F6
:100890008701909188012B813C81820F931F8C01ED
:1008A000000F111FE3E0880F991FEA95E1F7080F89
:1008B000191F8CEC93E069E371E00E94FF108CEC4F
:1008C00093E0B8014AE050E00E9474128AE093E09D
:1008D0000E9499053C01800F911F60E00E949807DB
:1008E00068EB7BE080E090E00E9439158CEC93E0AF
:1008F00069E471E00E94FF108CEC93E0B3014AE0E0
:1009000050E00E9474128AE093E00E949905885F8B
:10091000984F60E00E94980768EB7BE080E090E0F1
:100920000E9439158FE791E065E871E043E0950199
:1009300087010E94D1078CEC93E068E571E00E948A
:10094000FF106B817C818CEC93E04AE050E00E94C8
:1009500074128AE093E00E9499052B813C81A901E1
:10096000440F551F63E0220F331F6A95E1F7420FD2
:10097000531F841A950A880D991D60E00E949807FC
:100980008CEC93E06EE671E00E94FF1089819A8101
:1009900063E570E00E943A296C9D80016D9D100D09
:1009A0007C9D100D11248CEC93E0B8014AE050E0DE
:1009B0000E947412C8010E946D07FFCF813091051B
:1009C00009F053C08AE093E00E94E30580E090E0E4
:1009D000DC0180930E0390930F03A0931003B09358
:1009E00011038093120390931303A0931403B09305
:1009F000150386E696E6A6E6BFE38093260390936A
:100A00002703A0932803B09329038AE097EDA3E27C
:100A1000BCE380932A0390932B03A0932C03B09301
:100A20002D0380E090E0A0E8BFE380932E03909335
:100A30002F03A0933003B093310383E393E063E08B
:100A400041E00E94EF0D85E393E064E041E00E9405
:100A5000EF0D87E393E068EC70E041E00E94EB0C5F
:100A600083E493E00E94F4080895009721F483E45E
:100A700093E00E94F608089581E090E00E94DE0471
:100A8000089580E090E00E94DE040895FC018281D8
:100A900093810895EF92FF920F931F93CF93DF936B
:100AA000EC018C01698170E06E7F70707E019F2D7A
:100AB0000E94AD13CE0163E470E00E943D14CE01AC
:100AC0000E947A14EE24FF248DE061E00E949416C7
:100AD00064EF71E080E090E00E9439158DE060E005
:100AE0000E94941664EF71E080E090E00E94391556
:100AF0000894E11CF11C24E1E216F10429F7698154
:100B000070E06E7F7070C8010E94AD13C80165E48B
:100B100070E00E943D14C8010E947A148DE060E0EC
:100B20000E949416DF91CF911F910F91FF90EF904B
:100B30000895EF92FF920F931F93CF93DF93EC01F1
:100B40008DE061E00E9494168E01CE0169810E94C1
:100B5000A313CE0161E470E00E943D14CE010E9417
:100B60007A1466E070E080E090E00E9439156981B7
:100B7000CE0170E042E050E00E949714C8010E944C
:100B8000B7138823D9F3C8010E94BD13F82EC801FA
:100B90000E94B7138823D9F3C8010E94BD133F2DCB
:100BA00020E0082F10E0022B132B1B830A838DE01B
:100BB00060E00E949416C801DF91CF911F910F91C0
:100BC000FF90EF900895EF92FF92CF93DF93EC01A7
:100BD0007E019F2D0E94A21381E289838DE061E056
:100BE0000E9442168DE061E00E949416CE010E94A0
:100BF0009A148DE060E00E949416DF91CF91FF90EF
:100C0000EF900895EF92FF92CF93DF93EC017E0176
:100C10009F2D0E94A21381E289838DE061E00E94F2
:100C200042168DE061E00E949416CE010E949A1453
:100C30008DE060E00E949416DF91CF91FF90EF90DD
:100C40000895CF92DF92EF92FF920F931F93CF936D
:100C5000DF938A0120E030E0F801E20FF31F1182F8
:100C600010822E5F3F4F2A303105B1F7CC24DD24AE
:100C700020E030E0E0E0F0E050E0EC01C20FD31FF4
:100C80007B01E20EF31E0990D881C02DD701ED90B3
:100C9000FC901197CE19DF09C536D10510F450E04C
:100CA0000EC0543058F0EF01CC0FDD1FC00FD11F24
:100CB000D982C8823196E530F10559F05F5F2E5F29
:100CC0003F4FA2E1B0E0CA0EDB1EB1E020393B0786
:100CD000A1F6DF91CF911F910F91FF90EF90DF90E0
:100CE000CF900895CF93DF93883C08F057C06130D0
:100CF00009F054C02091440330914503C82FD0E03F
:100D00002C173D07DCF022C087E393E061E041E06F
:100D10000E942D0A60914403709145036F5F7F4FDD
:100D2000709345036093440383E493E00E94FF08BB
:100D30006AE070E080E090E00E9439158091440301
:100D4000909145038C179D07F9F628C0C217D30769
:100D5000F4F024C087E393E062E041E00E942D0AB2
:100D600080914403909145030197909345038093AC
:100D700044036AE070E080E090E00E9439156091E1
:100D800044037091450383E493E00E94FF0880913F
:100D90004403909145038C179D07E1F6809144032D
:100DA000DF91CF910895EF92FF920F931F93CF930E
:100DB000DF93F82E00E010E0C0E0D0E08F2D0E941D
:100DC000AC150F5F1F4F8C1B9D0BB8010E944E2965
:100DD000C60FD71F0436110589F7CE01DF91CF91D9
:100DE0001F910F91FF90EF9008951F93182F90E09F
:100DF0000E94D306113061F19C01123091F483E01E
:100E00002533380718F026E930E024C020393105B1
:100E100018F424E130E01EC020553E4FF901249122
:100E200013C01330A9F4F2E08B329F0718F02CECBA
:100E300031E010C0833A910518F424E630E00AC08E
:100E40002D5B3B4FF901249130E0220F331F02C08C
:100E500020E030E0C9011F910895CF92DF92EF9218
:100E6000FF921F93CF93DF937C01EB0110E019C039
:100E700083E00E94F506F601EE0FFF1FEE0DFF1D49
:100E80009183808380E060E00E9472068F5F61E062
:100E90000E94720664E670E080E090E00E943915DE
:100EA0001F5FC12EDD24CC16DD0610F380E061E06B
:100EB0000E947206DF91CF911F91FF90EF90DF901B
:100EC000CF90089583E393E064E00E945A0C85E399
:100ED00093E064E00E945A0C0895CF93DF93EC01F5
:100EE00083E393E06DE70E94C10985E393E06DE73A
:100EF0000E94C10983E393E061E00E945A0C85E3FC
:100F000093E061E00E945A0C209779F0BE0180E0E6
:100F100090E00E94391583E393E064E00E945A0C4C
:100F200085E393E064E00E945A0CDF91CF9108952D
:100F3000CF93DF93EC0102C0C051DE408EE0C031A0
:100F4000D807D0F785E393E066E90E94C10983E3FF
:100F500093E066E90E94C10985E393E061E00E94A5
:100F60005A0C83E393E062E00E945A0C8AE093E01B
:100F70000E9499059C01C817D90731F0CE01821B48
:100F8000930B8333910590F783E393E064E00E9431
:100F90005A0C85E393E064E00E945A0CDF91CF91F4
:100FA00008952F923F924F925F926F927F928F920D
:100FB0009F92AF92BF92CF92DF92EF92FF920F93E8
:100FC0001F93DF93CF93CDB7DEB72A970FB6F89470
:100FD000DEBF0FBECDBF5C017A8369833E832D8364
:100FE00018870F83423008F442E0042F10E0C80154
:100FF0000197880F991F9A878987FC01EA0DFB1DCD
:101000006081718180E090E00E94CD266B017C01BF
:10101000F8013297EE0FFF1FEA0DFB1D6081718111
:1010200080E090E00E94CD268B01B82EA92E6C2D79
:101030007D2D8E2D9F2D2C2D3D2D4E2D5F2D0E9413
:101040001724662E972E882E792E9501602F712FEA
:10105000832F922FF501202F312F4F2F5E2F0E94CB
:101060001724562E472E382E292EA985BA85E981B8
:10107000FA81AE0FBF1F6D917C9180E090E00E94DD
:10108000CD262BED3FE049E450E40E94172420E0F8
:1010900030E044E353E40E940F250E942E2A698326
:1010A0007A838B839C83462D592D682D772DCB0118
:1010B000BA01D201F1012B2F3A2F4F2F5E2F0E9440
:1010C000EA233B014C019501602F712F832F922F52
:1010D00020E030E040E050EC0E9417242C2D3D2D04
:1010E0004E2D5F2D0E94172429813A814B815C810E
:1010F0000E9417249B01AC01C401B3010E94EA23A2
:101100000E94602B0E943D22ED81FE8171836083ED
:1011100080E090E00E94CD263B014C01A4019301A8
:101120000E941724562F472F382F292FD201F10163
:101130006B2F7A2F8F2F9E2FDA01F9012B2F3A2F49
:101140004F2F5E2F0E94EA231B012C016C2D7D2D59
:101150008E2D9F2DA70196010E9417249B01AC01A3
:10116000C201B1010E94B9236B017C019501602F7E
:10117000712F832F922FF501202F312F4F2F5E2FAC
:101180000E94EA23A40193010E9417249B01AC0151
:10119000C701B6010E940F250E94C02920EE3EE241
:1011A00045E652E40E9417240E943D22EF81F88513
:1011B000718360832A960FB6F894DEBF0FBECDBF51
:1011C000CF91DF911F910F91FF90EF90DF90CF9023
:1011D000BF90AF909F908F907F906F905F904F9057
:1011E0003F902F90089508950895089508950895C3
:1011F000089508958CEC93E00E9493120895EF9265
:10120000FF920F931F93CF93DF938B0180E490E0C5
:1012100061E070E00E94C42BE82EE7017E01F92E08
:10122000E114F10429F100D000D000D0EDB7FEB7F1
:101230003196ADB7BEB71296FC92EE9211978BE83D
:1012400091E093838283158304830E94392F2DB705
:101250003EB72A5F3F4F0FB6F8943EBF0FBE2DBF7B
:101260008CEC93E0B7010E949312C7010E948B2C73
:10127000DF91CF911F910F91FF90EF900895EF9222
:10128000FF920F931F93CF93DF938B0180E490E045
:1012900061E070E00E94C42BE82EE7017E01F92E88
:1012A000E114F10429F100D000D000D0EDB7FEB771
:1012B0003196ADB7BEB71296FC92EE9211978CE9BB
:1012C00091E093838283158304830E94392F2DB785
:1012D0003EB72A5F3F4F0FB6F8943EBF0FBE2DBFFB
:1012E0008CEC93E0B7010E949312C7010E948B2CF3
:1012F000DF91CF911F910F91FF90EF900895EF92A2
:10130000FF920F931F93CF93DF938B0180E490E0C4
:1013100061E070E00E94C42BE82EE7017E01F92E07
:10132000E114F10429F100D000D000D0EDB7FEB7F0
:101330003196ADB7BEB71296FC92EE9211978DEA38
:1013400091E093838283158304830E94392F2DB704
:101350003EB72A5F3F4F0FB6F8943EBF0FBE2DBF7A
:101360008CEC93E0B7010E949312C7010E948B2C72
:10137000DF91CF911F910F91FF90EF900895089505
:101380000895FC018081823071F0833028F0833031
:1013900069F0843031F008958130E9F76093B3004B
:1013A000089568BD08956093B400089567BD0895D9
:1013B000CF93DF93EC0188819981689F9001699FA9
:1013C000300D789F300D112440E050E060E077E868
:1013D00083E993E00E9461292B833C834D835E83E4
:1013E0001F82188619861A86DF91CF910895089575
:1013F000CF93DF938CE060E00E94941688E060E079
:101400000E949416C7E0D0E00DC088E061E00E9421
:10141000941684E061E00E94941621973FEFCF3F3D
:10142000D307A1F084E060E00E9494168091470306
:1014300090E00C2E02C0959587950A94E2F780FD06
:10144000E4CF88E060E00E949416E3CF8CE061E096
:101450000E949416DF91CF910895DF92EF92FF9250
:101460000F931F93CF93DF93EC018A81813009F4AE
:1014700071C0823049F080E0DF91CF911F910F91D0
:10148000FF90EF90DF9008952EE191E2D92E30E4A5
:1014900050E8E1E0F0E2413001F1423009F495C05A
:1014A000433009F4A2C09B85443021F5613009F432
:1014B000F3C091509B879F739B87903108F099C030
:1014C000092F10E069EC71E0601B710BDB017C916E
:1014D00007541E4FD8016C910FC09B85792F7695CC
:1014E0007695769570FF9BC0613009F4DCC098500A
:1014F0009B879B857FEF6FEF9F739B87813009F4FC
:101500005FC0823009F46EC08091470382238093CC
:101510004703443091F1969596959695943009F449
:10152000AFC09530F8F0963009F4AEC0963008F0B0
:1015300087C0352B382B3093470386E493E00E9415
:10154000F8098B85DF91CF911F910F91FF90EF905C
:10155000DF90089521EE36E0D32E30E158E0E2E04E
:10156000F4E099CF923009F493C0933008F462C04C
:101570005E2B582B50934703E0CF903118F48D2900
:1015800080934703892F8051803130F4E52B2091DF
:1015900047032E2B20934703892F8052803130F44C
:1015A000532B20914703252B2093470390539031D1
:1015B00020F63F2B90914703932B90934703BDCF89
:1015C0007093B3006093B4009FCF9B85792F76957D
:1015D0007695769570FD29C0613009F447C0985022
:1015E0009B8788CF77BD68BD8FCF6130F1F19B8538
:1015F000F6CF692F6051603150F1692F6052603130
:1016000008F055C0092F10E069EE71E0601B710B06
:10161000DB017C9107561E4FD8016C916DCF613074
:10162000F1F190519B879B8565CF613011F190510D
:101630009B8760CF913001F18F2B809347037DCF43
:101640009730D1F73F2B382B3093470376CFE92ED5
:10165000FF24B70167557E4FDB017C9109ED11E056
:101660000E191F09D8016C9147CF9B85985F9B8706
:1016700041CF905F9B873ECF8D29809347035DCFFD
:10168000852B8093470359CF832B8093470355CFF6
:101690008E2B8093470351CF9F5F9B870CCF905F2A
:1016A0009B879B8527CF985F9B879B8523CF692F3F
:1016B0006053603118F070E060E01ECFE92EFF2427
:1016C000B70167577E4FDB017C9109EF11E00E19DE
:1016D0001F09D8016C9110CF5F926F927F928F9209
:1016E0009F92AF92BF92CF92DF92EF92FF920F93B1
:1016F0001F93CF93DF93EC018B01542EF22E8B803E
:101700009C80AD80BE8023E0F21609F4A5C084E081
:10171000F81609F4A6C0C501B40128EE33E040E094
:1017200050E00E946129722EC32ED42EE52EC501F1
:10173000B40128EE33E040E050E00E9461294B0103
:101740005C01662402C0015010400115110599F199
:10175000CE01652D4F2D0E942D0A682E672D7C2D00
:101760008D2D9E2D0E9439158F819885A985BA856A
:10177000880D991DAA1DBB1D8F839887A987BA87DD
:10178000883E23E0920720E0A20720E0B207D8F2CB
:1017900061E070E080E090E00E9439158F819885CB
:1017A000A985BA85885E9340A040B0408F83988712
:1017B000A987BA87C8CF84E0F81681F0DF91CF916E
:1017C0001F910F91FF90EF90DF90CF90BF90AF905F
:1017D0009F908F907F906F905F900895662071F337
:1017E00020E1621619F4EACF003141F3CE01652DF4
:1017F00044E00E942D0A082F672D7C2D8D2D9E2DF3
:101800000E9439158F819885A985BA85880D991D03
:10181000AA1DBB1D8F839887A987BA87883E23E0BE
:10182000920720E0A20720E0B20790F061E070E0AC
:1018300080E090E00E9439158F819885A985BA854E
:10184000885E9340A040B0408F839887A987BA876D
:10185000002309F4B3CFC8CFB694A7949794879484
:101860005ACF54E0B694A794979487945A95D1F799
:1018700002951295107F1027007F10274CCFFC0196
:101880008281813069F0823009F0089580914703A8
:101890008E718093470386E493E00E94F8090895CF
:1018A00080914703817E8093470386E493E00E9402
:1018B000F8090895FC018081823009F46AC0833000
:1018C00030F0833009F462C0843039F108958130FA
:1018D000E9F783E092E0623021F1643009F43BC023
:1018E0006130A1F721E030E0A90102C0440F551F8B
:1018F0008A95E2F7842F8095A90102C0440F551FF5
:101900009A95E2F720914703242B82238093470383
:1019100086E493E00E94F809089586E090E0623042
:10192000E1F621E030E0A90102C0440F551F9A956D
:10193000E2F7942F909540914703942302C0220F21
:10194000331F8A95E2F7922B9093470386E493E046
:101950000E94F809089521E030E0A90102C0440F77
:10196000551F9A95E2F7B90102C0660F771F8A9555
:10197000E2F7CB01842B8095209147032823209305
:10198000470386E493E00E94F809089587E095E014
:10199000A2CF84E091E09FCFCF93DF93EC018CE066
:1019A00061E00E94421687E061E00E94421688E0F2
:1019B00061E00E94421684E061E00E9442161092AB
:1019C0004703CE010E94F80987E060E00E94941668
:1019D000DF91CF910895EF92FF921F93CF93DF9302
:1019E000EC017B01142F86E493E00E94CC0CF98279
:1019F000E8821A831B861130D1F1123031F0DF9169
:101A0000CF911F91FF90EF900895809147038E71C1
:101A10008093470386E493E00E94F80985E061E043
:101A20000E94421686E061E00E94421685E061E075
:101A30000E94941686E061E00E94941684B5836843
:101A400084BD17BC86E061E00E94421684B58362C3
:101A500084BD18BC85E061E00E9442168FEF87BD0F
:101A600088BDDF91CF911F91FF90EF9008958091F5
:101A70004703817E8093470386E493E00E94F80940
:101A80008BE061E00E94421683E061E00E94421612
:101A90008BE061E00E94941683E061E00E9494165E
:101AA0008091B00083688093B0001093B1001092D1
:101AB000B3008BE061E00E9442168091B000836227
:101AC0008093B0001093B1001092B40083E061E005
:101AD0000E9442168FEF8093B3008093B4008FCFA3
:101AE0001F93DF93CF930F92CDB7DEB7FC01142F76
:101AF0006083418386E493E069830E94CC0C698112
:101B0000623009F450C06330F0F46130B9F4809170
:101B10004703837F8093470386E493E00E94F8099C
:101B20008091B00083688093B00017701093B1006B
:101B30001092B3008BE061E00E9442160F90CF91AB
:101B4000DF911F9108956330C1F06430B9F780913F
:101B500047038E7B8093470386E493E00E94F80955
:101B600084B5836284BD18BC85E061E00E944216A2
:101B70000F90CF91DF911F910895809147038F754A
:101B80008093470386E493E00E94F80984B5836854
:101B900084BD17BC86E061E00E9442160F90CF9191
:101BA000DF911F910895809147038D7E80934703B5
:101BB00086E493E00E94F8098091B00083628093EC
:101BC000B00017701093B1001092B40083E061E090
:101BD0000E9442160F90CF91DF911F9108951F939D
:101BE000DF93CF930F92CDB7DEB7FC01142F608344
:101BF000418386E493E069830E94CC0C6981623062
:101C000009F450C06330F0F46130B9F480914703B7
:101C1000837F8093470386E493E00E94F8098091D4
:101C2000B00083688093B00017701093B1001092D9
:101C3000B3008BE061E00E9442160F90CF91DF91DC
:101C40001F9108956330C1F06430B9F78091470364
:101C50008E7B8093470386E493E00E94F80984B565
:101C6000836284BD18BC85E061E00E9442160F903B
:101C7000CF91DF911F910895809147038F758093D5
:101C8000470386E493E00E94F80984B5836884BD25
:101C900017BC86E061E00E9442160F90CF91DF9161
:101CA0001F910895809147038D7E8093470386E4BA
:101CB00093E00E94F8098091B00083628093B000A5
:101CC00017701093B1001092B40083E061E00E949D
:101CD00042160F90CF91DF911F910895EF92FF92DE
:101CE0001F93CF93DF93EC017B01142F86E493E0E5
:101CF0000E94CC0CF982E8821A831B861130D1F144
:101D0000123031F0DF91CF911F91FF90EF90089545
:101D1000809147038E718093470386E493E00E948D
:101D2000F80985E061E00E94421686E061E00E94C9
:101D3000421685E061E00E94941686E061E00E9410
:101D4000941684B5836884BD17BC86E061E00E9468
:101D5000421684B5836284BD18BC85E061E00E94B0
:101D600042168FEF87BD88BDDF91CF911F91FF9005
:101D7000EF90089580914703817E8093470386E426
:101D800093E00E94F8098BE061E00E94421683E034
:101D900061E00E9442168BE061E00E94941683E0AD
:101DA00061E00E9494168091B00083688093B00037
:101DB0001093B1001092B3008BE061E00E944216D4
:101DC0008091B00083628093B0001093B1001092B4
:101DD000B40083E061E00E9442168FEF8093B3006D
:101DE0008093B4008FCF1F920F920FB60F921124E1
:101DF0002F933F934F935F936F938F939F93EF93A3
:101E0000FF936091C6002091C8033091C903C901B6
:101E100001968F7790704091CA035091CB0384173D
:101E2000950741F0285B3C4FF90160839093C9030B
:101E30008093C803FF91EF919F918F916F915F9174
:101E40004F913F912F910F900FBE0F901F901895BB
:101E50008F92AF92CF92DF92EF92FF920F931F93E8
:101E6000DF93CF93CDB7DEB7FC018EEC91E0918389
:101E700080837383628355834483378326831187EA
:101E80000087F386E286D586C486A68687868D85FA
:101E9000808B8E85818B8F85828BCF91DF911F9177
:101EA0000F91FF90EF90DF90CF90AF908F900895BB
:101EB0008F92AF92CF92DF92EF92FF920F931F9388
:101EC000DF93CF93CDB7DEB7FC018EEC91E0918329
:101ED000808373836283558344833783268311878A
:101EE0000087F386E286D586C486A68687868D859A
:101EF000808B8E85818B8F85828BCF91DF911F9117
:101F00000F91FF90EF90DF90CF90AF908F9008955A
:101F1000CF93DF93EC019A01AB01203081EE3807BB
:101F200080E0480780E0580709F448C0E885F98553
:101F300081E090E00A8802C0880F991F0A94E2F7B6
:101F4000808360E079E08DE390E00E946129215078
:101F50003040404050405695479537952795832F00
:101F6000EC81FD818083EE81FF812083EA85FB8502
:101F7000808121E030E0A9010E8402C0440F551F8A
:101F80000A94E2F7842B8083EA85FB858081A9018E
:101F90000F8402C0440F551F0A94E2F7842B8083FC
:101FA000EA85FB858081088802C0220F331F0A94CE
:101FB000E2F7822B8083DF91CF910895E885F98540
:101FC000108220E180E0CCCFFC01A285B3853C915A
:101FD00081E090E0AC01068402C0440F551F0A94D2
:101FE000E2F7242F209523232C93A285B3853C91DF
:101FF000AC01078402C0440F551F0A94E2F7242F56
:10200000209523232C93A285B3852C91008802C0B0
:10201000880F991F0A94E2F7809582238C93089584
:10202000FC0182819381FC01E058FF4F20813181C6
:102030008E579F4FFC0180819181281B390B2F7790
:102040003070C9010895FC0182819381FC01EE5733
:10205000FF4F20813181FC01E058FF4F40815181C9
:102060004217530739F0820F931FFC01208130E0A3
:10207000C90108952FEF3FEFC9010895DC011296C1
:102080008D919C911397FC01EE57FF4F4081518138
:10209000DC01A058BF4F2D913C91119724173507B3
:1020A00069F0840F951FDC012C914F5F5F4F4F77D4
:1020B00050705183408330E0C90108952FEF3FEF06
:1020C000C9010895DC0112968D919C911397FC0132
:1020D000E058FF4F8E579F4FDC018D919C911197D7
:1020E000918380830895FC01A085B18521898C911D
:1020F00090E0022E02C0959587950A94E2F780FF42
:10210000F6CF0484F585E02D608308958EEC91E090
:102110009093CD038093CC0388E493E09093CF0316
:102120008093CE0385EC90E09093D1038093D0030D
:1021300084EC90E09093D3038093D20380EC90E002
:102140009093D5038093D40381EC90E09093D703D0
:102150008093D60386EC90E09093D9038093D803C4
:1021600084E08093DA0383E08093DB0387E080934D
:10217000DC0385E08093DD0381E08093DE03089536
:102180000F931F93CF93DF93EC018B01FB016081D1
:10219000662369F00F5F1F4FE881F9810190F0819C
:1021A000E02DCE010995F8016081662399F7DF9152
:1021B000CF911F910F910895EF92FF920F931F936C
:1021C000CF93DF93EC018B017A014115510581F02A
:1021D000F80161918F01E881F9810190F081E02D92
:1021E000CE0109950894E108F108E114F10481F7A2
:1021F000DF91CF911F910F91FF90EF900895DC0137
:10220000ED91FC910280F381E02D09950895CF9224
:10221000DF92EF92FF920F931F93CF93DF937C0196
:102220008B01DB0114968D919C9115970097C1F05D
:1022300060E070E0C0E0D0E0D701ED91FC91C0809B
:10224000D180C8010E943417682FC701F601099593
:102250002196BE01F80184819581C817D90760F3E2
:10226000DF91CF911F910F91FF90EF90DF90CF9072
:1022700008952F923F924F925F926F927F928F922A
:102280009F92AF92BF92CF92DF92EF92FF920F9305
:102290001F93DF93CF93CDB7DEB7A2970FB6F89415
:1022A000DEBF0FBECDBF9AA389A37A018B01411572
:1022B00051056105710509F455C0622E7724882403
:1022C0009924AA24BB2465011E010894211C311CF9
:1022D00021014A0C5B1CC801B701A40193010E94B3
:1022E0006129F20160830894A11CB11CC11CD11C9E
:1022F000C801B701A40193010E946129E22EF32EC7
:10230000042F152FE114F1040105110509F7A1149B
:10231000B104C104D10471F10894A108B108C10845
:10232000D10818C0405D50E060E070E089A19AA13A
:1023300020E030E00E94F1110894A108B108C10822
:10234000D108FFEFAF16FFEFBF06FFEFCF06FFEF9D
:10235000DF0681F0F101EA0DFB1D40814A3010F3E8
:10236000495CE1CF40E350E060E070E020E030E025
:102370000E94F111A2960FB6F894DEBF0FBECDBF3A
:10238000CF91DF911F910F91FF90EF90DF90CF9051
:10239000BF90AF909F908F907F906F905F904F9085
:1023A0003F902F9008952115310519F00E943911A1
:1023B0000895DC01ED91FC910190F081E02D642FF6
:1023C000099508959A01AB0160E070E00E94D31175
:1023D00008959A01462F50E060E070E00E94D3110A
:1023E0000895EF92FF920F931F93CF93DF93EC0129
:1023F0007A018B0121153105D9F02A30310549F0D8
:102400000E943911DF91CF911F910F91FF90EF90B2
:10241000089577FD1BC0CE01B801A7012AE00E94F4
:102420003911DF91CF911F910F91FF90EF90089597
:10243000E881F9810190F081E02D642F0995DF9109
:10244000CF911F910F91FF90EF9008954DE250E0D2
:1024500060E070E020E030E00E94F11110950095FE
:10246000F094E094E11CF11C011D111DD4CFEF92FA
:10247000FF920F931F939A017B010027F7FC0095B1
:10248000102FB801A7010E94F1111F910F91FF9029
:10249000EF9008959A01462F50E060E070E00E94AE
:1024A000F1110895CF93DF93EC014DE050E060E02F
:1024B00070E020E030E00E94F111CE014AE050E0EF
:1024C00060E070E020E030E00E94F111DF91CF91F8
:1024D0000895CF93DF93EC010E94D311CE010E94A7
:1024E0005212DF91CF910895CF93DF93EC019A01BF
:1024F000AB0160E070E00E94D311CE010E94521245
:10250000DF91CF910895CF93DF93EC019A01462F8D
:1025100050E060E070E00E94D311CE010E945212A0
:10252000DF91CF910895CF93DF93EC010E94FF10CC
:10253000CE010E945212DF91CF910895CF93DF9385
:10254000EC010E940711CE010E945212DF91CF913F
:102550000895CF93DF93EC010E94F111CE010E9408
:102560005212DF91CF910895CF93DF93EC01CB010D
:102570009A01AC01662757FD6095762FCE010E9427
:10258000F111CE010E945212DF91CF910895CF93A5
:10259000DF93EC019A01462F50E060E070E00E946A
:1025A000F111CE010E945212DF91CF9108959F92B6
:1025B000AF92BF92CF92DF92EF92FF920F931F9351
:1025C000CF93DF93EC016A017B01122FCB01BA019B
:1025D00020E030E0A9010E94ED2588230CF483C09F
:1025E000112309F48EC000E050E040E030E02FE31A
:1025F000DA01F9016B2F742F8F2F922F20E030E03A
:1026000040E251E40E940F25562F472F382F292FE3
:102610000F5F011768F3C701B601DA01F9012B2F2B
:102620003A2F4F2F5E2F0E94EA235B01C82E092FFD
:102630007B2D0E943D22962EF72EE82ED92E0E9449
:10264000CD269B01AC016A2D7B2D8C2D902F0E94F5
:10265000B9235B01C82E092FCE01492D5F2D6E2DA8
:102660007D2D2AE030E00E94D311CE016EEE71E0A4
:102670000E94FF106A2D7B2D8C2D902F20E030E0E2
:1026800040E251E40E941724062FB72EA82E992E5F
:102690000E947A266B01EE24D7FCE094FE2CCE013A
:1026A000B701A6012AE030E00E94F111C701B6018E
:1026B0000E941D269B01AC01602F7B2D8A2D992D38
:1026C0000E94B9235B01C82E092F115099F6DF91A2
:1026D000CF911F910F91FF90EF90DF90CF90BF901F
:1026E000AF909F900895CE014DE250E060E070E021
:1026F00020E030E00E94F111F7FAF094F7F8F0943E
:102700006FCFC701B60120E030E040E05FE30E94F8
:10271000EA230E943D22AB01BC01CE012AE030E059
:102720000E94D311D4CF0E94D7120895CF93DF9384
:10273000EC010E94D712CE010E945212DF91CF917C
:1027400008950895089581E080932404609301041E
:102750001092220410922304089581E080932404AF
:102760006093010410922204109223040895809132
:1027700000049091FF03891B08959091FF038091BD
:102780000004981748F4E92FF0E0E152FC4F8081F3
:102790009F5F9093FF03089580E00895CF93DF93A8
:1027A0009C01E0912704F0912804309711F1909159
:1027B000FF03809100049817E0F0161617069CF4AA
:1027C000A0E0B0E090E040E050E0A152BC4F420FEA
:1027D000531FEA0148814C939F5F492F50E0DA0173
:1027E0004617570794F31092FF0360930004CB0140
:1027F0000995DF91CF910895E0912504F091260489
:10280000309729F01092220410922304099508951C
:1028100070932804609327040895709326046093AE
:1028200025040895DF93CF930F92CDB7DEB7698368
:10283000809124048823C1F080912304803220F009
:102840000F90CF91DF91089580912204E82FF0E05E
:10285000EE5FFB4F60838F5F80932204809323049D
:102860000F90CF91DF910895CE01019661E00E9413
:10287000D2200F90CF91DF9108950E9412140895F5
:10288000EF92FF920F931F93CF93DF93EC01162FDC
:10289000042F809124048823A9F0442361F0E62EBC
:1028A000F72ECE01F70161917F010E9412148E2D47
:1028B000811B8017B0F3DF91CF911F910F91FF9093
:1028C000EF900895862F972F642F0E94D220DF91DA
:1028D000CF911F910F91FF90EF900895DB010D9024
:1028E0000020E9F7AD0141505040461B570B0E94B4
:1028F000401408958091010462E074E04091230443
:1029000021E00E948220109222041092230410924F
:1029100024040895862F413208F040E26FED73E001
:102920000E9449201092FF038093000408950E94A2
:102930008A1408951092FF0310920004109222044A
:10294000109223040E9432200895CF93DF93EC016C
:10295000862F0E9445208CEF93E10E94F5208EEC9B
:1029600093E10E94F020CE010E949A14DF91CF9152
:1029700008950E94A51408951F920F920FB60F920A
:1029800011242F933F938F939F93AF93BF93809185
:102990002D0490912E04A0912F04B0913004309119
:1029A00031040196A11DB11D232F2D5F2D3720F07D
:1029B0002D570196A11DB11D2093310480932D0444
:1029C00090932E04A0932F04B09330048091290497
:1029D00090912A04A0912B04B0912C040196A11D82
:1029E000B11D8093290490932A04A0932B04B093E3
:1029F0002C04BF91AF919F918F913F912F910F9098
:102A00000FBE0F901F9018958FB7F89420912D044A
:102A100030912E0440912F04509130048FBFB901A2
:102A2000CA0108959FB7F8942091290430912A048F
:102A300040912B0450912C0486B5A89B06C08F3F73
:102A400021F02F5F3F4F4F4F5F4F9FBF542F432FBA
:102A5000322F2227280F311D411D511D220F331FF8
:102A6000441F551F220F331F441F551FB901CA01B0
:102A70000895EF92FF920F931F93CF93DF937B0103
:102A80008C010E941215EB01E114F10401051105FE
:102A9000A1F00E9412156C1B7D0B83E0683E780745
:102AA000C0F30894E108F10801091109C851DC4F8D
:102AB000E114F1040105110561F7DF91CF911F9138
:102AC0000F91FF90EF900895019739F0880F991FAB
:102AD000880F991F02970197F1F70895789484B5AC
:102AE000826084BD84B5816084BD85B5826085BD0A
:102AF00085B5816085BDEEE6F0E0808181608083F0
:102B0000E1E8F0E0108280818260808380818160D2
:102B10008083E0E8F0E0808181608083E1EBF0E099
:102B2000808184608083E0EBF0E08081816080833D
:102B3000EAE7F0E080818460808380818260808326
:102B40008081816080838081806880831092C10051
:102B500008958093FA0108958E3008F08E508770A2
:102B60009091FA019295990F990F907C982B9093E0
:102B70007C0080917A00806480937A0080917A0052
:102B800086FDFCCF2091780030917900932F80E072
:102B900030E0282B392BC90108951F93CF93DF9381
:102BA000182FEB0161E00E944216209759F1CF3FA8
:102BB000D105A1F0E12FF0E0EB54F94F849183307F
:102BC000E1F1843098F0863069F1873009F44FC024
:102BD000843009F43FC0C038D105A4F0812F61E0F2
:102BE0000E949416DF91CF911F910895813091F04A
:102BF000823089F784B5806284BDC8BDDF91CF91F2
:102C00001F910895812F60E00E949416DF91CF916B
:102C10001F91089584B5806884BDC7BDDF91CF91B1
:102C20001F9108958091B00080688093B000C09398
:102C3000B300DF91CF911F9108958091800080684B
:102C400080938000D0938900C0938800DF91CF915A
:102C50001F91089580918000806280938000D093BE
:102C60008B00C0938A00DF91CF911F9108958091CE
:102C7000B00080628093B000C093B400DF91CF9128
:102C80001F91089590E0FC01EF55F94F2491FC014C
:102C9000E357F94FE491EE2379F0F0E0EE0FFF1FD8
:102CA000E159F94FA591B491662339F09FB7F89493
:102CB0008C91822B8C939FBF08959FB7F8948C9131
:102CC000209582238C939FBF0895833039F18430FF
:102CD00060F08630C9F0873069F0843051F480911B
:102CE00080008F7D809380000895813099F082303C
:102CF00039F008958091B0008F7D8093B0000895E1
:102D000084B58F7D84BD08958091B0008F778093C6
:102D1000B000089584B58F7784BD089580918000B8
:102D20008F778093800008950F931F93DF93CF9345
:102D30000F92CDB7DEB7282F30E0F901EB54F94FF1
:102D40008491F901EF55F94F04912357394FF90157
:102D50001491112391F0882319F5E12FF0E0EE0F83
:102D6000FF1FE758F94FA591B491662361F09FB713
:102D7000F8948C91802B8C939FBF0F90CF91DF9113
:102D80001F910F9108959FB7F8948C91009580231F
:102D90008C939FBF0F90CF91DF911F910F9108955A
:102DA00069830E9465166981D8CF0F931F93282FDE
:102DB00030E0F901EB54F94F8491F901EF55F94FE7
:102DC00004912357394FF90114911123C9F0882335
:102DD000E9F4E12FF0E0EE0FFF1FED57F94FA59159
:102DE000B4918C9120E030E0802321F4C9011F913F
:102DF0000F91089521E030E0C9011F910F910895CE
:102E000020E030E0C9011F910F9108950E946516DE
:102E1000E0CFDC01ED91FC911197E60FF71F808167
:102E20000895FC0180819181009749F024813581CA
:102E30006217730720F4680F791FFB014083089520
:102E4000FC01848195816817790740F48081918124
:102E5000009721F0680F791FCB010895109232047A
:102E600062E374E0CB010895DC01ED91FC911197D0
:102E7000E60FF71F80810895FC01808191810E94F7
:102E8000F32D08950F931F93CF93DF93FC01EB0174
:102E900041155105A1F06115710589F08481958175
:102EA0008A01015010408017910770F06081718194
:102EB000CE01A8010E94762EC00FD11F1882DF918B
:102EC000CF911F910F9108958C01F0CF0F931F9315
:102ED000CF93DF93FC01EB0141155105A1F0611582
:102EE000710589F0848195818A0101501040801715
:102EF000910770F060817181CE01A8010E94762E49
:102F0000C00FD11F1882DF91CF911F910F910895AB
:102F10008C01F0CFFC01DB01CA0114964D915C914C
:102F2000159724813581241B350B2817390780F02C
:102F3000208131816D917C91820F931F0E94682EB8
:102F40009C0180E02115310509F0089581E0089584
:102F500080E00895FC0144815581FB012481358185
:102F60004217530710F480E0089540E050E00E94BB
:102F70008A170895DF92EF92FF920F931F93CF93DA
:102F8000DF93EC018C819D814817590758F02FEF92
:102F90003FEFC901DF91CF911F910F91FF90EF900B
:102FA000DF9008958A010F5F1F4FE881F981E00FDC
:102FB000F11FD0801082E880F980C70170E00E9484
:102FC000852E9C010E0D1F1DF801D0820097F9F28D
:102FD00088819981281B390BDCCFFC014481558104
:102FE000415050400E94BA170895CF93DF93FC01DF
:102FF000848195814817590730F02FEF3FEFC901C1
:10300000DF91CF910895C081D181FB0160817181F1
:10301000CE01840F951F0E94902E9C01009769F3AA
:103020002C1B3D0BECCF40E050E00E94F5170895BB
:10303000CF93DF93FC01848195814817590730F0C5
:103040002FEF3FEFC901DF91CF910895C081D1816A
:10305000CE01840F951F70E00E944D2E9C010097B9
:1030600079F32C1B3D0BEECF40E050E00E94181886
:103070000895FC01DB012481358114968D919C918A
:1030800015972817390711F080E008956D917C910C
:10309000808191810E94582E9C0180E0211531058C
:1030A00009F0089581E00895FC01DB018481958198
:1030B00014962D913C9115978217930790F0821BDF
:1030C000930B208131816D917C91820F931F0E941F
:1030D000582E9C0180E02115310509F0089581E00A
:1030E000089580E00895FB0160817181FC01808179
:1030F00091810E94582E292F332727FD3095209546
:1031000030952227330F221F3327C9010895FB0171
:1031100060817181FC01808191810E94582E40E084
:1031200050E01816190614F4CA01089541E050E061
:10313000CA010895FB0160817181FC018081918148
:103140000E94582E40E050E01816190614F441E091
:1031500050E0CA010895FB0160817181FC0180810A
:1031600091810E94582E292F332727FD3095222741
:10317000330F221F3327C9010895FC01DB0124818D
:10318000358114968D919C9115972817390721F058
:1031900021E030E0C90108956D917C918081918199
:1031A0000E94582E9C012115310591F7C9010895FF
:1031B000FC01DB012481358114968D919C9115973A
:1031C0002817390721F020E030E0C90108956D91FA
:1031D0007C91808191810E94582E9C0180E090E03A
:1031E0002115310519F09C01C901089581E090E095
:1031F0009C01FACFFB0160817181FC01808191818A
:103200000E94582E0895EF92FF920F931F93CF9331
:10321000DF93EC018B01FB01648175818C819D81C1
:10322000680F791F7D836C838A819B81861797073E
:1032300078F46F5F7F4F888199810E94222D0097DB
:10324000B1F0998388832C813D813B832A8302C01E
:1032500088819981F801608171810E94422ECE019E
:10326000DF91CF911F910F91FF90EF9008958C8186
:103270009D81F80124813581821B930B9D838C8372
:10328000EECF0E9403190895EF92FF920F931F93C0
:10329000CF93DF93EC018B018617970799F0FB0121
:1032A000448155818C819D818417950798F0888190
:1032B0009981009739F05D834C83F80160817181B9
:1032C0000E94612ECE01DF91CF911F910F91FF904F
:1032D000EF900895888199810E948B2CF801848158
:1032E00095819B838A8301960E94E92B9983888329
:1032F000009721F0F80144815581DDCF1B821A82AD
:103300001D821C82DFCF0F931F93DF93CF930F9209
:10331000CDB7DEB78C0181E090E0D80115969C9383
:103320008E93149713969C938E93129782E090E05D
:1033300069830E94E92BFC01D80111969C938E931E
:103340006981009761F06083D801ED91FC9111973C
:1033500011820F90CF91DF911F910F9108951396D5
:103360001C921E92129715961C921E9214970F9003
:10337000CF91DF911F910F9108950F931F93DF93CA
:10338000CF930F92CDB7DEB78C0181E090E0D801EA
:1033900015969C938E93149713969C938E931297E5
:1033A00082E090E069830E94E92BFC01D80111962C
:1033B0009C938E936981009761F06083D801ED91B1
:1033C000FC91119711820F90CF91DF911F910F9176
:1033D000089513961C921E92129715961C921E9297
:1033E00014970F90CF91DF911F910F9108950F9334
:1033F0001F93DF93CF930F92CDB7DEB78C0181E09F
:1034000090E0D80115969C938E93149713969C93F5
:103410008E93129782E090E069830E94E92BFC0171
:10342000D80111969C938E936981009761F0608317
:10343000D801ED91FC91119711820F90CF91DF91FE
:103440001F910F91089513961C921E921297159634
:103450001C921E9214970F90CF91DF911F910F91A4
:1034600008950F931F93DF93CF930F92CDB7DEB7DD
:103470008C0181E090E0D80115969C938E9314976F
:1034800013969C938E93129782E090E069830E943A
:10349000E92BFC01D80111969C938E9369810097CA
:1034A00061F06083D801ED91FC91119711820F902A
:1034B000CF91DF911F910F91089513961C921E9248
:1034C000129715961C921E9214970F90CF91DF9130
:1034D0001F910F9108950F931F93CF93DF93EC01EA
:1034E0008B01FB01848195819D838C839B838A83DF
:1034F00001960E94E92B99838883009751F0F80187
:10350000608171810E94612EDF91CF911F910F9197
:1035100008951B821A821D821C82DF91CF911F9118
:103520000F9108950F931F93CF93DF93EC018B01BD
:10353000FB01848195819D838C839B838A83019683
:103540000E94E92B99838883009751F0F8016081EC
:1035500071810E94612EDF91CF911F910F9108958B
:103560001B821A821D821C82DF91CF911F910F91C5
:103570000895EF92FF920F931F93DF93CF93CDB7F0
:10358000DEB7A1970FB6F894DEBF0FBECDBF7C01AA
:10359000CB01BA018E010F5F1F4FA8012AE030E076
:1035A0000E94142FF80101900020E9F7CF01019744
:1035B000801B910BF701958384839383828301960B
:1035C0000E94E92BF70191838083009781F0B80175
:1035D0000E94612EA1960FB6F894DEBF0FBECDBF3C
:1035E000CF91DF911F910F91FF90EF90089513827B
:1035F000128215821482EECFEF92FF920F931F93E7
:10360000DF93CF93CDB7DEB7A1970FB6F894DEBFA7
:103610000FBECDBF7C01CB01BA018E010F5F1F4FE2
:10362000A8012AE030E00E94142FF8010190002048
:10363000E9F7CF010197801B910BF70195838483F4
:103640009383828301960E94E92BF7019183808303
:10365000009781F0B8010E94612EA1960FB6F894F0
:10366000DEBF0FBECDBFCF91DF911F910F91FF90B5
:10367000EF9008951382128215821482EECFEF929A
:10368000FF920F931F93DF93CF93CDB7DEB7A19730
:103690000FB6F894DEBF0FBECDBF7C019A0180E06B
:1036A00090E08E010F5F1F4FA8010E94142FF801B8
:1036B00001900020E9F7CF010197801B910BF701E2
:1036C000958384839383828301960E94E92BF7017B
:1036D00091838083009781F0B8010E94612EA196AA
:1036E0000FB6F894DEBF0FBECDBFCF91DF911F9113
:1036F0000F91FF90EF900895138212821582148229
:10370000EECFEF92FF920F931F93DF93CF93CDB73E
:10371000DEB7A1970FB6F894DEBF0FBECDBF7C0118
:103720009A0180E090E08E010F5F1F4FA8010E9478
:10373000142FF80101900020E9F7CF010197801BB9
:10374000910BF701958384839383828301960E9472
:10375000E92BF70191838083009781F0B8010E94E3
:10376000612EA1960FB6F894DEBF0FBECDBFCF91EC
:10377000DF911F910F91FF90EF90089513821282B5
:1037800015821482EECF0F931F93CF93DF93EC013A
:103790008B016115710521F1FB0101900020E9F712
:1037A0003197E61BF70BCF010196FD83EC83FB837A
:1037B000EA830E94E92B99838883009741F0B8013E
:1037C0000E94612EDF91CF911F910F9108951B826E
:1037D0001A821D821C82DF91CF911F910F91089553
:1037E00081E090E0E0E0F0E00BEF11E0DECFAF929F
:1037F000BF92CF92DF92EF92FF920F931F93CF93DE
:10380000DF937C018B01C82EE6016E01DF2CE601FF
:10381000FB0160817181C6010E94C31BF801848194
:1038200095810097B1F0AA24BB24C880D980CA0C26
:10383000DB1CF601808190E00E942A2EF601808335
:103840000894A11CB11CF80184819581A816B906C1
:1038500060F3C701DF91CF911F910F91FF90EF901F
:10386000DF90CF90BF90AF900895AF92BF92CF926C
:10387000DF92EF92FF920F931F93CF93DF937C0120
:103880008B01C82EE6016E01DF2CE601FB01608191
:103890007181C6010E94C31BF80184819581009744
:1038A000B1F0AA24BB24C880D980CA0CDB1CF60165
:1038B000808190E00E94222EF60180830894A11C52
:1038C000B11CF80184819581A816B90660F3C7017F
:1038D000DF91CF911F910F91FF90EF90DF90CF90EC
:1038E000BF90AF900895EF92FF920F931F93DF93D5
:1038F000CF93CDB7DEB72D970FB6F894DEBF0FBECE
:10390000CDBFFC018B0186179707E9F12481358132
:10391000DB0114968D919C9115972817390779F042
:1039200020E0822F2D960FB6F894DEBF0FBECDBFDC
:10393000CF91DF911F910F91FF90EF900895CE01ED
:103940000196BF010E94351CE980FA80CE010796DE
:10395000B8010E94351C0F811885C701B8010E946B
:10396000582E20E0009709F421E0C8012D870E941D
:103970008B2C1A8619861C861B8689819A810E9447
:103980008B2C2D85CECF21E0CCCFDF92EF92FF9212
:103990000F931F93CF93DF938C01EB0179012417D1
:1039A000350730F4342F252FA701C901E92EF82E51
:1039B0008C819D818E159F0508F47C01E881F98139
:1039C000EE0DFF1DD080108268817981640F751F14
:1039D000C8010E94C31BE881F981EE0DFF1DD08252
:1039E000C801DF91CF911F910F91FF90EF90DF9071
:1039F0000895CF93DF93EC01FB01248135810E9470
:103A0000C51CCE01DF91CF9108958F929F92AF9206
:103A1000BF92CF92DF92EF92FF920F931F93DF93AB
:103A2000CF9300D000D000D0CDB7DEB76C017B01C2
:103A3000DB0114968D919C9115970097B1F40FEFCF
:103A40001FEFC80126960FB6F894DEBF0FBECDBF9C
:103A5000CF91DF911F910F91FF90EF90DF90CF906A
:103A6000BF90AF909F908F90089501974817590786
:103A700030F3F601848195814817590700F7ED91DD
:103A8000FC91119790808A015E010894A11CB11CE1
:103A900002C00150104017FDD2CFD601ED91FC912C
:103AA0001197E00FF11F8081891599F7F7012481A3
:103AB0003581200F311FC501B601A8010E94C51C28
:103AC000C501B7010E943918882E89819A810E9408
:103AD0008B2C882009F0B5CF1C821B821E821D8290
:103AE000D8CFFC0144815581FB0124813581421BE3
:103AF000530B0E94051D08956F927F928F929F92A3
:103B0000AF92BF92CF92DF92EF92FF920F931F93EB
:103B1000DF93CF9300D000D000D0CDB7DEB78C01BB
:103B20006B01FB01608171816115710509F463C04E
:103B30005E010894A11CB11CC5010E94C31BF601C3
:103B4000848095808114910409F459C0F601608045
:103B50007180EE24FF2406C00894E11CF11CE814D7
:103B6000F90448F4F301EE0DFF1D808190E00E94FE
:103B70001A2E009789F78D809E80089481089108FD
:103B8000E814F904B0F4F601C080D180C80CD91C47
:103B900009C00894810891080894C108D108E81464
:103BA000F90438F4F601808190E00E941A2E009703
:103BB00081F794012F5F3F4FC801B501A7010E9413
:103BC000C51C89819A810E948B2CC80126960FB64C
:103BD000F894DEBF0FBECDBFCF91DF911F910F9143
:103BE000FF90EF90DF90CF90BF90AF909F908F901D
:103BF0007F906F900895B6010E946B1AE6CFEE2475
:103C0000FF24B9CF2F923F924F925F926F927F9293
:103C10008F929F92AF92BF92CF92DF92EF92FF92DC
:103C20000F931F93DF93CF93CDB7DEB768970FB68F
:103C3000F894DEBF0FBECDBF1C01FB015A01290164
:103C4000608171816115710509F47EC08E010F5F7D
:103C50001F4FC8010E94C31B47E0C42ED12CCC0EBD
:103C6000DD1EC6016BEF71E00E94C31B3DE0832E99
:103C7000912C8C0E9D1E23E1622E712C6C0E7D1EEC
:103C80002CC0C401B80140E050E097010E94C51C5F
:103C9000C601B4010E9403198D859E850E948B2C5C
:103CA000188A1F861A8A198AC601B2010E9403194E
:103CB000F501448155814E0D5F1DC301B8010E947D
:103CC000F91CC801B3010E9444198B899C890E9488
:103CD0008B2C1E8A1D8A188E1F8AC801B5010E946E
:103CE00013187C01FFEF8F3F9F0759F6C601B801FB
:103CF0000E940319C101B6010E946B1A8F81988539
:103D00000E948B2C1A8619861C861B8689819A81B3
:103D10000E948B2CC10168960FB6F894DEBF0FBECF
:103D2000CDBFCF91DF911F910F91FF90EF90DF906A
:103D3000CF90BF90AF909F908F907F906F905F904B
:103D40004F903F902F900895BF010E946B1AE2CFD1
:103D5000CF92DF92EF92FF920F931F93DF93CF9357
:103D600000D000D000D0CDB7DEB78C01FB01F42E1F
:103D7000E22E608171816115710551F16E01089427
:103D8000C11CD11CC6010E94C31B89819A8101C03C
:103D9000E0826F2D70E00E944D2EFC010097C1F76C
:103DA000C801B6010E946B1A89819A810E948B2CEE
:103DB000C80126960FB6F894DEBF0FBECDBFCF91D7
:103DC000DF911F910F91FF90EF90DF90CF900895BA
:103DD000BF010E946B1AECCF0F931F93CF93DF9319
:103DE000EC018B016115710521F1FB0101900020AF
:103DF000E9F73197E61BF70BCF010196FD83EC83C2
:103E0000FB83EA830E94E92B99838883009741F022
:103E1000B8010E94612EDF91CF911F910F910895FB
:103E20001B821A821D821C82DF91CF911F910F91FC
:103E3000089581E090E0E0E0F0E00BEF11E0DECFEC
:103E4000EF92FF920F931F93DF93CF93CDB7DEB71F
:103E5000A1970FB6F894DEBF0FBECDBF7C01CB019A
:103E6000BA018E010F5F1F4FA8010E94CB2EF801EF
:103E700001900020E9F7CF010197801B910BF7011A
:103E8000958384839383828301960E94E92BF701B3
:103E900091838083009781F0B8010E94612EA196E2
:103EA0000FB6F894DEBF0FBECDBFCF91DF911F914B
:103EB0000F91FF90EF900895138212821582148261
:103EC000EECFEF92FF920F931F93DF93CF93CDB777
:103ED000DEB7A1970FB6F894DEBF0FBECDBF7C0151
:103EE000CB01BA018E010F5F1F4FA8010E94CB2E9C
:103EF000F80101900020E9F7CF010197801B910B99
:103F0000F701958384839383828301960E94E92B32
:103F1000F70191838083009781F0B8010E94612EA0
:103F2000A1960FB6F894DEBF0FBECDBFCF91DF9143
:103F30001F910F91FF90EF900895138212821582C6
:103F40001482EECFEF92FF920F931F93DF93CF93E4
:103F5000CDB7DEB7A1970FB6F894DEBF0FBECDBFC9
:103F60007C01CB018E010F5F1F4FB8010E94AA2E6A
:103F7000F80101900020E9F7CF010197801B910B18
:103F8000F701958384839383828301960E94E92BB2
:103F9000F70191838083009781F0B8010E94612E20
:103FA000A1960FB6F894DEBF0FBECDBFCF91DF91C3
:103FB0001F910F91FF90EF90089513821282158246
:103FC0001482EECFEF92FF920F931F93DF93CF9364
:103FD000CDB7DEB7A1970FB6F894DEBF0FBECDBF49
:103FE0007C01CB018E010F5F1F4FB8010E94AA2EEA
:103FF000F80101900020E9F7CF010197801B910B98
:10400000F701958384839383828301960E94E92B31
:10401000F70191838083009781F0B8010E94612E9F
:10402000A1960FB6F894DEBF0FBECDBFCF91DF9142
:104030001F910F91FF90EF900895138212821582C5
:104040001482EECF089520E030E0FC0180818823C7
:1040500011F421E030E0C901089521E0FC01208342
:104060000895089510925704449A459AE9EBF0E0B8
:1040700080818E7F808380818D7F808388E48093A0
:10408000B80085E48093BC000895880F8093BA003F
:1040900008954132A0F5909157049923E1F791E0FA
:1040A000909357049FEF9093560410923404942FEA
:1040B000915090933504880F81608093330485EE8E
:1040C0008093BC00809157048130E1F380913404E7
:1040D000841790F0442371F020E030E0FB01E20F00
:1040E000F31FD901AA5CBB4F9C9190832F5F3F4F78
:1040F0002417A0F3842F089540913404EBCF40E0BF
:10410000842F0895CF93DF93413208F043C09091FC
:1041100057049923E1F792E0909357049FEF90930F
:1041200056041092340440933504442369F0E0E0CF
:10413000F0E0DF01AA5CBB4FEB01CE0FDF1F9881DF
:104140009C933196E417A8F390E0880F991F809311
:10415000330485EE8093BC00222381F480915604C1
:104160008F3FA1F0809156048032C1F080915604B7
:104170008033B1F084E0DF91CF91089580915704AE
:104180008230E1F3809156048F3F61F780E0DF9148
:10419000CF91089581E0DF91CF91089582E0EBCF38
:1041A00083E0E9CF6132D0F420915704243011F03C
:1041B00082E0089560937C04662371F020E030E093
:1041C000F901E158FB4FDC01A20FB31F4C91408372
:1041D0002F5F3F4F2617A0F380E0089581E00895F8
:1041E00090937A0480937904089590937E04809349
:1041F0007D040895882321F485E88093BC00089508
:1042000085EC8093BC00089585ED8093BC0080917F
:10421000BC0084FDFCCF10925704089585EC809378
:10422000BC001092570408951F920F920FB60F9280
:1042300011242F933F934F935F936F937F938F93AB
:104240009F93AF93BF93EF93FF938091B90090E05A
:10425000A0E0B0E0887F9070A070B070893C9105BC
:1042600098F58C5C9F4FFC01EE0FFF1F0590F491B9
:10427000E02D099484E08093570410927B041092FF
:104280007C04E0917D04F0917E04099580917C048A
:10429000882329F481E080937C0410927F0480912C
:1042A0007B04E82FF0E0E158FB4F90819093BB0036
:1042B0008F5F80937B0490917B0480917C0498179E
:1042C000C8F485EC8093BC00FF91EF91BF91AF9152
:1042D0009F918F917F916F915F914F913F912F911E
:1042E0000F900FBE0F901F90189580915804803248
:1042F00008F49CC085E88093BC00E6CF809134042C
:104300009091BB00E82FF0E0EA5CFB4F90838F5F59
:10431000809334049091340480913504981750F7B9
:10432000D0CF809134049091BB00E82FF0E0EA5C9C
:10433000FB4F90838F5F8093340485ED8093BC00A6
:104340008091BC0084FDFCCF10925704BDCF85EC5A
:104350008093BC0010925704B7CF83E0809357043A
:104360001092580485EC8093BC00AECF1092560496
:1043700085ED8093BC008091BC0084FDFCCFE4CF30
:10438000809133048093BB0085EC8093BC009CCF6C
:104390009091340480913504981708F45EC085ED3F
:1043A0008093BC008091BC0084FDFCCFCDCF80E227
:1043B0008093560485ED8093BC008091BC0084FD01
:1043C000FCCFC2CF80915804803208F43FC085ED05
:1043D0008093BC008091BC0084FDFCCF10925704F8
:1043E00060915804E0917904F0917A0489E594E0B1
:1043F00070E009951092580485EC8093BC001092EF
:10440000570462CF80E38093560485ED8093BC000F
:104410008091BC0084FDFCCF97CF88E38093560445
:1044200085EC8093BC00109257044ECF80915804C5
:104430009091BB00E82FF0E0E75AFB4F90838F5F2D
:104440008093580485EC8093BC003ECFE0915804E3
:10445000F0E0E75AFB4F1082BACF80913404E82F86
:10446000F0E0EA5CFB4F90819093BB008F5F8093FC
:10447000340485EC8093BC0027CFEF92FF920F931A
:104480001F937B018C0120E030E040E05FE40E945C
:10449000BD2588238CF0C801B70120E030E040E062
:1044A0005FE40E94B9230E947A269B01AC01205050
:1044B00030404040504806C0C801B7010E947A26EB
:1044C0009B01AC01B901CA011F910F91FF90EF90C0
:1044D0000895A0E0B0E0EFE6F2E20C948529FC013B
:1044E0002B01EA018081823008F43DC1DB019C91FF
:1044F000923008F437C1843069F4943009F033C144
:10450000918111968C911197981709F42CC1ECEFB9
:10451000F1E029C1943009F425C19230A9F4823028
:1045200009F021C19F0188E0D9010D909D01DA01B8
:104530000D92AD018150C1F7D20111968C91119766
:104540009181892389830CC1823009F40BC1828156
:104550009381DB0112964D915C911397E480F58075
:10456000068117811496AD90BD90CD90DC90179781
:104570009C01241B350BB90137FF04C06627772740
:10458000621B730B603271050CF062C012161306C9
:104590006CF535014601062E04C0969487947794F5
:1045A00067940A94D2F721E030E040E050E004C084
:1045B000220F331F441F551F6A95D2F721503040F8
:1045C000404050402A213B214C215D2121153105DD
:1045D0004105510521F021E030E040E050E0590173
:1045E0006A01A628B728C828D9283DC02115310559
:1045F000D1F1860F971F37014801062E04C096940B
:104600008794779467940A94D2F721E030E040E0F1
:1046100050E004C0220F331F441F551F6A95D2F784
:1046200021503040404050402E213F214023512313
:10463000211531054105510521F021E030E040E030
:1046400050E079018A01E628F728082919290BC0CA
:10465000481759072CF0CA01EE24FF24870103C034
:10466000AA24BB2465012181F2013181231709F4B9
:104670004AC0222349F0A60195012E193F09400B9B
:10468000510B79018A0104C0EA18FB080C091D09C5
:1046900017FD0CC019829B838A83EC82FD820E83F6
:1046A0001F838C819D81AE81BF811AC021E0298347
:1046B0009B838A8388279927DC018E199F09A00B89
:1046C000B10B8C839D83AE83BF83EBCF880F991F83
:1046D000AA1FBB1F2A813B81215030403B832A8384
:1046E0009C01AD0121503040404050402F3F6FEFC2
:1046F00036076FEF46076FE3560740F38C839D83C1
:10470000AE83BF830BC029839B838A83EA0CFB1C87
:104710000C1D1D1DEC82FD820E831F8383E08883A8
:104720002C813D814E815F8157FF1AC0C901AA27A4
:1047300097FDA095BA2F81709070A070B0705695BB
:10474000479537952795822B932BA42BB52B8C83DC
:104750009D83AE83BF838A819B8101969B838A83DD
:10476000FE0101C0F201CF01CDB7DEB7E0E10C944C
:10477000A129A0E2B0E0EFEBF3E20C948F2969836A
:104780007A838B839C832D833E834F835887E9E014
:10479000EE2EF12CEC0EFD1ECE010196B7010E940B
:1047A0006C288E010F5E1F4FCE010596B8010E9446
:1047B0006C288A8991E089278A8BC701B801AE01EC
:1047C000475E5F4F0E9469220E949D27A096E6E007
:1047D0000C94AB29A0E2B0E0E0EFF3E20C948F2957
:1047E00069837A838B839C832D833E834F83588791
:1047F000F9E0EF2EF12CEC0EFD1ECE010196B70173
:104800000E946C288E010F5E1F4FCE010596B801E5
:104810000E946C28C701B801AE01475E5F4F0E943D
:1048200069220E949D27A096E6E00C94AB29A0E2A5
:10483000B0E0EDE1F4E20C94832969837A838B8301
:104840009C832D833E834F835887CE010196BE0102
:10485000675F7F4F0E946C28CE010596BE016F5E98
:104860007F4F0E946C289985923088F08989823028
:10487000C8F0943019F4823051F404C0843029F423
:10488000923081F48CEF91E0C4C0923049F480E022
:104890002A859A89291381E08A87CE010996B9C0B1
:1048A000823049F480E02A859A89291381E08A8B35
:1048B000CE014196AEC06D847E848F849888AD8889
:1048C000BE88CF88D88C60E070E080E090E0DC01AA
:1048D000EE24FF24870120E030E0A901F301E1701C
:1048E000F0703097C9F02A0D3B1D4C1D5D1D8E0DDB
:1048F0009F1DA01FB11F2224332421012A153B052F
:104900004C055D0528F4E1E02E2E312C412C512C74
:10491000820D931DA41DB51DEE0CFF1C001F111F61
:10492000D7FE09C0E1E02E2E312C412C512CE2287B
:10493000F328042915296F5F7F4F6032710549F014
:10494000AA0CBB1CCC1CDD1C9694879477946794AE
:10495000C5CF6B897C89EB85FC856E0F7F1F6E5FF1
:104960007F4F7C8F6B8F1A8E7A856A89761711F04C
:1049700061E06A8F6B8D7C8D10C0FC01E170F0707E
:10498000309729F056954795379527955068B695F5
:10499000A795979587956F5F7F4FB7FDEECF0CC0BA
:1049A000880F991FAA1FBB1F57FD8160220F331F5D
:1049B000441F551F615070408030E0E09E07E0E0EA
:1049C000AE07E0E4BE0760F36B8F7C8F6FE7E62EE7
:1049D000F12C012D112DE822F9220A231B2360E47A
:1049E000E616F1040105110561F487FD0AC02115E1
:1049F00031054105510529F0805C9F4FAF4FBF4FF6
:104A000080788D8F9E8FAF8FB8A383E0898FCE0182
:104A100049960E949D27A096E2E10C949F29A8E167
:104A2000B0E0E5E1F5E20C948B2969837A838B830E
:104A30009C832D833E834F8358878E01075F1F4FD2
:104A4000CE010196B8010E946C2881E1E82EF12C7C
:104A5000EC0EFD1ECE010596B7010E946C289985CB
:104A6000923008F483C08989823010F487017EC0B7
:104A70002A853A8923272A87943011F0923031F41D
:104A8000981709F070C00CEF11E070C0843039F451
:104A90001D861E861F86188A1C861B8667C082306C
:104AA00019F484E0898762C08B859C852B893C89B9
:104AB000821B930B9C878B872D853E854F8558895C
:104AC000AD88BE88CF88D88C2A153B054C055D057E
:104AD00038F4220F331F441F551F01979C878B8783
:104AE00060E070E0E12CF12C012DA0E41A2F80E0B1
:104AF00090E0DC012A153B054C055D0540F08E2950
:104B00009F29A02BB12B2A193B094C095D09169549
:104B10000795F794E794220F331F441F551F6F5FCB
:104B20007F4F6F31710531F76FE7E62EF12C012DC4
:104B3000112DE822F9220A231B2360E4E616F10472
:104B40000105110561F487FD0AC0211531054105F4
:104B5000510529F0805C9F4FAF4FBF4F80788D8704
:104B60009E87AF87B88B8E01075F1F4FC8010E94D9
:104B70009D276896EAE00C94A729A8E1B0E0E3EC51
:104B8000F5E20C948F2969837A838B839C832D8330
:104B90003E834F83588789E0E82EF12CEC0EFD1EF2
:104BA000CE010196B7010E946C288E010F5E1F4F47
:104BB000CE010596B8010E946C288985823040F0AC
:104BC0008989823028F0C701B8010E94DB2801C022
:104BD0008FEF6896E6E00C94AB29A8E1B0E0E3EF34
:104BE000F5E20C948F2969837A838B839C832D83D0
:104BF0003E834F83588789E0E82EF12CEC0EFD1E92
:104C0000CE010196B7010E946C288E010F5E1F4FE6
:104C1000CE010596B8010E946C288985823040F04B
:104C20008989823028F0C701B8010E94DB2801C0C1
:104C300081E06896E6E00C94AB29A8E0B0E0E3E2FE
:104C4000F6E20C948D2923E029839B01AC012227F5
:104C500057FD23953327442755272A83611571056E
:104C60008105910519F482E089833CC02223A9F0D3
:104C7000603020E0720720E0820720E8920729F4E4
:104C800060E070E080E09FEC31C0EE24FF248701FB
:104C9000E61AF70A080B190B02C07B018C018EE1A2
:104CA000C82ED12CDC82CB82ED82FE820F83188746
:104CB000C801B7010E9445279C01215030401216BF
:104CC000130684F4022E04C0EE0CFF1C001F111FFB
:104CD0000A94D2F7ED82FE820F831887C21AD30A94
:104CE000DC82CB82CE0101960E949D272896E8E0C7
:104CF0000C94A929ACE0B0E0E0E8F6E20C9493292A
:104D000069837A838B839C83CE010196BE016B5F9E
:104D10007F4F0E946C288D81823061F1823050F18A
:104D2000843021F48E81882349F12DC02F8138856C
:104D300037FD20C06E812F3131051CF06623F1F064
:104D400022C08EE190E0821B930B29853A854B852A
:104D50005C8504C056954795379527958A95D2F777
:104D60006623A9F050954095309521953F4F4F4FC0
:104D70005F4F0DC020E030E0A90109C02FEF3FEFE9
:104D80004FEF5FE704C020E030E040E050E8B901B9
:104D9000CA012C96E2E00C94AF29A8E0B0E0E3ED64
:104DA000F6E20C948D297B018C011A826115710544
:104DB0008105910519F482E089835FC083E08983CE
:104DC0008EE1C82ED12CDC82CB82ED82FE820F8355
:104DD0001887C801B7010E9445279C012150304027
:104DE00037FF38C0EE27FF27E21BF30B40E050E00F
:104DF000BA0181E090E0A0E0B0E00E2E04C0880F80
:104E0000991FAA1FBB1F0A94D2F70197A109B109E4
:104E10008E219F21A023B1230097A105B10521F088
:104E200041E050E060E070E004C016950795F7940B
:104E3000E794EA95D2F7E42AF52A062B172BED82A0
:104E4000FE820F8318878EE190E0821B930B9C8378
:104E50008B8313C02115310581F0022E04C0EE0CA6
:104E6000FF1C001F111F0A94D2F7ED82FE820F83F0
:104E70001887C21AD30ADC82CB82CE0101960E9427
:104E80009D272896E8E00C94A929AF92BF92CF9273
:104E9000DF92EF92FF920F931F937B018C0180E0D2
:104EA000E81680E0F80681E0080780E0180780F443
:104EB0008FEFE816F1040105110531F028F088E0C4
:104EC00090E0A0E0B0E016C080E090E0DC0112C00D
:104ED00080E0E81680E0F80680E0080781E0180727
:104EE00028F088E190E0A0E0B0E004C080E190E02C
:104EF000A0E0B0E020E230E040E050E0281B390BB9
:104F00004A0B5B0B5701680104C0D694C794B79451
:104F1000A7948A95D2F7F501EC5FFD4F8081281B9D
:104F2000310941095109C9011F910F91FF90EF907B
:104F3000DF90CF90BF90AF900895CF92DF92EF9225
:104F4000FF920F931F93FC01248135814681578185
:104F500001818081823020F440618FEF90E0A2C017
:104F6000843009F49AC0823019F480E090E097C050
:104F7000211531054105510519F480E090E092C0FA
:104F8000828193816FEF823896070CF058C062E8F7
:104F90007FEF681B790B6A31710524F020E030E067
:104FA000A9012AC069017A01062E04C0F694E7948B
:104FB000D794C7940A94D2F781E090E0A0E0B0E0E3
:104FC00004C0880F991FAA1FBB1F6A95D2F70197CB
:104FD000A109B10982239323A423B5230097A10536
:104FE000B10521F081E090E0A0E0B0E09C01AD01CE
:104FF0002C293D294E295F29DA01C9018F7790704C
:10500000A070B07080349105A105B10539F427FF77
:1050100009C0205C3F4F4F4F5F4F04C0215C3F4FA2
:105020004F4F5F4F80E090E0203060E0360760E057
:10503000460760E4560748F181E090E026C08038DA
:1050400091055CF581589F4F7FE7C72ED12CE12C4D
:10505000F12CC222D322E422F52260E4C616D10448
:10506000E104F10439F427FF09C0205C3F4F4F4FA2
:105070005F4F04C0215C3F4F4F4F5F4F57FF05C04C
:105080005695479537952795019697E056954795FC
:10509000379527959A95D1F705C08FEF90E020E0DE
:1050A00030E0A901782F779577277795142F1F7710
:1050B000602F6795662767958695F12FF72BE82F68
:1050C000E62B622F732F8F2F9E2F1F910F91FF9032
:1050D000EF90DF90CF900895FC01DB0120813181BA
:1050E0008281482F4F7750E0982F991F9927991F59
:1050F0006381862F880F892B90E0661F6627661FC5
:1051000011966C931197009769F5211531054105AA
:10511000510511F482E02FC082E89FEF13969C9313
:105120008E93129767E0220F331F441F551F6A9515
:10513000D1F783E08C930DC0220F331F441F551FFE
:1051400012968D919C911397019713969C938E9331
:105150001297203080E0380780E0480780E4580745
:1051600058F322C08F3F910579F42115310541058F
:10517000510519F484E08C93089544FF03C081E045
:105180008C9312C01C9210C08F57904013969C9322
:105190008E93129783E08C9387E0220F331F441F76
:1051A000551F8A95D1F7506414962D933D934D93D6
:1051B0005C9317970895EF92FF920F931F93FC0152
:1051C000DB018081823008F447C09C91923008F462
:1051D00043C0843051F481819430A1F511962C9113
:1051E000119730E0281B31093FC0943021F0823004
:1051F00031F49230B9F111968C9111972BC08181C5
:10520000923001F111969C9111978917D9F442813E
:10521000538112962D913C9113972417350794F0E2
:1052200042175307BCF0E480F5800681178114967D
:105230002D913D914D915C9117972E153F0540079B
:10524000510718F4882341F00AC0E216F306040758
:10525000150740F4882319F021E030E005C02FEF56
:105260003FEF02C020E030E0C9011F910F91FF9095
:10527000EF900895AA1BBB1B51E107C0AA1FBB1FDB
:10528000A617B70710F0A61BB70B881F991F5A95D2
:10529000A9F780959095BC01CD01089597FB092E43
:1052A00007260AD077FD04D0E5DF06D000201AF4E7
:1052B000709561957F4F0895F6F7909581959F4F72
:1052C0000895A1E21A2EAA1BBB1BFD010DC0AA1F47
:1052D000BB1FEE1FFF1FA217B307E407F50720F05F
:1052E000A21BB30BE40BF50B661F771F881F991FDA
:1052F0001A9469F760957095809590959B01AC0123
:10530000BD01CF0108952F923F924F925F926F920D
:105310007F928F929F92AF92BF92CF92DF92EF9245
:10532000FF920F931F93CF93DF93CDB7DEB7CA1BC6
:10533000DB0B0FB6F894DEBF0FBECDBF09942A88F1
:10534000398848885F846E847D848C849B84AA8499
:10535000B984C884DF80EE80FD800C811B81AA8126
:10536000B981CE0FD11D0FB6F894DEBF0FBECDBFF1
:10537000ED010895EE0FFF1F0590F491E02D0994C3
:105380009F939F776ED00F9000203AF49058A2EA36
:105390002AED3FE049E450E40ED0E2C0ABD030F05B
:1053A000B0D020F031F49F3F11F41EF47BC00EF416
:1053B000E095E7FB71C0E92FF5D080F3BA176207DB
:1053C00073078407950718F071F49EF50DC10EF46C
:1053D000E0950B2EBA2FA02D0B01B90190010C0105
:1053E000CA01A0011124FF27591B99F0593F50F41D
:1053F000503E68F11A16F040A22F232F342F442775
:10540000585FF3CF469537952795A795F04053956C
:10541000C9F77EF41F16BA0B620B730B840BBAF03C
:105420009150A1F0FF0FBB1F661F771F881FC2F7A7
:105430000EC0BA0F621F731F841F48F487957795BB
:105440006795B795F7959E3F08F0B3CF9395880F72
:1054500008F09927EE0F9795879508955AD0E39510
:1054600090C0DF93CF931F930F938B01EC01EAEF72
:10547000F1E01BD075D09801AE018B01EC0160E02A
:1054800070E080E89FE375D91BD19801AE010F91C0
:105490001F91CF91DF91B9C097F99F6780E870E0C5
:1054A00060E008959FEF80EC0895DF93CF931F9302
:1054B0000F93FF92EF92DF927B018C01689405C0FD
:1054C000DA2EEF01A2D0FE01E894A5912591359145
:1054D00045915591AEF3EF016EDFFE019701A801F2
:1054E000DA9479F7DF90EF90FF900F911F91CF91B1
:1054F000DF91089500240A94161617061806090667
:10550000089500240A941216130614060506089539
:10551000C9CF50D0E8F3E894E0E0BB279F57F0F004
:105520002AED3FE049EC06C0EE0FBB0F661F771F68
:10553000881F28F0B23A62077307840728F0B25A2E
:10554000620B730B840BE3959A9572F7803830F4F5
:105550009A95BB0F661F771F881FD2F79048F0C03F
:10556000092E0394000C11F4882352F0BB0F40F471
:10557000BF2B11F460FF04C06F5F7F4F8F4F9F4FB1
:105580000895EF93E0FF06C0A2EA2AED3FE049EC60
:105590005FEB11DFE5DF0F90039401FC9058E2E22E
:1055A000F2E0E1C057FD9058440F551F59F05F3F9E
:1055B00071F04795880F97FB991F61F09F3F79F035
:1055C00087950895121613061406551FF2CF4695B7
:1055D000F1DF08C0161617061806991FF1CF869539
:1055E0007105610508940895E894BB27662777271D
:1055F000CB0197F908957EDF28F083DF18F095231B
:1056000009F04ACF4FCF1124F0CFCCDFA0F3959F04
:10561000D1F3950F50E0551F629FF001729FBB2799
:10562000F00DB11D639FAA27F00DB11DAA1F649F45
:105630006627B00DA11D661F829F2227B00DA11DF8
:10564000621F739FB00DA11D621F839FA00D611D7E
:10565000221F749F3327A00D611D231F849F600D9F
:10566000211D822F762F6A2F11249F5750408AF0D8
:10567000E1F088234AF0EE0FFF1FBB1F661F771F64
:10568000881F91505040A9F79E3F510570F004CFFC
:10569000ACCF5F3FECF3983EDCF38695779567954A
:1056A000B795F795E7959F5FC1F7FE2B880F911D82
:1056B0009695879597F9089511F40EF4F3CE3EC0B0
:1056C00079DFD0F39923D9F3CEF39F57550B87FF9A
:1056D00043D00024A0E640EA900180585695979563
:1056E00028F4805C660F771F881F20F02617370785
:1056F000480730F4621B730B840B202931294A2B95
:10570000A69517940794202531254A2758F7660F48
:10571000771F881F20F026173707480730F4620BE1
:10572000730B840B200D311D411DA09581F7B9012C
:10573000842F9158880F9695879508959F3F31F053
:10574000915020F4879577956795B795880F911DAF
:105750009695879597F9089591505040660F771F59
:10576000881FD2F708959F938F937F936F93FF9332
:10577000EF939B01AC015BD8EF91FF9196DE2F91E7
:105780003F914F915F9153C8EF92FF920F931F93F8
:10579000CF93DF93689F8001699F100D789F100D54
:1057A0001124C8010E94E92BE82EE7017E01F92EA1
:1057B000E701E114F10431F08E2D60E070E0A80102
:1057C0000E943B2E7E01CE01CDB7DEB7E6E00C9401
:1057D000AB29EF92FF920F931F93CF93DF93823009
:1057E000910510F482E090E0C091A104D091A20450
:1057F00020E030E040E050E029C0688179816817FE
:105800007907D8F06817790779F48A819B81211587
:10581000310521F0F9019383828304C09093A2049F
:105820008093A104DE012AC04115510519F06417C7
:10583000750718F4FE01AB01D9019E017A816B81D5
:10584000E72EE7017E01062FF62EE7012097A9F645
:1058500041155105F9F0481B590B4430510580F4AE
:1058600082819381109729F013969C938E931297BF
:1058700004C09093A2048093A104DF01129645C056
:10588000DF01A40FB51F8D939D934250504051836B
:1058900040833BC020919F043091A0042115310525
:1058A00041F420910603309107033093A004209324
:1058B0009F0420910803309109032115310541F41B
:1058C0002DB73EB74091040350910503241B350BBF
:1058D000A0919F04B091A004A217B307A0F42A1BC3
:1058E0003B0B2817390778F0AC014E5F5F4F241748
:1058F000350748F04A0F5B1F5093A00440939F0464
:105900008D939D9302C0A0E0B0E0CD01CDB7DEB78E
:10591000E6E00C94AB29CF93DF93009709F48FC096
:10592000FC013297138212826091A1047091A2044B
:105930006115710581F420813181280F391F809113
:105940009F049091A0048217930761F5F093A0043F
:10595000E0939F0474C0EB0180E090E0CE17DF0776
:1059600040F42A813B81CE012115310501F1E90185
:10597000F5CFD383C283DF014D915D919D01240F4B
:10598000351FC217D30761F428813981240F351FD1
:105990002E5F3F4F318320832A813B8133832283D3
:1059A000009729F4F093A204E093A10448C0DC011D
:1059B0001396FC93EE931297EC0149915991C40F01
:1059C000D51FEC17FD0779F420813181240F351F95
:1059D0002E5F3F4F11963C932E9322813381139675
:1059E0003C932E931297E0E0F0E0DB0112968D914C
:1059F0009C911397009721F0E62FF72FBC01F5CF6C
:105A00009B012E5F3F4FDB018D919C911197820F7F
:105A1000931F40919F045091A0044817590779F4AF
:105A2000309729F41092A2041092A10402C01382AC
:105A30001282225030403093A00420939F04DF91C3
:105A4000CF910895A0E0B0E0E8E2FDE20C94872950
:105A5000EC01CB01209741F40E94E92BE82EE701ED
:105A60007E01F92EE701B9C0BEEFEB2EBFEFFB2E92
:105A7000EC0EFD1EAE01460F571F4E155F0508F4D4
:105A8000AAC0D7012D913C91119726173707C0F076
:105A90002530310508F4A1C0B90164507040681781
:105AA000790708F49AC022503040281B390BFA01BC
:105AB000219331938D939C93CF010E948B2C8DC0A9
:105AC0006B01C21AD30A5E01A20EB31EE091A104BB
:105AD000F091A2046624772400E010E045C0EA15A6
