:100000000C942D010C9455010C9455010C94550140
:100010000C9455010C9455010C9455010C94550108
:100020000C9455010C9455010C9455010C945501F8
:100030000C9455010C9455010C9455010C945501E8
:100040000C945D0C0C9455010C9494060C94550181
:100050000C9455010C9455010C9455010C945501C8
:100060000C94B5180C945501571905190519051963
:100070000519051905190519611905190519051934
:100080000519051905190519611905190519051924
:10009000051905190519051969190519051905190C
:1000A00005190519051905197819051905190519ED
:1000B00005190519051905196919051905190519EC
:1000C0000519051905190519A319051905190519A2
:1000D0000519051905190519AE1905190519051987
:1000E00005190519051905192B19051905190519FA
:1000F00005190519051905193E19051905190519D7
:1001000005190519051905191F19051905190519E5
:1001100005190519051905193219051905190519C2
:1001200005190519051905194E1905190519051996
:1001300005190519051905194E1905190519051986
:1001400005190519051905194E1905190519051976
:1001500005190519051905194E1905190519051966
:10016000051905190519051916190519051905198E
:1001700005190519051905191B1905190519051979
:10018000051905190519051916190519051905196E
:1001900005190519051905191B1905190519051959
:1001A00005190519051905198319051905190519E1
:1001B0000519051905190519DB180519051905197A
:1001C0000519051905190519DB180519051905196A
:1001D0000519051905190519F01805190519051945
:1001E00005190519051905194819051905190519DC
:1001F0000519051905190519481900000000240002
:1002000027002A0000000000250028002B00000025
:10021000000023002600290004040404040404044C
:1002200002020202020203030303030301020408A1
:100230001020408001020408102001020408102050
:100240000000000700020100000304060000000097
:1002500000000000DB208F01270811241FBECFEF14
:10026000D8E0DEBFCDBF14E0A0E0B1E0EAEAF6E6F8
:1002700002C005900D92AE3EB107D9F719E0AEEE7F
:10028000B4E001C01D92AD3FB107E1F712E0CAE54D
:10029000D2E004C02297FE010E94DD2FC435D107B1
:1002A000C9F70E94352F0C9453330C940000089525
:1002B0000895FC018081823071F0833028F0833012
:1002C00069F0843031F008958130E9F76093B3002C
:1002D000089568BD08956093B400089567BD0895BA
:1002E000CF93DF93EC0188819981689F9001699F8A
:1002F000300D789F300D112440E050E060E077E849
:1003000083E993E00E946E2F2B833C834D835E83B1
:100310001F82188619861A86DF91CF910895089555
:10032000CF93DF938CE060E00E94350E88E060E0C0
:100330000E94350EC7E0D0E00DC088E061E00E9469
:10034000350E84E061E00E94350E21973FEFCF3FEC
:10035000D307A1F084E060E00E94350E8091A108EF
:1003600090E00C2E02C0959587950A94E2F780FDE7
:10037000E4CF88E060E00E94350EE3CF8CE061E0DE
:100380000E94350EDF91CF910895DF92EF92FF9298
:100390000F931F93CF93DF93EC018A81813009F48F
:1003A00071C0823049F080E0DF91CF911F910F91B1
:1003B000FF90EF90DF9008952EE191E2D92E30E486
:1003C00050E8E1E0F0E2413001F1423009F495C03B
:1003D000433009F4A2C09B85443021F5613009F413
:1003E000F3C091509B879F739B87903108F099C011
:1003F000092F10E06CEA73E0601B710BDB017C914C
:1004000004561C4FD8016C910FC09B85792F7695AF
:100410007695769570FF9BC0613009F4DCC09850EA
:100420009B879B857FEF6FEF9F739B87813009F4DC
:100430005FC0823009F46EC08091A108822380934E
:10044000A108443091F1969596959695943009F4CB
:10045000AFC09530F8F0963009F4AEC0963008F091
:1004600087C0352B382B3093A10880EA98E00E9492
:1004700090018B85DF91CF911F910F91FF90EF90AD
:10048000DF90089521EE36E0D32E30E158E0E2E02F
:10049000F4E099CF923009F493C0933008F462C02D
:1004A0005E2B582B5093A108E0CF903118F48D2982
:1004B0008093A108892F8051803130F4E52B209161
:1004C000A1082E2B2093A108892F8052803130F46F
:1004D000532B2091A108252B2093A10890539031F4
:1004E00020F63F2B9091A108932B9093A108BDCFAC
:1004F0007093B3006093B4009FCF9B85792F76955E
:100500007695769570FD29C0613009F447C0985002
:100510009B8788CF77BD68BD8FCF6130F1F19B8518
:10052000F6CF692F6051603150F1692F6052603110
:1005300008F055C0092F10E06CEC73E0601B710BE4
:10054000DB017C9104581C4FD8016C916DCF613058
:10055000F1F190519B879B8565CF613011F19051EE
:100560009B8760CF913001F18F2B8093A1087DCFC5
:100570009730D1F73F2B382B3093A10876CFE92E57
:10058000FF24B70164577C4FDB017C910CEB13E037
:100590000E191F09D8016C9147CF9B85985F9B87E7
:1005A00041CF905F9B873ECF8D298093A1085DCF7F
:1005B000852B8093A10859CF832B8093A10855CF19
:1005C0008E2B8093A10851CF9F5F9B870CCF905FAC
:1005D0009B879B8527CF985F9B879B8523CF692F20
:1005E0006053603118F070E060E01ECFE92EFF2408
:1005F000B70164597C4FDB017C910CED13E00E19BF
:100600001F09D8016C9110CF5F926F927F928F92E9
:100610009F92AF92BF92CF92DF92EF92FF920F9391
:100620001F93CF93DF93EC018B01542EF22E8B801E
:100630009C80AD80BE8023E0F21609F4A5C084E062
:10064000F81609F4A6C0C501B40128EE33E040E075
:1006500050E00E946E2F722EC32ED42EE52EC501BF
:10066000B40128EE33E040E050E00E946E2F4B01D1
:100670005C01662402C0015010400115110599F17A
:10068000CE01652D4F2D0E94C501682E672D7C2D52
:100690008D2D9E2D0E94DA0C8F819885A985BA85B3
:1006A000880D991DAA1DBB1D8F839887A987BA87BE
:1006B000883E23E0920720E0A20720E0B207D8F2AC
:1006C00061E070E080E090E00E94DA0C8F81988514
:1006D000A985BA85885E9340A040B0408F839887F3
:1006E000A987BA87C8CF84E0F81681F0DF91CF914F
:1006F0001F910F91FF90EF90DF90CF90BF90AF9040
:100700009F908F907F906F905F900895662071F317
:1007100020E1621619F4EACF003141F3CE01652DD4
:1007200044E00E94C501082F672D7C2D8D2D9E2D44
:100730000E94DA0C8F819885A985BA85880D991D4C
:10074000AA1DBB1D8F839887A987BA87883E23E09F
:10075000920720E0A20720E0B20790F061E070E08D
:1007600080E090E00E94DA0C8F819885A985BA8597
:10077000885E9340A040B0408F839887A987BA874E
:10078000002309F4B3CFC8CFB694A7949794879465
:100790005ACF54E0B694A794979487945A95D1F77A
:1007A00002951295107F1027007F10274CCFFC0177
:1007B0008281813069F0823009F008958091A1082A
:1007C0008E718093A10880EA98E00E9490010895BC
:1007D0008091A108817E8093A10880EA98E00E9420
:1007E00090010895FC018081823009F46AC0833051
:1007F00030F0833009F462C0843039F108958130DB
:10080000E9F783E092E0623021F1643009F43BC003
:100810006130A1F721E030E0A90102C0440F551F6B
:100820008A95E2F7842F8095A90102C0440F551FD5
:100830009A95E2F72091A108242B82238093A108A6
:1008400080EA98E00E949001089586E090E062308E
:10085000E1F621E030E0A90102C0440F551F9A954E
:10086000E2F7942F90954091A108942302C0220FA3
:10087000331F8A95E2F7922B9093A10880EA98E0C3
:100880000E949001089521E030E0A90102C0440FC8
:10089000551F9A95E2F7B90102C0660F771F8A9536
:1008A000E2F7CB01842B80952091A1082823209387
:1008B000A10880EA98E00E949001089587E095E001
:1008C000A2CF84E091E09FCFCF93DF93EC018CE047
:1008D00061E00E94E30D87E061E00E94E30D88E0A3
:1008E00061E00E94E30D84E061E00E94E30D10925C
:1008F000A108CE010E94900187E060E00E94350EC1
:10090000DF91CF910895EF92FF921F93CF93DF93E2
:10091000EC017B01142F80EA98E00E946404F982C4
:10092000E8821A831B861130D1F1123031F0DF9149
:10093000CF911F91FF90EF9008958091A1088E7143
:100940008093A10880EA98E00E94900185E061E030
:100950000E94E30D86E061E00E94E30D85E061E026
:100960000E94350E86E061E00E94350E84B58368F2
:1009700084BD17BC86E061E00E94E30D84B583620C
:1009800084BD18BC85E061E00E94E30D8FEF87BD58
:1009900088BDDF91CF911F91FF90EF9008958091D6
:1009A000A108817E8093A10880EA98E00E949001CE
:1009B0008BE061E00E94E30D83E061E00E94E30DC3
:1009C0008BE061E00E94350E83E061E00E94350E0D
:1009D0008091B00083688093B0001093B1001092B2
:1009E000B3008BE061E00E94E30D8091B000836270
:1009F0008093B0001093B1001092B40083E061E0E6
:100A00000E94E30D8FEF8093B3008093B4008FCFEB
:100A10001F93DF93CF930F92CDB7DEB7FC01142F56
:100A20006083418380EA98E069830E94640469815D
:100A3000623009F450C06330F0F46130B9F4809151
:100A4000A108837F8093A10880EA98E00E9490012A
:100A50008091B00083688093B00017701093B1004C
:100A60001092B3008BE061E00E94E30D0F90CF91F4
:100A7000DF911F9108956330C1F06430B9F7809120
:100A8000A1088E7B8093A10880EA98E00E949001E3
:100A900084B5836284BD18BC85E061E00E94E30DEB
:100AA0000F90CF91DF911F9108958091A1088F75CC
:100AB0008093A10880EA98E00E94900184B5836841
:100AC00084BD17BC86E061E00E94E30D0F90CF91DA
:100AD000DF911F9108958091A1088D7E8093A108D8
:100AE00080EA98E00E9490018091B0008362809338
:100AF000B00017701093B1001092B40083E061E071
:100B00000E94E30D0F90CF91DF911F9108951F93E5
:100B1000DF93CF930F92CDB7DEB7FC01142F608324
:100B2000418380EA98E069830E94640469816230AD
:100B300009F450C06330F0F46130B9F48091A10839
:100B4000837F8093A10880EA98E00E9490018091C1
:100B5000B00083688093B00017701093B1001092BA
:100B6000B3008BE061E00E94E30D0F90CF91DF9125
:100B70001F9108956330C1F06430B9F78091A108E6
:100B80008E7B8093A10880EA98E00E94900184B552
:100B9000836284BD18BC85E061E00E94E30D0F9084
:100BA000CF91DF911F9108958091A1088F75809357
:100BB000A10880EA98E00E94900184B5836884BD12
:100BC00017BC86E061E00E94E30D0F90CF91DF91AA
:100BD0001F9108958091A1088D7E8093A10880EADD
:100BE00098E00E9490018091B00083628093B000F1
:100BF00017701093B1001092B40083E061E00E947E
:100C0000E30D0F90CF91DF911F910895EF92FF9226
:100C10001F93CF93DF93EC017B01142F80EA98E0C0
:100C20000E946404F982E8821A831B861130D1F194
:100C3000123031F0DF91CF911F91FF90EF90089526
:100C40008091A1088E718093A10880EA98E00E94AB
:100C5000900185E061E00E94E30D86E061E00E9482
:100C6000E30D85E061E00E94350E86E061E00E94C0
:100C7000350E84B5836884BD17BC86E061E00E94B0
:100C8000E30D84B5836284BD18BC85E061E00E94F9
:100C9000E30D8FEF87BD88BDDF91CF911F91FF904E
:100CA000EF9008958091A108817E8093A10880EA49
:100CB00098E00E9490018BE061E00E94E30D83E0E8
:100CC00061E00E94E30D8BE061E00E94350E83E05D
:100CD00061E00E94350E8091B00083688093B0007F
:100CE0001093B1001092B3008BE061E00E94E30D1D
:100CF0008091B00083628093B0001093B100109295
:100D0000B40083E061E00E94E30D8FEF8093B300B5
:100D10008093B4008FCFCB01642F0E9432330895AB
:100D2000CB010E942A3308951F920F920FB60F92A3
:100D300011242F933F934F935F936F938F939F93C0
:100D4000EF93FF936091C60020912209309123090F
:100D5000C90101968F77907040912409509125091F
:100D60008417950741F02E55374FF9016083909312
:100D7000230980932209FF91EF919F918F916F91A9
:100D80005F914F913F912F910F900FBE0F901F9049
:100D900018958F92AF92CF92DF92EF92FF920F93BE
:100DA0001F93DF93CF93CDB7DEB7FC0181EB93E0C8
:100DB000918380837383628355834483378326833F
:100DC00011870087F386E286D586C486A686878645
:100DD0008D85808B8E85818B8F85828BCF91DF91E6
:100DE0001F910F91FF90EF90DF90CF90AF908F9079
:100DF00008958F92AF92CF92DF92EF92FF920F936E
:100E00001F93DF93CF93CDB7DEB7FC0181EB93E067
:100E100091838083738362835583448337832683DE
:100E200011870087F386E286D586C486A6868786E4
:100E30008D85808B8E85818B8F85828BCF91DF9185
:100E40001F910F91FF90EF90DF90CF90AF908F9018
:100E50000895CF93DF93EC019A01AB01203081EE2E
:100E6000380780E0480780E0580709F448C0E88563
:100E7000F98581E090E00A8802C0880F991F0A94E2
:100E8000E2F7808360E079E08DE390E00E946E2FCE
:100E90002150304040405040569547953795279512
:100EA000832FEC81FD818083EE81FF812083EA85A1
:100EB000FB85808121E030E0A9010E8402C0440F4F
:100EC000551F0A94E2F7842B8083EA85FB85808195
:100ED000A9010F8402C0440F551F0A94E2F7842B26
:100EE0008083EA85FB858081088802C0220F331F3A
:100EF0000A94E2F7822B8083DF91CF910895E885F1
:100F0000F985108220E180E0CCCFFC01A285B38579
:100F10003C9181E090E0AC01068402C0440F551F73
:100F20000A94E2F7242F209523232C93A285B385DE
:100F30003C91AC01078402C0440F551F0A94E2F7AC
:100F4000242F209523232C93A285B3852C910088F0
:100F500002C0880F991F0A94E2F7809582238C9330
:100F60000895FC0182819381FC01E058FF4F2081AC
:100F700031818E579F4FFC0180819181281B390B55
:100F80002F773070C9010895FC0182819381FC01A3
:100F9000EE57FF4F20813181FC01E058FF4F408127
:100FA00051814217530739F0820F931FFC012081B2
:100FB00030E0C90108952FEF3FEFC9010895DC012A
:100FC00012968D919C911397FC01EE57FF4F408133
:100FD0005181DC01A058BF4F2D913C9111972417EE
:100FE000350769F0840F951FDC012C914F5F5F4F2F
:100FF0004F7750705183408330E0C90108952FEF3F
:101000003FEFC9010895DC0112968D919C911397D1
:10101000FC01E058FF4F8E579F4FDC018D919C9152
:101020001197918380830895FC01A085B185218962
:101030008C9190E0022E02C0959587950A94E2F774
:1010400080FFF6CF0484F585E02D6083089581EB61
:1010500093E0909327098093260982EA98E0909381
:1010600029098093280985EC90E090932B098093BF
:101070002A0984EC90E090932D0980932C0980EC50
:1010800090E090932F0980932E0981EC90E090934B
:1010900031098093300986EC90E090933309809376
:1010A000320984E08093340983E08093350987E036
:1010B0008093360985E08093370981E08093380971
:1010C00008950F931F93CF93DF93EC018B01FB01E6
:1010D0006081662369F00F5F1F4FE881F9810190FD
:1010E000F081E02DCE010995F8016081662399F722
:1010F000DF91CF911F910F910895EF92FF920F937F
:101100001F93CF93DF93EC018B017A0141155105B9
:1011100081F0F80161918F01E881F9810190F081FE
:10112000E02DCE0109950894E108F108E114F104DD
:1011300081F7DF91CF911F910F91FF90EF9008956C
:10114000DC01ED91FC910280F381E02D0995089579
:10115000CF92DF92EF92FF920F931F93CF93DF9383
:101160007C018B01DB0114968D919C911597009762
:10117000C1F060E070E0C0E0D0E0D701ED91FC91FB
:10118000C080D180C8010E94D50E682FC701F6012A
:1011900009952196BE01F80184819581C817D90768
:1011A00060F3DF91CF911F910F91FF90EF90DF904F
:1011B000CF9008952F923F924F925F926F927F92BD
:1011C0008F929F92AF92BF92CF92DF92EF92FF9257
:1011D0000F931F93DF93CF93CDB7DEB7A2970FB6D0
:1011E000F894DEBF0FBECDBF9AA389A37A018B010D
:1011F000411551056105710509F455C0622E77242A
:1012000088249924AA24BB2465011E010894211C6A
:10121000311C21014A0C5B1CC801B701A4019301D8
:101220000E946E2FF20160830894A11CB11CC11CA6
:10123000D11CC801B701A40193010E946E2FE22EB8
:10124000F32E042F152FE114F1040105110509F700
:10125000A114B104C104D10471F10894A108B1082A
:10126000C108D10818C0405D50E060E070E089A17D
:101270009AA120E030E00E9492090894A108B108E8
:10128000C108D108FFEFAF16FFEFBF06FFEFCF0693
:10129000FFEFDF0681F0F101EA0DFB1D40814A30CE
:1012A00010F3495CE1CF40E350E060E070E020E003
:1012B00030E00E949209A2960FB6F894DEBF0FBEEE
:1012C000CDBFCF91DF911F910F91FF90EF90DF90F5
:1012D000CF90BF90AF909F908F907F906F905F90D6
:1012E0004F903F902F9008952115310519F00E94DD
:1012F000DA080895DC01ED91FC910190F081E02D78
:10130000642F099508959A01AB0160E070E00E9496
:10131000740908959A01462F50E060E070E00E9441
:1013200074090895EF92FF920F931F93CF93DF9369
:10133000EC017A018B0121153105D9F02A303105F4
:1013400049F00E94DA08DF91CF911F910F91FF9031
:10135000EF90089577FD1BC0CE01B801A7012AE0E8
:101360000E94DA08DF91CF911F910F91FF90EF90CB
:101370000895E881F9810190F081E02D642F0995AD
:10138000DF91CF911F910F91FF90EF9008954DE263
:1013900050E060E070E020E030E00E94920910959B
:1013A0000095F094E094E11CF11C011D111DD4CFB7
:1013B000EF92FF920F931F939A017B010027F7FC96
:1013C0000095102FB801A7010E9492091F910F915B
:1013D000FF90EF9008959A01462F50E060E070E092
:1013E0000E9492090895CF93DF93EC014DE050E005
:1013F00060E070E020E030E00E949209CE014AE017
:1014000050E060E070E020E030E00E949209DF915F
:10141000CF910895CF93DF93EC010E947409CE0120
:101420000E94F309DF91CF910895CF93DF93EC01F0
:101430009A01AB0160E070E00E947409CE010E9445
:10144000F309DF91CF910895CF93DF93EC019A01D7
:10145000462F50E060E070E00E947409CE010E94C7
:10146000F309DF91CF910895CF93DF93EC010E94B0
:10147000A008CE010E94F309DF91CF910895CF9388
:10148000DF93EC010E94A808CE010E94F309DF91CE
:10149000CF910895CF93DF93EC010E949209CE0182
:1014A0000E94F309DF91CF910895CF93DF93EC0170
:1014B000CB019A01AC01662757FD6095762FCE01CE
:1014C0000E949209CE010E94F309DF91CF91089505
:1014D000CF93DF93EC019A01462F50E060E070E07B
:1014E0000E949209CE010E94F309DF91CF910895E5
:1014F0009F92AF92BF92CF92DF92EF92FF920F93A3
:101500001F93CF93DF93EC016A017B01122FCB0174
:10151000BA0120E030E0A9010E948E1D88230CF45E
:1015200083C0112309F48EC000E050E040E030E0B9
:101530002FE3DA01F9016B2F742F8F2F922F20E008
:1015400030E040E251E40E94B01C562F472F382F64
:10155000292F0F5F011768F3C701B601DA01F901FE
:101560002B2F3A2F4F2F5E2F0E948B1B5B01C82E13
:10157000092F7B2D0E94DE19962EF72EE82ED92EEC
:101580000E946E1E9B01AC016A2D7B2D8C2D902F2D
:101590000E945A1B5B01C82E092FCE01492D5F2DD9
:1015A0006E2D7D2D2AE030E00E947409CE0161EDA0
:1015B00073E00E94A0086A2D7B2D8C2D902F20E0D7
:1015C00030E040E251E40E94B81B062FB72EA82E4F
:1015D000992E0E941B1E6B01EE24D7FCE094FE2C7A
:1015E000CE01B701A6012AE030E00E949209C701AE
:1015F000B6010E94BE1D9B01AC01602F7B2D8A2D80
:10160000992D0E945A1B5B01C82E092F115099F683
:10161000DF91CF911F910F91FF90EF90DF90CF90CE
:10162000BF90AF909F900895CE014DE250E060E0F2
:1016300070E020E030E00E949209F7FAF094F7F8A9
:10164000F0946FCFC701B60120E030E040E05FE3E7
:101650000E948B1B0E94DE19AB01BC01CE012AE067
:1016600030E00E947409D4CF0E94780A0895CF9385
:10167000DF93EC010E94780ACE010E94F309DF910A
:10168000CF9108950895089581E080937E09609335
:101690005B0910927C0910927D09089581E0809386
:1016A0007E0960935B0910927C0910927D09089570
:1016B00080915A0990915909891B0895909159096F
:1016C00080915A09981748F4E92FF0E0E75CF64F4B
:1016D00080819F5F90935909089580E00895CF938A
:1016E000DF939C01E0918109F0918209309711F11B
:1016F0009091590980915A099817E0F0161617062B
:101700009CF4A0E0B0E090E040E050E0A75CB64F71
:10171000420F531FEA0148814C939F5F492F50E0CD
:10172000DA014617570794F31092590960935A0942
:10173000CB010995DF91CF910895E0917F09F09158
:101740008009309729F010927C0910927D09099543
:1017500008957093820960938109089570938009B8
:1017600060937F090895DF93CF930F92CDB7DEB7D3
:10177000698380917E098823C1F080917D09803240
:1017800020F00F90CF91DF91089580917C09E82F90
:10179000F0E0E45AF64F60838F5F80937C0980937A
:1017A0007D090F90CF91DF910895CE01019661E000
:1017B0000E9473180F90CF91DF9108950E94B30B90
:1017C0000895EF92FF920F931F93CF93DF93EC0155
:1017D000162F042F80917E098823A9F0442361F0FD
:1017E000E62EF72ECE01F70161917F010E94B30B27
:1017F0008E2D811B8017B0F3DF91CF911F910F9138
:10180000FF90EF900895862F972F642F0E947318F2
:10181000DF91CF911F910F91FF90EF900895DB0121
:101820000D900020E9F7AD0141505040461B570B89
:101830000E94E10B089580915B096CE579E040918D
:101840007D0921E00E94231810927C0910927D09E5
:1018500010927E090895862F413208F040E269E334
:1018600079E00E94EA171092590980935A09089565
:101870000E942B0C08951092590910925A09109247
:101880007C0910927D090E94D3170895CF93DF93AE
:10189000EC01862F0E94E6178DE99BE00E949618C6
:1018A0008FE69BE00E949118CE010E943B0CDF91D5
:1018B000CF9108950E94460C08951F920F920FB683
:1018C0000F9211242F933F938F939F93AF93BF93C6
:1018D0008091870990918809A0918909B0918A091E
:1018E00030918B090196A11DB11D232F2D5F2D373E
:1018F00020F02D570196A11DB11D20938B098093D7
:10190000870990938809A0938909B0938A098091E7
:10191000830990918409A0918509B0918609019667
:10192000A11DB11D8093830990938409A09385091B
:10193000B0938609BF91AF919F918F913F912F9165
:101940000F900FBE0F901F9018958FB7F8942091AD
:101950008709309188094091890950918A098FBF80
:10196000B901CA0108959FB7F89420918309309175
:101970008409409185095091860986B5A89B06C0C7
:101980008F3F21F02F5F3F4F4F4F5F4F9FBF542F2F
:10199000432F322F2227280F311D411D511D220FA9
:1019A000331F441F551F220F331F441F551FB901FA
:1019B000CA010895EF92FF920F931F93CF93DF9385
:1019C0007B018C010E94B30CEB01E114F1040105D1
:1019D0001105A1F00E94B30C6C1B7D0B83E0683EE7
:1019E0007807C0F30894E108F10801091109C8510A
:1019F000DC4FE114F1040105110561F7DF91CF918E
:101A00001F910F91FF90EF900895019739F0880F83
:101A1000991F880F991F02970197F1F708957894FD
:101A200084B5826084BD84B5816084BD85B58260E3
:101A300085BD85B5816085BDEEE6F0E08081816081
:101A40008083E1E8F0E01082808182608083808181
:101A500081608083E0E8F0E0808181608083E1EB59
:101A6000F0E0808184608083E0EBF0E08081816041
:101A70008083EAE7F0E080818460808380818260F7
:101A800080838081816080838081806880831092E0
:101A9000C10008958093DD0308958E3008F08E50C4
:101AA00087709091DD039295990F990F907C982BF8
:101AB00090937C0080917A00806480937A0080917A
:101AC0007A0086FDFCCF2091780030917900932F29
:101AD00080E030E0282B392BC90108951F93CF9364
:101AE000DF93182FEB0161E00E94E30D209759F17D
:101AF000CF3FD105A1F0E12FF0E0E05CFD4F8491F4
:101B00008330E1F1843098F0863069F1873009F450
:101B10004FC0843009F43FC0C038D105A4F0812FF4
:101B200061E00E94350EDF91CF911F9108958130C1
:101B300091F0823089F784B5806284BDC8BDDF91A1
:101B4000CF911F910895812F60E00E94350EDF91A3
:101B5000CF911F91089584B5806884BDC7BDDF9182
:101B6000CF911F9108958091B00080688093B0005C
:101B7000C093B300DF91CF911F91089580918000B1
:101B8000806880938000D0938900C0938800DF91A3
:101B9000CF911F9108958091800080628093800092
:101BA000D0938B00C0938A00DF91CF911F9108954D
:101BB0008091B00080628093B000C093B400DF9148
:101BC000CF911F91089590E0FC01E45DFD4F2491B9
:101BD000FC01E85EFD4FE491EE2379F0F0E0EE0FBA
:101BE000FF1FE650FE4FA591B491662339F09FB7D1
:101BF000F8948C91822B8C939FBF08959FB7F89493
:101C00008C91209582238C939FBF0895833039F166
:101C1000843060F08630C9F0873069F0843051F448
:101C2000809180008F7D809380000895813099F0AD
:101C3000823039F008958091B0008F7D8093B0009C
:101C4000089584B58F7D84BD08958091B0008F770D
:101C50008093B000089584B58F7784BD08958091F6
:101C600080008F778093800008950F931F93DF93F8
:101C7000CF930F92CDB7DEB7282F30E0F901E05CAB
:101C8000FD4F8491F901E45DFD4F0491285E3D4FC5
:101C9000F9011491112391F0882319F5E12FF0E057
:101CA000EE0FFF1FEC5FFD4FA591B491662361F02D
:101CB0009FB7F8948C91802B8C939FBF0F90CF91FE
:101CC000DF911F910F9108959FB7F8948C91009523
:101CD00080238C939FBF0F90CF91DF911F910F9125
:101CE000089569830E94060E6981D8CF0F931F93D0
:101CF000282F30E0F901E05CFD4F8491F901E45DAB
:101D0000FD4F0491285E3D4FF90114911123C9F054
:101D10008823E9F4E12FF0E0EE0FFF1FE25FFD4FB3
:101D2000A591B4918C9120E030E0802321F4C90189
:101D30001F910F91089521E030E0C9011F910F918B
:101D4000089520E030E0C9011F910F9108950E948D
:101D5000060EE0CFDC01ED91FC911197E60FF71F25
:101D600080810895FC0180819181009749F0248150
:101D700035816217730720F4680F791FFB014083D8
:101D80000895FC01848195816817790740F480816A
:101D90009181009721F0680F791FCB01089510926F
:101DA0008C096CE879E0CB010895DC01ED91FC91A0
:101DB0001197E60FF71F80810895FC0180819181C2
:101DC0000E94EB3108950F931F93CF93DF93FC0193
:101DD000EB0141155105A1F06115710589F0848170
:101DE00095818A01015010408017910770F0608141
:101DF0007181CE01A8010E946732C00FD11F1882E5
:101E0000DF91CF911F910F9108958C01F0CF0F9327
:101E10001F93CF93DF93FC01EB0141155105A1F016
:101E20006115710589F0848195818A010150104006
:101E30008017910770F060817181CE01A8010E9426
:101E40006732C00FD11F1882DF91CF911F910F9180
:101E500008958C01F0CFFC01DB01CA0114964D916D
:101E60005C91159724813581241B350B2817390780
:101E700080F0208131816D917C91820F931F0E94AF
:101E800059329C0180E02115310509F0089581E067
:101E9000089580E00895FC0144815581FB0124816F
:101EA00035814217530710F480E0089540E050E078
:101EB0000E942B0F0895DF92EF92FF920F931F93D2
:101EC000CF93DF93EC018C819D814817590758F01F
:101ED0002FEF3FEFC901DF91CF911F910F91FF903D
:101EE000EF90DF9008958A010F5F1F4FE881F9811D
:101EF000E00FF11FD0801082E880F980C70170E008
:101F00000E9476329C010E0D1F1DF801D0820097B1
:101F1000F9F288819981281B390BDCCFFC014481BF
:101F20005581415050400E945B0F0895CF93DF933D
:101F3000FC01848195814817590730F02FEF3FEF5E
:101F4000C901DF91CF910895C081D181FB016081EA
:101F50007181CE01840F951F0E9481329C010097F0
:101F600069F32C1B3D0BECCF40E050E00E94960F34
:101F70000895CF93DF93FC01848195814817590719
:101F800030F02FEF3FEFC901DF91CF910895C0816D
:101F9000D181CE01840F951F70E00E943E329C01DA
:101FA000009779F32C1B3D0BEECF40E050E00E94F0
:101FB000B90F0895FC01DB012481358114968D91C0
:101FC0009C9115972817390711F080E008956D91BD
:101FD0007C91808191810E9449329C0180E0211591
:101FE000310509F0089581E00895FC01DB01848149
:101FF000958114962D913C9115978217930790F037
:10200000821B930B208131816D917C91820F931FF4
:102010000E9449329C0180E02115310509F00895A4
:1020200081E0089580E00895FB0160817181FC01E9
:10203000808191810E944932292F332727FD3095D5
:10204000209530952227330F221F3327C901089589
:10205000FB0160817181FC01808191810E94493284
:1020600040E050E01816190614F4CA01089541E042
:1020700050E0CA010895FB0160817181FC018081FB
:1020800091810E94493240E050E01816190614F47C
:1020900041E050E0CA010895FB0160817181FC01BB
:1020A000808191810E944932292F332727FD309565
:1020B0002227330F221F3327C9010895FC01DB01BA
:1020C0002481358114968D919C9115972817390795
:1020D00021F021E030E0C90108956D917C9180816B
:1020E00091810E9449329C012115310591F7C90166
:1020F0000895FC01DB012481358114968D919C911A
:1021000015972817390721F020E030E0C90108951C
:102110006D917C91808191810E9449329C0180E087
:1021200090E02115310519F09C01C901089581E065
:1021300090E09C01FACFFB0160817181FC018081FC
:1021400091810E9449320895EF92FF920F931F935D
:10215000CF93DF93EC018B01FB01648175818C814E
:102160009D81680F791F7D836C838A819B8186178F
:10217000970778F46F5F7F4F888199810E941A31A9
:102180000097B1F0998388832C813D813B832A831A
:1021900002C088819981F801608171810E94333287
:1021A000CE01DF91CF911F910F91FF90EF90089595
:1021B0008C819D81F80124813581821B930B9D8345
:1021C0008C83EECF0E94A4100895EF92FF920F939C
:1021D0001F93CF93DF93EC018B018617970799F03C
:1021E000FB01448155818C819D818417950798F06E
:1021F00088819981009739F05D834C83F801608173
:1022000071810E945232CE01DF91CF911F910F91C7
:10221000FF90EF900895888199810E948330F801A2
:10222000848195819B838A8301960E94E12F998303
:102230008883009721F0F80144815581DDCF1B820E
:102240001A821D821C82DFCF0F931F93DF93CF93DF
:102250000F92CDB7DEB78C0181E090E0D8011596E2
:102260009C938E93149713969C938E93129782E06F
:1022700090E069830E94E12FFC01D80111969C93A4
:102280008E936981009761F06083D801ED91FC9194
:10229000119711820F90CF91DF911F910F910895A7
:1022A00013961C921E92129715961C921E921497CA
:1022B0000F90CF91DF911F910F9108950F931F936E
:1022C000DF93CF930F92CDB7DEB78C0181E090E022
:1022D000D80115969C938E93149713969C938E9386
:1022E000129782E090E069830E94E12FFC01D801FF
:1022F00011969C938E936981009761F06083D80159
:10230000ED91FC91119711820F90CF91DF911F9168
:102310000F91089513961C921E92129715961C9277
:102320001E9214970F90CF91DF911F910F910895F6
:102330000F931F93DF93CF930F92CDB7DEB78C012E
:1023400081E090E0D80115969C938E931497139694
:102350009C938E93129782E090E069830E94E12F14
:10236000FC01D80111969C938E936981009761F0CE
:102370006083D801ED91FC91119711820F90CF915C
:10238000DF911F910F91089513961C921E92129740
:1023900015961C921E9214970F90CF91DF911F916A
:1023A0000F9108950F931F93DF93CF930F92CDB7A3
:1023B000DEB78C0181E090E0D80115969C938E9356
:1023C000149713969C938E93129782E090E0698302
:1023D0000E94E12FFC01D80111969C938E93698194
:1023E000009761F06083D801ED91FC911197118203
:1023F0000F90CF91DF911F910F91089513961C922A
:102400001E92129715961C921E9214970F90CF91C0
:10241000DF911F910F9108950F931F93CF93DF9337
:10242000EC018B01FB01848195819D838C839B83CF
:102430008A8301960E94E12F99838883009751F047
:10244000F801608171810E945232DF91CF911F911A
:102450000F9108951B821A821D821C82DF91CF91F9
:102460001F910F9108950F931F93CF93DF93EC016A
:102470008B01FB01848195819D838C839B838A835F
:1024800001960E94E12F99838883009751F0F8010B
:10249000608171810E945232DF91CF911F910F9123
:1024A00008951B821A821D821C82DF91CF911F9199
:1024B0000F910895EF92FF920F931F93DF93CF93A5
:1024C000CDB7DEB7A1970FB6F894DEBF0FBECDBF74
:1024D0007C01CB01BA018E010F5F1F4FA8012AE0DA
:1024E00030E00E940533F80101900020E9F7CF01A8
:1024F0000197801B910BF7019583848393838283DB
:1025000001960E94E12FF70191838083009781F06B
:10251000B8010E945232A1960FB6F894DEBF0FBEEA
:10252000CDBFCF91DF911F910F91FF90EF90089554
:102530001382128215821482EECFEF92FF920F93D4
:102540001F93DF93CF93CDB7DEB7A1970FB6F89463
:10255000DEBF0FBECDBF7C01CB01BA018E010F5F84
:102560001F4FA8012AE030E00E940533F8010190D6
:102570000020E9F7CF010197801B910BF7019583AC
:1025800084839383828301960E94E12FF7019183D4
:102590008083009781F0B8010E945232A1960FB655
:1025A000F894DEBF0FBECDBFCF91DF911F910F9189
:1025B000FF90EF9008951382128215821482EECF5D
:1025C000EF92FF920F931F93DF93CF93CDB7DEB7B8
:1025D000A1970FB6F894DEBF0FBECDBF7C019A0164
:1025E00080E090E08E010F5F1F4FA8010E9405332D
:1025F000F80101900020E9F7CF010197801B910BB2
:10260000F701958384839383828301960E94E12F4F
:10261000F70191838083009781F0B8010E945232C4
:10262000A1960FB6F894DEBF0FBECDBFCF91DF915C
:102630001F910F91FF90EF900895138212821582DF
:102640001482EECFEF92FF920F931F93DF93CF93FD
:10265000CDB7DEB7A1970FB6F894DEBF0FBECDBFE2
:102660007C019A0180E090E08E010F5F1F4FA8016E
:102670000E940533F80101900020E9F7CF0101978E
:10268000801B910BF701958384839383828301964A
:102690000E94E12FF70191838083009781F0B801B8
:1026A0000E945232A1960FB6F894DEBF0FBECDBF86
:1026B000CF91DF911F910F91FF90EF9008951382BA
:1026C000128215821482EECF0F931F93CF93DF9364
:1026D000EC018B016115710521F1FB0101900020D6
:1026E000E9F73197E61BF70BCF010196FD83EC83E9
:1026F000FB83EA830E94E12F99838883009741F04E
:10270000B8010E945232DF91CF911F910F9108952D
:102710001B821A821D821C82DF91CF911F910F9123
:10272000089581E090E0E0E0F0E00EED13E0DECF10
:10273000AF92BF92CF92DF92EF92FF920F931F93CF
:10274000CF93DF937C018B01C82EE6016E01DF2C55
:10275000E601FB0160817181C6010E946413F801EA
:10276000848195810097B1F0AA24BB24C880D980C8
:10277000CA0CDB1CF601808190E00E942232F60137
:1027800080830894A11CB11CF80184819581A8164E
:10279000B90660F3C701DF91CF911F910F91FF90B0
:1027A000EF90DF90CF90BF90AF900895AF92BF921F
:1027B000CF92DF92EF92FF920F931F93CF93DF930D
:1027C0007C018B01C82EE6016E01DF2CE601FB01C6
:1027D00060817181C6010E946413F8018481958132
:1027E0000097B1F0AA24BB24C880D980CA0CDB1C96
:1027F000F601808190E00E941A32F60180830894ED
:10280000A11CB11CF80184819581A816B90660F35A
:10281000C701DF91CF911F910F91FF90EF90DF9053
:10282000CF90BF90AF900895EF92FF920F931F93B8
:10283000DF93CF93CDB7DEB72D970FB6F894DEBFF9
:102840000FBECDBFFC018B0186179707E9F12481EC
:102850003581DB0114968D919C91159728173907C6
:1028600079F020E0822F2D960FB6F894DEBF0FBED0
:10287000CDBFCF91DF911F910F91FF90EF90089501
:10288000CE010196BF010E94D613E980FA80CE01E5
:102890000796B8010E94D6130F811885C701B801A9
:1028A0000E94493220E0009709F421E0C8012D87F9
:1028B0000E9483301A8619861C861B8689819A811C
:1028C0000E9483302D85CECF21E0CCCFDF92EF92D6
:1028D000FF920F931F93CF93DF938C01EB0179014C
:1028E0002417350730F4342F252FA701C901E92E0D
:1028F000F82E8C819D818E159F0508F47C01E8815E
:10290000F981EE0DFF1DD080108268817981640FFE
:10291000751FC8010E946413E881F981EE0DFF1D47
:10292000D082C801DF91CF911F910F91FF90EF905E
:10293000DF900895CF93DF93EC01FB012481358173
:102940000E946614CE01DF91CF9108958F929F92DD
:10295000AF92BF92CF92DF92EF92FF920F931F93AD
:10296000DF93CF9300D000D000D0CDB7DEB76C019D
:102970007B01DB0114968D919C9115970097B1F422
:102980000FEF1FEFC80126960FB6F894DEBF0FBEFB
:10299000CDBFCF91DF911F910F91FF90EF90DF900E
:1029A000CF90BF90AF909F908F9008950197481758
:1029B000590730F3F601848195814817590700F7CC
:1029C000ED91FC91119790808A015E010894A11C01
:1029D000B11C02C00150104017FDD2CFD601ED91BD
:1029E000FC911197E00FF11F8081891599F7F7018C
:1029F00024813581200F311FC501B601A8010E9435
:102A00006614C501B7010E94DA0F882E89819A8168
:102A10000E948330882009F0B5CF1C821B821E8261
:102A20001D82D8CFFC0144815581FB012481358171
:102A3000421B530B0E94A61408956F927F928F92AF
:102A40009F92AF92BF92CF92DF92EF92FF920F933D
:102A50001F93DF93CF9300D000D000D0CDB7DEB767
:102A60008C016B01FB01608171816115710509F4B5
:102A700063C05E010894A11CB11CC5010E946413CF
:102A8000F601848095808114910409F459C0F601FF
:102A900060807180EE24FF2406C00894E11CF11CC4
:102AA000E814F90448F4F301EE0DFF1D808190E075
:102AB0000E941232009789F78D809E8008948108C9
:102AC0009108E814F904B0F4F601C080D180C80C74
:102AD000D91C09C00894810891080894C108D1083C
:102AE000E814F90438F4F601808190E00E94123273
:102AF000009781F794012F5F3F4FC801B501A701EF
:102B00000E94661489819A810E948330C8012696AA
:102B10000FB6F894DEBF0FBECDBFCF91DF911F91EE
:102B20000F91FF90EF90DF90CF90BF90AF909F906C
:102B30008F907F906F900895B6010E940C12E6CF9F
:102B4000EE24FF24B9CF2F923F924F925F926F9263
:102B50007F928F929F92AF92BF92CF92DF92EF922D
:102B6000FF920F931F93DF93CF93CDB7DEB7689794
:102B70000FB6F894DEBF0FBECDBF1C01FB015A019A
:102B80002901608171816115710509F47EC08E0192
:102B90000F5F1F4FC8010E94641347E0C42ED12C61
:102BA000CC0EDD1EC6016EED73E00E9464133DE0A5
:102BB000832E912C8C0E9D1E23E1622E712C6C0EA7
:102BC0007D1E2CC0C401B80140E050E097010E9476
:102BD0006614C601B4010E94A4108D859E850E94D2
:102BE0008330188A1F861A8A198AC601B2010E9488
:102BF000A410F501448155814E0D5F1DC301B8013C
:102C00000E949A14C801B3010E94E5108B899C8927
:102C10000E9483301E8A1D8A188E1F8AC801B50142
:102C20000E94B40F7C01FFEF8F3F9F0759F6C6014A
:102C3000B8010E94A410C101B6010E940C128F813C
:102C400098850E9483301A8619861C861B86898186
:102C50009A810E948330C10168960FB6F894DEBF56
:102C60000FBECDBFCF91DF911F910F91FF90EF90DD
:102C7000DF90CF90BF90AF909F908F907F906F909C
:102C80005F904F903F902F900895BF010E940C12CB
:102C9000E2CFCF92DF92EF92FF920F931F93DF93D9
:102CA000CF9300D000D000D0CDB7DEB78C01FB01B0
:102CB000F42EE22E608171816115710551F16E0172
:102CC0000894C11CD11CC6010E94641389819A8199
:102CD00001C0E0826F2D70E00E943E32FC0100973F
:102CE000C1F7C801B6010E940C1289819A810E9425
:102CF0008330C80126960FB6F894DEBF0FBECDBF55
:102D0000CF91DF911F910F91FF90EF90DF90CF90C7
:102D10000895BF010E940C12ECCF0F931F93CF9325
:102D2000DF93EC018B016115710521F1FB0101902D
:102D30000020E9F73197E61BF70BCF010196FD83E1
:102D4000EC83FB83EA830E94E12F998388830097B9
:102D500041F0B8010E945232DF91CF911F910F9143
:102D600008951B821A821D821C82DF91CF911F91D0
:102D70000F91089581E090E0E0E0F0E00EED13E0C7
:102D8000DECFEF92FF920F931F93DF93CF93CDB7D8
:102D9000DEB7A1970FB6F894DEBF0FBECDBF7C01A2
:102DA000CB01BA018E010F5F1F4FA8010E94BC32F8
:102DB000F80101900020E9F7CF010197801B910BEA
:102DC000F701958384839383828301960E94E12F88
:102DD000F70191838083009781F0B8010E945232FD
:102DE000A1960FB6F894DEBF0FBECDBFCF91DF9195
:102DF0001F910F91FF90EF90089513821282158218
:102E00001482EECFEF92FF920F931F93DF93CF9335
:102E1000CDB7DEB7A1970FB6F894DEBF0FBECDBF1A
:102E20007C01CB01BA018E010F5F1F4FA8010E94E8
:102E3000BC32F80101900020E9F7CF010197801B17
:102E4000910BF701958384839383828301960E947B
:102E5000E12FF70191838083009781F0B8010E94F0
:102E60005232A1960FB6F894DEBF0FBECDBFCF9100
:102E7000DF911F910F91FF90EF90089513821282BE
:102E800015821482EECFEF92FF920F931F93DF9380
:102E9000CF93CDB7DEB7A1970FB6F894DEBF0FBEC4
:102EA000CDBF7C01CB018E010F5F1F4FB8010E9487
:102EB0009B32F80101900020E9F7CF010197801BB8
:102EC000910BF701958384839383828301960E94FB
:102ED000E12FF70191838083009781F0B8010E9470
:102EE0005232A1960FB6F894DEBF0FBECDBFCF9180
:102EF000DF911F910F91FF90EF900895138212823E
:102F000015821482EECFEF92FF920F931F93DF93FF
:102F1000CF93CDB7DEB7A1970FB6F894DEBF0FBE43
:102F2000CDBF7C01CB018E010F5F1F4FB8010E9406
:102F30009B32F80101900020E9F7CF010197801B37
:102F4000910BF701958384839383828301960E947A
:102F5000E12FF70191838083009781F0B8010E94EF
:102F60005232A1960FB6F894DEBF0FBECDBFCF91FF
:102F7000DF911F910F91FF90EF90089513821282BD
:102F800015821482EECF089520E030E0FC018081AC
:102F9000882311F421E030E0C901089521E0FC010B
:102FA0002083089508951092B109449A459AE9EB57
:102FB000F0E080818E7F808380818D7F808388E4B4
:102FC0008093B80085E48093BC000895880F8093B7
:102FD000BA0008954132A0F59091B1099923E1F723
:102FE00091E09093B1099FEF9093B00910928E09F0
:102FF000942F915090938F09880F816080938D0951
:1030000085EE8093BC008091B1098130E1F380911D
:103010008E09841790F0442371F020E030E0FB012A
:10302000E20FF31FD901A057B64F9C9190832F5FF9
:103030003F4F2417A0F3842F089540918E09EBCFC2
:1030400040E0842F0895CF93DF93413208F043C0CE
:103050009091B1099923E1F792E09093B1099FEF24
:103060009093B00910928E0940938F09442369F020
:10307000E0E0F0E0DF01A057B64FEB01CE0FDF1F1D
:1030800098819C933196E417A8F390E0880F991FDC
:1030900080938D0985EE8093BC00222381F480917A
:1030A000B0098F3FA1F08091B0098032C1F08091CA
:1030B000B0098033B1F084E0DF91CF910895809121
:1030C000B1098230E1F38091B0098F3F61F780E070
:1030D000DF91CF91089581E0DF91CF91089582E053
:1030E000EBCF83E0E9CF6132D0F42091B1092430F5
:1030F00011F082E008956093D609662371F020E014
:1031000030E0F901E752F64FDC01A20FB31F4C91FA
:1031100040832F5F3F4F2617A0F380E0089581E0A2
:1031200008959093D4098093D30908959093D80972
:103130008093D7090895882321F485E88093BC0003
:10314000089585EC8093BC00089585ED8093BC00C4
:103150008091BC0084FDFCCF1092B109089585ECEC
:103160008093BC001092B10908951F920F920FB680
:103170000F9211242F933F934F935F936F937F93FD
:103180008F939F93AF93BF93EF93FF938091B90079
:1031900090E0A0E0B0E0887F9070A070B070893CB3
:1031A000910598F58C5C9F4FFC01EE0FFF1F059079
:1031B000F491E02D099484E08093B1091092D5092F
:1031C0001092D609E091D709F091D809099580911C
:1031D000D609882329F481E08093D6091092D90971
:1031E0008091D509E82FF0E0E752F64F9081909357
:1031F000BB008F5F8093D5099091D5098091D60946
:103200009817C8F485EC8093BC00FF91EF91BF91B3
:10321000AF919F918F917F916F915F914F913F916E
:103220002F910F900FBE0F901F9018958091B209AB
:10323000803208F49CC085E88093BC00E6CF809182
:103240008E099091BB00E82FF0E0E057F64F908395
:103250008F5F80938E0990918E0980918F099817C6
:1032600050F7D0CF80918E099091BB00E82FF0E00D
:10327000E057F64F90838F5F80938E0985ED8093A2
:10328000BC008091BC0084FDFCCF1092B109BDCF81
:1032900085EC8093BC001092B109B7CF83E0809396
:1032A000B1091092B20985EC8093BC00AECF1092A8
:1032B000B00985ED8093BC008091BC0084FDFCCFFB
:1032C000E4CF80918D098093BB0085EC8093BC0096
:1032D0009CCF90918E0980918F09981708F45EC059
:1032E00085ED8093BC008091BC0084FDFCCFCDCFE8
:1032F00080E28093B00985ED8093BC008091BC0092
:1033000084FDFCCFC2CF8091B209803208F43FC067
:1033100085ED8093BC008091BC0084FDFCCF1092B1
:10332000B1096091B209E091D309F091D40983EB1E
:1033300099E070E009951092B20985EC8093BC0089
:103340001092B10962CF80E38093B00985ED80933C
:10335000BC008091BC0084FDFCCF97CF88E38093B4
:10336000B00985EC8093BC001092B1094ECF8091DA
:10337000B2099091BB00E82FF0E0ED54F64F908336
:103380008F5F8093B20985EC8093BC003ECFE091C3
:10339000B209F0E0ED54F64F1082BACF80918E0959
:1033A000E82FF0E0E057F64F90819093BB008F5FDD
:1033B00080938E0985EC8093BC0027CFEF92FF921B
:1033C0000F931F937B018C0120E030E040E05FE42D
:1033D0000E945E1D88238CF0C801B70120E030E018
:1033E00040E05FE40E945A1B0E941B1E9B01AC013F
:1033F000205030404040504806C0C801B7010E94EC
:103400001B1E9B01AC01B901CA011F910F91FF90D6
:10341000EF900895A0E0B0E0E0E1FAE10C94A62F6F
:10342000FC012B01EA018081823008F43DC1DB01FF
:103430009C91923008F437C1843069F4943009F0DB
:1034400033C1918111968C911197981709F42CC171
:10345000EFEDF3E029C1943009F425C19230A9F4CD
:10346000823009F021C19F0188E0D9010D909D01B2
:10347000DA010D92AD018150C1F7D20111968C9104
:1034800011979181892389830CC1823009F40BC182
:1034900082819381DB0112964D915C911397E480B8
:1034A000F580068117811496AD90BD90CD90DC908B
:1034B00017979C01241B350BB90137FF04C0662701
:1034C0007727621B730B603271050CF062C0121615
:1034D00013066CF535014601062E04C096948794B8
:1034E000779467940A94D2F721E030E040E050E00E
:1034F00004C0220F331F441F551F6A95D2F7215075
:103500003040404050402A213B214C215D21211573
:1035100031054105510521F021E030E040E050E067
:1035200059016A01A628B728C828D9283DC0211505
:103530003105D1F1860F971F37014801062E04C0CF
:1035400096948794779467940A94D2F721E030E0B8
:1035500040E050E004C0220F331F441F551F6A95FE
:10356000D2F721503040404050402E213F2140238F
:103570005123211531054105510521F021E030E0AD
:1035800040E050E079018A01E628F7280829192946
:103590000BC0481759072CF0CA01EE24FF248701FD
:1035A00003C0AA24BB2465012181F20131812317C4
:1035B00009F44AC0222349F0A60195012E193F09BA
:1035C000400B510B79018A0104C0EA18FB080C0971
:1035D0001D0917FD0CC019829B838A83EC82FD8232
:1035E0000E831F838C819D81AE81BF811AC021E033
:1035F00029839B838A8388279927DC018E199F0959
:10360000A00BB10B8C839D83AE83BF83EBCF880F60
:10361000991FAA1FBB1F2A813B81215030403B8349
:103620002A839C01AD0121503040404050402F3F43
:103630006FEF36076FEF46076FE3560740F38C8353
:103640009D83AE83BF830BC029839B838A83EA0C4F
:10365000FB1C0C1D1D1DEC82FD820E831F8383E06D
:1036600088832C813D814E815F8157FF1AC0C9013B
:10367000AA2797FDA095BA2F81709070A070B070A6
:103680005695479537952795822B932BA42BB52BD1
:103690008C839D83AE83BF838A819B8101969B83AC
:1036A0008A83FE0101C0F201CF01CDB7DEB7E0E1B0
:1036B0000C94C22FA0E2B0E0E0E6FBE10C94B02F46
:1036C00069837A838B839C832D833E834F835887C2
:1036D000E9E0EE2EF12CEC0EFD1ECE010196B701B5
:1036E0000E940D208E010F5E1F4FCE010596B8017E
:1036F0000E940D208A8991E089278A8BC701B80131
:10370000AE01475E5F4F0E940A1A0E943E1FA096BC
:10371000E6E00C94CC2FA0E2B0E0E1E9FBE10C94F0
:10372000B02F69837A838B839C832D833E834F8361
:103730005887F9E0EF2EF12CEC0EFD1ECE0101961C
:10374000B7010E940D208E010F5E1F4FCE0105961E
:10375000B8010E940D20C701B801AE01475E5F4F5E
:103760000E940A1A0E943E1FA096E6E00C94CC2FFD
:10377000A0E2B0E0EEEBFBE10C94A42F69837A8326
:103780008B839C832D833E834F835887CE01019684
:10379000BE01675F7F4F0E940D20CE010596BE01DE
:1037A0006F5E7F4F0E940D209985923088F0898945
:1037B0008230C8F0943019F4823051F404C084305F
:1037C00029F4923081F48FED93E0C4C0923049F433
:1037D00080E02A859A89291381E08A87CE0109969B
:1037E000B9C0823049F480E02A859A89291381E0A2
:1037F0008A8BCE014196AEC06D847E848F8498887A
:10380000AD88BE88CF88D88C60E070E080E090E022
:10381000DC01EE24FF24870120E030E0A901F30160
:10382000E170F0703097C9F02A0D3B1D4C1D5D1DF5
:103830008E0D9F1DA01FB11F2224332421012A15A4
:103840003B054C055D0528F4E1E02E2E312C412C82
:10385000512C820D931DA41DB51DEE0CFF1C001FE5
:10386000111FD7FE09C0E1E02E2E312C412C512C26
:10387000E228F328042915296F5F7F4F6032710514
:1038800049F0AA0CBB1CCC1CDD1C96948794779441
:103890006794C5CF6B897C89EB85FC856E0F7F1F94
:1038A0006E5F7F4F7C8F6B8F1A8E7A856A89761751
:1038B00011F061E06A8F6B8D7C8D10C0FC01E170AE
:1038C000F070309729F056954795379527955068B1
:1038D000B695A795979587956F5F7F4FB7FDEECF0C
:1038E0000CC0880F991FAA1FBB1F57FD8160220FB4
:1038F000331F441F551F615070408030E0E09E0729
:10390000E0E0AE07E0E4BE0760F36B8F7C8F6FE70B
:10391000E62EF12C012D112DE822F9220A231B237A
:1039200060E4E616F1040105110561F487FD0AC0A3
:10393000211531054105510529F0805C9F4FAF4F9E
:10394000BF4F80788D8F9E8FAF8FB8A383E0898F14
:10395000CE0149960E943E1FA096E2E10C94C02F32
:10396000A8E1B0E0E6EBFCE10C94AC2F69837A832C
:103970008B839C832D833E834F8358878E01075F03
:103980001F4FCE010196B8010E940D2081E1E82E63
:10399000F12CEC0EFD1ECE010596B7010E940D2004
:1039A0009985923008F483C08989823010F48701A8
:1039B0007EC02A853A8923272A87943011F09230D5
:1039C00031F4981709F070C00FED13E070C0843027
:1039D00039F41D861E861F86188A1C861B8667C0C2
:1039E000823019F484E0898762C08B859C852B899D
:1039F0003C89821B930B9C878B872D853E854F8549
:103A00005889AD88BE88CF88D88C2A153B054C05CF
:103A10005D0538F4220F331F441F551F01979C8703
:103A20008B8760E070E0E12CF12C012DA0E41A2FCF
:103A300080E090E0DC012A153B054C055D0540F077
:103A40008E299F29A02BB12B2A193B094C095D090E
:103A500016950795F794E794220F331F441F551FBF
:103A60006F5F7F4F6F31710531F76FE7E62EF12CF5
:103A7000012D112DE822F9220A231B2360E4E6160A
:103A8000F1040105110561F487FD0AC02115310516
:103A90004105510529F0805C9F4FAF4FBF4F8078A3
:103AA0008D879E87AF87B88B8E01075F1F4FC80138
:103AB0000E943E1F6896EAE00C94C82FA8E1B0E08F
:103AC000E4E6FDE10C94B02F69837A838B839C83B9
:103AD0002D833E834F83588789E0E82EF12CEC0E2E
:103AE000FD1ECE010196B7010E940D208E010F5ED2
:103AF0001F4FCE010596B8010E940D2089858230A6
:103B000040F08989823028F0C701B8010E947C20EA
:103B100001C08FEF6896E6E00C94CC2FA8E1B0E0EE
:103B2000E4E9FDE10C94B02F69837A838B839C8355
:103B30002D833E834F83588789E0E82EF12CEC0ECD
:103B4000FD1ECE010196B7010E940D208E010F5E71
:103B50001F4FCE010596B8010E940D208985823045
:103B600040F08989823028F0C701B8010E947C208A
:103B700001C081E06896E6E00C94CC2FA8E0B0E0AC
:103B8000E4ECFDE10C94AE2F23E029839B01AC0112
:103B9000222757FD23953327442755272A8361156C
:103BA00071058105910519F482E089833CC02223C7
:103BB000A9F0603020E0720720E0820720E8920739
:103BC00029F460E070E080E09FEC31C0EE24FF2437
:103BD0008701E61AF70A080B190B02C07B018C015A
:103BE0008EE1C82ED12CDC82CB82ED82FE820F8347
:103BF0001887C801B7010E94E61E9C012150304081
:103C00001216130684F4022E04C0EE0CFF1C001FD3
:103C1000111F0A94D2F7ED82FE820F831887C21A11
:103C2000D30ADC82CB82CE0101960E943E1F2896E9
:103C3000E8E00C94CA2FACE0B0E0E1E2FEE10C94C5
:103C4000B42F69837A838B839C83CE010196BE0156
:103C50006B5F7F4F0E940D208D81823061F1823039
:103C600050F1843021F48E81882349F12DC02F81B9
:103C7000388537FD20C06E812F3131051CF0662359
:103C8000F1F022C08EE190E0821B930B29853A85EA
:103C90004B855C8504C056954795379527958A9541
:103CA000D2F76623A9F050954095309521953F4F66
:103CB0004F4F5F4F0DC020E030E0A90109C02FEF4A
:103CC0003FEF4FEF5FE704C020E030E040E050E816
:103CD000B901CA012C96E2E00C94D02FA8E0B0E024
:103CE000E4E7FEE10C94AE2F7B018C011A82611592
:103CF00071058105910519F482E089835FC083E035
:103D000089838EE1C82ED12CDC82CB82ED82FE82AB
:103D10000F831887C801B7010E94E61E9C0121503D
:103D2000304037FF38C0EE27FF27E21BF30B40E09F
:103D300050E0BA0181E090E0A0E0B0E00E2E04C0B7
:103D4000880F991FAA1FBB1F0A94D2F70197A109D8
:103D5000B1098E219F21A023B1230097A105B105B0
:103D600021F041E050E060E070E004C01695079556
:103D7000F794E794EA95D2F7E42AF52A062B172B55
:103D8000ED82FE820F8318878EE190E0821B930BF9
:103D90009C838B8313C02115310581F0022E04C052
:103DA000EE0CFF1C001F111F0A94D2F7ED82FE8259
:103DB0000F831887C21AD30ADC82CB82CE01019608
:103DC0000E943E1F2896E8E00C94CA2FAF92BF9243
:103DD000CF92DF92EF92FF920F931F937B018C01A2
:103DE00080E0E81680E0F80681E0080780E0180728
:103DF00080F48FEFE816F1040105110531F028F089
:103E000088E090E0A0E0B0E016C080E090E0DC0147
:103E100012C080E0E81680E0F80680E0080781E044
:103E2000180728F088E190E0A0E0B0E004C080E14D
:103E300090E0A0E0B0E020E230E040E050E0281B5D
:103E4000390B4A0B5B0B5701680104C0D694C79429
:103E5000B794A7948A95D2F7F501E951FC4F808178
:103E6000281B310941095109C9011F910F91FF9088
:103E7000EF90DF90CF90BF90AF900895CF92DF92F8
:103E8000EF92FF920F931F93FC01248135814681AD
:103E9000578101818081823020F440618FEF90E072
:103EA000A2C0843009F49AC0823019F480E090E016
:103EB00097C0211531054105510519F480E090E0C6
:103EC00092C0828193816FEF823896070CF058C0C0
:103ED00062E87FEF681B790B6A31710524F020E0FE
:103EE00030E0A9012AC069017A01062E04C0F694C7
:103EF000E794D794C7940A94D2F781E090E0A0E0C9
:103F0000B0E004C0880F991FAA1FBB1F6A95D2F7A3
:103F10000197A109B10982239323A423B523009714
:103F2000A105B10521F081E090E0A0E0B0E09C01A6
:103F3000AD012C293D294E295F29DA01C9018F776E
:103F40009070A070B07080349105A105B10539F46E
:103F500027FF09C0205C3F4F4F4F5F4F04C0215CDB
:103F60003F4F4F4F5F4F80E090E0203060E03607DA
:103F700060E0460760E4560748F181E090E026C023
:103F8000803891055CF581589F4F7FE7C72ED12C73
:103F9000E12CF12CC222D322E422F52260E4C616E1
:103FA000D104E104F10439F427FF09C0205C3F4F3C
:103FB0004F4F5F4F04C0215C3F4F4F4F5F4F57FF44
:103FC00005C05695479537952795019697E05695E4
:103FD0004795379527959A95D1F705C08FEF90E0D3
:103FE00020E030E0A901782F779577277795142F77
:103FF0001F77602F6795662767958695F12FF72BBA
:10400000E82FE62B622F732F8F2F9E2F1F910F917A
:10401000FF90EF90DF90CF900895FC01DB012081AD
:1040200031818281482F4F7750E0982F991F99272F
:10403000991F6381862F880F892B90E0661F662762
:10404000661F11966C931197009769F5211531053C
:104050004105510511F482E02FC082E89FEF1396CD
:104060009C938E93129767E0220F331F441F551FB6
:104070006A95D1F783E08C930DC0220F331F441F44
:10408000551F12968D919C911397019713969C93AF
:104090008E931297203080E0380780E0480780E454
:1040A000580758F322C08F3F910579F42115310547
:1040B0004105510519F484E08C93089544FF03C031
:1040C00081E08C9312C01C9210C08F5790401396C1
:1040D0009C938E93129783E08C9387E0220F331F7B
:1040E000441F551F8A95D1F7506414962D933D9324
:1040F0004D935C9317970895EF92FF920F931F9340
:10410000FC01DB018081823008F447C09C91923031
:1041100008F443C0843051F481819430A1F51196A4
:104120002C91119730E0281B31093FC0943021F0C9
:10413000823031F49230B9F111968C9111972BC0E5
:104140008181923001F111969C9111978917D9F4D0
:104150004281538112962D913C9113972417350774
:1041600094F042175307BCF0E480F5800681178174
:1041700014962D913D914D915C9117972E153F0509
:104180004007510718F4882341F00AC0E216F306ED
:104190000407150740F4882319F021E030E005C03A
:1041A0002FEF3FEF02C020E030E0C9011F910F91D7
:1041B000FF90EF9008958FEE94E00E94430B80EF04
:1041C00094E061E041E00E94870582EF94E062E0C4
:1041D00041E00E94870584EF94E068EC70E042E0E3
:1041E0000E94830408951F9386E299E060E071E0E5
:1041F0000E94340A86E299E00E94B107823091055C
:10420000CCF386E299E00E94B1078230910594F3E5
:1042100086E299E00E94DF078D32C9F486E299E0D8
:104220006CE371E00E94A00886E299E00E94DF073B
:10423000182F105386E299E0612F40E150E00E9470
:10424000680A84EF94E0612F70E042E01AC08B327C
:10425000E1F486E299E063E471E00E94A00886E25E
:1042600099E00E94DF07182F105386E299E0612F32
:1042700040E150E00E94680A84EF94E0612F70E012
:1042800041E023E00E940403B5CF873691F486E233
:1042900099E00E94DF076AEF70E080E090E00E9402
:1042A000DA0C86E299E069E471E00E94340A1F9119
:1042B000089586E299E00E94DF0786E299E065E5CD
:1042C00071E096CFCF93DF93C1E0D0E080911D05E0
:1042D0000E944D0D809195030E944D0D2196C5368B
:1042E000D105A1F7DF91CF9108950E94622120911D
:1042F0002005309121052839310524F0209122052F
:1043000030912305C90108954F925F927F928F9259
:104310009F92AF92BF92CF92DF92EF92FF920F9354
:104320001F93DF93CF930F92CDB7DEB75C0186E288
:1043300099E063E671E00E94340A86E299E069E957
:1043400071E00E94A00886E299E0B5014AE050E0E1
:104350000E94550A86E299E06AEA71E00E94340AF6
:104360008FEF9FEF909395088093940864E4E62E76
:1043700068E0F62E00E010E0C1C0F70140805180F7
:10438000742C852C84EF94E0B20141E023E00E947C
:10439000040368E270E080E090E00E94DA0C0E9482
:1043A0007521D82E992E86E299E0B2014AE050E0BC
:1043B0000E94D80986E299E069EB71E00E94A008AA
:1043C00086E299E06D2D792D4AE050E00E94550A71
:1043D00086E299E00E94030886E299E00E94B10714
:1043E0000097D1F3C42CC39486E299E00E94DF07C2
:1043F000893719F0893509F05DC080919408909152
:10440000950801969093950880939408BC01660FD7
:10441000771FFB01EC5BF74F51824082FFEF4F1695
:104420005104B9F0B4F0680F791F8EEE94E04FEFAD
:104430000E948B068091940890919508BC01660FAC
:10444000771F680F791F6F5F7F4F8EEE94E04C2DC2
:1044500019C02FEF42165104B9F0680F791F8EEE84
:1044600094E040E00E948B0680919408909195081A
:10447000BC01660F771F680F791F6F5F7F4F8EEE4D
:1044800094E0442D0E948B068091940890919508A9
:10449000BC01660F771FFB01E459F74FD082918270
:1044A000680F791F6E5F7F4F8EEE94E04D2D0E9456
:1044B0008B0610C08E3671F08E3461F086E299E082
:1044C0006CEB71E00E94340A86E299E00E940308D6
:1044D00030E001C031E084EF94E0672D782D42E0B8
:1044E00023E039830E9404033981332309F47CCF0C
:1044F0000F5F1F4F82E090E0E80EF91E0A151B05C2
:104500000CF43BCF86E299E06AEC71E00E94340A39
:10451000809194089091950890939F0880939E08AD
:104520000F90CF91DF911F910F91FF90EF90DF904F
:10453000CF90BF90AF909F908F907F905F904F9063
:1045400008958F929F92AF92BF92CF92DF92EF9297
:10455000FF920F931F93CF93DF9386E299E06FEC66
:1045600071E00E94340AA0909803B0909903809063
:104570009A0390909B03E4E2EE2EE5E0FE2EE0E04D
:10458000F0E000E010E020E030E080E0C0E0D0E0CB
:10459000D7016D917C911197882339F46A157B05B9
:1045A00024F08F0120E030E081E0A82FB0E040E06F
:1045B00050E06A157B0514F441E050E04A235B2388
:1045C0004115510519F12F5F3F4F2130310511F48D
:1045D00081E01CC0CF01821B930BAC01401B510B2F
:1045E0004815590594F06E01CC0CDD1C44E458E0EC
:1045F000C40ED51E800F911F62E070E00E945B2FF9
:10460000D60111967C936E93219680E0319642E01C
:1046100050E0E40EF51E51E0E039F50709F0B8CF9F
:10462000CE010E948421DF91CF911F910F91FF90C5
:10463000EF90DF90CF90BF90AF909F908F900895B4
:1046400080E991E00E94A1220895EF92FF920F93DA
:104650001F93CF93DF930E94F32004E215E0E8015B
:104660000E947521BC018993999386E299E04AE002
:1046700050E00E94550A84EF94E061E070E041E070
:1046800023E00E94040368E270E080E090E00E9472
:10469000DA0C86E0C43BD80719F784EF94E06FE8A2
:1046A00071E042E023E00E94040360E777E180E0EC
:1046B00090E00E94DA0C7E010E947521BC01F70196
:1046C000819391937F0186E299E04AE050E00E9455
:1046D000550A84EF94E061E070E041E023E00E943D
:1046E000040368E270E080E090E00E94DA0CF4E4F9
:1046F000EF16F8E0FF0601F784EF94E061E070E068
:1047000042E023E00E94040386E299E06FED71E04D
:104710000E94340A86E299E068EF71E00E94340A50
:104720000E94F320F801E080F1800E947521B7011A
:10473000681B790BF801619371938F0186E299E010
:104740004AE050E00E94550A84EF94E061E070E096
:1047500041E023E00E94040368E270E080E090E022
:104760000E94DA0CF6E0043B1F07E1F684EF94E0C8
:104770006FE871E042E023E00E94040360E47FE11F
:1047800080E090E00E94DA0C088119810E94752176
:10479000B801681B790B6993799386E299E04AE046
:1047A00050E00E94550A84EF94E061E070E041E03F
:1047B00023E00E94040368E270E080E090E00E9441
:1047C000DA0C88E0C434D807F9F684EF94E061E0AD
:1047D00070E042E023E00E94040386E299E061E198
:1047E00072E00E94340ADF91CF911F910F91FF90E8
:1047F000EF900895CF93DF9380E090911205992375
:1048000009F481E080931205882321F080918903C7
:1048100061E003C08091890360E00E94350E6091E1
:104820000005709101058FEE94E00E944E0B8FEE13
:1048300094E06DE272E00E940F0C8FEE94E00E9413
:104840001B0C6AE070E080E090E00E94DA0C60915E
:104850000005709101058FEE94E042E050E00E9467
:10486000380C10921605109215058FEE94E00E94F8
:10487000580B8823C1F0C0911505D0911605C230A0
:10488000D1058CF48FEE94E00E945E0BCD5EDA4F82
:1048900088838091150590911605019690931605D1
:1048A00080931505E2CF9091130580E020911405C7
:1048B000820F911D90931805809317056AE070E0B0
:1048C0000E945B2FCB01DF91CF9108950F931F932F
:1048D000CF93DF9380910E0590910F050F969093E3
:1048E0009D0880939C080E946221209120053091B0
:1048F000210580919C0890919D088217930728F0CC
:10490000C0E0D0E000E010E07BC080EF94E064E025
:104910000E94F20382EF94E064E00E94F20310929E
:1049200016051092150500E010E023C084EF94E016
:1049300061E070E042E023E00E9404030E947521E0
:1049400020910E0530910F05AC01421B530B809155
:104950009803909199034817590714F40F5F1F4F5C
:1049600080911505909116050196909316058093F8
:10497000150580911505909116058F309105B4F2BB
:1049800084EF94E06FE070E041E023E00E940403D4
:104990001092160510921505C0E0D0E022C084EFF9
:1049A00094E061E070E041E023E00E9404030E9493
:1049B000752120910E0530910F05AC01421B530B60
:1049C0008091980390919903481759070CF4219608
:1049D0008091150590911605019690931605809388
:1049E000150580911505909116058F309105BCF243
:1049F00084EF94E06FE070E042E023E00E94040363
:104A000080EF94E06BE40E94590182EF94E06BE444
:104A10000E94590162E370E080E090E00E94DA0CAD
:104A20000C171D0714F580EF94E061E00E94F2037B
:104A30000E94622164E670E080E090E00E94DA0C5F
:104A4000209120053091210580919C0890919D082E
:104A50008217930740F380EF94E064E00E94F20332
:104A600082EF94E064E00E94F20368EC70E080E082
:104A700090E00E94DA0CC017D10714F582EF94E0A1
:104A800061E00E94F2030E94622162E370E080E034
:104A900090E00E94DA0C2091200530912105809150
:104AA0009C0890919D088217930740F380EF94E053
:104AB00064E00E94F20382EF94E064E00E94F2035B
:104AC00060E971E080E090E00E94DA0C0E94FA2335
:104AD000909303058093020580EF94E060918F032B
:104AE0000E94590182EF94E060918D030E94590168
:104AF000DF91CF911F910F910895EF92FF920F9345
:104B00001F93CF93DF93E0900E05F0900F054FE0D9
:104B100050E0E40EF51E0E946221809122059091E2
:104B20002305E816F90628F0C0E0D0E000E010E028
:104B300081C080EF94E064E00E94F20382EF94E091
:104B400064E00E94F203109216051092150500E031
:104B500010E023C084EF94E061E070E042E023E0E5
:104B60000E9404030E94752120910E0530910F05CB
:104B7000AC01421B530B8091980390919903481705
:104B8000590714F40F5F1F4F80911505909116057A
:104B900001969093160580931505809115059091C7
:104BA00016058A309105B4F284EF94E06AE070E073
:104BB00041E023E00E9404031092160510921505AF
:104BC000C0E0D0E022C084EF94E061E070E041E01A
:104BD00023E00E9404030E94752120910E0530916C
:104BE0000F05AC01421B530B8091980390919903E0
:104BF000481759070CF421968091150590911605D8
:104C00000196909316058093150580911505909156
:104C100016058A309105BCF284EF94E06AE070E0FA
:104C200042E023E00E94040364EF71E080E090E042
:104C30000E94DA0C80EF94E066E40E94590182EF52
:104C400094E066E40E9459016AE070E080E090E040
:104C50000E94DA0C0C171D07F4F480EF94E061E079
:104C60000E94F2030E94622164E170E080E090E023
:104C70000E94DA0C8091220590912305E816F9062E
:104C800060F380EF94E064E00E94F20382EF94E02E
:104C900064E00E94F20368EC70E080E090E00E9423
:104CA000DA0CC017D107F4F482EF94E061E00E94BF
:104CB000F2030E94622164E170E080E090E00E94D3
:104CC000DA0C8091220590912305E816F90660F32D
:104CD00080EF94E064E00E94F20382EF94E064E0ED
:104CE0000E94F20360E971E080E090E00E94DA0C3B
:104CF0000E94FA23909303058093020580EF94E0CD
:104D000060918F030E94590182EF94E060918D03BE
:104D10000E945901DF91CF911F910F91FF90EF9069
:104D2000089510921A051092190580EF94E062E040
:104D30000E94F20382EF94E062E00E94F20380910D
:104D40001B0590911C058D9720910E0530910F0544
:104D5000281739070CF0F4C184EF94E068E070E0A4
:104D600041E023E00E940403EBC110929B081092E3
:104D70009A081092990810929808109216051092AD
:104D8000150534C084EF94E061E070E042E023E078
:104D90000E9404030E9475219093970880939608BF
:104DA00040910E0550910F059C01241B350BA90164
:104DB00020919803309199034217530774F420917E
:104DC0009A0830919B082F5F3F4F30939B082093A8
:104DD0009A0890930F0580930E0580911505909188
:104DE000160501969093160580931505809115057B
:104DF00090911605883091052CF2109216051092AC
:104E0000150534C084EF94E061E070E042E023E0F7
:104E10000E9404030E94752190939708809396083E
:104E200040910E0550910F059C01241B350BA901E3
:104E300020919803309199034217530774F42091FD
:104E40009808309199082F5F3F4F3093990820932D
:104E5000980890930F0580930E0580911505909109
:104E600016050196909316058093150580911505FA
:104E700090911605883091052CF2809198089091B8
:104E8000990820919A0830919B08821B930B90936C
:104E900007058093060540918B0350918C03440FC6
:104EA000551F489F9001499F300D589F300D112488
:104EB000309309052093080560918F03709190034A
:104EC000621B730B623371051CF462E370E005C072
:104ED0006536710514F064E670E070930D0560931B
:104EE0000C0580918D0390918E03820F931F823366
:104EF00091051CF482E390E005C08536910514F01D
:104F000084E690E090930B0580930A0580EF94E08F
:104F10000E94590182EF94E060910A050E945901B4
:104F200080911B0590911C058C9720910E05309166
:104F30000F05281739077CF084EF94E068E070E0F3
:104F400041E023E00E94040360E971E080E090E02A
:104F50000E94DA0C6FC110929B0810929A0810926E
:104F6000990810929808109216051092150534C0F1
:104F700084EF94E061E070E041E023E00E940403EC
:104F80000E947521909397088093960840910E0592
:104F900050910F059C01241B350BA901209198030A
:104FA000309199034217530774F420919808309177
:104FB00099082F5F3F4F309399082093980890935A
:104FC0000F0580930E0580911505909116050196A9
:104FD00090931605809315058091150590911605FF
:104FE000883091052CF2109216051092150534C0E8
:104FF00084EF94E061E070E041E023E00E9404036C
:105000000E947521909397088093960840910E0511
:1050100050910F059C01241B350BA9012091980389
:10502000309199034217530774F420919A083091F4
:105030009B082F5F3F4F30939B0820939A089093D3
:105040000F0580930E058091150590911605019628
:10505000909316058093150580911505909116057E
:10506000883091052CF280911B0590911C058C973E
:1050700020910E0530910F052817390744F084EF71
:1050800094E068E070E042E023E00E940403809135
:1050900098089091990820919A0830919B08821B5A
:1050A000930B909307058093060540918B035091D5
:1050B0008C03440F551F489F9001499F300D589F06
:1050C000300D1124309309052093080560918F035A
:1050D00070919003621B730B623371051CF462E3E1
:1050E00070E005C06536710514F064E670E07093F9
:1050F0000D0560930C0580918D0390918E03820FB6
:10510000931F823391051CF482E390E005C085363D
:10511000910514F084E690E090930B0580930A05C6
:1051200080EF94E00E94590182EF94E060910A05BB
:105130000E94590160E971E080E090E00E94DA0C81
:1051400080911B0590911C058D9720910E05309143
:105150000F05281739070CF408CE6CC00196909300
:105160001A05809319050E94FA23909305058093F0
:1051700004052091020530910305821B930B909347
:10518000070580930605853B91051CF088569140E4
:1051900006C03FEF8C34930734F488599E4F9093A8
:1051A00007058093060540910605509107058091FB
:1051B0008B0390918C03489F9001499F300D589F1D
:1051C000300D1124309309052093080580918F0339
:1051D00090919003821B930B823391051CF482E320
:1051E00090E005C08536910514F084E690E0909338
:1051F0000D0580930C0560918D0370918E03620FF5
:10520000731F623371051CF462E370E005C06536FC
:10521000710514F064E670E070930B0560930A0565
:1052200080EF94E00E94590182EF94E060910C05B8
:105230000E9459018091190590911A0584309105B9
:105240000CF48CCF089580EF94E061E00E94F203AB
:1052500082EF94E061E00E94F20380910E0590914C
:105260000F058E3291050CF4EAC184EF94E068E0FA
:1052700070E041E023E00E940403E1C110929B082A
:1052800010929A0810929908109298081092160598
:105290001092150534C084EF94E061E070E042E0C4
:1052A00023E00E9404030E94752190939708809345
:1052B000960840910E0550910F059C01241B350B5B
:1052C000A90120919803309199034217530774F470
:1052D00020919A0830919B082F5F3F4F30939B0895
:1052E00020939A0890930F0580930E0580911505E1
:1052F000909116050196909316058093150580915F
:10530000150590911605883091052CF2109216051E
:105310001092150534C084EF94E061E070E042E043
:1053200023E00E9404030E947521909397088093C4
:10533000960840910E0550910F059C01241B350BDA
:10534000A90120919803309199034217530774F4EF
:1053500020919808309199082F5F3F4F309399081A
:105360002093980890930F0580930E058091150562
:1053700090911605019690931605809315058091DE
:10538000150590911605883091052CF280919808AA
:105390009091990820919A0830919B08821B930B59
:1053A000909307058093060540918B0350918C03E1
:1053B000440F551F489F9001499F300D589F300D55
:1053C0001124309309052093080560918F03709193
:1053D0009003621B730B623371051CF462E370E08F
:1053E00005C06536710514F064E670E070930D0534
:1053F00060930C0580918D0390918E03820F931F13
:10540000823391051CF482E390E005C08536910556
:1054100014F084E690E090930B0580930A0580EFEA
:1054200094E00E94590182EF94E060910A050E9485
:10543000590180910E0590910F058D3291057CF4F4
:1054400084EF94E068E070E041E023E00E94040310
:1054500060E971E080E090E00E94DA0CF8C0109200
:105460009B0810929A08109299081092980810922E
:1054700016051092150534C084EF94E061E070E0E9
:1054800041E023E00E9404030E9475219093970855
:105490008093960840910E0550910F059C01241BA6
:1054A000350BA901209198033091990342175307B6
:1054B00074F420919808309199082F5F3F4F3093F2
:1054C00099082093980890930F0580930E0580917A
:1054D0001505909116050196909316058093150574
:1054E0008091150590911605883091052CF2109247
:1054F00016051092150534C084EF94E061E070E069
:1055000041E023E00E9404030E94752190939708D4
:105510008093960840910E0550910F059C01241B25
:10552000350BA90120919803309199034217530735
:1055300074F420919A0830919B082F5F3F4F30936D
:105540009B0820939A0890930F0580930E058091F5
:1055500015059091160501969093160580931505F3
:105560008091150590911605883091052CF2809157
:105570000E0590910F058D32910544F484EF94E06F
:1055800068E070E042E023E00E9404038091980804
:105590009091990820919A0830919B08821B930B57
:1055A000909307058093060540918B0350918C03DF
:1055B000440F551F489F9001499F300D589F300D53
:1055C0001124309309052093080560918F03709191
:1055D0009003621B730B623371051CF462E370E08D
:1055E00005C06536710514F064E670E070930D0532
:1055F00060930C0580918D0390918E03820F931F11
:10560000823391051CF482E390E005C08536910554
:1056100014F084E690E090930B0580930A0580EFE8
:1056200094E00E94590182EF94E060910A050E9483
:10563000590160E971E080E090E00E94DA0C80910D
:105640000E0590910F058E3291050CF017CE80EF6C
:1056500094E061E00E94F20382EF94E061E00E9436
:10566000F20380EF94E060918F030E94590182EF72
:1056700094E060918D036AC0019690931A0580931F
:1056800019050E94FA239093050580930405209143
:10569000020530910305821B930B909307058093BD
:1056A0000605853B91051CF08856914006C03FEFEA
:1056B0008C34930734F488599E4F90930705809358
:1056C0000605409106055091070580918B03909146
:1056D0008C03489F9001499F300D589F300D112435
:1056E000309309052093080560918F037091900312
:1056F000621B730B623371051CF462E370E005C03A
:105700006536710514F064E670E070930D056093E2
:105710000C0580918D0390918E03820F931F82332D
:1057200091051CF482E390E005C08536910514F0E4
:1057300084E690E090930B0580930A0580EF94E057
:105740000E94590182EF94E060910A050E9459017C
:105750008091190590911A05843091050CF48CCF35
:105760000895BC01660F771F680F791F6E5F7F4F2A
:105770008EEE94E00E94900680931B0510921C050B
:1057800086E299E06FE272E00E94A00860911B053A
:1057900070911C0586E299E04AE050E00E94550AAB
:1057A00080911B0590911C0590930F0580930E0529
:1057B000893991051CF40E9466243AC00E947D2517
:1057C00086E299E061E472E00E94A00860912205FF
:1057D0007091230586E299E04AE050E00E94150AA4
:1057E0000E9423290E94622180910E0590910F054D
:1057F0000F9620912205309123052817390740F094
:1058000086E299E068E572E00E94A0080E947D258A
:1058100080912005909121058939910548F080916A
:1058200022059091230590930F0580930E05C8CF14
:1058300080912005909121052CC086E299E068E5D1
:1058400072E00E94A0080E94662480912005909139
:10585000210588319105E8F480EF94E064E00E942E
:10586000F20382EF94E064E00E94F20360E971E0E9
:1058700080E090E00E94DA0C80EF94E060918F036A
:105880000E94590182EF94E060918D030E945901BA
:1058900083C090930F0580930E0586E299E068E639
:1058A00072E00E94A008609120057091210586E2B7
:1058B00099E04AE050E00E94150A0E9423290E94C4
:1058C000622180910E0590910F054496209120054C
:1058D000309121052817390708F4B7CFAECF80EFF4
:1058E00094E064E00E94F20382EF94E064E00E949E
:1058F000F20386E299E060E872E00E94A00860E1AD
:1059000077E280E090E00E94DA0C86E299E068E6B7
:1059100072E00E94A008609120057091210586E246
:1059200099E04AE050E00E94150A0E9491260E94E8
:10593000622180910E0590910F050F962091200510
:10594000309121052817390740F086E299E068E593
:1059500072E00E94A0080E94662480912005909128
:10596000210520911B0530911C058217930768F0D3
:1059700080EF94E064E00E94F20382EF94E064E040
:105980000E94F20383E090E016C08839910588F404
:1059900090930F0580930E0520910E0530910F0511
:1059A00080911B0590911C05281739070CF4ADCF89
:1059B00096CF84E090E0209122053091230530932A
:1059C0000F0520930E058430910509F048C086E24A
:1059D00099E061E472E00E94A00860912205709154
:1059E000230586E299E04AE050E00E94150A0E94F1
:1059F00091260E94622180910E0590910F05499693
:105A000020912205309123052817390740F086E2BE
:105A100099E068E572E00E94A0080E947D258091CF
:105A200022059091230590930F0580930E052091F8
:105A30001B0530911C05821793074CF280EF94E010
:105A400064E00E94F20382EF94E064E00E94F203BB
:105A500086E299E06CE972E00E94A008B8CF089550
:105A60002F923F924F925F926F927F928F929F926E
:105A7000AF92BF92CF92DF92EF92FF920F931F935C
:105A8000DF93CF9300D0CDB7DEB700E010E0CC2499
:105A9000DD248EC0902E812E8EEE94E0B8010E94FF
:105AA0009006A82E78010894E11CF11C8EEE94E07B
:105AB000B7010E949006BB24A80EB11C86E299E0B3
:105AC00060EB72E00E94A00886E299E0B5014AE02E
:105AD00050E00E94550A0E94FA231C0186E299E0D8
