:100000000C94F3010C941B020C941B020C941B0225
:100010000C941B020C941B020C941B020C941B02EC
:100020000C941B020C941B020C941B020C941B02DC
:100030000C941B020C941B020C941B020C941B02CC
:100040000C942B120C941B020C94620C0C941B024B
:100050000C941B020C941B020C941B020C941B02AC
:100060000C94831E0C941B02251FD31ED31ED31E7B
:10007000D31ED31ED31ED31E2F1FD31ED31ED31E9B
:10008000D31ED31ED31ED31E2F1FD31ED31ED31E8B
:10009000D31ED31ED31ED31E371FD31ED31ED31E73
:1000A000D31ED31ED31ED31E461FD31ED31ED31E54
:1000B000D31ED31ED31ED31E371FD31ED31ED31E53
:1000C000D31ED31ED31ED31E711FD31ED31ED31E09
:1000D000D31ED31ED31ED31E7C1FD31ED31ED31EEE
:1000E000D31ED31ED31ED31EF91ED31ED31ED31E62
:1000F000D31ED31ED31ED31E0C1FD31ED31ED31E3E
:10010000D31ED31ED31ED31EED1ED31ED31ED31E4D
:10011000D31ED31ED31ED31E001FD31ED31ED31E29
:10012000D31ED31ED31ED31E1C1FD31ED31ED31EFD
:10013000D31ED31ED31ED31E1C1FD31ED31ED31EED
:10014000D31ED31ED31ED31E1C1FD31ED31ED31EDD
:10015000D31ED31ED31ED31E1C1FD31ED31ED31ECD
:10016000D31ED31ED31ED31EE41ED31ED31ED31EF6
:10017000D31ED31ED31ED31EE91ED31ED31ED31EE1
:10018000D31ED31ED31ED31EE41ED31ED31ED31ED6
:10019000D31ED31ED31ED31EE91ED31ED31ED31EC1
:1001A000D31ED31ED31ED31E511FD31ED31ED31E48
:1001B000D31ED31ED31ED31EA91ED31ED31ED31EE1
:1001C000D31ED31ED31ED31EA91ED31ED31ED31ED1
:1001D000D31ED31ED31ED31EBE1ED31ED31ED31EAC
:1001E000D31ED31ED31ED31E161FD31ED31ED31E43
:1001F000D31ED31ED31ED31E161FE6DBD9D7D5D3ED
:10020000D2D0CECDCBC9C8C6C5C3C2C0BFBEBCBB91
:10021000B9B8B7B6B4B3B2B1AFAEADACABAAA8A7DC
:10022000A6A5A4A3A2A1A09F9E9D9C9B9A999898E5
:100230009796959493929291908F8E8D8D8C8B8AB8
:100240008A89888887868585848383828181807F67
:100250007F7E7E7D7C7C7B7B7A79797878777776F8
:100260007675747473737272717170706F6F6E6E75
:100270006D6D6D6C6C6B6B6A6A69696968686767DC
:100280006666666565646464636363626261616136
:100290006060605F5F5F5E5E5D5D5D5C5C5C5B5B84
:1002A0005B5B5A5A5A5959595858585757575756C5
:1002B0005656555555555454545353535352525200
:1002C0005251515151505050504F4F4F4F4E4E4E32
:1002D0004E4D4D4D4D4C4C4C4C4C4B4B4B4B4A4A60
:1002E0004A4A4A4949494949484848484847474786
:1002F00047474646464646454545454544444444A9
:1003000044444343434343434242424242414141C6
:10031000414141414040404040403F3F3F3F3F3FDF
:100320003E3E3E3E3E3E3E3D3D3D3D3D3D3D3C3CF8
:100330003C3C3C3C3C3B3B3B3B3B3B3B3A3A3A3A0C
:100340003A3A3A3A3939393939393939383838381D
:10035000383838383737373737373737363636362D
:10036000363636363635353535353535353534343A
:100370003434343434343434333333333333333345
:1003800033323200000000240027002A0000000061
:1003900000250028002B0000000000230026002973
:1003A000000404040404040404020202020202031E
:1003B0000303030303010204081020408001020428
:1003C00008102001020408102000000007000201AC
:1003D0000000030406000000000000000000A3026B
:1003E0006607F50DA80211241FBECFEFD8E0DEBFCF
:1003F000CDBF12E0A0E0B1E0E0ECFAE502C005906C
:100400000D92A038B107D9F717E0A0E8B2E001C01B
:100410001D92A334B107E1F713E0C4EED3E004C0AA
:100420002297FE010E942B27CE3DD107C9F70E94DB
:100430001D020C94532D0C9400000E94DD128CE6DA
:1004400096E040E051EE60E070E00E94F70C80E042
:100450000E94181380E892E00E94000383E00E944B
:100460005C04BC0183EE95E00E94AE0682E00E942F
:100470005C04BC0183EE95E00E946E0664E670E0C9
:1004800080E090E00E94A812E9CF8130910509F048
:1004900053C080E892E00E944A0380E090E0DC01D3
:1004A0008093840290938502A0938602B093870282
:1004B0008093880290938902A0938A02B0938B0262
:1004C00086E696E6A6E6BFE380939C0290939D02A3
:1004D000A0939E02B0939F028AE097EDA3E2BCE353
:1004E0008093A0029093A102A093A202B093A302D2
:1004F00080E090E0A0E8BFE38093A4029093A5027F
:10050000A093A602B093A70289EA92E063E041E0DB
:100510000E945E0B8BEA92E064E041E00E945E0B79
:100520008DEA92E068EC70E041E00E945A0A83EEA6
:1005300095E00E9463060895009721F483EE95E00C
:100540000E946506089581E090E00E9445020895AA
:1005500080E090E00E9445020895FC018281938131
:100560000895EF92FF920F931F93CF93DF93EC01C7
:100570008C01698170E06E7F70707E019F2D0E94FA
:100580001C11CE0163E470E00E94AC11CE010E9408
:10059000E911EE24FF248DE061E00E94031464EF72
:1005A00071E080E090E00E94A8128DE060E00E947F
:1005B000031464EF71E080E090E00E94A8120894B8
:1005C000E11CF11C24E1E216F10429F7698170E0D5
:1005D0006E7F7070C8010E941C11C80165E470E054
:1005E0000E94AC11C8010E94E9118DE060E00E94F8
:1005F0000314DF91CF911F910F91FF90EF90089519
:10060000EF92FF920F931F93CF93DF93EC018DE056
:1006100061E00E9403148E01CE0169810E941211D3
:10062000CE0161E470E00E94AC11CE010E94E9119C
:1006300066E070E080E090E00E94A8126981CE013F
:1006400070E042E050E00E940612C8010E942611AC
:100650008823D9F3C8010E942C11F82EC8010E94EA
:1006600026118823D9F3C8010E942C113F2D20E0C8
:10067000082F10E0022B132B1B830A838DE060E010
:100680000E940314C801DF91CF911F910F91FF9039
:10069000EF900895EF92FF92CF93DF93EC017E01EC
:1006A0009F2D0E94111181E289838DE061E00E94FB
:1006B000B1138DE061E00E940314CE010E94091283
:1006C0008DE060E00E940314DF91CF91FF90EF90E6
:1006D0000895EF92FF92CF93DF93EC017E019F2D5F
:1006E0000E94111181E289838DE061E00E94B113C3
:1006F0008DE061E00E940314CE010E9409128DE09A
:1007000060E00E940314DF91CF91FF90EF90089575
:10071000CF92DF92EF92FF920F931F93CF93DF93CD
:100720008A0120E030E0F801E20FF31F118210820D
:100730002E5F3F4F2A303105B1F7CC24DD2420E075
:1007400030E0E0E0F0E050E0EC01C20FD31F7B01AD
:10075000E20EF31E0990D881C02DD701ED90FC90D8
:100760001197CE19DF09C536D10510F450E00EC03F
:10077000543058F0EF01CC0FDD1FC00FD11FD982CC
:10078000C8823196E530F10559F05F5F2E5F3F4F2B
:10079000A2E1B0E0CA0EDB1EB1E020393B07A1F6B2
:1007A000DF91CF911F910F91FF90EF90DF90CF904D
:1007B0000895CF93DF93883C08F057C0613009F06B
:1007C00054C02091E4053091E505C82FD0E02C17E6
:1007D0003D07DCF022C08DEA92E061E041E00E943A
:1007E0009C076091E4057091E5056F5F7F4F709302
:1007F000E5056093E40583EE95E00E946E066AE0ED
:1008000070E080E090E00E94A8128091E405909151
:10081000E5058C179D07F9F628C0C217D307F4F039
:1008200024C08DEA92E062E041E00E949C07809142
:10083000E4059091E50501979093E5058093E40523
:100840006AE070E080E090E00E94A8126091E40508
:100850007091E50583EE95E00E946E068091E405B7
:100860009091E5058C179D07E1F68091E405DF91F5
:10087000CF910895EF92FF920F931F93CF93DF9341
:10088000F82E00E010E0C0E0D0E08F2D0E941B1396
:100890000F5F1F4F8C1B9D0BB8010E94BD26C60F1A
:1008A000D71F0436110589F7CE01DF91CF911F9133
:1008B0000F91FF90EF9008951F93182F90E00E94E2
:1008C0003A04112361F19C01123091F483E0263344
:1008D000380718F026E930E024C02139310518F432
:1008E00024E130E01EC027593E4FF901249113C086
:1008F0001330A9F4F2E08B329F0718F024E630E0C1
:1009000010C0833A910518F42CEC31E00AC0295A42
:100910003E4FF901249130E0220F331F02C020E046
:1009200030E0C9011F9108950F931F93CF93DF9378
:100930008C01C0E0D0E083E00E945C04F801EC0F81
:10094000FD1F9183808380E060E00E94D9038F5F68
:1009500061E00E94D90364E670E080E090E00E94CC
:10096000A812229681E0C039D80729F780E061E01B
:100970000E94D903DF91CF911F910F9108950F939A
:100980001F93CF93DF93EC0102C0C051DE402EE0F5
:10099000C031D207D0F78BEA92E066E90E943007B7
:1009A00089EA92E066E90E9430078BEA92E061E012
:1009B0000E94C90989EA92E062E00E94C90980E8C0
:1009C00092E00E9400038C010CC080E892E00E943B
:1009D00000038C018CE696E0B8014AE050E00E94EA
:1009E0002310C017D10731F09E01201B310B233398
:1009F000310558F789EA92E064E00E94C9098BEA60
:100A000092E064E00E94C909DF91CF911F910F919C
:100A100008954F925F926F927F928F929F92AF92C2
:100A2000BF92CF92DF92EF92FF920F931F93CF93DB
:100A3000DF938C010E947312EB0180E892E00E9428
:100A400000039093850280938402C8016AE070E0FD
:100A50000E94A926062F172F89EA92E06DE70E94CF
:100A600030078BEA92E06DE70E94300789EA92E056
:100A700061E00E94C9098BEA92E061E00E94C90925
:100A8000EDE74E2E512CF5C00E9473126C157D05BA
:100A90008E059F0510F4C0E0D0E00E9473126E0135
:100AA000EE24FF246C197D098E099F096B307105B6
:100AB0008105910548F30E9473126C197D098E0916
:100AC0009F096B3071058105910508F4D0C080E85D
:100AD00092E00E9400032091840230918502281B3D
:100AE000390B87E02930380728F070EFC72E71EFF7
:100AF000D72E04C060E1C62E6EE0D62EC20ED31EE5
:100B00008091960290919702C89EB001C99E700D87
:100B1000D89E700D112480E090E00E943C246093E8
:100B20008A0270938B0280938C0290938D022091A5
:100B30008802309189022C0D3D1D3093890220934B
:100B40008802609198027091990284E690E00E9478
:100B5000A9266217730728F47093890260938802AC
:100B60000BC044275527461B570B2417350720F485
:100B70005093890240938802209198023091990203
:100B80008091880290918902289FB001299F700D61
:100B9000389F700D112480E090E00E943C244B01AE
:100BA0005C0160938E0270938F0280939002909309
:100BB00091026090840270908502209186023091AB
:100BC0008702C301821B930B9C0180919A02909132
:100BD0009B02289FB001299F700D389F700D112432
:100BE00080E090E00E943C246B017C0160939202C3
:100BF000709393028093940290939502709287026F
:100C000060928602C501B40120918A0230918B0264
:100C100040918C0250918D020E945921A7019601AA
:100C20000E9428210E94AC1F6B0163587F4F6233E2
:100C3000710510F462E305C0693C710510F068ECC1
:100C400070E08BEA92E00E943007B2016C197D09D6
:100C50006233710510F462E305C0693C710510F060
:100C600068EC70E02A9689EA92E00E943007015011
:100C700010400115110509F010CF89EA92E064E0F7
:100C80000E94C9098BEA92E064E00E94C90989EADE
:100C900092E06DE70E9430078BEA92E06DE70E94D8
:100CA0003007DF91CF911F910F91FF90EF90DF9070
:100CB000CF90BF90AF909F908F907F906F905F90FC
:100CC0004F900895089508950895089508950895FA
:100CD00008958CE696E00E9402100895EF92FF922C
:100CE0000F931F93CF93DF938B0180E490E061E03B
:100CF00070E00E942F27E82EE7017E01F92EE11413
:100D0000F10429F100D000D000D0EDB7FEB7319644
:100D1000ADB7BEB71296FC92EE92119780E091E0CB
:100D200093838283158304830E94A42A2DB73EB740
:100D30002A5F3F4F0FB6F8943EBF0FBE2DBF8CE623
:100D400096E0B7010E940210C7010E94F627DF91CA
:100D5000CF911F910F91FF90EF900895EF92FF9226
:100D60000F931F93CF93DF938B0180E490E061E0BA
:100D700070E00E942F27E82EE7017E01F92EE11492
:100D8000F10429F100D000D000D0EDB7FEB73196C4
:100D9000ADB7BEB71296FC92EE92119781E191E049
:100DA00093838283158304830E94A42A2DB73EB7C0
:100DB0002A5F3F4F0FB6F8943EBF0FBE2DBF8CE6A3
:100DC00096E0B7010E940210C7010E94F627DF914A
:100DD000CF911F910F91FF90EF900895EF92FF92A6
:100DE0000F931F93CF93DF938B0180E490E061E03A
:100DF00070E00E942F27E82EE7017E01F92EE11412
:100E0000F10429F100D000D000D0EDB7FEB7319643
:100E1000ADB7BEB71296FC92EE92119782E291E0C6
:100E200093838283158304830E94A42A2DB73EB73F
:100E30002A5F3F4F0FB6F8943EBF0FBE2DBF8CE622
:100E400096E0B7010E940210C7010E94F627DF91C9
:100E5000CF911F910F91FF90EF90089508950895FD
:100E6000FC018081823071F0833028F0833069F09A
:100E7000843031F008958130E9F76093B30008952C
:100E800068BD08956093B400089567BD0895CF9339
:100E9000DF93EC0188819981689F9001699F300DF3
:100EA000789F300D112440E050E060E077E883E95E
:100EB00093E00E94D0262B833C834D835E831F8268
:100EC000188619861A86DF91CF9108950895CF93D9
:100ED000DF938CE060E00E94031488E060E00E94F1
:100EE0000314C7E0D0E00DC088E061E00E94031465
:100EF00084E061E00E94031421973FEFCF3FD307C6
:100F0000A1F084E060E00E9403148091E70590E086
:100F10000C2E02C0959587950A94E2F780FDE4CFE8
:100F200088E060E00E940314E3CF8CE061E00E945F
:100F30000314DF91CF910895DF92EF92FF920F9308
:100F40001F93CF93DF93EC018A81813009F471C044
:100F5000823049F080E0DF91CF911F910F91FF9097
:100F6000EF90DF9008952EE191E2D92E30E450E821
:100F7000E1E0F0E2413001F1423009F495C0433044
:100F800009F4A2C09B85443021F5613009F4F3C017
:100F900091509B879F739B87903108F099C0092FD0
:100FA00010E06EE371E0601B710BDB017C91025D70
:100FB0001E4FD8016C910FC09B85792F7695769541
:100FC000769570FF9BC0613009F4DCC098509B8718
:100FD0009B857FEF6FEF9F739B87813009F45FC024
:100FE000823009F46EC08091E70582238093E70583
:100FF000443091F1969596959695943009F4AFC04A
:101000009530F8F0963009F4AEC0963008F087C0FD
:10101000352B382B3093E70586EE95E00E94670765
:101020008B85DF91CF911F910F91FF90EF90DF9013
:10103000089521EE36E0D32E30E158E0E2E0F4E00E
:1010400099CF923009F493C0933008F462C05E2BBC
:10105000582B5093E705E0CF903118F48D298093F9
:10106000E705892F8051803130F4E52B2091E70589
:101070002E2B2093E705892F8052803130F4532B9B
:101080002091E705252B2093E7059053903120F61A
:101090003F2B9091E705932B9093E705BDCF70937D
:1010A000B3006093B4009FCF9B85792F769576959A
:1010B000769570FD29C0613009F447C098509B8730
:1010C00088CF77BD68BD8FCF6130F1F19B85F6CFBA
:1010D000692F6051603150F1692F6052603108F022
:1010E00055C0092F10E06EE571E0601B710BDB014C
:1010F0007C91025F1E4FD8016C916DCF6130F1F190
:1011000090519B879B8565CF613011F190519B87F2
:1011100060CF913001F18F2B8093E7057DCF973021
:10112000D1F73F2B382B3093E70576CFE92EFF24FC
:10113000B701625E7E4FDB017C910EE411E00E1977
:101140001F09D8016C9147CF9B85985F9B8741CF42
:10115000905F9B873ECF8D298093E7055DCF852BE0
:101160008093E70559CF832B8093E70555CF8E2BCE
:101170008093E70551CF9F5F9B870CCF905F9B8744
:101180009B8527CF985F9B879B8523CF692F6053D3
:10119000603118F070E060E01ECFE92EFF24B70147
:1011A00062507F4FDB017C910EE611E00E191F09A2
:1011B000D8016C9110CF5F926F927F928F929F9225
:1011C000AF92BF92CF92DF92EF92FF920F931F9355
:1011D000CF93DF93EC018B01542EF22E8B809C80F9
:1011E000AD80BE8023E0F21609F4A5C084E0F816B5
:1011F00009F4A6C0C501B40128EE33E040E050E098
:101200000E94D026722EC32ED42EE52EC501B40125
:1012100028EE33E040E050E00E94D0264B015C0114
:10122000662402C0015010400115110599F1CE014C
:10123000652D4F2D0E949C07682E672D7C2D8D2DCE
:101240009E2D0E94A8128F819885A985BA85880D48
:10125000991DAA1DBB1D8F839887A987BA87883ED1
:1012600023E0920720E0A20720E0B207D8F261E075
:1012700070E080E090E00E94A8128F819885A98597
:10128000BA85885E9340A040B0408F839887A98735
:10129000BA87C8CF84E0F81681F0DF91CF911F9113
:1012A0000F91FF90EF90DF90CF90BF90AF909F9005
:1012B0008F907F906F905F900895662071F320E18A
:1012C000621619F4EACF003141F3CE01652D44E0F6
:1012D0000E949C07082F672D7C2D8D2D9E2D0E942E
:1012E000A8128F819885A985BA85880D991DAA1D98
:1012F000BB1D8F839887A987BA87883E23E0920712
:1013000020E0A20720E0B20790F061E070E080E00A
:1013100090E00E94A8128F819885A985BA85885E81
:101320009340A040B0408F839887A987BA87002355
:1013300009F4B3CFC8CFB694A794979487945ACFA3
:1013400054E0B694A794979487945A95D1F7029550
:101350001295107F1027007F10274CCFFC0182814F
:10136000813069F0823009F008958091E7058E712F
:101370008093E70586EE95E00E94670708958091C7
:10138000E705817E8093E70586EE95E00E9467077A
:101390000895FC018081823009F46AC0833030F006
:1013A000833009F462C0843039F108958130E9F75F
:1013B00083E092E0623021F1643009F43BC0613097
:1013C000A1F721E030E0A90102C0440F551F8A9522
:1013D000E2F7842F8095A90102C0440F551F9A950A
:1013E000E2F72091E705242B82238093E70586EE20
:1013F00095E00E946707089586E090E06230E1F68C
:1014000021E030E0A90102C0440F551F9A95E2F790
:10141000942F90954091E705942302C0220F331F2B
:101420008A95E2F7922B9093E70586EE95E00E946D
:101430006707089521E030E0A90102C0440F551F5D
:101440009A95E2F7B90102C0660F771F8A95E2F715
:10145000CB01842B80952091E70528232093E70575
:1014600086EE95E00E946707089587E095E0A2CF99
:1014700084E091E09FCFCF93DF93EC018CE061E0BB
:101480000E94B11387E061E00E94B11388E061E03F
:101490000E94B11384E061E00E94B1131092E7054D
:1014A000CE010E94670787E060E00E940314DF918D
:1014B000CF910895EF92FF921F93CF93DF93EC01AA
:1014C0007B01142F86EE95E00E943B0AF982E882A8
:1014D0001A831B861130D1F1123031F0DF91CF9198
:1014E0001F91FF90EF9008958091E7058E71809392
:1014F000E70586EE95E00E94670785E061E00E94BF
:10150000B11386E061E00E94B11385E061E00E94C2
:10151000031486E061E00E94031484B5836884BDEF
:1015200017BC86E061E00E94B11384B5836284BD7C
:1015300018BC85E061E00E94B1138FEF87BD88BDC4
:10154000DF91CF911F91FF90EF9008958091E70573
:10155000817E8093E70586EE95E00E9467078BE029
:1015600061E00E94B11383E061E00E94B1138BE05F
:1015700061E00E94031483E061E00E940314809103
:10158000B00083688093B0001093B1001092B30054
:101590008BE061E00E94B1138091B0008362809380
:1015A000B0001093B1001092B40083E061E00E949B
:1015B000B1138FEF8093B3008093B4008FCF1F934C
:1015C000DF93CF930F92CDB7DEB7FC01142F60836A
:1015D000418386EE95E069830E943B0A698162300F
:1015E00009F450C06330F0F46130B9F48091E7053C
:1015F000837F8093E70586EE95E00E9467078091E0
:10160000B00083688093B00017701093B1001092FF
:10161000B3008BE061E00E94B1130F90CF91DF9196
:101620001F9108956330C1F06430B9F78091E705E8
:101630008E7B8093E70586EE95E00E94670784B570
:10164000836284BD18BC85E061E00E94B1130F90F5
:10165000CF91DF911F9108958091E7058F75809359
:10166000E70586EE95E00E94670784B5836884BD30
:1016700017BC86E061E00E94B1130F90CF91DF911B
:101680001F9108958091E7058D7E8093E70586EE92
:1016900095E00E9467078091B00083628093B0005C
:1016A00017701093B1001092B40083E061E00E94C3
:1016B000B1130F90CF91DF911F9108951F93DF9386
:1016C000CF930F92CDB7DEB7FC01142F6083418317
:1016D00086EE95E069830E943B0A6981623009F4D5
:1016E00050C06330F0F46130B9F48091E705837F36
:1016F0008093E70586EE95E00E9467078091B00031
:1017000083688093B00017701093B1001092B300FB
:101710008BE061E00E94B1130F90CF91DF911F9198
:1017200008956330C1F06430B9F78091E7058E7B8E
:101730008093E70586EE95E00E94670784B5836293
:1017400084BD18BC85E061E00E94B1130F90CF9179
:10175000DF911F9108958091E7058F758093E705CC
:1017600086EE95E00E94670784B5836884BD17BC48
:1017700086E061E00E94B1130F90CF91DF911F913D
:1017800008958091E7058D7E8093E70586EE95E0CC
:101790000E9467078091B00083628093B000177049
:1017A0001093B1001092B40083E061E00E94B11385
:1017B0000F90CF91DF911F910895EF92FF921F93A9
:1017C000CF93DF93EC017B01142F86EE95E00E940E
:1017D0003B0AF982E8821A831B861130D1F112305C
:1017E00031F0DF91CF911F91FF90EF90089580919C
:1017F000E7058E718093E70586EE95E00E94670706
:1018000085E061E00E94B11386E061E00E94B113BF
:1018100085E061E00E94031486E061E00E94031409
:1018200084B5836884BD17BC86E061E00E94B11373
:1018300084B5836284BD18BC85E061E00E94B11369
:101840008FEF87BD88BDDF91CF911F91FF90EF9003
:1018500008958091E705817E8093E70586EE95E007
:101860000E9467078BE061E00E94B11383E061E0B2
:101870000E94B1138BE061E00E94031483E061E0F9
:101880000E9403148091B00083688093B00010938D
:10189000B1001092B3008BE061E00E94B11380911F
:1018A000B00083628093B0001093B1001092B40036
:1018B00083E061E00E94B1138FEF8093B3008093C7
:1018C000B4008FCF1F920F920FB60F9211242F9357
:1018D0003F934F935F936F938F939F93EF93FF93F8
:1018E0006091C6002091680630916906C901019691
:1018F0008F77907040916A0650916B068417950718
:1019000041F028513A4FF901608390936906809322
:101910006806FF91EF919F918F916F915F914F9129
:101920003F912F910F900FBE0F901F9018958F929F
:10193000AF92CF92DF92EF92FF920F931F93DF93BC
:10194000CF93CDB7DEB7FC0183E491E09183808330
:10195000738362835583448337832683118700878B
:10196000F386E286D586C486A68687868D85808B9B
:101970008E85818B8F85828BCF91DF911F910F9107
:10198000FF90EF90DF90CF90AF908F9008958F925F
:10199000AF92CF92DF92EF92FF920F931F93DF935C
:1019A000CF93CDB7DEB7FC0183E491E091838083D0
:1019B000738362835583448337832683118700872B
:1019C000F386E286D586C486A68687868D85808B3B
:1019D0008E85818B8F85828BCF91DF911F910F91A7
:1019E000FF90EF90DF90CF90AF908F900895CF93BE
:1019F000DF93EC019A01AB01203081EE380780E0E3
:101A0000480780E0580709F448C0E885F98581E077
:101A100090E00A8802C0880F991F0A94E2F7808339
:101A200060E079E08DE390E00E94D02621503040C4
:101A3000404050405695479537952795832FEC8128
:101A4000FD818083EE81FF812083EA85FB85808193
:101A500021E030E0A9010E8402C0440F551F0A9412
:101A6000E2F7842B8083EA85FB858081A9010F84BE
:101A700002C0440F551F0A94E2F7842B8083EA8545
:101A8000FB858081088802C0220F331F0A94E2F789
:101A9000822B8083DF91CF910895E885F9851082AC
:101AA00020E180E0CCCFFC01A285B3853C9181E0B0
:101AB00090E0AC01068402C0440F551F0A94E2F77F
:101AC000242F209523232C93A285B3853C91AC0130
:101AD000078402C0440F551F0A94E2F7242F209573
:101AE00023232C93A285B3852C91008802C0880FF4
:101AF000991F0A94E2F7809582238C930895FC0144
:101B000082819381FC01E058FF4F208131818E5703
:101B10009F4FFC0180819181281B390B2F773070FA
:101B2000C9010895FC0182819381FC01EE57FF4FAA
:101B300020813181FC01E058FF4F408151814217E3
:101B4000530739F0820F931FFC01208130E0C90157
:101B500008952FEF3FEFC9010895DC0112968D9192
:101B60009C911397FC01EE57FF4F40815181DC019E
:101B7000A058BF4F2D913C9111972417350769F05C
:101B8000840F951FDC012C914F5F5F4F4F77507092
:101B90005183408330E0C90108952FEF3FEFC90121
:101BA0000895DC0112968D919C911397FC01E058E9
:101BB000FF4F8E579F4FDC018D919C911197918320
:101BC00080830895FC01A085B18521898C9190E0E6
:101BD000022E02C0959587950A94E2F780FFF6CF12
:101BE0000484F585E02D6083089583E491E090936B
:101BF0006D0680936C0688EE95E090936F06809357
:101C00006E0685EC90E0909371068093700684ECEC
:101C100090E0909373068093720680EC90E090932E
:101C200075068093740681EC90E09093770680931C
:101C3000760686EC90E0909379068093780684E0AF
:101C400080937A0683E080937B0687E080937C060E
:101C500085E080937D0681E080937E0608950F9352
:101C60001F93CF93DF93EC018B01FB01608166230F
:101C700069F00F5F1F4FE881F9810190F081E02D3D
:101C8000CE010995F8016081662399F7DF91CF9124
:101C90001F910F910895EF92FF920F931F93CF938F
:101CA000DF93EC018B017A014115510581F0F801B8
:101CB00061918F01E881F9810190F081E02DCE01E1
:101CC00009950894E108F108E114F10481F7DF9126
:101CD000CF911F910F91FF90EF900895DC01ED914E
:101CE000FC910280F381E02D09950895CF92DF9257
:101CF000EF92FF920F931F93CF93DF937C018B01A1
:101D0000DB0114968D919C9115970097C1F060E0CE
:101D100070E0C0E0D0E0D701ED91FC91C080D180AF
:101D2000C8010E94A314682FC701F60109952196E6
:101D3000BE01F80184819581C817D90760F3DF914E
:101D4000CF911F910F91FF90EF90DF90CF9008956A
:101D50002F923F924F925F926F927F928F929F92BB
:101D6000AF92BF92CF92DF92EF92FF920F931F93A9
:101D7000DF93CF93CDB7DEB7A2970FB6F894DEBF4F
:101D80000FBECDBF9AA389A37A018B0141155105DE
:101D90006105710509F455C0622E772488249924C1
:101DA000AA24BB2465011E010894211C311C2101B9
:101DB0004A0C5B1CC801B701A40193010E94D02604
:101DC000F20160830894A11CB11CC11CD11CC80184
:101DD000B701A40193010E94D026E22EF32E042F16
:101DE000152FE114F1040105110509F7A114B1043F
:101DF000C104D10471F10894A108B108C108D10847
:101E000018C0405D50E060E070E089A19AA120E038
:101E100030E00E94600F0894A108B108C108D10801
:101E2000FFEFAF16FFEFBF06FFEFCF06FFEFDF06B6
:101E300081F0F101EA0DFB1D40814A3010F3495C4D
:101E4000E1CF40E350E060E070E020E030E00E944D
:101E5000600FA2960FB6F894DEBF0FBECDBFCF9134
:101E6000DF911F910F91FF90EF90DF90CF90BF9087
:101E7000AF909F908F907F906F905F904F903F902A
:101E80002F9008952115310519F00E94A80E08958C
:101E9000DC01ED91FC910190F081E02D642F09951A
:101EA00008959A01AB0160E070E00E94420F08952E
:101EB0009A01462F50E060E070E00E94420F0895C2
:101EC000EF92FF920F931F93CF93DF93EC017A0170
:101ED0008B0121153105D9F02A30310549F00E94D6
:101EE000A80EDF91CF911F910F91FF90EF90089571
:101EF00077FD1BC0CE01B801A7012AE00E94A80E01
:101F0000DF91CF911F910F91FF90EF900895E8819D
:101F1000F9810190F081E02D642F0995DF91CF9137
:101F20001F910F91FF90EF9008954DE250E060E017
:101F300070E020E030E00E94600F10950095F09472
:101F4000E094E11CF11C011D111DD4CFEF92FF9212
:101F50000F931F939A017B010027F7FC0095102F28
:101F6000B801A7010E94600F1F910F91FF90EF90A1
:101F700008959A01462F50E060E070E00E94600FE3
:101F80000895CF93DF93EC014DE050E060E070E006
:101F900020E030E00E94600FCE014AE050E060E0B7
:101FA00070E020E030E00E94600FDF91CF91089553
:101FB000CF93DF93EC010E94420FCE010E94C10F2C
:101FC000DF91CF910895CF93DF93EC019A01AB019C
:101FD00060E070E00E94420FCE010E94C10FDF91CD
:101FE000CF910895CF93DF93EC019A01462F50E0F3
:101FF00060E070E00E94420FCE010E94C10FDF91AD
:10200000CF910895CF93DF93EC010E946E0ECE0125
:102010000E94C10FDF91CF910895CF93DF93EC0120
:102020000E94760ECE010E94C10FDF91CF910895DC
:10203000CF93DF93EC010E94600FCE010E94C10F8D
:10204000DF91CF910895CF93DF93EC01CB019A01FB
:10205000AC01662757FD6095762FCE010E94600F78
:10206000CE010E94C10FDF91CF910895CF93DF93EE
:10207000EC019A01462F50E060E070E00E94600F92
:10208000CE010E94C10FDF91CF9108959F92AF9230
:10209000BF92CF92DF92EF92FF920F931F93CF9355
:1020A000DF93EC016A017B01122FCB01BA0120E022
:1020B00030E0A9010E945C2388230CF483C0112323
:1020C00009F48EC000E050E040E030E02FE3DA0198
:1020D000F9016B2F742F8F2F922F20E030E040E218
:1020E00051E40E947E22562F472F382F292F0F5F51
:1020F000011768F3C701B601DA01F9012B2F3A2F56
:102100004F2F5E2F0E9459215B01C82E092F7B2D76
:102110000E94AC1F962EF72EE82ED92E0E943C244A
:102120009B01AC016A2D7B2D8C2D902F0E942821C4
:102130005B01C82E092FCE01492D5F2D6E2D7D2DFF
:102140002AE030E00E94420FCE0163E671E00E9477
:102150006E0E6A2D7B2D8C2D902F20E030E040E21A
:1021600051E40E948621062FB72EA82E992E0E9498
:10217000E9236B01EE24D7FCE094FE2CCE01B701DD
:10218000A6012AE030E00E94600FC701B6010E945C
:102190008C239B01AC01602F7B2D8A2D992D0E94F1
:1021A00028215B01C82E092F115099F6DF91CF919C
:1021B0001F910F91FF90EF90DF90CF90BF90AF9065
:1021C0009F900895CE014DE250E060E070E020E085
:1021D00030E00E94600FF7FAF094F7F8F0946FCFB8
:1021E000C701B60120E030E040E05FE30E945921E2
:1021F0000E94AC1FAB01BC01CE012AE030E00E947E
:10220000420FD4CF0E9446100895CF93DF93EC0184
:102210000E944610CE010E94C10FDF91CF91089518
:102220000895089581E08093C4066093A1061092FA
:10223000C2061092C306089581E08093C40660939D
:10224000A1061092C2061092C30608958091A006BE
:1022500090919F06891B089590919F068091A006FA
:10226000981748F4E92FF0E0E158F94F80819F5F1B
:1022700090939F06089580E00895CF93DF939C018B
:10228000E091C706F091C806309711F190919F0632
:102290008091A0069817E0F0161617069CF4A0E0AF
:1022A000B0E090E040E050E0A158B94F420F531F1A
:1022B000EA0148814C939F5F492F50E0DA014617AD
:1022C000570794F310929F066093A006CB010995DF
:1022D000DF91CF910895E091C506F091C606309741
:1022E00029F01092C2061092C306099508957093C2
:1022F000C8066093C70608957093C6066093C50626
:102300000895DF93CF930F92CDB7DEB769838091A5
:10231000C4068823C1F08091C306803220F00F905C
:10232000CF91DF9108958091C206E82FF0E0EE553D
:10233000F94F60838F5F8093C2068093C3060F902E
:10234000CF91DF910895CE01019661E00E94411E78
:102350000F90CF91DF9108950E9481110895EF921F
:10236000FF920F931F93CF93DF93EC01162F042F4F
:102370008091C4068823A9F0442361F0E62EF72E4D
:10238000CE01F70161917F010E9481118E2D811B89
:102390008017B0F3DF91CF911F910F91FF90EF90D5
:1023A0000895862F972F642F0E94411EDF91CF91B1
:1023B0001F910F91FF90EF900895DB010D90002089
:1023C000E9F7AD0141505040461B570B0E94AF1139
:1023D00008958091A10662EA76E04091C30621E06B
:1023E0000E94F11D1092C2061092C3061092C406FC
:1023F0000895862F413208F040E26FE776E00E94B0
:10240000B81D10929F068093A00608950E94F911AE
:10241000089510929F061092A0061092C206109284
:10242000C3060E94A11D0895CF93DF93EC01862F70
:102430000E94B41D8BE691E10E94641E8DE391E140
:102440000E945F1ECE010E940912DF91CF91089574
:102450000E94141208951F920F920FB60F9211242A
:102460002F933F938F939F93AF93BF938091CD060C
:102470009091CE06A091CF06B091D0063091D106B2
:102480000196A11DB11D232F2D5F2D3720F02D5753
:102490000196A11DB11D2093D1068093CD06909386
:1024A000CE06A093CF06B093D0068091C906909136
:1024B000CA06A091CB06B091CC060196A11DB11D14
:1024C0008093C9069093CA06A093CB06B093CC061E
:1024D000BF91AF919F918F913F912F910F900FBE20
:1024E0000F901F9018958FB7F8942091CD063091DA
:1024F000CE064091CF065091D0068FBFB901CA01D8
:1025000008959FB7F8942091C9063091CA0640916A
:10251000CB065091CC0686B5A89B06C08F3F21F014
:102520002F5F3F4F4F4F5F4F9FBF542F432F322F8F
:102530002227280F311D411D511D220F331F441F1B
:10254000551F220F331F441F551FB901CA0108959B
:10255000EF92FF920F931F93CF93DF937B018C0138
:102560000E948112EB01E114F10401051105A1F0B3
:102570000E9481126C1B7D0B83E0683E7807C0F3DC
:102580000894E108F10801091109C851DC4FE11470
:10259000F1040105110561F7DF91CF911F910F91B2
:1025A000FF90EF900895019739F0880F991F880FD9
:1025B000991F02970197F1F70895789484B5826086
:1025C00084BD84B5816084BD85B5826085BD85B5D7
:1025D000816085BDEEE6F0E0808181608083E1E886
:1025E000F0E01082808182608083808181608083BE
:1025F000E0E8F0E0808181608083E1EBF0E08081C1
:1026000084608083E0EBF0E0808181608083EAE792
:10261000F0E080818460808380818260808380811B
:10262000816080838081806880831092C1000895DA
:1026300080936F0108958E3008F08E5087709091CE
:102640006F019295990F990F907C982B90937C0035
:1026500080917A00806480937A0080917A0086FD70
:10266000FCCF2091780030917900932F80E030E00A
:10267000282B392BC90108951F93CF93DF93182F6F
:10268000EB0161E00E94B113209759F1CF3FD105D2
:10269000A1F0E12FF0E0E753FC4F84918330E1F1AA
:1026A000843098F0863069F1873009F44FC0843067
:1026B00009F43FC0C038D105A4F0812F61E00E9429
:1026C0000314DF91CF911F910895813091F08230F2
:1026D00089F784B5806284BDC8BDDF91CF911F9119
:1026E0000895812F60E00E940314DF91CF911F9124
:1026F000089584B5806884BDC7BDDF91CF911F91D7
:1027000008958091B00080688093B000C093B300BA
:10271000DF91CF911F910895809180008068809310
:102720008000D0938900C0938800DF91CF911F91E2
:10273000089580918000806280938000D0938B0008
:10274000C0938A00DF91CF911F9108958091B000CE
:1027500080628093B000C093B400DF91CF911F914D
:10276000089590E0FC01EB54FC4F2491FC01EF55DF
:10277000FC4FE491EE2379F0F0E0EE0FFF1FED57F0
:10278000FC4FA591B491662339F09FB7F8948C91D2
:10279000822B8C939FBF08959FB7F8948C912095BE
:1027A00082238C939FBF0895833039F1843060F089
:1027B0008630C9F0873069F0843051F48091800010
:1027C0008F7D809380000895813099F0823039F0B8
:1027D00008958091B0008F7D8093B000089584B5F6
:1027E0008F7D84BD08958091B0008F778093B00075
:1027F000089584B58F7784BD0895809180008F7788
:102800008093800008950F931F93DF93CF930F92CF
:10281000CDB7DEB7282F30E0F901E753FC4F8491A4
:10282000F901EB54FC4F04912F553C4FF9011491E1
:10283000112391F0882319F5E12FF0E0EE0FFF1F2F
:10284000E357FC4FA591B491662361F09FB7F894CC
:102850008C91802B8C939FBF0F90CF91DF911F9114
:102860000F9108959FB7F8948C91009580238C93D5
:102870009FBF0F90CF91DF911F910F9108956983B2
:102880000E94D4136981D8CF0F931F93282F30E073
:10289000F901E753FC4F8491F901EB54FC4F04918B
:1028A0002F553C4FF90114911123C9F08823E9F405
:1028B000E12FF0E0EE0FFF1FE956FC4FA591B49118
:1028C0008C9120E030E0802321F4C9011F910F9109
:1028D000089521E030E0C9011F910F91089520E093
:1028E00030E0C9011F910F9108950E94D413E0CFE9
:1028F000DC01ED91FC911197E60FF71F808108959F
:10290000FC0180819181009749F024813581621713
:10291000730720F4680F791FFB0140830895FC01C1
:10292000848195816817790740F4808191810097AF
:1029300021F0680F791FCB0108951092D20662ED45
:1029400076E0CB010895DC01ED91FC911197E60F43
:10295000F71F80810895FC01808191810E945E298A
:1029600008950F931F93CF93DF93FC01EB01411563
:102970005105A1F06115710589F0848195818A0165
:10298000015010408017910770F060817181CE0175
:10299000A8010E94E129C00FD11F1882DF91CF91B9
:1029A0001F910F9108958C01F0CF0F931F93CF9338
:1029B000DF93FC01EB0141155105A1F06115710593
:1029C00089F0848195818A01015010408017910718
:1029D00070F060817181CE01A8010E94E129C00FD1
:1029E000D11F1882DF91CF911F910F9108958C0113
:1029F000F0CFFC01DB01CA0114964D915C91159753
:102A000024813581241B350B2817390780F020815C
:102A100031816D917C91820F931F0E94D3299C017B
:102A200080E02115310509F0089581E0089580E0E6
:102A30000895FC0144815581FB01248135814217B1
:102A4000530710F480E0089540E050E00E94F9142C
:102A50000895DF92EF92FF920F931F93CF93DF932E
:102A6000EC018C819D814817590758F02FEF3FEFFB
:102A7000C901DF91CF911F910F91FF90EF90DF90EF
:102A800008958A010F5F1F4FE881F981E00FF11F60
:102A9000D0801082E880F980C70170E00E94F029A0
:102AA0009C010E0D1F1DF801D0820097F9F288815C
:102AB0009981281B390BDCCFFC01448155814150A1
:102AC00050400E9429150895CF93DF93FC01848123
:102AD00095814817590730F02FEF3FEFC901DF917B
:102AE000CF910895C081D181FB0160817181CE01B8
:102AF000840F951F0E94FB299C01009769F32C1BF2
:102B00003D0BECCF40E050E00E9464150895CF9358
:102B1000DF93FC01848195814817590730F02FEF2E
:102B20003FEFC901DF91CF910895C081D181CE01DE
:102B3000840F951F70E00E94B8299C01009779F3DB
:102B40002C1B3D0BEECF40E050E00E94871508950E
:102B5000FC01DB012481358114968D919C911597A0
:102B60002817390711F080E008956D917C918081DC
:102B700091810E94C3299C0180E02115310509F053
:102B8000089581E00895FC01DB018481958114960C
:102B90002D913C9115978217930790F0821B930B10
:102BA000208131816D917C91820F931F0E94C329F6
:102BB0009C0180E02115310509F0089581E0089518
:102BC00080E00895FB0160817181FC018081918129
:102BD0000E94C329292F332727FD30952095309552
:102BE0002227330F221F3327C9010895FB0160817B
:102BF0007181FC01808191810E94C32940E050E0F5
:102C00001816190614F4CA01089541E050E0CA01EB
:102C10000895FB0160817181FC01808191810E9496
:102C2000C32940E050E01816190614F441E050E0C2
:102C3000CA010895FB0160817181FC01808191814D
:102C40000E94C329292F332727FD30952227330FD0
:102C5000221F3327C9010895FC01DB01248135813E
:102C600014968D919C9115972817390721F021E032
:102C700030E0C90108956D917C91808191810E941D
:102C8000C3299C012115310591F7C9010895FC0163
:102C9000DB012481358114968D919C91159728171D
:102CA000390721F020E030E0C90108956D917C9151
:102CB000808191810E94C3299C0180E090E02115D0
:102CC000310519F09C01C901089581E090E09C0153
:102CD000FACFFB0160817181FC01808191810E94AA
:102CE000C3290895EF92FF920F931F93CF93DF9321
:102CF000EC018B01FB01648175818C819D81680FE2
:102D0000791F7D836C838A819B818617970778F46E
:102D10006F5F7F4F888199810E948D280097B1F065
:102D2000998388832C813D813B832A8302C08881DB
:102D30009981F801608171810E94AD29CE01DF91F6
:102D4000CF911F910F91FF90EF9008958C819D81FD
:102D5000F80124813581821B930B9D838C83EECFF8
:102D60000E9472160895EF92FF920F931F93CF93D4
:102D7000DF93EC018B018617970799F0FB014481E3
:102D800055818C819D818417950798F08881998160
:102D9000009739F05D834C83F801608171810E9456
:102DA000CC29CE01DF91CF911F910F91FF90EF9031
:102DB0000895888199810E94F627F8018481958180
:102DC0009B838A8301960E94542799838883009766
:102DD00021F0F80144815581DDCF1B821A821D82CA
:102DE0001C82DFCF0F931F93DF93CF930F92CDB74A
:102DF000DEB78C0181E090E0D80115969C938E930C
:102E0000149713969C938E93129782E090E06983B7
:102E10000E945427FC01D80111969C938E936981DE
:102E2000009761F06083D801ED91FC9111971182B8
:102E30000F90CF91DF911F910F91089513961C92DF
:102E40001E92129715961C921E9214970F90CF9176
:102E5000DF911F910F9108950F931F93DF93CF93ED
:102E60000F92CDB7DEB78C0181E090E0D8011596C6
:102E70009C938E93149713969C938E93129782E053
:102E800090E069830E945427FC01D80111969C931D
:102E90008E936981009761F06083D801ED91FC9178
:102EA000119711820F90CF91DF911F910F9108958B
:102EB00013961C921E92129715961C921E921497AE
:102EC0000F90CF91DF911F910F9108950F931F9352
:102ED000DF93CF930F92CDB7DEB78C0181E090E006
:102EE000D80115969C938E93149713969C938E936A
:102EF000129782E090E069830E945427FC01D80178
:102F000011969C938E936981009761F06083D8013C
:102F1000ED91FC91119711820F90CF91DF911F914C
:102F20000F91089513961C921E92129715961C925B
:102F30001E9214970F90CF91DF911F910F910895DA
:102F40000F931F93DF93CF930F92CDB7DEB78C0112
:102F500081E090E0D80115969C938E931497139678
:102F60009C938E93129782E090E069830E9454278D
:102F7000FC01D80111969C938E936981009761F0B2
:102F80006083D801ED91FC91119711820F90CF9140
:102F9000DF911F910F91089513961C921E92129724
:102FA00015961C921E9214970F90CF91DF911F914E
:102FB0000F9108950F931F93CF93DF93EC018B0133
:102FC000FB01848195819D838C839B838A830196F9
:102FD0000E94542799838883009751F0F8016081FB
:102FE00071810E94CC29DF91CF911F910F9108959B
:102FF0001B821A821D821C82DF91CF911F910F913B
:1030000008950F931F93CF93DF93EC018B01FB0186
:10301000848195819D838C839B838A8301960E9402
:10302000542799838883009751F0F801608171815A
:103030000E94CC29DF91CF911F910F9108951B829F
:103040001A821D821C82DF91CF911F910F910895EA
:10305000EF92FF920F931F93DF93CF93CDB7DEB71D
:10306000A1970FB6F894DEBF0FBECDBF7C01CB0198
:10307000BA018E010F5F1F4FA8012AE030E00E94C5
:103080007F2AF80101900020E9F7CF010197801B0A
:10309000910BF701958384839383828301960E9429
:1030A0005427F70191838083009781F0B8010E9433
:1030B000CC29A1960FB6F894DEBF0FBECDBFCF913D
:1030C000DF911F910F91FF90EF900895138212826C
:1030D00015821482EECFEF92FF920F931F93DF932E
:1030E000CF93CDB7DEB7A1970FB6F894DEBF0FBE72
:1030F000CDBF7C01CB01BA018E010F5F1F4FA8012C
:103100002AE030E00E947F2AF80101900020E9F7D0
:10311000CF010197801B910BF701958384839383E3
:10312000828301960E945427F70191838083009740
:1031300081F0B8010E94CC29A1960FB6F894DEBFA9
:103140000FBECDBFCF91DF911F910F91FF90EF90F8
:1031500008951382128215821482EECFEF92FF92AD
:103160000F931F93DF93CF93CDB7DEB7A1970FB621
:10317000F894DEBF0FBECDBF7C019A0180E090E0E5
:103180008E010F5F1F4FA8010E947F2AF801019056
:103190000020E9F7CF010197801B910BF701958380
:1031A00084839383828301960E945427F70191833D
:1031B0008083009781F0B8010E94CC29A1960FB6B8
:1031C000F894DEBF0FBECDBFCF91DF911F910F915D
:1031D000FF90EF9008951382128215821482EECF31
:1031E000EF92FF920F931F93DF93CF93CDB7DEB78C
:1031F000A1970FB6F894DEBF0FBECDBF7C019A0138
:1032000080E090E08E010F5F1F4FA8010E947F2A8F
:10321000F80101900020E9F7CF010197801B910B85
:10322000F701958384839383828301960E945427B8
:10323000F70191838083009781F0B8010E94CC2927
:10324000A1960FB6F894DEBF0FBECDBFCF91DF9130
:103250001F910F91FF90EF900895138212821582B3
:103260001482EECF0F931F93CF93DF93EC018B016A
:103270006115710521F1FB0101900020E9F73197FB
:10328000E61BF70BCF010196FD83EC83FB83EA83FA
:103290000E94542799838883009741F0B8010E94C7
:1032A000CC29DF91CF911F910F9108951B821A8233
:1032B0001D821C82DF91CF911F910F91089581E0B3
:1032C00090E0E0E0F0E000E711E0DECFAF92BF92E7
:1032D000CF92DF92EF92FF920F931F93CF93DF93E2
:1032E0007C018B01C82EE6016E01DF2CE601FB019B
:1032F00060817181C6010E943219F8018481958133
:103300000097B1F0AA24BB24C880D980CA0CDB1C6A
:10331000F601808190E00E949529F601808308944F
:10332000A11CB11CF80184819581A816B90660F32F
:10333000C701DF91CF911F910F91FF90EF90DF9028
:10334000CF90BF90AF900895AF92BF92CF92DF928F
:10335000EF92FF920F931F93CF93DF937C018B012A
:10336000C82EE6016E01DF2CE601FB016081718150
:10337000C6010E943219F801848195810097B1F04D
:10338000AA24BB24C880D980CA0CDB1CF60180812A
:1033900090E00E948D29F60180830894A11CB11C45
:1033A000F80184819581A816B90660F3C701DF9101
:1033B000CF911F910F91FF90EF90DF90CF90BF9032
:1033C000AF900895EF92FF920F931F93DF93CF93E7
:1033D000CDB7DEB72D970FB6F894DEBF0FBECDBFC9
:1033E000FC018B0186179707E9F124813581DB0108
:1033F00014968D919C9115972817390779F020E044
:10340000822F2D960FB6F894DEBF0FBECDBFCF91A1
:10341000DF911F910F91FF90EF900895CE010196DB
:10342000BF010E94A419E980FA80CE010796B80175
:103430000E94A4190F811885C701B8010E94C329F1
:1034400020E0009709F421E0C8012D870E94F627AB
:103450001A8619861C861B8689819A810E94F62706
:103460002D85CECF21E0CCCFDF92EF92FF920F934C
:103470001F93CF93DF938C01EB017901241735075C
:1034800030F4342F252FA701C901E92EF82E8C81A5
:103490009D818E159F0508F47C01E881F981EE0D70
:1034A000FF1DD080108268817981640F751FC8016B
:1034B0000E943219E881F981EE0DFF1DD082C8010A
:1034C000DF91CF911F910F91FF90EF90DF900895C2
:1034D000CF93DF93EC01FB01248135810E94341AE4
:1034E000CE01DF91CF9108958F929F92AF92BF92BC
:1034F000CF92DF92EF92FF920F931F93DF93CF93C0
:1035000000D000D000D0CDB7DEB76C017B01DB016D
:1035100014968D919C9115970097B1F40FEF1FEFC2
:10352000C80126960FB6F894DEBF0FBECDBFCF916F
:10353000DF911F910F91FF90EF90DF90CF90BF90A0
:10354000AF909F908F90089501974817590730F3D7
:10355000F601848195814817590700F7ED91FC9198
:10356000119790808A015E010894A11CB11C02C0D1
:103570000150104017FDD2CFD601ED91FC9111976B
:10358000E00FF11F8081891599F7F70124813581BA
:10359000200F311FC501B601A8010E94341AC501D0
:1035A000B7010E94A815882E89819A810E94F6276A
:1035B000882009F0B5CF1C821B821E821D82D8CFC5
:1035C000FC0144815581FB0124813581421B530B51
:1035D0000E94741A08956F927F928F929F92AF9279
:1035E000BF92CF92DF92EF92FF920F931F93DF93E0
:1035F000CF9300D000D000D0CDB7DEB78C016B01E7
:10360000FB01608171816115710509F463C05E0180
:103610000894A11CB11CC5010E943219F6018480D6
:1036200095808114910409F459C0F601608071807D
:10363000EE24FF2406C00894E11CF11CE814F904F0
:1036400048F4F301EE0DFF1D808190E00E94852972
:10365000009789F78D809E80089481089108E8146E
:10366000F904B0F4F601C080D180C80CD91C09C09F
:103670000894810891080894C108D108E814F90455
:1036800038F4F601808190E00E948529009781F747
:1036900094012F5F3F4FC801B501A7010E94341A62
:1036A00089819A810E94F627C80126960FB6F89460
:1036B000DEBF0FBECDBFCF91DF911F910F91FF9065
:1036C000EF90DF90CF90BF90AF909F908F907F90C2
:1036D0006F900895B6010E94DA17E6CFEE24FF241A
:1036E000B9CF2F923F924F925F926F927F928F92BB
:1036F0009F92AF92BF92CF92DF92EF92FF920F9381
:103700001F93DF93CF93CDB7DEB768970FB6F894CA
:10371000DEBF0FBECDBF1C01FB015A012901608134
:1037200071816115710509F47EC08E010F5F1F4F15
:10373000C8010E94321947E0C42ED12CCC0EDD1EE8
:10374000C60160E771E00E9432193DE0832E912CA2
:103750008C0E9D1E23E1622E712C6C0E7D1E2CC0E2
:10376000C401B80140E050E097010E94341AC6013C
:10377000B4010E9472168D859E850E94F627188AD4
:103780001F861A8A198AC601B2010E947216F501B3
:10379000448155814E0D5F1DC301B8010E94681A16
:1037A000C801B3010E94B3168B899C890E94F62739
:1037B0001E8A1D8A188E1F8AC801B5010E948215B3
:1037C0007C01FFEF8F3F9F0759F6C601B8010E94A9
:1037D0007216C101B6010E94DA178F8198850E9486
:1037E000F6271A8619861C861B8689819A810E9473
:1037F000F627C10168960FB6F894DEBF0FBECDBFA5
:10380000CF91DF911F910F91FF90EF90DF90CF90BC
:10381000BF90AF909F908F907F906F905F904F90F0
:103820003F902F900895BF010E94DA17E2CFCF9208
:10383000DF92EF92FF920F931F93DF93CF9300D00D
:1038400000D000D0CDB7DEB78C01FB01F42EE22E04
:10385000608171816115710551F16E010894C11C7F
:10386000D11CC6010E94321989819A8101C0E0826F
:103870006F2D70E00E94B829FC010097C1F7C801C4
:10388000B6010E94DA1789819A810E94F627C80141
:1038900026960FB6F894DEBF0FBECDBFCF91DF9155
:1038A0001F910F91FF90EF90DF90CF900895BF018F
:1038B0000E94DA17ECCF0F931F93CF93DF93EC01A5
:1038C0008B016115710521F1FB0101900020E9F7E1
:1038D0003197E61BF70BCF010196FD83EC83FB8349
:1038E000EA830E94542799838883009741F0B801A6
:1038F0000E94CC29DF91CF911F910F9108951B82D7
:103900001A821D821C82DF91CF911F910F91089521
:1039100081E090E0E0E0F0E000E711E0DECFEF9240
:10392000FF920F931F93DF93CF93CDB7DEB7A1978D
:103930000FB6F894DEBF0FBECDBF7C01CB01BA013C
:103940008E010F5F1F4FA8010E94362AF8010190D7
:103950000020E9F7CF010197801B910BF7019583B8
:1039600084839383828301960E945427F701918375
:103970008083009781F0B8010E94CC29A1960FB6F0
:10398000F894DEBF0FBECDBFCF91DF911F910F9195
:10399000FF90EF9008951382128215821482EECF69
:1039A000EF92FF920F931F93DF93CF93CDB7DEB7C4
:1039B000A1970FB6F894DEBF0FBECDBF7C01CB013F
:1039C000BA018E010F5F1F4FA8010E94362AF8012D
:1039D00001900020E9F7CF010197801B910BF701BF
:1039E000958384839383828301960E945427F701F1
:1039F00091838083009781F0B8010E94CC29A19621
:103A00000FB6F894DEBF0FBECDBFCF91DF911F91EF
:103A10000F91FF90EF900895138212821582148205
:103A2000EECFEF92FF920F931F93DF93CF93CDB71B
:103A3000DEB7A1970FB6F894DEBF0FBECDBF7C01F5
:103A4000CB018E010F5F1F4FB8010E94152AF801AC
:103A500001900020E9F7CF010197801B910BF7013E
:103A6000958384839383828301960E945427F70170
:103A700091838083009781F0B8010E94CC29A196A0
:103A80000FB6F894DEBF0FBECDBFCF91DF911F916F
:103A90000F91FF90EF900895138212821582148285
:103AA000EECFEF92FF920F931F93DF93CF93CDB79B
:103AB000DEB7A1970FB6F894DEBF0FBECDBF7C0175
:103AC000CB018E010F5F1F4FB8010E94152AF8012C
:103AD00001900020E9F7CF010197801B910BF701BE
:103AE000958384839383828301960E945427F701F0
:103AF00091838083009781F0B8010E94CC29A19620
:103B00000FB6F894DEBF0FBECDBFCF91DF911F91EE
:103B10000F91FF90EF900895138212821582148204
:103B2000EECF089520E030E0FC018081882311F47D
:103B300021E030E0C901089521E0FC0120830895CF
:103B400008951092F706449A459AE9EBF0E08081D7
:103B50008E7F808380818D7F808388E48093B8000E
:103B600085E48093BC000895880F8093BA0008957F
:103B70004132A0F59091F7069923E1F791E09093F7
:103B8000F7069FEF9093F6061092D406942F91506B
:103B90009093D506880F81608093D30685EE80933D
:103BA000BC008091F7068130E1F38091D406841740
:103BB00090F0442371F020E030E0FB01E20FF31FAE
:103BC000D901AA52B94F9C9190832F5F3F4F241780
:103BD000A0F3842F08954091D406EBCF40E0842FCA
:103BE0000895CF93DF93413208F043C09091F706D8
:103BF0009923E1F792E09093F7069FEF9093F606F2
:103C00001092D4064093D506442369F0E0E0F0E03A
:103C1000DF01AA52B94FEB01CE0FDF1F98819C93B1
:103C20003196E417A8F390E0880F991F8093D3068C
:103C300085EE8093BC00222381F48091F6068F3FAD
:103C4000A1F08091F6068032C1F08091F6068033B3
:103C5000B1F084E0DF91CF9108958091F706823032
:103C6000E1F38091F6068F3F61F780E0DF91CF911D
:103C7000089581E0DF91CF91089582E0EBCF83E05A
:103C8000E9CF6132D0F42091F706243011F082E0C0
:103C9000089560931C07662371F020E030E0F9017D
:103CA000E15EF84FDC01A20FB31F4C9140832F5F00
:103CB0003F4F2617A0F380E0089581E00895909388
:103CC0001A0780931907089590931E0780931D0784
:103CD0000895882321F485E88093BC00089585EC3D
:103CE0008093BC00089585ED8093BC008091BC005A
:103CF00084FDFCCF1092F706089585EC8093BC00FC
:103D00001092F70608951F920F920FB60F9211248A
:103D10002F933F934F935F936F937F938F939F93D3
:103D2000AF93BF93EF93FF938091B90090E0A0E031
:103D3000B0E0887F9070A070B070893C910598F5D4
:103D40008C5C9F4FFC01EE0FFF1F0590F491E02D5E
:103D5000099484E08093F70610921B0710921C07C9
:103D6000E0911D07F0911E07099580911C0788239B
:103D700029F481E080931C0710921F0780911B0794
:103D8000E82FF0E0E15EF84F90819093BB008F5FE9
:103D900080931B0790911B0780911C079817C8F40C
:103DA00085EC8093BC00FF91EF91BF91AF919F9103
:103DB0008F917F916F915F914F913F912F910F90D4
:103DC0000FBE0F901F9018958091F806803208F46E
:103DD0009CC085E88093BC00E6CF8091D40690918A
:103DE000BB00E82FF0E0EA52F94F90838F5F809399
:103DF000D4069091D4068091D506981750F7D0CF6D
:103E00008091D4069091BB00E82FF0E0EA52F94F80
:103E100090838F5F8093D40685ED8093BC00809162
:103E2000BC0084FDFCCF1092F706BDCF85EC8093DB
:103E3000BC001092F706B7CF83E08093F70610928C
:103E4000F80685EC8093BC00AECF1092F60685EDA7
:103E50008093BC008091BC0084FDFCCFE4CF8091B6
:103E6000D3068093BB0085EC8093BC009CCF9091DF
:103E7000D4068091D506981708F45EC085ED80932E
:103E8000BC008091BC0084FDFCCFCDCF80E280934C
:103E9000F60685ED8093BC008091BC0084FDFCCFCC
:103EA000C2CF8091F806803208F43FC085ED809340
:103EB000BC008091BC0084FDFCCF1092F70660919D
:103EC000F806E0911907F0911A0789EF96E070E083
:103ED00009951092F80685EC8093BC001092F706C5
:103EE00062CF80E38093F60685ED8093BC008091DD
:103EF000BC0084FDFCCF97CF88E38093F60685EC69
:103F00008093BC001092F7064ECF8091F8069091F6
:103F1000BB00E82FF0E0E750F94F90838F5F80936C
:103F2000F80685EC8093BC003ECFE091F806F0E007
:103F3000E750F94F1082BACF8091D406E82FF0E015
:103F4000EA52F94F90819093BB008F5F8093D40623
:103F500085EC8093BC0027CFEF92FF920F931F93C5
:103F60007B018C0120E030E040E05FE40E942C23E4
:103F700088238CF0C801B70120E030E040E05FE426
:103F80000E9428210E94E9239B01AC01205030406F
:103F90004040504806C0C801B7010E94E9239B0178
:103FA000AC01B901CA011F910F91FF90EF900895E4
:103FB000A0E0B0E0EEEDFFE10C94F426FC012B0153
:103FC000EA018081823008F43DC1DB019C9192308E
:103FD00008F437C1843069F4943009F033C1918119
:103FE00011968C911197981709F42CC1E1E7F1E033
:103FF00029C1943009F425C19230A9F4823009F026
:1040000021C19F0188E0D9010D909D01DA010D9237
:10401000AD018150C1F7D20111968C911197918118
:10402000892389830CC1823009F40BC18281938179
:10403000DB0112964D915C911397E480F580068127
:1040400017811496AD90BD90CD90DC9017979C0190
:10405000241B350BB90137FF04C066277727621B85
:10406000730B603271050CF062C0121613066CF50A
:1040700035014601062E04C0969487947794679480
:104080000A94D2F721E030E040E050E004C0220F73
:10409000331F441F551F6A95D2F7215030404040CE
:1040A00050402A213B214C215D212115310541053C
:1040B000510521F021E030E040E050E059016A0173
:1040C000A628B728C828D9283DC021153105D1F127
:1040D000860F971F37014801062E04C096948794D7
:1040E000779467940A94D2F721E030E040E050E002
:1040F00004C0220F331F441F551F6A95D2F7215069
:104100003040404050402E213F2140235123211573
:1041100031054105510521F021E030E040E050E05B
:1041200079018A01E628F728082919290BC04817C0
:1041300059072CF0CA01EE24FF24870103C0AA24EA
:10414000BB2465012181F2013181231709F44AC0A2
:10415000222349F0A60195012E193F09400B510B6E
:1041600079018A0104C0EA18FB080C091D0917FD32
:104170000CC019829B838A83EC82FD820E831F838D
:104180008C819D81AE81BF811AC021E029839B83F0
:104190008A8388279927DC018E199F09A00BB10B10
:1041A0008C839D83AE83BF83EBCF880F991FAA1F9B
:1041B000BB1F2A813B81215030403B832A839C01D5
:1041C000AD0121503040404050402F3F6FEF360747
:1041D0006FEF46076FE3560740F38C839D83AE83F2
:1041E000BF830BC029839B838A83EA0CFB1C0C1DB5
:1041F0001D1DEC82FD820E831F8383E088832C814A
:104200003D814E815F8157FF1AC0C901AA2797FDE2
:10421000A095BA2F81709070A070B0705695479598
:1042200037952795822B932BA42BB52B8C839D83BD
:10423000AE83BF838A819B8101969B838A83FE0123
:1042400001C0F201CF01CDB7DEB7E0E10C94102739
:10425000A0E2B0E0EEE2F1E20C94FE2669837A83FC
:104260008B839C832D833E834F835887E9E0EE2E1A
:10427000F12CEC0EFD1ECE010196B7010E94DB254C
:104280008E010F5E1F4FCE010596B8010E94DB25FF
:104290008A8991E089278A8BC701B801AE01475E00
:1042A0005F4F0E94D81F0E940C25A096E6E00C9458
:1042B0001A27A0E2B0E0EFE5F1E20C94FE26698354
:1042C0007A838B839C832D833E834F835887F9E0C9
:1042D000EF2EF12CEC0EFD1ECE010196B7010E94CF
:1042E000DB258E010F5E1F4FCE010596B8010E949F
:1042F000DB25C701B801AE01475E5F4F0E94D81FA2
:104300000E940C25A096E6E00C941A27A0E2B0E0EB
:10431000ECE8F1E20C94F22669837A838B839C8328
:104320002D833E834F835887CE010196BE01675F80
:104330007F4F0E94DB25CE010596BE016F5E7F4F49
:104340000E94DB259985923088F089898230C8F0F7
:10435000943019F4823051F404C0843029F492303E
:1043600081F481E791E0C4C0923049F480E02A856D
:104370009A89291381E08A87CE010996B9C08230D3
:1043800049F480E02A859A89291381E08A8BCE013D
:104390004196AEC06D847E848F849888AD88BE8837
:1043A000CF88D88C60E070E080E090E0DC01EE2403
:1043B000FF24870120E030E0A901F301E170F070F3
:1043C0003097C9F02A0D3B1D4C1D5D1D8E0D9F1DA4
:1043D000A01FB11F2224332421012A153B054C05BF
:1043E0005D0528F4E1E02E2E312C412C512C820D5C
:1043F000931DA41DB51DEE0CFF1C001F111FD7FE41
:1044000009C0E1E02E2E312C412C512CE228F3285A
:10441000042915296F5F7F4F6032710549F0AA0C9E
:10442000BB1CCC1CDD1C9694879477946794C5CFF5
:104430006B897C89EB85FC856E0F7F1F6E5F7F4FDC
:104440007C8F6B8F1A8E7A856A89761711F061E0FE
:104450006A8F6B8D7C8D10C0FC01E170F07030971D
:1044600029F056954795379527955068B695A795A5
:10447000979587956F5F7F4FB7FDEECF0CC0880F84
:10448000991FAA1FBB1F57FD8160220F331F441FB6
:10449000551F615070408030E0E09E07E0E0AE07BD
:1044A000E0E4BE0760F36B8F7C8F6FE7E62EF12CA4
:1044B000012D112DE822F9220A231B2360E4E616C0
:1044C000F1040105110561F487FD0AC021153105CC
:1044D0004105510529F0805C9F4FAF4FBF4F807859
:1044E0008D8F9E8FAF8FB8A383E0898FCE014996C1
:1044F0000E940C25A096E2E10C940E27A8E1B0E002
:10450000E4E8F2E20C94FA2669837A838B839C8335
:104510002D833E834F8358878E01075F1F4FCE0147
:104520000196B8010E94DB2581E1E82EF12CEC0E0A
:10453000FD1ECE010596B7010E94DB2599859230BC
:1045400008F483C08989823010F487017EC02A85EF
:104550003A8923272A87943011F0923031F4981742
:1045600009F070C001E711E070C0843039F41D8695
:104570001E861F86188A1C861B8667C0823019F427
:1045800084E0898762C08B859C852B893C89821B4E
:10459000930B9C878B872D853E854F855889AD88E9
:1045A000BE88CF88D88C2A153B054C055D0538F4AC
:1045B000220F331F441F551F01979C878B8760E094
:1045C00070E0E12CF12C012DA0E41A2F80E090E0A6
:1045D000DC012A153B054C055D0540F08E299F291D
:1045E000A02BB12B2A193B094C095D09169507959B
:1045F000F794E794220F331F441F551F6F5F7F4FBF
:104600006F31710531F76FE7E62EF12C012D112D79
:10461000E822F9220A231B2360E4E616F1040105CF
:10462000110561F487FD0AC02115310541055105C9
:1046300029F0805C9F4FAF4FBF4F80788D879E875A
:10464000AF87B88B8E01075F1F4FC8010E940C25F2
:104650006896EAE00C941627A8E1B0E0E2E3F3E202
:104660000C94FE2669837A838B839C832D833E83FF
:104670004F83588789E0E82EF12CEC0EFD1ECE0109
:104680000196B7010E94DB258E010F5E1F4FCE0100
:104690000596B8010E94DB258985823040F0898922
:1046A000823028F0C701B8010E944A2601C08FEF6E
:1046B0006896E6E00C941A27A8E1B0E0E2E6F3E29F
:1046C0000C94FE2669837A838B839C832D833E839F
:1046D0004F83588789E0E82EF12CEC0EFD1ECE01A9
:1046E0000196B7010E94DB258E010F5E1F4FCE01A0
:1046F0000596B8010E94DB258985823040F08989C2
:10470000823028F0C701B8010E944A2601C081E02A
:104710006896E6E00C941A27A8E0B0E0E2E9F3E23C
:104720000C94FC2623E029839B01AC01222757FD32
:1047300023953327442755272A8361157105810561
:10474000910519F482E089833CC02223A9F06030EE
:1047500020E0720720E0820720E8920729F460E059
:1047600070E080E09FEC31C0EE24FF248701E61A60
:10477000F70A080B190B02C07B018C018EE1C82ED1
:10478000D12CDC82CB82ED82FE820F831887C80198
:10479000B7010E94B4249C01215030401216130628
:1047A00084F4022E04C0EE0CFF1C001F111F0A949B
:1047B000D2F7ED82FE820F831887C21AD30ADC82F9
:1047C000CB82CE0101960E940C252896E8E00C943D
:1047D0001827ACE0B0E0EFEEF3E20C940227698317
:1047E0007A838B839C83CE010196BE016B5F7F4FE2
:1047F0000E94DB258D81823061F1823050F184305E
:1048000021F48E81882349F12DC02F81388537FD11
:1048100020C06E812F3131051CF06623F1F022C0DB
:104820008EE190E0821B930B29853A854B855C8550
:1048300004C056954795379527958A95D2F76623F4
:10484000A9F050954095309521953F4F4F4F5F4FC0
:104850000DC020E030E0A90109C02FEF3FEF4FEF7E
:104860005FE704C020E030E040E050E8B901CA0151
:104870002C96E2E00C941E27A8E0B0E0E2E4F4E21B
:104880000C94FC267B018C011A826115710581054F
:10489000910519F482E089835FC083E089838EE10A
:1048A000C82ED12CDC82CB82ED82FE820F8318874A
:1048B000C801B7010E94B4249C012150304037FF49
:1048C00038C0EE27FF27E21BF30B40E050E0BA01AF
:1048D00081E090E0A0E0B0E00E2E04C0880F991FA8
:1048E000AA1FBB1F0A94D2F70197A109B1098E2113
:1048F0009F21A023B1230097A105B10521F041E03C
:1049000050E060E070E004C016950795F794E794D6
:10491000EA95D2F7E42AF52A062B172BED82FE82C0
:104920000F8318878EE190E0821B930B9C838B830F
:1049300013C02115310581F0022E04C0EE0CFF1CBE
:10494000001F111F0A94D2F7ED82FE820F83188791
:10495000C21AD30ADC82CB82CE0101960E940C25BA
:104960002896E8E00C941827AF92BF92CF92DF927E
:10497000EF92FF920F931F937B018C0180E0E8166A
:1049800080E0F80681E0080780E0180780F48FEFE8
:10499000E816F1040105110531F028F088E090E0F7
:1049A000A0E0B0E016C080E090E0DC0112C080E042
:1049B000E81680E0F80680E0080781E0180728F094
:1049C00088E190E0A0E0B0E004C080E190E0A0E0E9
:1049D000B0E020E230E040E050E0281B390B4A0B09
:1049E0005B0B5701680104C0D694C794B794A79491
:1049F0008A95D2F7F501E758FE4F8081281B3109CF
:104A000041095109C9011F910F91FF90EF90DF906B
:104A1000CF90BF90AF900895CF92DF92EF92FF9228
:104A20000F931F93FC0124813581468157810181B9
:104A30008081823020F440618FEF90E0A2C084300A
:104A400009F49AC0823019F480E090E097C02115F3
:104A500031054105510519F480E090E092C0828152
:104A600093816FEF823896070CF058C062E87FEFB1
:104A7000681B790B6A31710524F020E030E0A90150
:104A80002AC069017A01062E04C0F694E794D794EF
:104A9000C7940A94D2F781E090E0A0E0B0E004C0AF
:104AA000880F991FAA1FBB1F6A95D2F70197A1090A
:104AB000B10982239323A423B5230097A105B1054F
:104AC00021F081E090E0A0E0B0E09C01AD012C2954
:104AD0003D294E295F29DA01C9018F779070A070B6
:104AE000B07080349105A105B10539F427FF09C0E4
:104AF000205C3F4F4F4F5F4F04C0215C3F4F4F4FF3
:104B00005F4F80E090E0203060E0360760E04607CD
:104B100060E4560748F181E090E026C080389105B6
:104B20005CF581589F4F7FE7C72ED12CE12CF12CEB
:104B3000C222D322E422F52260E4C616D104E104A5
:104B4000F10439F427FF09C0205C3F4F4F4F5F4FFE
:104B500004C0215C3F4F4F4F5F4F57FF05C0569534
:104B6000479537952795019697E056954795379540
:104B700027959A95D1F705C08FEF90E020E030E0BF
:104B8000A901782F779577277795142F1F77602FB6
:104B90006795662767958695F12FF72BE82FE62B0B
:104BA000622F732F8F2F9E2F1F910F91FF90EF90E9
:104BB000DF90CF900895FC01DB012081318182815B
:104BC000482F4F7750E0982F991F9927991F63819D
:104BD000862F880F892B90E0661F6627661F119627
:104BE0006C931197009769F5211531054105510521
:104BF00011F482E02FC082E89FEF13969C938E936E
:104C0000129767E0220F331F441F551F6A95D1F793
:104C100083E08C930DC0220F331F441F551F129643
:104C20008D919C911397019713969C938E93129755
:104C3000203080E0380780E0480780E4580758F3C8
:104C400022C08F3F910579F42115310541055105A9
:104C500019F484E08C93089544FF03C081E08C93A1
:104C600012C01C9210C08F57904013969C938E9345
:104C7000129783E08C9387E0220F331F441F551F48
:104C80008A95D1F7506414962D933D934D935C9380
:104C900017970895EF92FF920F931F93FC01DB018A
:104CA0008081823008F447C09C91923008F443C060
:104CB000843051F481819430A1F511962C91119793
:104CC00030E0281B31093FC0943021F0823031F4AC
:104CD0009230B9F111968C9111972BC0818192304D
:104CE00001F111969C9111978917D9F44281538152
:104CF00012962D913C9113972417350794F0421783
:104D00005307BCF0E480F5800681178114962D913D
:104D10003D914D915C9117972E153F054007510726
:104D200018F4882341F00AC0E216F30604071507B9
:104D300040F4882319F021E030E005C02FEF3FEF69
:104D400002C020E030E0C9011F910F91FF90EF9069
:104D50000895AA1BBB1B51E107C0AA1FBB1FA617C2
:104D6000B70710F0A61BB70B881F991F5A95A9F714
:104D700080959095BC01CD01089597FB092E0726DB
:104D80000AD077FD04D0E5DF06D000201AF4709534
:104D900061957F4F0895F6F7909581959F4F0895FF
:104DA000A1E21A2EAA1BBB1BFD010DC0AA1FBB1F2F
:104DB000EE1FFF1FA217B307E407F50720F0A21BA1
:104DC000B30BE40BF50B661F771F881F991F1A940E
:104DD00069F760957095809590959B01AC01BD0138
:104DE000CF0108952F923F924F925F926F927F92E0
:104DF0008F929F92AF92BF92CF92DF92EF92FF92EB
:104E00000F931F93CF93DF93CDB7DEB7CA1BDB0B96
:104E10000FB6F894DEBF0FBECDBF09942A8839883B
:104E200048885F846E847D848C849B84AA84B98442
:104E3000C884DF80EE80FD800C811B81AA81B9814E
:104E4000CE0FD11D0FB6F894DEBF0FBECDBFED0162
:104E50000895EE0FFF1F0590F491E02D0994EF9255
:104E6000FF920F931F93CF93DF93689F8001699FF9
:104E7000100D789F100D1124C8010E945427E82EB0
:104E8000E7017E01F92EE701E114F10431F08E2DE6
:104E900060E070E0A8010E94A6297E01CE01CDB796
:104EA000DEB7E6E00C941A27EF92FF920F931F9360
:104EB000CF93DF938230910510F482E090E0C091AF
:104EC0004107D091420720E030E040E050E029C0A7
:104ED0006881798168177907D8F06817790779F4BC
:104EE0008A819B812115310521F0F9019383828309
:104EF00004C09093420780934107DE012AC0411508
:104F0000510519F06417750718F4FE01AB01D901BA
:104F10009E017A816B81E72EE7017E01062FF62E36
:104F2000E7012097A9F641155105F9F0481B590BE7
:104F30004430510580F482819381109729F01396B3
:104F40009C938E93129704C09093420780934107DD
:104F5000DF01129645C0DF01A40FB51F8D939D930D
:104F600042505040518340833BC020913F073091D5
:104F700040072115310541F420917B0230917C02DC
:104F80003093400720933F0720917D0230917E02AD
:104F90002115310541F42DB73EB74091790250916A
:104FA0007A02241B350BA0913F07B0914007A2174E
:104FB000B307A0F42A1B3B0B2817390778F0AC0184
:104FC0004E5F5F4F2417350748F04A0F5B1F509321
:104FD000400740933F078D939D9302C0A0E0B0E04F
:104FE000CD01CDB7DEB7E6E00C941A27CF93DF935F
:104FF000009709F48FC0FC013297138212826091EE
:105000004107709142076115710581F4208131815A
:10501000280F391F80913F0790914007821793070F
:1050200061F5F0934007E0933F0774C0EB0180E027
:1050300090E0CE17DF0740F42A813B81CE01211595
:10504000310501F1E901F5CFD383C283DF014D9131
:105050005D919D01240F351FC217D30761F428818C
:105060003981240F351F2E5F3F4F318320832A81E2
:105070003B8133832283009729F4F0934207E09326
:10508000410748C0DC011396FC93EE931297EC01A4
:1050900049915991C40FD51FEC17FD0779F4208170
:1050A0003181240F351F2E5F3F4F11963C932E9375
:1050B0002281338113963C932E931297E0E0F0E027
:1050C000DB0112968D919C911397009721F0E62FAA
:1050D000F72FBC01F5CF9B012E5F3F4FDB018D9178
:1050E0009C911197820F931F40913F075091400769
:1050F0004817590779F4309729F410924207109213
:10510000410702C013821282225030403093400780
:1051100020933F07DF91CF910895A0E0B0E0E3E94D
:10512000F8E20C94F626EC01CB01209741F40E94A2
:105130005427E82EE7017E01F92EE701B9C0BEEF42
:10514000EB2EBFEFFB2EEC0EFD1EAE01460F571FE0
:105150004E155F0508F4AAC0D7012D913C91119717
:1051600026173707C0F02530310508F4A1C0B90172
:10517000645070406817790708F49AC02250304094
:10518000281B390BFA01219331938D939C93CF0106
:105190000E94F6278DC06B01C21AD30A5E01A20ECF
:1051A000B31EE0914107F09142076624772400E0A6
:1051B00010E045C0EA15FB05B9F560817181A2E0F8
:1051C0008A2E912C860E971E8C149D0468F18B01FB
:1051D0000C191D090E5F1F4FB280A3800530110509
:1051E00060F0FA01B282A3826C197D097183608339
:1051F000D70111969C938E9309C02E5F3F4F260FC7
:10520000371FF70131832083EB2DFA2D61147104D0
:1052100031F0D3011396FC93EE93129749C0F093AB
:105220004207E093410744C0608171810617170768
:1052300008F48B013F0172816381E72FF62F3097CD
:1052400009F0B8CF20913F07309140072A153B0560
:10525000E9F408171907D0F420917D0230917E02FD
:105260002115310541F42DB73EB760917902709157
:105270007A02261B370B42175307C0F4509340079E
:1052800040933F07F7019183808312C00E94542707
:105290008C01009759F0D7014D915C91BE010E949D
:1052A0009D29CE010E94F627E80102C0C0E0D0E0AF
:1052B000CE01CDB7DEB7EEE00C9412271F93FC01B0
:1052C00099278827BC01E89411911032E9F319302D
:1052D00010F01E30C8F31B3251F01D3249F46894AF
:1052E00006C00E946A2A610F711D811D911D1191D6
:1052F00010531A30B0F33EF49095809570956195F7
:105300007F4F8F4F9F4F1F910895911119C3803286
:1053100019F089508550D0F708959111089581545E
:105320008A5108F4805E855A089591110895815636
:105330008A5108F4805285580895FB01DC0102C0AF
:1053400001900D9241505040D8F70895DC0101C002
:105350006D9341505040E0F70895FB01DC010D9042
:105360000020E9F7119701900D920020E1F70895D0
:10537000FC018191861721F08823D9F79927089598
:105380003197CF010895FB01DC018D9101908019C7
:105390000110D9F3990B0895FB01DC0101900D92E6
:1053A0000020E1F70895FB01DC014150504030F04E
:1053B0008D910190801919F40020B9F7881B990B81
:1053C0000895FB01DC014150504048F001900D92DE
:1053D0000020C9F701C01D9241505040E0F70895E8
:1053E000FC0181E090E00190061609F4CF01002055
:1053F000D1F701970895FB0151915523A9F0BF0101
:10540000DC014D9145174111E1F759F4CD010190AF
:10541000002049F04D9140154111C9F3FB014111A4
:10542000EFCF81E090E001970895FB019F01E894A0
:105430004230C4F04532B4F44A3029F497FB1EF4EC
:10544000909581959F4F642F77270E94A926805DB4
:105450008A330CF0895D8193CB010097A1F716F494
:105460005DE251931082C9010C94B92CFA01CF93DB
:10547000FF93EF93223044F1253234F5C22FE894A4
:10548000CA3049F497FB3EF49095809570956195EC
:105490007F4F8F4F9F4F2C2F332744275527FF9344
:1054A000EF930E94D026EF91FF91605D6A330CF07C
:1054B000695D6193B901CA016050704080409040BD
:1054C00051F716F4CDE2C19310828F919F91CF9145
:1054D0000C94B92C592F482F372F262F660F771F82
:1054E000881F991F660F771F881F991F620F731FF0
:1054F000841F951F660F771F881F991F0895FA0153
:10550000CF93FF93EF932230CCF02532BCF4C22F1F
:105510002C2F332744275527FF93EF930E94D02643
:10552000EF91FF91605D6A330CF0695D6193B901A1
:10553000CA01605070408040904051F710828F91B6
:105540009F91CF910C94B92CAEE0B0E0EAEAFAE278
:105550000C9400270D891E8986E08C831A830983A9
:105560008FEF9FE79E838D839E01275E3F4FCE0185
:1055700001966F89788DA9010E94C72AEF81F8856D
:10558000E00FF11F10822E96E4E00C941C27ACE093
:10559000B0E0EDECFAE20C94F3266C012B018A01E9
:1055A000FC0117821682838181FD03C02FEF3FEF3C
:1055B000C2C14E010894811C911C6FE3362EF60186
:1055C0009381F20193FD859193FF81912F018823AF
:1055D00009F4AEC1853239F493FD859193FF819131
:1055E0002F01853229F490E0B6010E94C92CE7CF43
:1055F000EE24FF2420E02032B0F48B3269F08C32AC
:1056000028F4803251F0833271F40BC08D3239F0BE
:10561000803349F421602CC02260246029C02860B6
:1056200027C0206125C027FD2CC0382F30533A30C9
:1056300098F426FF08C08E2D880FE82EEE0CEE0C95
:10564000E80EE30E15C08F2D880FF82EFF0CFF0C0F
:10565000F80EF30E20620CC08E3221F426FD68C1D4
:10566000206406C08C3611F4206802C0883649F4E4
:10567000F20193FD859193FF81912F01882309F019
:10568000BACF982F9554933018F09052933020F45D
:105690000C5F1F4F39820DC0833631F0833771F0B4
:1056A000833509F058C01EC0F801808189830E5FE0
:1056B0001F4F540151E0652E712C12C0F801A080DB
:1056C000B18026FD03C06FEF7FEF02C06E2D70E04A
:1056D0000E5F1F4FC5012C870E94AE2C3C012C850C
:1056E0002F7713C0F801A080B18026FD03C06FEFB3
:1056F0007FEF02C06E2D70E00E5F1F4FC5012C873B
:105700000E94A32C3C012C85206823FF09C01FC0E8
:1057100080E290E0B6012C870E94C92CFA942C8577
:105720008F2D90E06816790698F311C0F50127FDDA
:10573000859127FF81915F0190E0B6012C870E943F
:10574000C92C2C85F110FA94089461087108611431
:10575000710461F7EAC0843611F0893651F527FFEC
:1057600008C0F80160817181828193810C5F1F4FB5
:105770000AC0F80140815181BA01882777FD8095E0
:10578000982F0E5F1F4F4FE6B42EB22297FF09C02D
:1057900090958095709561957F4F8F4F9F4FF0E862
:1057A000BF2AA4012AE030E00E94F52C782E781858
:1057B00043C0853731F43FEEB32EB2222AE030E009
:1057C00023C099EFB92EB2228F3661F0803720F4D2
:1057D000883509F0ADC012C0803739F0883709F03C
:1057E000A7C005C028E030E00FC020E1B22AB4FE17
:1057F00002C084E0B82A20E130E006C0B4FE02C056
:10580000E6E0BE2A20E132E0B7FE08C0F801608180
:105810007181828193810C5F1F4F07C0F801608105
:10582000718180E090E00E5F1F4FA4010E94F52C73
:10583000782E7818FFE7BF22B6FE0BC02EEFB222FB
:105840007E1438F4B4FE07C0B2FC05C08FEEB82257
:1058500002C0A72C01C0AE2C8B2DB4FE0DC0FE01E2
:10586000E70DF11D9081903319F4E9EEBE2207C0D7
:10587000A394B2FE04C002C0867809F0A3946B2CF6
:10588000B3FC14C0B0FE0FC0AF1410F0E72C0BC077
:10589000E72CEF0CEA18AF2C06C080E290E0B601CE
:1058A0000E94C92CA394AF14C0F304C0AF1410F429
:1058B000FA1801C0FF2464FE0FC080E390E0B60137
:1058C0000E94C92C62FE1DC061FC03C088E790E005
:1058D0000EC088E590E00BC0862D867891F061FEC1
:1058E00002C08BE201C080E2B7FC8DE290E0B6011D
:1058F0000E94C92C06C080E390E0B6010E94C92C2A
:10590000EA947E14C0F37A94F401E70DF11D8081CE
:1059100090E0B6010E94C92C7720A9F706C080E26A
:1059200090E0B6010E94C92CFA94FF20C1F747CE3F
:10593000F60126813781C9012C96E1E10C940F27ED
:10594000992788270895FC01059061507040011047
:10595000D8F7809590958E0F9F1F0895FC01615098
:10596000704001900110D8F7809590958E0F9F1F81
:105970000895DC01FC01672F71917723E1F73297DD
:1059800004C07C916D9370836291AE17BF07C8F31A
:1059900008950F931F93CF93DF938C01EB018B81BD
:1059A00081FF1BC082FF0DC02E813F818C819D81B4
:1059B0002817390764F4E881F9810193F983E883B2
:1059C00006C0E885F985802F0995009731F48E810E
:1059D0009F8101969F838E8302C00FEF1FEFC80146
:1059E000DF91CF911F910F910895FA01AA272830D6
:1059F00051F1203181F1E8946F936E7F6E5F7F4F9C
:105A00008F4F9F4FAF4FB1E03ED0B4E03CD0670F17
:105A1000781F891F9A1FA11D680F791F8A1F911D6A
:105A2000A11D6A0F711D811D911DA11D20D009F4BA
:105A300068943F912AE0269F11243019305D3193FC
:105A4000DEF6CF010895462F4770405D4193B3E0E5
:105A50000FD0C9F7F6CF462F4F70405D4A3318F08C
:105A6000495D31FD4052419302D0A9F7EACFB4E03D
:105A7000A6959795879577956795BA95C9F70097F5
:105A80006105710508959B01AC010A2E0694579596
:105A9000479537952795BA95C9F7620F731F841FED
:105AA000951FA01D089513E0C4EED3E004C0FE01CD
:105AB0000E942B272296C63ED107C9F7F894FFCF44
:105AC0003C6D2E722E692E722E202D2025643E0AEA
:105AD000003C6C2E722E692E722E202D2025643EE5
