:100000000C9416020C943E020C943E020C943E0298
:100010000C943E020C943E020C943E020C943E0260
:100020000C943E020C943E020C943E020C943E0250
:100030000C943E020C943E020C943E020C943E0240
:100040000C946A130C943E020C94A10D0C943E0285
:100050000C943E020C943E020C943E020C943E0220
:100060000C94C21F0C943E02642012201220122015
:1000700012201220122012206E2012201220122094
:1000800012201220122012206E2012201220122084
:10009000122012201220122076201220122012206C
:1000A000122012201220122085201220122012204D
:1000B000122012201220122076201220122012204C
:1000C0001220122012201220B02012201220122002
:1000D0001220122012201220BB20122012201220E7
:1000E000122012201220122038201220122012205A
:1000F00012201220122012204B2012201220122037
:1001000012201220122012202C2012201220122045
:1001100012201220122012203F2012201220122022
:1001200012201220122012205B20122012201220F6
:1001300012201220122012205B20122012201220E6
:1001400012201220122012205B20122012201220D6
:1001500012201220122012205B20122012201220C6
:1001600012201220122012202320122012201220EE
:1001700012201220122012202820122012201220D9
:1001800012201220122012202320122012201220CE
:1001900012201220122012202820122012201220B9
:1001A0001220122012201220902012201220122041
:1001B0001220122012201220E81F122012201220DA
:1001C0001220122012201220E81F122012201220CA
:1001D0001220122012201220FD1F122012201220A5
:1001E000122012201220122055201220122012203C
:1001F00012201220122012205520072C7AA5BA6C4A
:10020000C590DA3B9365FC8BBC53F810FD3C5692CD
:10021000834DBD879D3AB63DCBC9BF5BBE73DA0F38
:10022000C93F05A84CCDB2D44EB93836A9020C50FE
:10023000B9918688083CA6AAAA2ABE000000803F81
:10024000E6DBD9D7D5D3D2D0CECDCBC9C8C6C5C3AE
:10025000C2C0BFBEBCBBB9B8B7B6B4B3B2B1AFAE23
:10026000ADACABAAA8A7A6A5A4A3A2A1A09F9E9D42
:100270009C9B9A9998989796959493929291908F27
:100280008E8D8D8C8B8A8A898888878685858483E4
:1002900083828181807F7F7E7E7D7C7C7B7B7A797F
:1002A0007978787777767675747473737272717102
:1002B00070706F6F6E6E6D6D6D6C6C6B6B6A6A6972
:1002C00069696868676766666665656464646363D0
:1002D0006362626161616060605F5F5F5E5E5D5D21
:1002E0005D5C5C5C5B5B5B5B5A5A5A595959585868
:1002F00058575757575656565555555554545453A5
:100300005353535252525251515151505050504FD9
:100310004F4F4F4E4E4E4E4D4D4D4D4C4C4C4C4C08
:100320004B4B4B4B4A4A4A4A4A4949494949484832
:100330004848484747474747464646464645454555
:100340004545444444444444434343434343424275
:100350004242424141414141414140404040404090
:100360003F3F3F3F3F3F3E3E3E3E3E3E3E3D3D3DAA
:100370003D3D3D3D3C3C3C3C3C3C3C3B3B3B3B3BBE
:100380003B3B3A3A3A3A3A3A3A3A393939393939D1
:1003900039393838383838383838373737373737E1
:1003A00037373636363636363636363535353535F0
:1003B00035353535343434343434343434343333FB
:1003C0003333333333333332320000000024002719
:1003D000002A0000000000250028002B000000007B
:1003E0000023002600290004040404040404040279
:1003F00002020202020303030303030102040810C2
:10040000204080010204081020010204081020008E
:1004100000000700020100000304060000000000C5
:1004200000000000D803A508340FDD0311241FBE0F
:10043000CFEFD8E0DEBFCDBF12E0A0E0B1E0E6E450
:10044000F1E602C005900D92AA3DB107D9F717E079
:10045000AAEDB2E001C01D92AD39B107E1F714E099
:10046000CAE2D4E004C02297FE010E946A28C43286
:10047000D107C9F70E940E030C9496300C9400002B
:100480002F923F924F925F926F927F928F929F92A4
:10049000AF92BF92CF92DF92EF92FF920F931F9392
:1004A000DF93CF9300D000D0CDB7DEB73A83298356
:1004B0001801423008F442E050E09A0121503040E7
:1004C000220F331F8C01020F131FF801C080D1804F
:1004D000FA013297EE0FFF1FE80FF91FFC83EB8341
:1004E000E080F180620F731FFB016081718180E009
:1004F00090E00E947B250E94DC284B015C01EE9C71
:10050000B001EF9C700DFE9C700D1124CC9CC001BD
:10051000CD9C900DDC9C900D1124680F791F80E01C
:1005200090E00E947B252B013C01CE9CB001CF9C2A
:10053000700DDE9C700D1124660F771F80E090E037
:100540000E947B25A50194010E94C5229B01AC015C
:10055000C301B2010E9467220E940E2A0E94EB2072
:10056000AB01E981FA8171836083EB81FC81208199
:100570003181F80160817181229FC001239F900D1C
:10058000329F900D1124449FF001459FF00D549F20
:10059000F00D11248E0F9F1F669FF001679FF00DD5
:1005A000769FF00D1124440F551F429FB001439FC9
:1005B000700D529F700D11248E1B9F0B0E94E82717
:1005C00080E090E00E947B250E946E280E94EB2034
:1005D00080E090E00E947B2520EE3EE245E652E47A
:1005E0000E94C5220E94EB20F101718360830F906D
:1005F0000F900F900F90CF91DF911F910F91FF906F
:10060000EF90DF90CF90BF90AF909F908F907F90B2
:100610006F905F904F903F902F900895CF92DF9210
:10062000EF92FF920F931F93DF93CF9300D000D0F0
:10063000CDB7DEB70E941C1486EC96E040E051EE88
:1006400060E070E00E94360E80E00E94571413E0D4
:10065000E12EF12CEC0EFD1E82E491E068E471E0E5
:1006600042E06E010894C11CD11C960187010E94D2
:10067000400269817A8186EC96E04AE050E00E946F
:10068000901086EC96E060E071E00E9441116B8171
:100690007C8186EC96E04AE050E00E94901086EC67
:1006A00096E060E171E00E9441118EE491E064E522
:1006B00071E043E096010E94400269817A8186ECF4
:1006C00096E04AE050E00E94901086EC96E061E2ED
:1006D00071E00E9441116B817C8186EC96E04AE0DA
:1006E00050E00E94901086EC96E061E371E00E9479
:1006F0004111FFCF8130910509F053C08AED92E09E
:100700000E947F0480E090E0DC018093DE02909301
:10071000DF02A093E002B093E1028093E2029093A3
:10072000E302A093E402B093E50286E696E6A6E62D
:10073000BFE38093F6029093F702A093F802B09380
:10074000F9028AE097EDA3E2BCE38093FA0290936A
:10075000FB02A093FC02B093FD0280E090E0A0E8D1
:10076000BFE38093FE029093FF02A0930003B09337
:10077000010383E093E063E041E00E949D0C85E08B
:1007800093E064E041E00E949D0C87E093E068EC18
:1007900070E041E00E94990B8DE396E00E94A20771
:1007A0000895009721F48DE396E00E94A407089530
:1007B00081E090E00E947A03089580E090E00E943A
:1007C0007A030895FC01828193810895EF92FF924C
:1007D0000F931F93CF93DF93EC018C01698170E03D
:1007E0006E7F70707E019F2D0E945B12CE0163E4CC
:1007F00070E00E94EB12CE010E942813EE24FF2429
:100800008DE061E00E94421564EF71E080E090E0CD
:100810000E94E7138DE060E00E94421564EF71E0F2
:1008200080E090E00E94E7130894E11CF11C24E1B1
:10083000E216F10429F7698170E06E7F7070C801DB
:100840000E945B12C80165E470E00E94EB12C801CF
:100850000E9428138DE060E00E944215DF91CF9145
:100860001F910F91FF90EF900895EF92FF920F93D9
:100870001F93CF93DF93EC018DE061E00E9442155E
:100880008E01CE0169810E945112CE0161E470E0B7
:100890000E94EB12CE010E94281366E070E080E017
:1008A00090E00E94E7136981CE0170E042E050E0E1
:1008B0000E944513C8010E9465128823D9F3C8011C
:1008C0000E946B12F82EC8010E9465128823D9F38A
:1008D000C8010E946B123F2D20E0082F10E0022B70
:1008E000132B1B830A838DE060E00E944215C80130
:1008F000DF91CF911F910F91FF90EF900895EF92AC
:10090000FF92CF93DF93EC017E019F2D0E94501246
:1009100081E289838DE061E00E94F0148DE061E066
:100920000E944215CE010E9448138DE060E00E94B3
:100930004215DF91CF91FF90EF900895EF92FF92D3
:10094000CF93DF93EC017E019F2D0E94501281E234
:1009500089838DE061E00E94F0148DE061E00E94E7
:100960004215CE010E9448138DE060E00E944215BE
:10097000DF91CF91FF90EF900895CF92DF92EF92A9
:10098000FF920F931F93CF93DF938A0120E030E013
:10099000F801E20FF31F118210822E5F3F4F2A30C1
:1009A0003105B1F7CC24DD2420E030E0E0E0F0E0D8
:1009B00050E0EC01C20FD31F7B01E20EF31E099041
:1009C000D881C02DD701ED90FC901197CE19DF0989
:1009D000C536D10510F450E00EC0543058F0EF0188
:1009E000CC0FDD1FC00FD11FD982C8823196E530F0
:1009F000F10559F05F5F2E5F3F4FA2E1B0E0CA0EF4
:100A0000DB1EB1E020393B07A1F6DF91CF911F91AA
:100A10000F91FF90EF90DF90CF900895CF93DF93E9
:100A2000883C08F057C0613009F054C020913E0660
:100A300030913F06C82FD0E02C173D07DCF022C0D4
:100A400087E093E061E041E00E94DB0860913E06B0
:100A500070913F066F5F7F4F70933F0660933E0635
:100A60008DE396E00E94AD076AE070E080E090E0E0
:100A70000E94E71380913E0690913F068C179D07D8
:100A8000F9F628C0C217D307F4F024C087E093E03A
:100A900062E041E00E94DB0880913E0690913F06B3
:100AA000019790933F0680933E066AE070E080E0F5
:100AB00090E00E94E71360913E0670913F068DE33F
:100AC00096E00E94AD0780913E0690913F068C17FC
:100AD0009D07E1F680913E06DF91CF910895EF9258
:100AE000FF920F931F93CF93DF93F82E00E010E057
:100AF000C0E0D0E08F2D0E945A140F5F1F4F8C1B57
:100B00009D0BB8010E94FC27C60FD71F04361105A4
:100B100089F7CE01DF91CF911F910F91FF90EF9058
:100B200008951F93182F90E00E946F05112361F123
:100B30009C01123091F483E02633380718F026E93F
:100B400030E024C02139310518F424E130E01EC022
:100B500021553E4FF901249113C01330A9F4F2E05E
:100B60008B329F0718F024E630E010C0833A9105DD
:100B700018F42CEC31E00AC023563E4FF9012491C1
:100B800030E0220F331F02C020E030E0C9011F9186
:100B90000895CF92DF92EF92FF921F93CF93DF934E
:100BA0007C01EB0110E019C083E00E949105F60181
:100BB000EE0FFF1FEE0DFF1D9183808380E060E04C
:100BC0000E940E058F5F61E00E940E0564E670E0F2
:100BD00080E090E00E94E7131F5FC12EDD24CC1659
:100BE000DD0610F380E061E00E940E05DF91CF91F9
:100BF0001F91FF90EF90DF90CF9008950F931F9378
:100C0000CF93DF93EC0102C0C051DE402EE0C03133
:100C1000D207D0F785E093E066E90E946F0883E091
:100C200093E066E90E946F0885E093E061E00E942E
:100C3000080B83E093E062E00E94080B8AED92E0EB
:100C40000E9435048C010CC08AED92E00E943504AC
:100C50008C0186EC96E0B8014AE050E00E946211F7
:100C6000C017D10731F09E01201B310B2333310512
:100C700058F783E093E064E00E94080B85E093E07E
:100C800064E00E94080BDF91CF911F910F910895AE
:100C90004F925F926F927F928F929F92AF92BF928C
:100CA000CF92DF92EF92FF920F931F93CF93DF9338
:100CB0008C010E94B213EB018AED92E00E94350490
:100CC0009093DF028093DE02C8016AE070E00E9428
:100CD000E827062F172F83E093E06DE70E946F0847
:100CE00085E093E06DE70E946F0883E093E061E0A8
:100CF0000E94080B85E093E061E00E94080BFDE78D
:100D00004F2E512CF5C00E94B2136C157D058E0537
:100D10009F0510F4C0E0D0E00E94B2136E01EE24F3
:100D2000FF246C197D098E099F096B3071058105BF
:100D3000910548F30E94B2136C197D098E099F0931
:100D40006B3071058105910508F4D0C08AED92E001
:100D50000E9435042091DE023091DF02281B390BFE
:100D600087E02930380728F0E0EFCE2EE1EFDE2EC5
:100D700004C070E1C72E7EE0D72EC20ED31E809134
:100D8000F0029091F102C89EB001C99E700DD89EEC
:100D9000700D112480E090E00E947B256093E402B6
:100DA0007093E5028093E6029093E7022091E202BD
:100DB0003091E3022C0D3D1D3093E3022093E202BB
:100DC0006091F2027091F30284E690E00E94E827BD
:100DD0006217730728F47093E3026093E2020BC07A
:100DE00044275527461B570B2417350720F45093EB
:100DF000E3024093E2022091F2023091F3028091EB
:100E0000E2029091E302289FB001299F700D389F64
:100E1000700D112480E090E00E947B254B015C0165
:100E20006093E8027093E9028093EA029093EB02E8
:100E30006090DE027090DF022091E0023091E102CA
:100E4000C301821B930B9C018091F4029091F502E7
:100E5000289FB001299F700D389F700D112480E0EC
:100E600090E00E947B256B017C016093EC02709303
:100E7000ED028093EE029093EF027092E102609295
:100E8000E002C501B4012091E4023091E5024091F5
:100E9000E6025091E7020E949822A70196010E9463
:100EA00067220E94EB206B0163587F4F623371050C
:100EB00010F462E305C0693C710510F068EC70E065
:100EC00085E093E00E946F08B2016C197D096233DE
:100ED000710510F462E305C0693C710510F068EC1F
:100EE00070E02A9683E093E00E946F080150104062
:100EF0000115110509F010CF83E093E064E00E9432
:100F0000080B85E093E064E00E94080B83E093E027
:100F10006DE70E946F0885E093E06DE70E946F081F
:100F2000DF91CF911F910F91FF90EF90DF90CF90C5
:100F3000BF90AF909F908F907F906F905F904F90F9
:100F400008950895089508950895089508950895B9
:100F500086EC96E00E9441110895EF92FF920F9364
:100F60001F93CF93DF938B0180E490E061E070E00A
:100F70000E94722AE82EE7017E01F92EE114F104A5
:100F800029F100D000D000D0EDB7FEB73196ADB753
:100F9000BEB71296FC92EE9211978AE591E0938388
:100FA0008283158304830E94E72D2DB73EB72A5F05
:100FB0003F4F0FB6F8943EBF0FBE2DBF86EC96E0B4
:100FC000B7010E944111C7010E94392BDF91CF91D7
:100FD0001F910F91FF90EF900895EF92FF920F9362
:100FE0001F93CF93DF938B0180E490E061E070E08A
:100FF0000E94722AE82EE7017E01F92EE114F10425
:1010000029F100D000D000D0EDB7FEB73196ADB7D2
:10101000BEB71296FC92EE9211978BE691E0938305
:101020008283158304830E94E72D2DB73EB72A5F84
:101030003F4F0FB6F8943EBF0FBE2DBF86EC96E033
:10104000B7010E944111C7010E94392BDF91CF9156
:101050001F910F91FF90EF900895EF92FF920F93E1
:101060001F93CF93DF938B0180E490E061E070E009
:101070000E94722AE82EE7017E01F92EE114F104A4
:1010800029F100D000D000D0EDB7FEB73196ADB752
:10109000BEB71296FC92EE9211978CE791E0938383
:1010A0008283158304830E94E72D2DB73EB72A5F04
:1010B0003F4F0FB6F8943EBF0FBE2DBF86EC96E0B3
:1010C000B7010E944111C7010E94392BDF91CF91D6
:1010D0001F910F91FF90EF90089508950895FC01DE
:1010E0008081823071F0833028F0833069F0843061
:1010F00031F008958130E9F76093B300089568BD39
:1011000008956093B400089567BD0895CF93DF9369
:10111000EC0188819981689F9001699F300D789FCB
:10112000300D112440E050E060E077E883E993E07F
:101130000E940F282B833C834D835E831F82188679
:1011400019861A86DF91CF9108950895CF93DF9382
:101150008CE060E00E94421588E060E00E94421549
:10116000C7E0D0E00DC088E061E00E94421584E055
:1011700061E00E94421521973FEFCF3FD307A1F0D6
:1011800084E060E00E9442158091410690E00C2EC0
:1011900002C0959587950A94E2F780FDE4CF88E038
:1011A00060E00E944215E3CF8CE061E00E944215AE
:1011B000DF91CF910895DF92EF92FF920F931F93EB
:1011C000CF93DF93EC018A81813009F471C08230C2
:1011D00049F080E0DF91CF911F910F91FF90EF9048
:1011E000DF9008952EE191E2D92E30E450E8E1E05D
:1011F000F0E2413001F1423009F495C0433009F486
:10120000A2C09B85443021F5613009F4F3C09150B0
:101210009B879F739B87903108F099C0092F10E03E
:1012200068E971E0601B710BDB017C9108571E4F70
:10123000D8016C910FC09B85792F76957695769520
:1012400070FF9BC0613009F4DCC098509B879B8580
:101250007FEF6FEF9F739B87813009F45FC082300F
:1012600009F46EC080914106822380934106443088
:1012700091F1969596959695943009F4AFC0953076
:10128000F8F0963009F4AEC0963008F087C0352BE0
:10129000382B3093410680E496E00E94A6088B85A7
:1012A000DF91CF911F910F91FF90EF90DF90089504
:1012B00021EE36E0D32E30E158E0E2E0F4E099CFC1
:1012C000923009F493C0933008F462C05E2B582B1F
:1012D00050934106E0CF903118F48D298093410658
:1012E000892F8051803130F4E52B209141062E2B3F
:1012F00020934106892F8052803130F4532B209166
:101300004106252B209341069053903120F63F2B28
:1013100090914106932B90934106BDCF7093B300FB
:101320006093B4009FCF9B85792F769576957695BF
:1013300070FD29C0613009F447C098509B8788CF61
:1013400077BD68BD8FCF6130F1F19B85F6CF692FF6
:101350006051603150F1692F6052603108F055C022
:10136000092F10E068EB71E0601B710BDB017C91D1
:1013700008591E4FD8016C916DCF6130F1F1905139
:101380009B879B8565CF613011F190519B8760CF22
:10139000913001F18F2B809341067DCF9730D1F7AB
:1013A0003F2B382B3093410676CFE92EFF24B7012F
:1013B00068587E4FDB017C9108EA11E00E191F0985
:1013C000D8016C9147CF9B85985F9B8741CF905FF9
:1013D0009B873ECF8D29809341065DCF852B8093DF
:1013E000410659CF832B8093410655CF8E2B809396
:1013F000410651CF9F5F9B870CCF905F9B879B855A
:1014000027CF985F9B879B8523CF692F60536031DF
:1014100018F070E060E01ECFE92EFF24B701685A93
:101420007E4FDB017C9108EC11E00E191F09D801F9
:101430006C9110CF5F926F927F928F929F92AF923A
:10144000BF92CF92DF92EF92FF920F931F93CF93B1
:10145000DF93EC018B01542EF22E8B809C80AD80AB
:10146000BE8023E0F21609F4A5C084E0F81609F462
:10147000A6C0C501B40128EE33E040E050E00E9470
:101480000F28722EC32ED42EE52EC501B40128EEEE
:1014900033E040E050E00E940F284B015C016624DD
:1014A00002C0015010400115110599F1CE01652DC2
:1014B0004F2D0E94DB08682E672D7C2D8D2D9E2DD3
:1014C0000E94E7138F819885A985BA85880D991D9B
:1014D000AA1DBB1D8F839887A987BA87883E23E002
:1014E000920720E0A20720E0B207D8F261E070E0A6
:1014F00080E090E00E94E7138F819885A985BA85E6
:10150000885E9340A040B0408F839887A987BA87B0
:10151000C8CF84E0F81681F0DF91CF911F910F9131
:10152000FF90EF90DF90CF90BF90AF909F908F9003
:101530007F906F905F900895662071F320E16216AE
:1015400019F4EACF003141F3CE01652D44E00E9449
:10155000DB08082F672D7C2D8D2D9E2D0E94E71313
:101560008F819885A985BA85880D991DAA1DBB1DF7
:101570008F839887A987BA87883E23E0920720E067
:10158000A20720E0B20790F061E070E080E090E018
:101590000E94E7138F819885A985BA85885E93405C
:1015A000A040B0408F839887A987BA87002309F4A9
:1015B000B3CFC8CFB694A794979487945ACF54E0EA
:1015C000B694A794979487945A95D1F7029512955B
:1015D000107F1027007F10274CCFFC0182818130C3
:1015E00069F0823009F00895809141068E718093F0
:1015F000410680E496E00E94A60808958091410685
:10160000817E8093410680E496E00E94A6080895BA
:10161000FC018081823009F46AC0833030F083306D
:1016200009F462C0843039F108958130E9F783E02C
:1016300092E0623021F1643009F43BC06130A1F7DF
:1016400021E030E0A90102C0440F551F8A95E2F75E
:10165000842F8095A90102C0440F551F9A95E2F787
:1016600020914106242B82238093410680E496E05A
:101670000E94A608089586E090E06230E1F621E03D
:1016800030E0A90102C0440F551F9A95E2F7942F4C
:10169000909540914106942302C0220F331F8A95F2
:1016A000E2F7922B9093410680E496E00E94A60810
:1016B000089521E030E0A90102C0440F551F9A951A
:1016C000E2F7B90102C0660F771F8A95E2F7CB01F6
:1016D000842B80952091410628232093410680E4A5
:1016E00096E00E94A608089587E095E0A2CF84E0E6
:1016F00091E09FCFCF93DF93EC018CE061E00E94FB
:10170000F01487E061E00E94F01488E061E00E943C
:10171000F01484E061E00E94F01410924106CE01C2
:101720000E94A60887E060E00E944215DF91CF91F9
:101730000895EF92FF921F93CF93DF93EC017B010B
:10174000142F80E496E00E947A0BF982E8821A83D3
:101750001B861130D1F1123031F0DF91CF911F9102
:10176000FF90EF900895809141068E71809341061D
:1017700080E496E00E94A60885E061E00E94F014F3
:1017800086E061E00E94F01485E061E00E9442156D
:1017900086E061E00E94421584B5836884BD17BC71
:1017A00086E061E00E94F01484B5836284BD18BCB9
:1017B00085E061E00E94F0148FEF87BD88BDDF9166
:1017C000CF911F91FF90EF90089580914106817E07
:1017D0008093410680E496E00E94A6088BE061E0D9
:1017E0000E94F01483E061E00E94F0148BE061E05D
:1017F0000E94421583E061E00E9442158091B00092
:1018000083688093B0001093B1001092B3008BE016
:1018100061E00E94F0148091B00083628093B00078
:101820001093B1001092B40083E061E00E94F014C4
:101830008FEF8093B3008093B4008FCF1F93DF931B
:10184000CF930F92CDB7DEB7FC01142F6083418395
:1018500080E496E069830E947A0B6981623009F422
:1018600050C06330F0F46130B9F480914106837F59
:101870008093410680E496E00E94A6088091B00023
:1018800083688093B00017701093B1001092B3007A
:101890008BE061E00E94F0140F90CF91DF911F91D7
:1018A00008956330C1F06430B9F7809141068E7BB2
:1018B0008093410680E496E00E94A60884B5836286
:1018C00084BD18BC85E061E00E94F0140F90CF91B8
:1018D000DF911F910895809141068F758093410695
:1018E00080E496E00E94A60884B5836884BD17BC96
:1018F00086E061E00E94F0140F90CF91DF911F917C
:101900000895809141068D7E8093410680E496E0A3
:101910000E94A6088091B00083628093B000177087
:101920001093B1001092B40083E061E00E94F014C3
:101930000F90CF91DF911F9108951F93DF93CF9365
:101940000F92CDB7DEB7FC01142F6083418380E492
:1019500096E069830E947A0B6981623009F450C075
:101960006330F0F46130B9F480914106837F809355
:10197000410680E496E00E94A6088091B00083684A
:101980008093B00017701093B1001092B3008BE0F9
:1019900061E00E94F0140F90CF91DF911F910895A4
:1019A0006330C1F06430B9F7809141068E7B80933B
:1019B000410680E496E00E94A60884B5836284BD57
:1019C00018BC85E061E00E94F0140F90CF91DF9188
:1019D0001F910895809141068F758093410680E4A0
:1019E00096E00E94A60884B5836884BD17BC86E093
:1019F00061E00E94F0140F90CF91DF911F91089544
:101A0000809141068D7E8093410680E496E00E949D
:101A1000A6088091B00083628093B0001770109385
:101A2000B1001092B40083E061E00E94F0140F90C6
:101A3000CF91DF911F910895EF92FF921F93CF9363
:101A4000DF93EC017B01142F80E496E00E947A0B77
:101A5000F982E8821A831B861130D1F1123031F0FD
:101A6000DF91CF911F91FF90EF90089580914106F3
:101A70008E718093410680E496E00E94A60885E07E
:101A800061E00E94F01486E061E00E94F01485E0BD
:101A900061E00E94421586E061E00E94421584B533
:101AA000836884BD17BC86E061E00E94F01484B5B1
:101AB000836284BD18BC85E061E00E94F0148FEF62
:101AC00087BD88BDDF91CF911F91FF90EF90089562
:101AD00080914106817E8093410680E496E00E94D9
:101AE000A6088BE061E00E94F01483E061E00E94B0
:101AF000F0148BE061E00E94421583E061E00E94F7
:101B000042158091B00083688093B0001093B100BB
:101B10001092B3008BE061E00E94F0148091B0005D
:101B200083628093B0001093B1001092B40083E000
:101B300061E00E94F0148FEF8093B3008093B400B3
:101B40008FCF1F920F920FB60F9211242F933F93B6
:101B50004F935F936F938F939F93EF93FF93609156
:101B6000C6002091C2063091C306C90101968F7745
:101B700090704091C4065091C5068417950741F0B6
:101B80002E5B394FF90160839093C3068093C206A0
:101B9000FF91EF919F918F916F915F914F913F9145
:101BA0002F910F900FBE0F901F9018958F92AF92AC
:101BB000CF92DF92EF92FF920F931F93DF93CF9319
:101BC000CDB7DEB7FC018DE991E09183808373830B
:101BD0006283558344833783268311870087F38686
:101BE000E286D586C486A68687868D85808B8E857F
:101BF000818B8F85828BCF91DF911F910F91FF9009
:101C0000EF90DF90CF90AF908F9008958F92AF922A
:101C1000CF92DF92EF92FF920F931F93DF93CF93B8
:101C2000CDB7DEB7FC018DE991E0918380837383AA
:101C30006283558344833783268311870087F38625
:101C4000E286D586C486A68687868D85808B8E851E
:101C5000818B8F85828BCF91DF911F910F91FF90A8
:101C6000EF90DF90CF90AF908F900895CF93DF9358
:101C7000EC019A01AB01203081EE380780E0480783
:101C800080E0580709F448C0E885F98581E090E0D4
:101C90000A8802C0880F991F0A94E2F7808360E0E7
:101CA00079E08DE390E00E940F28215030404040C1
:101CB00050405695479537952795832FEC81FD81A8
:101CC0008083EE81FF812083EA85FB85808121E08E
:101CD00030E0A9010E8402C0440F551F0A94E2F7B8
:101CE000842B8083EA85FB858081A9010F8402C053
:101CF000440F551F0A94E2F7842B8083EA85FB8505
:101D00008081088802C0220F331F0A94E2F7822BD9
:101D10008083DF91CF910895E885F985108220E1D5
:101D200080E0CCCFFC01A285B3853C9181E090E0BE
:101D3000AC01068402C0440F551F0A94E2F7242F19
:101D4000209523232C93A285B3853C91AC01078475
:101D500002C0440F551F0A94E2F7242F2095232335
:101D60002C93A285B3852C91008802C0880F991FFF
:101D70000A94E2F7809582238C930895FC01828176
:101D80009381FC01E058FF4F208131818E579F4F96
:101D9000FC0180819181281B390B2F773070C9019C
:101DA0000895FC0182819381FC01EE57FF4F208151
:101DB0003181FC01E058FF4F4081518142175307A8
:101DC00039F0820F931FFC01208130E0C901089592
:101DD0002FEF3FEFC9010895DC0112968D919C9180
:101DE0001397FC01EE57FF4F40815181DC01A05851
:101DF000BF4F2D913C9111972417350769F0840F3F
:101E0000951FDC012C914F5F5F4F4F7750705183CE
:101E1000408330E0C90108952FEF3FEFC9010895D5
:101E2000DC0112968D919C911397FC01E058FF4FB5
:101E30008E579F4FDC018D919C91119791838083E8
:101E40000895FC01A085B18521898C9190E0022E36
:101E500002C0959587950A94E2F780FFF6CF048437
:101E6000F585E02D608308958DE991E09093C70694
:101E70008093C60682E496E09093C9068093C806D4
:101E800085EC90E09093CB068093CA0684EC90E0BA
:101E90009093CD068093CC0680EC90E09093CF0693
:101EA0008093CE0681EC90E09093D1068093D0068B
:101EB00086EC90E09093D3068093D20684E08093E2
:101EC000D40683E08093D50687E08093D60685E02C
:101ED0008093D70681E08093D80608950F931F93CF
:101EE000CF93DF93EC018B01FB016081662369F0E6
:101EF0000F5F1F4FE881F9810190F081E02DCE0145
:101F00000995F8016081662399F7DF91CF911F91C0
:101F10000F910895EF92FF920F931F93CF93DF934A
:101F2000EC018B017A014115510581F0F8016191B5
:101F30008F01E881F9810190F081E02DCE010995B2
:101F40000894E108F108E114F10481F7DF91CF91E1
:101F50001F910F91FF90EF900895DC01ED91FC919E
:101F60000280F381E02D09950895CF92DF92EF92E0
:101F7000FF920F931F93CF93DF937C018B01DB01C3
:101F800014968D919C9115970097C1F060E070E0D8
:101F9000C0E0D0E0D701ED91FC91C080D180C801B4
:101FA0000E94E215682FC701F60109952196BE012E
:101FB000F80184819581C817D90760F3DF91CF912B
:101FC0001F910F91FF90EF90DF90CF9008952F9287
:101FD0003F924F925F926F927F928F929F92AF92B9
:101FE000BF92CF92DF92EF92FF920F931F93DF93F6
:101FF000CF93CDB7DEB7A2970FB6F894DEBF0FBE72
:10200000CDBF9AA389A37A018B01411551056105C2
:10201000710509F455C0622E772488249924AA24D6
:10202000BB2465011E010894211C311C21014A0CAE
:102030005B1CC801B701A40193010E940F28F201A3
:1020400060830894A11CB11CC11CD11CC801B7013C
:10205000A40193010E940F28E22EF32E042F152FC6
:10206000E114F1040105110509F7A114B104C1043B
:10207000D10471F10894A108B108C108D10818C0B1
:10208000405D50E060E070E089A19AA120E030E07E
:102090000E949F100894A108B108C108D108FFEF61
:1020A000AF16FFEFBF06FFEFCF06FFEFDF0681F0B1
:1020B000F101EA0DFB1D40814A3010F3495CE1CF8C
:1020C00040E350E060E070E020E030E00E949F10CC
:1020D000A2960FB6F894DEBF0FBECDBFCF91DF91B1
:1020E0001F910F91FF90EF90DF90CF90BF90AF9036
:1020F0009F908F907F906F905F904F903F902F9028
:1021000008952115310519F00E94E70F0895DC01AB
:10211000ED91FC910190F081E02D642F09950895D7
:102120009A01AB0160E070E00E94811008959A016D
:10213000462F50E060E070E00E9481100895EF9219
:10214000FF920F931F93CF93DF93EC017A018B01E2
:1021500021153105D9F02A30310549F00E94E70FE9
:10216000DF91CF911F910F91FF90EF90089577FD30
:102170001BC0CE01B801A7012AE00E94E70FDF9142
:10218000CF911F910F91FF90EF900895E881F98111
:102190000190F081E02D642F0995DF91CF911F917F
:1021A0000F91FF90EF9008954DE250E060E070E0F5
:1021B00020E030E00E949F1010950095F094E0948C
:1021C000E11CF11C011D111DD4CFEF92FF920F9362
:1021D0001F939A017B010027F7FC0095102FB8018F
:1021E000A7010E949F101F910F91FF90EF900895FB
:1021F0009A01462F50E060E070E00E949F10089521
:10220000CF93DF93EC014DE050E060E070E020E020
:1022100030E00E949F10CE014AE050E060E070E0A4
:1022200020E030E00E949F10DF91CF910895CF937E
:10223000DF93EC010E948110CE010E940011DF911A
:10224000CF910895CF93DF93EC019A01AB0160E049
:1022500070E00E948110CE010E940011DF91CF91A9
:102260000895CF93DF93EC019A01462F50E060E090
:1022700070E00E948110CE010E940011DF91CF9189
:102280000895CF93DF93EC010E94AD0FCE010E9421
:102290000011DF91CF910895CF93DF93EC010E945D
:1022A000B50FCE010E940011DF91CF910895CF9319
:1022B000DF93EC010E949F10CE010E940011DF917C
:1022C000CF910895CF93DF93EC01CB019A01AC013C
:1022D000662757FD6095762FCE010E949F10CE0194
:1022E0000E940011DF91CF910895CF93DF93EC010D
:1022F0009A01462F50E060E070E00E949F10CE01EE
:102300000E940011DF91CF9108959F92AF92BF92EA
:10231000CF92DF92EF92FF920F931F93CF93DF93B1
:10232000EC016A017B01122FCB01BA0120E030E001
:10233000A9010E949B2488230CF483C0112309F473
:102340008EC000E050E040E030E02FE3DA01F90118
:102350006B2F742F8F2F922F20E030E040E251E45A
:102360000E94BD23562F472F382F292F0F5F0117AB
:1023700068F3C701B601DA01F9012B2F3A2F4F2F6D
:102380005E2F0E9498225B01C82E092F7B2D0E9490
:10239000EB20962EF72EE82ED92E0E947B259B014E
:1023A000AC016A2D7B2D8C2D902F0E9467225B0142
:1023B000C82E092FCE01492D5F2D6E2D7D2D2AE0CF
:1023C00030E00E948110CE016DEB71E00E94AD0FF4
:1023D0006A2D7B2D8C2D902F20E030E040E251E4DF
:1023E0000E94C522062FB72EA82E992E0E942825BE
:1023F0006B01EE24D7FCE094FE2CCE01B701A601C0
:102400002AE030E00E949F10C701B6010E94CB2451
:102410009B01AC01602F7B2D8A2D992D0E94672294
:102420005B01C82E092F115099F6DF91CF911F91B2
:102430000F91FF90EF90DF90CF90BF90AF909F9063
:102440000895CE014DE250E060E070E020E030E021
:102450000E949F10F7FAF094F7F8F0946FCFC7013D
:10246000B60120E030E040E05FE30E9498220E9445
:10247000EB20AB01BC01CE012AE030E00E948110CC
:10248000D4CF0E9485110895CF93DF93EC010E9471
:102490008511CE010E940011DF91CF91089508951A
:1024A000089581E080931E076093FB0610921C073D
:1024B00010921D07089581E080931E076093FB062C
:1024C00010921C0710921D0708958091FA069091B2
:1024D000F906891B08959091F9068091FA069817DC
:1024E00048F4E92FF0E0E752F94F80819F5F909325
:1024F000F906089580E00895CF93DF939C01E09161
:102500002107F0912207309711F19091F9068091FF
:10251000FA069817E0F0161617069CF4A0E0B0E053
:1025200090E040E050E0A752B94F420F531FEA013C
:1025300048814C939F5F492F50E0DA0146175707B7
:1025400094F31092F9066093FA06CB010995DF9196
:10255000CF910895E0911F07F0912007309729F05F
:1025600010921C0710921D07099508957093220779
:102570006093210708957093200760931F070895C3
:10258000DF93CF930F92CDB7DEB7698380911E079B
:102590008823C1F080911D07803220F00F90CF91E9
:1025A000DF91089580911C07E82FF0E0E450F94F87
:1025B00060838F5F80931C0780931D070F90CF91DE
:1025C000DF910895CE01019661E00E94801F0F9077
:1025D000CF91DF9108950E94C0120895EF92FF926B
:1025E0000F931F93CF93DF93EC01162F042F80914D
:1025F0001E078823A9F0442361F0E62EF72ECE01B2
:10260000F70161917F010E94C0128E2D811B8017FE
:10261000B0F3DF91CF911F910F91FF90EF9008954C
:10262000862F972F642F0E94801FDF91CF911F91DB
:102630000F91FF90EF900895DB010D900020E9F7D6
:10264000AD0141505040461B570B0E94EE120895B9
:102650008091FB066CEF76E040911D0721E00E941F
:10266000301F10921C0710921D0710921E0708952C
:10267000862F413208F040E269ED76E00E94F71EB5
:102680001092F9068093FA0608950E94381308956F
:102690001092F9061092FA0610921C0710921D076C
:1026A0000E94E01E0895CF93DF93EC01862F0E94D5
:1026B000F31E8AEA92E10E94A31F8CE792E10E9436
:1026C0009E1FCE010E944813DF91CF9108950E9472
:1026D000531308951F920F920FB60F9211242F9348
:1026E0003F938F939F93AF93BF93809127079091D0
:1026F0002807A0912907B0912A0730912B0701964E
:10270000A11DB11D232F2D5F2D3720F02D570196D0
:10271000A11DB11D20932B078093270790932807B5
:10272000A0932907B0932A0780912307909124074B
:10273000A0912507B09126070196A11DB11D809398
:10274000230790932407A0932507B0932607BF91F2
:10275000AF919F918F913F912F910F900FBE0F904E
:102760001F9018958FB7F89420912707309128076C
:102770004091290750912A078FBFB901CA010895D6
:102780009FB7F894209123073091240740912507A3
:102790005091260786B5A89B06C08F3F21F02F5F7A
:1027A0003F4F4F4F5F4F9FBF542F432F322F222752
:1027B000280F311D411D511D220F331F441F551F6E
:1027C000220F331F441F551FB901CA010895EF920C
:1027D000FF920F931F93CF93DF937B018C010E9495
:1027E000C013EB01E114F10401051105A1F00E94F1
:1027F000C0136C1B7D0B83E0683E7807C0F3089420
:10280000E108F10801091109C851DC4FE114F10494
:102810000105110561F7DF91CF911F910F91FF9095
:10282000EF900895019739F0880F991F880F991F2D
:1028300002970197F1F70895789484B5826084BD7A
:1028400084B5816084BD85B5826085BD85B58160B4
:1028500085BDEEE6F0E0808181608083E1E8F0E014
:102860001082808182608083808181608083E0E843
:10287000F0E0808181608083E1EBF0E08081846022
:102880008083E0EBF0E0808181608083EAE7F0E024
:102890008081846080838081826080838081816088
:1028A00080838081806880831092C1000895809326
:1028B000C90108958E3008F08E5087709091C9013B
:1028C0009295990F990F907C982B90937C00809112
:1028D0007A00806480937A0080917A0086FDFCCF34
:1028E0002091780030917900932F80E030E0282B00
:1028F000392BC90108951F93CF93DF93182FEB0154
:1029000061E00E94F014209759F1CF3FD105A1F06A
:10291000E12FF0E0E15FFB4F84918330E1F18430FF
:1029200098F0863069F1873009F44FC0843009F49B
:102930003FC0C038D105A4F0812F61E00E9442154C
:10294000DF91CF911F910895813091F0823089F706
:1029500084B5806284BDC8BDDF91CF911F91089579
:10296000812F60E00E944215DF91CF911F91089561
:1029700084B5806884BDC7BDDF91CF911F91089554
:102980008091B00080688093B000C093B300DF9165
:10299000CF911F910895809180008068809380007E
:1029A000D0938900C0938800DF91CF911F91089543
:1029B00080918000806280938000D0938B00C093D0
:1029C0008A00DF91CF911F9108958091B0008062BD
:1029D0008093B000C093B400DF91CF911F91089510
:1029E00090E0FC01E550FC4F2491FC01E951FC4FC3
:1029F000E491EE2379F0F0E0EE0FFF1FE753FC4F78
:102A0000A591B491662339F09FB7F8948C91822BED
:102A10008C939FBF08959FB7F8948C912095822343
:102A20008C939FBF0895833039F1843060F08630F5
:102A3000C9F0873069F0843051F4809180008F7D37
:102A4000809380000895813099F0823039F00895A4
:102A50008091B0008F7D8093B000089584B58F7D04
:102A600084BD08958091B0008F778093B000089561
:102A700084B58F7784BD0895809180008F7780938F
:102A8000800008950F931F93DF93CF930F92CDB7DC
:102A9000DEB7282F30E0F901E15FFB4F8491F901A7
:102AA000E550FC4F049129513C4FF9011491112339
:102AB00091F0882319F5E12FF0E0EE0FFF1FED52A2
:102AC000FC4FA591B491662361F09FB7F8948C9167
:102AD000802B8C939FBF0F90CF91DF911F910F910F
:102AE00008959FB7F8948C91009580238C939FBF95
:102AF0000F90CF91DF911F910F91089569830E94EC
:102B000013156981D8CF0F931F93282F30E0F90157
:102B1000E15FFB4F8491F901E550FC4F049129518D
:102B20003C4FF90114911123C9F08823E9F4E12FF6
:102B3000F0E0EE0FFF1FE352FC4FA591B4918C9192
:102B400020E030E0802321F4C9011F910F91089506
:102B500021E030E0C9011F910F91089520E030E09D
:102B6000C9011F910F9108950E941315E0CFDC0158
:102B7000ED91FC911197E60FF71F80810895FC01FC
:102B800080819181009749F0248135816217730714
:102B900020F4680F791FFB0140830895FC018481B4
:102BA00095816817790740F480819181009721F021
:102BB000680F791FCB01089510922C076CE277E023
:102BC000CB010895DC01ED91FC911197E60FF71F01
:102BD00080810895FC01808191810E94A12C08953B
:102BE0000F931F93CF93DF93FC01EB014115510528
:102BF000A1F06115710589F0848195818A010150E8
:102C000010408017910770F060817181CE01A8019A
:102C10000E94242DC00FD11F1882DF91CF911F91E8
:102C20000F9108958C01F0CF0F931F93CF93DF93F3
:102C3000FC01EB0141155105A1F06115710589F009
:102C4000848195818A01015010408017910770F0AE
:102C500060817181CE01A8010E94242DC00FD11F77
:102C60001882DF91CF911F910F9108958C01F0CFC1
:102C7000FC01DB01CA0114964D915C9115972481EA
:102C80003581241B350B2817390780F020813181CD
:102C90006D917C91820F931F0E94162D9C0180E004
:102CA0002115310509F0089581E0089580E0089527
:102CB000FC0144815581FB01248135814217530772
:102CC00010F480E0089540E050E00E943816089526
:102CD000DF92EF92FF920F931F93CF93DF93EC015C
:102CE0008C819D814817590758F02FEF3FEFC9019C
:102CF000DF91CF911F910F91FF90EF90DF9008959A
:102D00008A010F5F1F4FE881F981E00FF11FD0802A
:102D10001082E880F980C70170E00E94332D9C0189
:102D20000E0D1F1DF801D0820097F9F2888199815C
:102D3000281B390BDCCFFC014481558141505040A8
:102D40000E9468160895CF93DF93FC0184819581DA
:102D50004817590730F02FEF3FEFC901DF91CF91AE
:102D60000895C081D181FB0160817181CE01840F02
:102D7000951F0E943E2D9C01009769F32C1B3D0B73
:102D8000ECCF40E050E00E94A3160895CF93DF936C
:102D9000FC01848195814817590730F02FEF3FEFF0
:102DA000C901DF91CF910895C081D181CE01840FF7
:102DB000951F70E00E94FB2C9C01009779F32C1B5F
:102DC0003D0BEECF40E050E00E94C6160895FC0196
:102DD000DB012481358114968D919C9115972817DC
:102DE000390711F080E008956D917C918081918187
:102DF0000E94062D9C0180E02115310509F00895FF
:102E000081E00895FC01DB018481958114962D9168
:102E10003C9115978217930790F0821B930B2081AA
:102E200031816D917C91820F931F0E94062D9C0130
:102E300080E02115310509F0089581E0089580E0D2
:102E40000895FB0160817181FC01808191810E9464
:102E5000062D292F332727FD3095209530952227E1
:102E6000330F221F3327C9010895FB01608171814F
:102E7000FC01808191810E94062D40E050E01816EF
:102E8000190614F4CA01089541E050E0CA010895FA
:102E9000FB0160817181FC01808191810E94062D7E
:102EA00040E050E01816190614F441E050E0CA0161
:102EB0000895FB0160817181FC01808191810E94F4
:102EC000062D292F332727FD30952227330F221F68
:102ED0003327C9010895FC01DB0124813581149653
:102EE0008D919C9115972817390721F021E030E04A
:102EF000C90108956D917C91808191810E94062D78
:102F00009C012115310591F7C9010895FC01DB01F0
:102F10002481358114968D919C9115972817390736
:102F200021F020E030E0C90108956D917C9180810D
:102F300091810E94062D9C0180E090E021153105D1
:102F400019F09C01C901089581E090E09C01FACF3D
:102F5000FB0160817181FC01808191810E94062DBD
:102F60000895EF92FF920F931F93CF93DF93EC019D
:102F70008B01FB01648175818C819D81680F791FB4
:102F80007D836C838A819B818617970778F46F5FB6
:102F90007F4F888199810E94D02B0097B1F099834F
:102FA00088832C813D813B832A8302C0888199815B
:102FB000F801608171810E94F02CCE01DF91CF91E8
:102FC0001F910F91FF90EF9008958C819D81F801E2
:102FD00024813581821B930B9D838C83EECF0E94CD
:102FE000B1170895EF92FF920F931F93CF93DF9342
:102FF000EC018B018617970799F0FB0144815581FD
:103000008C819D818417950798F08881998100971C
:1030100039F05D834C83F801608171810E940F2D2E
:10302000CE01DF91CF911F910F91FF90EF90089506
:10303000888199810E94392BF801848195819B8335
:103040008A8301960E94972A99838883009721F0AA
:10305000F80144815581DDCF1B821A821D821C82BA
:10306000DFCF0F931F93DF93CF930F92CDB7DEB7D0
:103070008C0181E090E0D80115969C938E93149773
:1030800013969C938E93129782E090E069830E943E
:10309000972AFC01D80111969C938E936981009721
:1030A00061F06083D801ED91FC91119711820F902E
:1030B000CF91DF911F910F91089513961C921E924C
:1030C000129715961C921E9214970F90CF91DF9134
:1030D0001F910F9108950F931F93DF93CF930F923A
:1030E000CDB7DEB78C0181E090E0D80115969C93B6
:1030F0008E93149713969C938E93129782E090E090
:1031000069830E94972AFC01D80111969C938E93A3
:103110006981009761F06083D801ED91FC9111976E
:1031200011820F90CF91DF911F910F910895139607
:103130001C921E92129715961C921E9214970F9035
:10314000CF91DF911F910F9108950F931F93DF93FC
:10315000CF930F92CDB7DEB78C0181E090E0D8011C
:1031600015969C938E93149713969C938E93129717
:1031700082E090E069830E94972AFC01D8011196B1
:103180009C938E936981009761F06083D801ED91E3
:10319000FC91119711820F90CF91DF911F910F91A8
:1031A000089513961C921E92129715961C921E92C9
:1031B00014970F90CF91DF911F910F9108950F9366
:1031C0001F93DF93CF930F92CDB7DEB78C0181E0D1
:1031D00090E0D80115969C938E93149713969C9328
:1031E0008E93129782E090E069830E94972AFC01F7
:1031F000D80111969C938E936981009761F060834A
:10320000D801ED91FC91119711820F90CF91DF9130
:103210001F910F91089513961C921E921297159666
:103220001C921E9214970F90CF91DF911F910F91D6
:1032300008950F931F93CF93DF93EC018B01FB0154
:10324000848195819D838C839B838A8301960E94D0
:10325000972A99838883009751F0F80160817181E2
:103260000E940F2DDF91CF911F910F9108951B8226
:103270001A821D821C82DF91CF911F910F910895B8
:103280000F931F93CF93DF93EC018B01FB0184819C
:1032900095819D838C839B838A8301960E94972AC4
:1032A00099838883009751F0F801608171810E94B1
:1032B0000F2DDF91CF911F910F9108951B821A82DC
:1032C0001D821C82DF91CF911F910F910895EF9283
:1032D000FF920F931F93DF93CF93CDB7DEB7A197E4
:1032E0000FB6F894DEBF0FBECDBF7C01CB01BA0193
:1032F0008E010F5F1F4FA8012AE030E00E94C22D0F
:10330000F80101900020E9F7CF010197801B910B94
:10331000F701958384839383828301960E94972A81
:10332000F70191838083009781F0B8010E940F2DEF
:10333000A1960FB6F894DEBF0FBECDBFCF91DF913F
:103340001F910F91FF90EF900895138212821582C2
:103350001482EECFEF92FF920F931F93DF93CF93E0
:10336000CDB7DEB7A1970FB6F894DEBF0FBECDBFC5
:103370007C01CB01BA018E010F5F1F4FA8012AE02B
:1033800030E00E94C22DF80101900020E9F7CF0142
:103390000197801B910BF70195838483938382832C
:1033A00001960E94972AF70191838083009781F00C
:1033B000B8010E940F2DA1960FB6F894DEBF0FBE84
:1033C000CDBFCF91DF911F910F91FF90EF900895A6
:1033D0001382128215821482EECFEF92FF920F9326
:1033E0001F93DF93CF93CDB7DEB7A1970FB6F894B5
:1033F000DEBF0FBECDBF7C019A0180E090E08E0160
:103400000F5F1F4FA8010E94C22DF80101900020FC
:10341000E9F7CF010197801B910BF7019583848316
:103420009383828301960E94972AF7019183808378
:10343000009781F0B8010E940F2DA1960FB6F89465
:10344000DEBF0FBECDBFCF91DF911F910F91FF90D7
:10345000EF9008951382128215821482EECFEF92BC
:10346000FF920F931F93DF93CF93CDB7DEB7A19752
:103470000FB6F894DEBF0FBECDBF7C019A0180E08D
:1034800090E08E010F5F1F4FA8010E94C22DF8012E
:1034900001900020E9F7CF010197801B910BF70104
:1034A000958384839383828301960E94972AF701F0
:1034B00091838083009781F0B8010E940F2DA1961F
:1034C0000FB6F894DEBF0FBECDBFCF91DF911F9135
:1034D0000F91FF90EF90089513821282158214824B
:1034E000EECF0F931F93CF93DF93EC018B01611508
:1034F000710521F1FB0101900020E9F73197E61BEE
:10350000F70BCF010196FD83EC83FB83EA830E94D6
:10351000972A99838883009741F0B8010E940F2D64
:10352000DF91CF911F910F9108951B821A821D8206
:103530001C82DF91CF911F910F91089581E090E05F
:10354000E0E0F0E00AEC11E0DECFAF92BF92CF9264
:10355000DF92EF92FF920F931F93CF93DF937C0143
:103560008B01C82EE6016E01DF2CE601FB016081B4
:103570007181C6010E94711AF801848195810097BA
:10358000B1F0AA24BB24C880D980CA0CDB1CF60188
:10359000808190E00E94D82CF60180830894A11CC1
:1035A000B11CF80184819581A816B90660F3C701A2
:1035B000DF91CF911F910F91FF90EF90DF90CF900F
:1035C000BF90AF900895AF92BF92CF92DF92EF92EB
:1035D000FF920F931F93CF93DF937C018B01C82E33
:1035E000E6016E01DF2CE601FB0160817181C601FD
:1035F0000E94711AF801848195810097B1F0AA2484
:10360000BB24C880D980CA0CDB1CF601808190E005
:103610000E94D02CF60180830894A11CB11CF801F3
:1036200084819581A816B90660F3C701DF91CF9117
:103630001F910F91FF90EF90DF90CF90BF90AF90D0
:103640000895EF92FF920F931F93DF93CF93CDB71F
:10365000DEB72D970FB6F894DEBF0FBECDBFFC01CD
:103660008B0186179707E9F124813581DB011496D8
:103670008D919C9115972817390779F020E0822FBA
:103680002D960FB6F894DEBF0FBECDBFCF91DF9160
:103690001F910F91FF90EF900895CE010196BF0109
:1036A0000E94E31AE980FA80CE010796B8010E94D1
:1036B000E31A0F811885C701B8010E94062D20E08A
:1036C000009709F421E0C8012D870E94392B1A8642
:1036D00019861C861B8689819A810E94392B2D852B
:1036E000CECF21E0CCCFDF92EF92FF920F931F93CA
:1036F000CF93DF938C01EB0179012417350730F468
:10370000342F252FA701C901E92EF82E8C819D8128
:103710008E159F0508F47C01E881F981EE0DFF1DEF
:10372000D080108268817981640F751FC8010E9462
:10373000711AE881F981EE0DFF1DD082C801DF9179
:10374000CF911F910F91FF90EF90DF900895CF934D
:10375000DF93EC01FB01248135810E94731BCE01B4
:10376000DF91CF9108958F929F92AF92BF92CF92A7
:10377000DF92EF92FF920F931F93DF93CF9300D0CE
:1037800000D000D0CDB7DEB76C017B01DB01149611
:103790008D919C9115970097B1F40FEF1FEFC80121
:1037A00026960FB6F894DEBF0FBECDBFCF91DF9146
:1037B0001F910F91FF90EF90DF90CF90BF90AF904F
:1037C0009F908F90089501974817590730F3F6019D
:1037D000848195814817590700F7ED91FC91119765
:1037E00090808A015E010894A11CB11C02C00150A6
:1037F000104017FDD2CFD601ED91FC911197E00F4B
:10380000F11F8081891599F7F70124813581200FF7
:10381000311FC501B601A8010E94731BC501B70184
:103820000E94E716882E89819A810E94392B882070
:1038300009F0B5CF1C821B821E821D82D8CFFC01ED
:1038400044815581FB0124813581421B530B0E9429
:10385000B31B08956F927F928F929F92AF92BF9207
:10386000CF92DF92EF92FF920F931F93DF93CF934C
:1038700000D000D000D0CDB7DEB78C016B01FB01CA
:10388000608171816115710509F463C05E0108945E
:10389000A11CB11CC5010E94711AF601848095809B
:1038A0008114910409F459C0F60160807180EE24FE
:1038B000FF2406C00894E11CF11CE814F90448F444
:1038C000F301EE0DFF1D808190E00E94C82C00974F
:1038D00089F78D809E80089481089108E814F90486
:1038E000B0F4F601C080D180C80CD91C09C008947E
:1038F000810891080894C108D108E814F90438F443
:10390000F601808190E00E94C82C009781F7940115
:103910002F5F3F4FC801B501A7010E94731B89812A
:103920009A810E94392BC80126960FB6F894DEBF03
:103930000FBECDBFCF91DF911F910F91FF90EF9000
:10394000DF90CF90BF90AF909F908F907F906F90BF
:103950000895B6010E941919E6CFEE24FF24B9CFCD
:103960002F923F924F925F926F927F928F929F928F
:10397000AF92BF92CF92DF92EF92FF920F931F937D
:10398000DF93CF93CDB7DEB768970FB6F894DEBF5D
:103990000FBECDBF1C01FB015A012901608171815D
:1039A0006115710509F47EC08E010F5F1F4FC801BC
:1039B0000E94711A47E0C42ED12CCC0EDD1EC60128
:1039C0006AEC71E00E94711A3DE0832E912C8C0EFE
:1039D0009D1E23E1622E712C6C0E7D1E2CC0C40135
:1039E000B80140E050E097010E94731BC601B4018A
:1039F0000E94B1178D859E850E94392B188A1F86DB
:103A00001A8A198AC601B2010E94B117F5014481D0
:103A100055814E0D5F1DC301B8010E94A71BC8014F
:103A2000B3010E94F2178B899C890E94392B1E8A50
:103A30001D8A188E1F8AC801B5010E94C1167C011B
:103A4000FFEF8F3F9F0759F6C601B8010E94B117DB
:103A5000C101B6010E9419198F8198850E94392BE6
:103A60001A8619861C861B8689819A810E94392BA9
:103A7000C10168960FB6F894DEBF0FBECDBFCF91DF
:103A8000DF911F910F91FF90EF90DF90CF90BF904B
:103A9000AF909F908F907F906F905F904F903F90EE
:103AA0002F900895BF010E941919E2CFCF92DF92A3
:103AB000EF92FF920F931F93DF93CF9300D000D02C
:103AC00000D0CDB7DEB78C01FB01F42EE22E608171
:103AD00071816115710551F16E010894C11CD11CF1
:103AE000C6010E94711A89819A8101C0E0826F2DFE
:103AF00070E00E94FB2CFC010097C1F7C801B601E1
:103B00000E94191989819A810E94392BC801269631
:103B10000FB6F894DEBF0FBECDBFCF91DF911F91DE
:103B20000F91FF90EF90DF90CF900895BF010E941A
:103B30001919ECCF0F931F93CF93DF93EC018B01F7
:103B40006115710521F1FB0101900020E9F7319722
:103B5000E61BF70BCF010196FD83EC83FB83EA8321
:103B60000E94972A99838883009741F0B8010E94A8
:103B70000F2DDF91CF911F910F9108951B821A8213
:103B80001D821C82DF91CF911F910F91089581E0DA
:103B900090E0E0E0F0E00AEC11E0DECFEF92FF927F
:103BA0000F931F93DF93CF93CDB7DEB7A1970FB6D7
:103BB000F894DEBF0FBECDBF7C01CB01BA018E01F0
:103BC0000F5F1F4FA8010E94792DF801019000207E
:103BD000E9F7CF010197801B910BF701958384834F
:103BE0009383828301960E94972AF70191838083B1
:103BF000009781F0B8010E940F2DA1960FB6F8949E
:103C0000DEBF0FBECDBFCF91DF911F910F91FF900F
:103C1000EF9008951382128215821482EECFEF92F4
:103C2000FF920F931F93DF93CF93CDB7DEB7A1978A
:103C30000FB6F894DEBF0FBECDBF7C01CB01BA0139
:103C40008E010F5F1F4FA8010E94792DF80101908E
:103C50000020E9F7CF010197801B910BF7019583B5
:103C600084839383828301960E94972AF70191832C
:103C70008083009781F0B8010E940F2DA1960FB6A6
:103C8000F894DEBF0FBECDBFCF91DF911F910F9192
:103C9000FF90EF9008951382128215821482EECF66
:103CA000EF92FF920F931F93DF93CF93CDB7DEB7C1
:103CB000A1970FB6F894DEBF0FBECDBF7C01CB013C
:103CC0008E010F5F1F4FB8010E94582DF80101901F
:103CD0000020E9F7CF010197801B910BF701958335
:103CE00084839383828301960E94972AF7019183AC
:103CF0008083009781F0B8010E940F2DA1960FB626
:103D0000F894DEBF0FBECDBFCF91DF911F910F9111
:103D1000FF90EF9008951382128215821482EECFE5
:103D2000EF92FF920F931F93DF93CF93CDB7DEB740
:103D3000A1970FB6F894DEBF0FBECDBF7C01CB01BB
:103D40008E010F5F1F4FB8010E94582DF80101909E
:103D50000020E9F7CF010197801B910BF7019583B4
:103D600084839383828301960E94972AF70191832B
:103D70008083009781F0B8010E940F2DA1960FB6A5
:103D8000F894DEBF0FBECDBFCF91DF911F910F9191
:103D9000FF90EF9008951382128215821482EECF65
:103DA000089520E030E0FC018081882311F421E0B7
:103DB00030E0C901089521E0FC01208308950895B1
:103DC00010925107449A459AE9EBF0E080818E7F8A
:103DD000808380818D7F808388E48093B80085E430
:103DE0008093BC000895880F8093BA0008954132F3
:103DF000A0F5909151079923E1F791E09093510735
:103E00009FEF9093500710922E07942F915090930C
:103E10002F07880F816080932D0785EE8093BC006B
:103E2000809151078130E1F380912E07841790F043
:103E3000442371F020E030E0FB01E20FF31FD901D1
:103E4000A05DB84F9C9190832F5F3F4F2417A0F344
:103E5000842F089540912E07EBCF40E0842F0895E2
:103E6000CF93DF93413208F043C0909151079923DB
:103E7000E1F792E0909351079FEF909350071092D3
:103E80002E0740932F07442369F0E0E0F0E0DF01C4
:103E9000A05DB84FEB01CE0FDF1F98819C93319648
:103EA000E417A8F390E0880F991F80932D0785EE03
:103EB0008093BC00222381F4809150078F3FA1F0B2
:103EC000809150078032C1F0809150078033B1F06B
:103ED00084E0DF91CF910895809151078230E1F322
:103EE000809150078F3F61F780E0DF91CF91089577
:103EF00081E0DF91CF91089582E0EBCF83E0E9CFBD
:103F00006132D0F420915107243011F082E00895FD
:103F100060937607662371F020E030E0F901E758FE
:103F2000F84FDC01A20FB31F4C9140832F5F3F4F2E
:103F30002617A0F380E0089581E008959093740718
:103F40008093730708959093780780937707089577
:103F5000882321F485E88093BC00089585EC809344
:103F6000BC00089585ED8093BC008091BC0084FD69
:103F7000FCCF10925107089585EC8093BC001092FD
:103F8000510708951F920F920FB60F9211242F938D
:103F90003F934F935F936F937F938F939F93AF93D1
:103FA000BF93EF93FF938091B90090E0A0E0B0E061
:103FB000887F9070A070B070893C910598F58C5CFA
:103FC0009F4FFC01EE0FFF1F0590F491E02D099427
:103FD00084E0809351071092750710927607E09164
:103FE0007707F0917807099580917607882329F45F
:103FF00081E0809376071092790780917507E82F0A
:10400000F0E0E758F84F90819093BB008F5F80936A
:10401000750790917507809176079817C8F485EC1D
:104020008093BC00FF91EF91BF91AF919F918F91D1
:104030007F916F915F914F913F912F910F900FBEA4
:104040000F901F90189580915207803208F49CC001
:1040500085E88093BC00E6CF80912E079091BB004D
:10406000E82FF0E0E05DF84F90838F5F80932E079C
:1040700090912E0780912F07981750F7D0CF8091FD
:104080002E079091BB00E82FF0E0E05DF84F9083A1
:104090008F5F80932E0785ED8093BC008091BC00DC
:1040A00084FDFCCF10925107BDCF85EC8093BC00FE
:1040B00010925107B7CF83E08093510710925207B7
:1040C00085EC8093BC00AECF1092500785ED8093B5
:1040D000BC008091BC0084FDFCCFE4CF80912D0713
:1040E0008093BB0085EC8093BC009CCF90912E0701
:1040F00080912F07981708F45EC085ED8093BC006F
:104100008091BC0084FDFCCFCDCF80E2809350072E
:1041100085ED8093BC008091BC0084FDFCCFC2CFB4
:1041200080915207803208F43FC085ED8093BC0037
:104130008091BC0084FDFCCF109251076091520722
:10414000E0917307F091740783E597E070E00995BB
:104150001092520785EC8093BC001092510762CFF9
:1041600080E38093500785ED8093BC008091BC0074
:1041700084FDFCCF97CF88E38093500785EC809334
:10418000BC00109251074ECF809152079091BB0016
:10419000E82FF0E0ED5AF84F90838F5F809352073D
:1041A00085EC8093BC003ECFE0915207F0E0ED5AE1
:1041B000F84F1082BACF80912E07E82FF0E0E05D33
:1041C000F84F90819093BB008F5F80932E0785EC12
:1041D0008093BC0027CFEF92FF920F931F937B0138
:1041E0008C0120E030E040E05FE40E946B248823F3
:1041F0008CF0C801B70120E030E040E05FE40E94AD
:1042000067220E9428259B01AC012050304040408D
:10421000504806C0C801B7010E9428259B01AC0187
:10422000B901CA011F910F91FF90EF900895A0E08E
:10423000B0E0EDE1F1E20C943328FC012B01EA013E
:104240008081823008F43DC1DB019C91923008F4FA
:1042500037C1843069F4943009F033C191811196EB
:104260008C911197981709F42CC1EBECF1E029C15E
:10427000943009F425C19230A9F4823009F021C1AB
:104280009F0188E0D9010D909D01DA010D92AD01E9
:104290008150C1F7D20111968C9111979181892398
:1042A00089830CC1823009F40BC182819381DB01C7
:1042B00012964D915C911397E480F58006811781E9
:1042C0001496AD90BD90CD90DC9017979C01241B67
:1042D000350BB90137FF04C066277727621B730BC4
:1042E000603271050CF062C0121613066CF53501D0
:1042F0004601062E04C096948794779467940A9496
:10430000D2F721E030E040E050E004C0220F331F3C
:10431000441F551F6A95D2F721503040404050400D
:104320002A213B214C215D212115310541055105F3
:1043300021F021E030E040E050E059016A01A62878
:10434000B728C828D9283DC021153105D1F1860FDD
:10435000971F37014801062E04C0969487947794DE
:1043600067940A94D2F721E030E040E050E004C0C6
:10437000220F331F441F551F6A95D2F7215030403A
:10438000404050402E213F2140235123211531052B
:104390004105510521F021E030E040E050E0790195
:1043A0008A01E628F728082919290BC04817590758
:1043B0002CF0CA01EE24FF24870103C0AA24BB24E9
:1043C00065012181F2013181231709F44AC02223BA
:1043D00049F0A60195012E193F09400B510B7901B7
:1043E0008A0104C0EA18FB080C091D0917FD0CC05E
:1043F00019829B838A83EC82FD820E831F838C81CA
:104400009D81AE81BF811AC021E029839B838A836D
:1044100088279927DC018E199F09A00BB10B8C838B
:104420009D83AE83BF83EBCF880F991FAA1FBB1F4D
:104430002A813B81215030403B832A839C01AD017E
:1044400021503040404050402F3F6FEF36076FEF14
:1044500046076FE3560740F38C839D83AE83BF838B
:104460000BC029839B838A83EA0CFB1C0C1D1D1D3A
:10447000EC82FD820E831F8383E088832C813D8143
:104480004E815F8157FF1AC0C901AA2797FDA095E9
:10449000BA2F81709070A070B0705695479537957F
:1044A0002795822B932BA42BB52B8C839D83AE83D6
:1044B000BF838A819B8101969B838A83FE0101C011
:1044C000F201CF01CDB7DEB7E0E10C944F28A0E2B6
:1044D000B0E0EDE6F2E20C943D2869837A838B83A9
:1044E0009C832D833E834F835887E9E0EE2EF12C89
:1044F000EC0EFD1ECE010196B7010E941A278E0117
:104500000F5E1F4FCE010596B8010E941A278A89B7
:1045100091E089278A8BC701B801AE01475E5F4FE2
:104520000E9417210E944B26A096E6E00C94592881
:10453000A0E2B0E0EEE9F2E20C943D2869837A83D0
:104540008B839C832D833E834F835887F9E0EF2E26
:10455000F12CEC0EFD1ECE010196B7010E941A2728
:104560008E010F5E1F4FCE010596B8010E941A27DB
:10457000C701B801AE01475E5F4F0E9417210E943C
:104580004B26A096E6E00C945928A0E2B0E0EBECB4
:10459000F2E20C94312869837A838B839C832D8388
:1045A0003E834F835887CE010196BE01675F7F4FE0
:1045B0000E941A27CE010596BE016F5E7F4F0E94B2
:1045C0001A279985923088F089898230C8F0943012
:1045D00019F4823051F404C0843029F4923081F40B
:1045E0008BEC91E0C4C0923049F480E02A859A892E
:1045F000291381E08A87CE010996B9C0823049F437
:1046000080E02A859A89291381E08A8BCE01419620
:10461000AEC06D847E848F849888AD88BE88CF8834
:10462000D88C60E070E080E090E0DC01EE24FF24B4
:10463000870120E030E0A901F301E170F0703097CC
:10464000C9F02A0D3B1D4C1D5D1D8E0D9F1DA01F29
:10465000B11F2224332421012A153B054C055D0599
:1046600028F4E1E02E2E312C412C512C820D931D8B
:10467000A41DB51DEE0CFF1C001F111FD7FE09C0A5
:10468000E1E02E2E312C412C512CE228F328042974
:1046900015296F5F7F4F6032710549F0AA0CBB1C72
:1046A000CC1CDD1C9694879477946794C5CF6B8956
:1046B0007C89EB85FC856E0F7F1F6E5F7F4F7C8F43
:1046C0006B8F1A8E7A856A89761711F061E06A8F8E
:1046D0006B8D7C8D10C0FC01E170F070309729F07B
:1046E00056954795379527955068B695A795979510
:1046F00087956F5F7F4FB7FDEECF0CC0880F991F76
:10470000AA1FBB1F57FD8160220F331F441F551F77
:10471000615070408030E0E09E07E0E0AE07E0E4EA
:10472000BE0760F36B8F7C8F6FE7E62EF12C012DB7
:10473000112DE822F9220A231B2360E4E616F10476
:104740000105110561F487FD0AC0211531054105F8
:10475000510529F0805C9F4FAF4FBF4F80788D8F00
:104760009E8FAF8FB8A383E0898FCE0149960E94B8
:104770004B26A096E2E10C944D28A8E1B0E0E3ECD2
:10478000F3E20C94392869837A838B839C832D838D
:104790003E834F8358878E01075F1F4FCE010196DE
:1047A000B8010E941A2781E1E82EF12CEC0EFD1EC3
:1047B000CE010596B7010E941A279985923008F418
:1047C00083C08989823010F487017EC02A853A89A6
:1047D00023272A87943011F0923031F4981709F08A
:1047E00070C00BEC11E070C0843039F41D861E8659
:1047F0001F86188A1C861B8667C0823019F484E0E5
:10480000898762C08B859C852B893C89821B930B91
:104810009C878B872D853E854F855889AD88BE88BE
:10482000CF88D88C2A153B054C055D0538F4220F3E
:10483000331F441F551F01979C878B8760E070E0F2
:10484000E12CF12C012DA0E41A2F80E090E0DC0196
:104850002A153B054C055D0540F08E299F29A02BAC
:10486000B12B2A193B094C095D0916950795F79458
:10487000E794220F331F441F551F6F5F7F4F6F3127
:10488000710531F76FE7E62EF12C012D112DE8228D
:10489000F9220A231B2360E4E616F1040105110541
:1048A00061F487FD0AC0211531054105510529F044
:1048B000805C9F4FAF4FBF4F80788D879E87AF87BB
:1048C000B88B8E01075F1F4FC8010E944B26689668
:1048D000EAE00C945528A8E1B0E0E1E7F4E20C949A
:1048E0003D2869837A838B839C832D833E834F830A
:1048F000588789E0E82EF12CEC0EFD1ECE010196C2
:10490000B7010E941A278E010F5E1F4FCE01059638
:10491000B8010E941A278985823040F08989823047
:1049200028F0C701B8010E94892701C08FEF68965F
:10493000E6E00C945928A8E1B0E0E1EAF4E20C9436
:104940003D2869837A838B839C832D833E834F83A9
:10495000588789E0E82EF12CEC0EFD1ECE01019661
:10496000B7010E941A278E010F5E1F4FCE010596D8
:10497000B8010E941A278985823040F089898230E7
:1049800028F0C701B8010E94892701C081E068961C
:10499000E6E00C945928A8E0B0E0E1EDF4E20C94D4
:1049A0003B2823E029839B01AC01222757FD239557
:1049B0003327442755272A83611571058105910501
:1049C00019F482E089833CC02223A9F0603020E002
:1049D000720720E0820720E8920729F460E070E087
:1049E00080E09FEC31C0EE24FF248701E61AF70A2D
:1049F000080B190B02C07B018C018EE1C82ED12C53
:104A0000DC82CB82ED82FE820F831887C801B7015A
:104A10000E94F3259C01215030401216130684F4A5
:104A2000022E04C0EE0CFF1C001F111F0A94D2F7C7
:104A3000ED82FE820F831887C21AD30ADC82CB82F2
:104A4000CE0101960E944B262896E8E00C94572848
:104A5000ACE0B0E0EEE2F5E20C94412869837A83A1
:104A60008B839C83CE010196BE016B5F7F4F0E94BA
:104A70001A278D81823061F1823050F1843021F427
:104A80008E81882349F12DC02F81388537FD20C0C4
:104A90006E812F3131051CF06623F1F022C08EE1CA
:104AA00090E0821B930B29853A854B855C8504C079
:104AB00056954795379527958A95D2F76623A9F09D
:104AC00050954095309521953F4F4F4F5F4F0DC00A
:104AD00020E030E0A90109C02FEF3FEF4FEF5FE783
:104AE00004C020E030E040E050E8B901CA012C9653
:104AF000E2E00C945D28A8E0B0E0E1E8F5E20C9477
:104B00003B287B018C011A82611571058105910595
:104B100019F482E089835FC083E089838EE1C82E27
:104B2000D12CDC82CB82ED82FE820F831887C801F4
:104B3000B7010E94F3259C012150304037FF38C057
:104B4000EE27FF27E21BF30B40E050E0BA0181E0C3
:104B500090E0A0E0B0E00E2E04C0880F991FAA1FBD
:104B6000BB1F0A94D2F70197A109B1098E219F2199
:104B7000A023B1230097A105B10521F041E050E049
:104B800060E070E004C016950795F794E794EA9505
:104B9000D2F7E42AF52A062B172BED82FE820F832B
:104BA00018878EE190E0821B930B9C838B8313C04C
:104BB0002115310581F0022E04C0EE0CFF1C001FF0
:104BC000111F0A94D2F7ED82FE820F831887C21A52
:104BD000D30ADC82CB82CE0101960E944B26289616
:104BE000E8E00C945728AF92BF92CF92DF92EF92F9
:104BF000FF920F931F937B018C0180E0E81680E009
:104C0000F80681E0080780E0180780F48FEFE816C7
:104C1000F1040105110531F028F088E090E0A0E0F2
:104C2000B0E016C080E090E0DC0112C080E0E81641
:104C300080E0F80680E0080781E0180728F088E1A6
:104C400090E0A0E0B0E004C080E190E0A0E0B0E03F
:104C500020E230E040E050E0281B390B4A0B5B0BB0
:104C60005701680104C0D694C794B794A7948A9555
:104C7000D2F7F501ED52FE4F8081281B3109410921
:104C80005109C9011F910F91FF90EF90DF90CF90D4
:104C9000BF90AF900895CF92DF92EF92FF920F9363
:104CA0001F93FC01248135814681578101818081D8
:104CB000823020F440618FEF90E0A2C0843009F48C
:104CC0009AC0823019F480E090E097C02115310538
:104CD0004105510519F480E090E092C082819381F2
:104CE0006FEF823896070CF058C062E87FEF681BC0
:104CF000790B6A31710524F020E030E0A9012AC067
:104D000069017A01062E04C0F694E794D794C794FB
:104D10000A94D2F781E090E0A0E0B0E004C0880FF0
:104D2000991FAA1FBB1F6A95D2F70197A109B10964
:104D300082239323A423B5230097A105B10521F075
:104D400081E090E0A0E0B0E09C01AD012C293D297C
:104D50004E295F29DA01C9018F779070A070B07079
:104D600080349105A105B10539F427FF09C0205C05
:104D70003F4F4F4F5F4F04C0215C3F4F4F4F5F4F3E
:104D800080E090E0203060E0360760E0460760E4B5
:104D9000560748F181E090E026C0803891055CF527
:104DA00081589F4F7FE7C72ED12CE12CF12CC222D6
:104DB000D322E422F52260E4C616D104E104F10412
:104DC00039F427FF09C0205C3F4F4F4F5F4F04C0AD
:104DD000215C3F4F4F4F5F4F57FF05C0569547959A
:104DE00037952795019697E05695479537952795DE
:104DF0009A95D1F705C08FEF90E020E030E0A9014F
:104E0000782F779577277795142F1F77602F6795E1
:104E1000662767958695F12FF72BE82FE62B622FF3
:104E2000732F8F2F9E2F1F910F91FF90EF90DF9088
:104E3000CF900895FC01DB01208131818281482FD0
:104E40004F7750E0982F991F9927991F6381862FDC
:104E5000880F892B90E0661F6627661F11966C935A
:104E60001197009769F5211531054105510511F498
:104E700082E02FC082E89FEF13969C938E93129747
:104E800067E0220F331F441F551F6A95D1F783E057
:104E90008C930DC0220F331F441F551F12968D9106
:104EA0009C911397019713969C938E9312972030A1
:104EB00080E0380780E0480780E4580758F322C0B4
:104EC0008F3F910579F4211531054105510519F4FC
:104ED00084E08C93089544FF03C081E08C9312C05A
:104EE0001C9210C08F57904013969C938E931297EC
:104EF00083E08C9387E0220F331F441F551F8A9550
:104F0000D1F7506414962D933D934D935C9317976E
:104F10000895EF92FF920F931F93FC01DB018081B4
:104F2000823008F447C09C91923008F443C084302A
:104F300051F481819430A1F511962C91119730E0B4
:104F4000281B31093FC0943021F0823031F4923077
:104F5000B9F111968C9111972BC08181923001F19A
:104F600011969C9111978917D9F442815381129619
:104F70002D913C9113972417350794F0421753074E
:104F8000BCF0E480F5800681178114962D913D9147
:104F90004D915C9117972E153F054007510718F466
:104FA000882341F00AC0E216F3060407150740F40F
:104FB000882319F021E030E005C02FEF3FEF02C059
:104FC00020E030E0C9011F910F91FF90EF9008950C
:104FD000AA1BBB1B51E107C0AA1FBB1FA617B7071F
:104FE00010F0A61BB70B881F991F5A95A9F780953B
:104FF0009095BC01CD01089597FB092E07260AD094
:1050000077FD04D0E5DF06D000201AF47095619595
:105010007F4F0895F6F7909581959F4F0895A1E2EF
:105020001A2EAA1BBB1BFD010DC0AA1FBB1FEE1F22
:10503000FF1FA217B307E407F50720F0A21BB30B6D
:10504000E40BF50B661F771F881F991F1A9469F7E9
:1050500060957095809590959B01AC01BD01CF0145
:1050600008952F923F924F925F926F927F928F920C
:105070009F92AF92BF92CF92DF92EF92FF920F93E7
:105080001F93CF93DF93CDB7DEB7CA1BDB0B0FB6F1
:10509000F894DEBF0FBECDBF09942A8839884888AE
:1050A0005F846E847D848C849B84AA84B984C88444
:1050B000DF80EE80FD800C811B81AA81B981CE0F3B
:1050C000D11D0FB6F894DEBF0FBECDBFED01089520
:1050D000EE0FFF1F0590F491E02D09949F939F77A9
:1050E0006ED00F9000203AF49058A2EA2AED3FE0EB
:1050F00049E450E40ED0E2C0ABD030F0B0D020F0A4
:1051000031F49F3F11F41EF47BC00EF4E095E7FBF1
:1051100071C0E92FF5D080F3BA17620773078407CF
:10512000950718F071F49EF50DC10EF4E0950B2E65
:10513000BA2FA02D0B01B90190010C01CA01A001E9
:105140001124FF27591B99F0593F50F4503E68F144
:105150001A16F040A22F232F342F4427585FF3CF85
:10516000469537952795A795F0405395C9F77EF456
:105170001F16BA0B620B730B840BBAF09150A1F09F
:10518000FF0FBB1F661F771F881FC2F70EC0BA0F25
:10519000621F731F841F48F4879577956795B795AD
:1051A000F7959E3F08F0B3CF9395880F08F09927A5
:1051B000EE0F9795879508955AD0E39590C0DF93A9
:1051C000CF931F930F938B01EC01EAEFF1E01BD01B
:1051D00075D09801AE018B01EC0160E070E080E8D1
:1051E0009FE375D91BD19801AE010F911F91CF910B
:1051F000DF91B9C097F99F6780E870E060E008959B
:105200009FEF80EC0895DF93CF931F930F93FF924E
:10521000EF92DF927B018C01689405C0DA2EEF01DA
:10522000A2D0FE01E894A591259135914591559123
:10523000AEF3EF016EDFFE019701A801DA9479F772
:10524000DF90EF90FF900F911F91CF91DF91089524
:1052500000240A9416161706180609060895002455
:105260000A9412161306140605060895C9CF50D0E5
:10527000E8F3E894E0E0BB279F57F0F02AED3FE029
:1052800049EC06C0EE0FBB0F661F771F881F28F082
:10529000B23A62077307840728F0B25A620B730BA5
:1052A000840BE3959A9572F7803830F49A95BB0F8A
:1052B000661F771F881FD2F79048F0C0092E03940D
:1052C000000C11F4882352F0BB0F40F4BF2B11F4F3
:1052D00060FF04C06F5F7F4F8F4F9F4F0895EF9324
:1052E000E0FF06C0A2EA2AED3FE049EC5FEB11DFE8
:1052F000E5DF0F90039401FC9058E2E2F2E0E1C098
:1053000057FD9058440F551F59F05F3F71F0479576
:10531000880F97FB991F61F09F3F79F0879508955B
:10532000121613061406551FF2CF4695F1DF08C07A
:10533000161617061806991FF1CF86957105610597
:1053400008940895E894BB2766277727CB0197F93F
:1053500008957EDF28F083DF18F0952309F04ACF07
:105360004FCF1124F0CFCCDFA0F3959FD1F3950F51
:1053700050E0551F629FF001729FBB27F00DB11DD9
:10538000639FAA27F00DB11DAA1F649F6627B00D69
:10539000A11D661F829F2227B00DA11D621F739F52
:1053A000B00DA11D621F839FA00D611D221F749F60
:1053B0003327A00D611D231F849F600D211D822FA7
:1053C000762F6A2F11249F5750408AF0E1F08823EE
:1053D0004AF0EE0FFF1FBB1F661F771F881F9150FB
:1053E0005040A9F79E3F510570F004CFACCF5F3F0E
:1053F000ECF3983EDCF3869577956795B795F7952E
:10540000E7959F5FC1F7FE2B880F911D96958795B5
:1054100097F9089511F40EF4F3CE3EC079DFD0F37E
:105420009923D9F3CEF39F57550B87FF43D0002420
:10543000A0E640EA900180585695979528F4805C44
:10544000660F771F881F20F026173707480730F4AC
:10545000621B730B840B202931294A2BA6951794C4
:105460000794202531254A2758F7660F771F881F94
:1054700020F026173707480730F4620B730B840BB4
:10548000200D311D411DA09581F7B901842F915840
:10549000880F9695879508959F3F31F0915020F49D
:1054A000879577956795B795880F911D9695879500
:1054B00097F9089591505040660F771F881FD2F7D3
:1054C00008959F938F937F936F93FF93EF939B0127
:1054D000AC015BD8EF91FF9196DE2F913F914F91F8
:1054E0005F9153C8EF92FF920F931F93CF93DF9377
:1054F000689F8001699F100D789F100D1124C801CD
:105500000E94972AE82EE7017E01F92EE701E114B7
:10551000F10431F08E2D60E070E0A8010E94E92CCA
:105520007E01CE01CDB7DEB7E6E00C945928EF92AC
:10553000FF920F931F93CF93DF938230910510F466
:1055400082E090E0C0919B07D0919C0720E030E082
:1055500040E050E029C06881798168177907D8F068
:105560006817790779F48A819B812115310521F02B
:10557000F9019383828304C090939C0780939B07D7
:10558000DE012AC04115510519F06417750718F49A
:10559000FE01AB01D9019E017A816B81E72EE70103
:1055A0007E01062FF62EE7012097A9F64115510539
:1055B000F9F0481B590B4430510580F482819381E6
:1055C000109729F013969C938E93129704C0909392
:1055D0009C0780939B07DF01129645C0DF01A40F53
:1055E000B51F8D939D9342505040518340833BC0E3
:1055F0002091990730919A072115310541F42091A6
:10560000D5023091D60230939A07209399072091C2
:10561000D7023091D8022115310541F42DB73EB79C
:105620004091D3025091D402241B350BA0919907CD
:10563000B0919A07A217B307A0F42A1B3B0B2817B7
:10564000390778F0AC014E5F5F4F2417350748F0FB
:105650004A0F5B1F50939A07409399078D939D9330
:1056600002C0A0E0B0E0CD01CDB7DEB7E6E00C941B
:105670005928CF93DF93009709F48FC0FC0132972C
:105680001382128260919B0770919C0761157105CE
:1056900081F420813181280F391F809199079091E1
:1056A0009A078217930761F5F0939A07E093990799
:1056B00074C0EB0180E090E0CE17DF0740F42A8150
:1056C0003B81CE012115310501F1E901F5CFD383ED
:1056D000C283DF014D915D919D01240F351FC217DB
:1056E000D30761F428813981240F351F2E5F3F4F86
:1056F000318320832A813B8133832283009729F4DD
:10570000F0939C07E0939B0748C0DC011396FC9341
:10571000EE931297EC0149915991C40FD51FEC17E4
:10572000FD0779F420813181240F351F2E5F3F4F13
:1057300011963C932E932281338113963C932E93A2
:105740001297E0E0F0E0DB0112968D919C911397A7
:10575000009721F0E62FF72FBC01F5CF9B012E5FBC
:105760003F4FDB018D919C911197820F931F4091C8
:10577000990750919A074817590779F4309729F4F7
:1057800010929C0710929B0702C013821282225033
:10579000304030939A0720939907DF91CF91089575
:1057A000A0E0B0E0E6EDFBE20C943528EC01CB0183
:1057B000209741F40E94972AE82EE7017E01F92EF6
:1057C000E701B9C0BEEFEB2EBFEFFB2EEC0EFD1EC6
:1057D000AE01460F571F4E155F0508F4AAC0D7014A
:1057E0002D913C91119726173707C0F025303105D0
:1057F00008F4A1C0B901645070406817790708F433
:105800009AC022503040281B390BFA012193319362
:105810008D939C93CF010E94392B8DC06B01C21ACE
:10582000D30A5E01A20EB31EE0919B07F0919C0784
:105830006624772400E010E045C0EA15FB05B9F5C1
:1058400060817181A2E08A2E912C860E971E8C14A5
:105850009D0468F18B010C191D090E5F1F4FB2806A
:10586000A3800530110560F0FA01B282A3826C19A1
:105870007D0971836083D70111969C938E9309C033
:105880002E5F3F4F260F371FF70131832083EB2D0B
:10589000FA2D6114710431F0D3011396FC93EE9349
:1058A000129749C0F0939C07E0939B0744C0608126
:1058B00071810617170708F48B013F01728163811C
:1058C000E72FF62F309709F0B8CF20919907309144
:1058D0009A072A153B05E9F408171907D0F4209117
:1058E000D7023091D8022115310541F42DB73EB7CA
:1058F0006091D3027091D402261B370B42175307D5
:10590000C0F450939A0740939907F70191838083DD
:1059100012C00E94972A8C01009759F0D7014D912F
:105920005C91BE010E94E02CCE010E94392BE8015F
:1059300002C0C0E0D0E0CE01CDB7DEB7EEE00C94FF
:1059400051281F93FC0199278827BC01E8941191E5
:105950001032E9F3193010F01E30C8F31B3251F049
:105960001D3249F4689406C00E94AD2D610F711D6F
:10597000811D911D119110531A30B0F33EF4909592
:105980008095709561957F4F8F4F9F4F1F91089520
:10599000911119C3803219F089508550D0F70895BC
:1059A0009111089581548A5108F4805E855A0895B2
:1059B0009111089581568A5108F4805285580895AE
:1059C000FB01DC0102C001900D9241505040D8F71C
:1059D0000895DC0101C06D9341505040E0F70895F7
:1059E000FB01DC010D900020E9F7119701900D9269
:1059F0000020E1F70895FC018191861721F08823AA
:105A0000D9F7992708953197CF010895FB01DC015B
:105A10008D91019080190110D9F3990B0895FB0124
:105A2000DC0101900D920020E1F70895FB01DC01FB
:105A30004150504030F08D910190801919F40020B0
:105A4000B9F7881B990B0895FB01DC0141505040C8
:105A500048F001900D920020C9F701C01D924150FD
:105A60005040E0F70895FC0181E090E001900616B7
:105A700009F4CF010020D1F701970895FB0151915E
:105A80005523A9F0BF01DC014D9145174111E1F704
:105A900059F4CD010190002049F04D91401541117C
:105AA000C9F3FB014111EFCF81E090E00197089528
:105AB000FB019F01E8944230C4F04532B4F44A300F
:105AC00029F497FB1EF4909581959F4F642F7727BB
:105AD0000E94E827805D8A330CF0895D8193CB01B9
